:020000040800F2
:10000000A8810020C1010008D35C0008314A000823
:10001000D15C0008650A00087DE6000800000000C9
:10002000000000000000000000000000E57700086C
:100030009D11000800000000F55E00088F85000893
:10004000DB010008DB010008DB010008296800086B
:10005000DB010008DB010008DB010008DB01000810
:10006000DB0100089D440008DB010008DB010008FB
:10007000DB010008DB010008DB010008DB010008F0
:10008000DB010008DB010008DB010008DB010008E0
:10009000DB010008DB010008DB010008DB010008D0
:1000A000DB010008DB010008DB010008DB010008C0
:1000B000C9860008DB010008DB010008DB0100083D
:1000C000DB010008DB010008DB010008DB010008A0
:1000D000DB010008DB010008DB01000891B7000824
:1000E00081440008DB010008DB010008DB01000897
:1000F000DB010008DB010008DB010008DB01000870
:10010000DB010008DB010008DB010008DB0100085F
:10011000DB010008DB010008DD860008DB010008C8
:10012000DB010008DB010008DB010008DB0100083F
:10013000DB010008DB010008DB010008DB0100082F
:10014000DB010008DB010008DB010008DB0100081F
:10015000DB010008DB010008DB010008DB0100080F
:10016000DB010008DB010008DB010008DB010008FF
:10017000DB010008C95D0008DB010008DB010008A5
:10018000DB010008DB010008DB010008DB010008DF
:10019000DB010008DB010008DB010008DB010008CF
:1001A000DB010008DB010008DB010008DFF80CD0F0
:1001B00000F000FB00480047B11E0108A8810020A4
:1001C0000648804706480047FEE7FEE7FEE7FEE7F1
:1001D000FEE7FEE7FEE7FEE7FEE7FEE76D860008C6
:1001E000AD01000840EA01039B0703D009E008C9FC
:1001F000121F08C0042AFAD203E011F8013B00F8EC
:10020000013B521EF9D27047D2B201E000F8012B37
:10021000491EFBD270470022F6E710B513460A4686
:1002200004461946FFF7F0FF204610BD421E12F8A3
:10023000013F002BFBD111F8013B02F8013B002BE1
:10024000F9D17047034611F8012B00F8012B002A61
:10025000F9D1184670472DE9FE4F81EA030404F0F6
:10026000004421F0004100944FF0000B23F00043C4
:1002700050EA01045ED052EA03045BD0C3F30A548F
:10028000C1F30A552C44A4F2F3340194A0FB0254A8
:10029000C1F3130141F48011C3F3130343F480133A
:1002A00001FB024400FB034E840A970A44EA81548E
:1002B00047EA8357A4FB076802958D0A05FB07856B
:1002C0004FEA932C04FB0C542705029D4FEA065875
:1002D00047EA1637B5EB08056EEB070C870E920E52
:1002E00047EA811742EA8312A7FB0201B6EB0B0132
:1002F00064EB00042B0D43EA0C335E1844EB1C50F6
:10030000DA465146E7FB0201C5F313044FEA0B330B
:1003100043EA14534FEA0432019C43EA0603A4F172
:100320000C040294009CCDE900B400F00DF903B078
:10033000BDE8F08F00200146F9E72DE9F04D81EA94
:10034000030404F0004B21F0004514464FF0000A6E
:1003500023F0004150EA050220D054EA01021DD0EA
:10036000C5F30A570246C5F31303C1F31300C1F3E3
:100370000A5640F4801543F48013A7EB0608101BBF
:10038000D64608F2FD3873EB050002D308F10108E8
:1003900001E092185B41B8F1000F03DA002001463A
:1003A000BDE8F08D00204FF48011064684460EE033
:1003B000171B73EB050705D3121B63EB05030643FD
:1003C0004CEA010C49084FEA300092185B4150EAB0
:1003D0000107EDD152EA030012D082EA040083EA59
:1003E0000501084305D0101BAB4106D201220023B2
:1003F00006E000224FF0004302E06FF001025310CC
:100400001AEB06004CEB085110EB0A0041EB0B0114
:10041000BDE8F04D00F089B80EB540F233410291CD
:100420000021CDE900110A460B4600F08DF803B01B
:1004300000BD00F0004230F000400AD0C10D01F5CF
:100440006071C0F3160042EA0151C208400711432F
:10045000704700200146704701F0004330B421F09E
:10046000004150EA010206D00A0DA2F56072C1F304
:100470001301002A02DC30BC00207047440F44EA1C
:10048000C104C100E01830BC00EBC25000F016B847
:1004900030B50B46014600202022012409E021FA54
:1004A00002F59D4205D303FA02F5491B04FA02F551
:1004B0002844151EA2F10102F1DC30BD0029A8BFBD
:1004C0007047401C490008BF20F00100704710B47D
:1004D000B0FA80FC00FA0CF050EA010404BF10BC32
:1004E000704749B1CCF1200421FA04F411FA0CF15F
:1004F00018BF012121430843A3EB0C01CB1D4FEA98
:1005000000614FEA102042BF002010BC704700EB92
:10051000C35010440029A4BF10BC7047401C4900C0
:1005200008BF20F0010010BC704710B5141E73F115
:10053000000408DA401C41F1000192185B411A43A3
:1005400001D120F0010010BD2DE9F04D92469B46EF
:1005500011B1B1FA81F202E0B0FA80F22032904695
:1005600000F03AF904460F4640EA0A0041EA0B015E
:1005700053465A46084313D0114653EA010019D096
:10058000C8F14002504600F036F905460E46504686
:100590005946424600F020F9084305D0012004E006
:1005A00020463946BDE8F08D0020054346EAE07656
:1005B0002C4337430A986305E40AA0EB08000022A5
:1005C000FD0A44EA47540A3002D500200146E9E713
:1005D000010510196941DDE9084500196941BDE8C7
:1005E000F04DA2E72DE9FE4F804681EA0300C00FDF
:1005F0000C46009021F0004123F00045B8EB0200CA
:10060000A94105D24046214690461C460B4602466B
:1006100023F00040104347D0270DC7F30A00C3F36F
:100620000A510290401A019040286BDAC3F313007C
:1006300040F4801B0098924620B10023D2EB030ABD
:1006400063EB0B0B01985946C0F14002504600F095
:10065000C3F806460D4650465946019A00F0DBF8AD
:1006600010EB08006141002487EA115284EAE77325
:100670001A4340D0009A62B3019A012A4FEA075206
:1006800015DC001B61EB02014FF0004202EA075249
:10069000CDE90042001C41F5801132462B46FFF7A0
:1006A00053FF03B0BDE8F08F40462146F9E7001B39
:1006B00061EB0201001C41F5801300185B4120181A
:1006C000A2F5001747EB030140EAD570B6196D415A
:1006D00011E06D084FEA360645EAC0754FEA075249
:1006E000001B61EB0201001C41F5801149084FEA33
:1006F00030000019514132462B4603B0BDE8F04F9F
:10070000FFF713BF0098012240000023D0EB020244
:1007100063EBE073009821464FEAE074B8EB000009
:1007200061EB0401E9E783F000435BE781F00041FE
:1007300058E770B521F0004303430CD0C1F30A55CC
:100740000024D5EB040564EB0403D617AD1AB341BE
:1007500002DB0020014670BD201841EB025170BD44
:100760000EB5C10F80EAE0700844CA07002140F2CC
:1007700033438DE80E000A460B46FFF7E5FE03B053
:1007800000BD000030B5041E71F1000404DB4FF021
:100790000044404264EB0101141E73F1000405DBC8
:1007A0001C464FF00043524263EB0403994208BFDA
:1007B000904230BD064C074D06E0E06840F0010372
:1007C00094E8070098471034AC42F6D3FFF7F2FCE8
:1007D00050370A0870370A08202A04DB203A00FA4A
:1007E00002F1002070479140C2F1200320FA03F388
:1007F000194390407047202A04DB203A21FA02F086
:100800000021704721FA02F3D040C2F1200291404A
:10081000084319467047202A06DBCB17203A41FAD5
:1008200002F043EAE07306E041FA02F3D040C2F17D
:10083000200291400843194670472DE9F04D0023EE
:100840001A461B1A8A4103DB00200146BDE8F08DE1
:10085000C1F30A52C1F3130141F480154FF0000BAC
:10086000D10702D100186D41521E0027044640F204
:10087000FF11384601EB620A3E46804602460020E0
:100880004FF48011FFF7B7FFC2197141BB1846EB57
:100890000100B4EB030C75EB000C04D3E41A65EB18
:1008A000000517460E46241908F101006D418046E7
:1008B0003428E3DDF91946EB0600091BA84103D2F1
:1008C0004FF0FF32134601E0002213461BEB0700F6
:1008D00046EB0A51BDE8F04DFFF727BE70B58C1806
:1008E00010F8015B15F0070301D110F8013B2A1144
:1008F00006D110F8012B03E010F8016B01F8016B31
:100900005B1EF9D12B0705D40023521E0DD401F82C
:10091000013BFAE710F8013BCB1A921C03E013F8F5
:10092000015B01F8015B521EF9D5A142D8D300202A
:1009300070BD000010B504210D4803F0E4FF012153
:100940000C4803F0E0FF4FF480610B4803F0DBFF3D
:100950004FF40051094803F0D6FF8021084803F006
:10096000D2FF04F0E1FFBDE810400AF0E1BE000054
:100970000010024000000240001C0240000802403B
:10098000000C02404178007841EA002070470000E6
:1009900010B5074C2060084600F00CF820680028CD
:1009A000FCD1BDE8104000214FF0804007F0FFBEB1
:1009B000E80000203EB504464FF08045002128465F
:1009C00007F0F5FE00220121284607F008FF022C5F
:1009D00002D0012C03D005E00B20019002E042F68A
:1009E000DF6001900520ADF800000020ADF80800A0
:1009F000ADF802006946284607F01CFF0121284691
:100A000007F0D2FE0121284607F0BFFE0122114661
:100A1000284607F0E4FE0121284607F0C8FE3EBD47
:100A20002021014803F06FBF001C02402021014833
:100A300003F06BBF001C024009498979002904D0EA
:100A400028B1022909D0FFF7EBBFFFF7E9BF012961
:100A500001D0FFF7E5BFFFF7E9BFFFF7E7BF0000F1
:100A6000480D0020FEE700007CB50121084605F096
:100A70008FFBA020009002208DF8050001248DF846
:100A8000044000258DF806508DF80740084E694651
:100A9000304603F0E3FE8DF804508DF806508DF8D3
:100AA0000740402100916946304603F0D7FE7CBDE7
:100AB0000000024070B5FF22FF23084D05F5807647
:100AC00005E010F8014B54402A5D5A40335D491E41
:100AD00089B2F6D243EA022070BD0000E82801087E
:100AE0002DE9F04F2DED028B81B00024F94890F8EC
:100AF000400000900021084606F07EF821460020C4
:100B000002F064FBF448DFF8D493C17811209FED24
:100B1000F48AF44FDFF8D083DFF8D0B300297DD01A
:100B2000002511208BF80000E1E0284606F0E8F8E7
:100B3000DFF8A4A39AF8010048B143F698200FF01B
:100B4000FEFE9AF8010038B1012834D061E044F685
:100B500020600FF0F4FEF4E7012006F05BFE11F0D8
:100B6000BFFA97ED000ABCEEC00A10EE100AC9F8F1
:100B7000000005F09BFF0BE005F098FF11F0B0FAC4
:100B800097ED000ABCEEC00A10EE100AC9F800008A
:100B9000D74800780028EFD106F03CFE11F0E4FBC6
:100BA00098ED000AD349BCEEC00A10EE100A0860A6
:100BB00005F07CFF2DE0012006F02CFE11F008FB73
:100BC00097ED000ABCEEC00A10EE100AC9F800004A
:100BD00005F06CFF0BE005F069FF11F0F9FA97EDF5
:100BE000000ABCEEC00A10EE100AC9F80000C048A6
:100BF00000780028EFD106F00DFE11F02FFC98EDE3
:100C0000000ABC49BCEEC00A10EE100A086005F0EC
:100C10004DFF98ED000A10EE100A00E072E04FF070
:100C20009641884205DD38EE400AB1EE400A88ED73
:100C3000000A97ED000A10EE100A884205DD38EE32
:100C4000400AB1EE400A87ED000A9AF8010010B19F
:100C500001281AD032E005EB45000AEB800000EBDA
:100C6000840097ED000A00F5806080ED3A0A022CBE
:100C700024D20AEBC50000EB840098ED000A00F5D1
:100C8000806080ED580A264618E005EB45000AEB27
:100C9000800000EB840097ED000A00F5806080ED95
:100CA0006C0A022C0AD20AEBC50000EB840098ED16
:100CB000000A00F5806080ED8A0A2646314620460B
:100CC00005F09AFF2146002002F080FA022C0CD396
:100CD00006208BF8000000242146002005F08CFF40
:100CE0002146002002F072FA01E0641CE4B29BF895
:100CF000000011283FF419AF6D1CEDB20A2DFFF46E
:100D000010AFDCE08BF80000DFF8ECA1D2E0724815
:100D1000407810B101282FD075E0012006F07AFD4F
:100D200011F0DEF997ED000ABCEEC00A10EE100AD1
:100D3000C9F8000005F0BAFE6D4D0BE005F0B6FEF7
:100D400011F0CEF997ED000ABCEEC00A10EE100AC1
:100D5000C9F8000028780028F0D106F05BFD11F0FA
:100D600003FB98ED000A6348BCEEC00A10EE101AAF
:100D7000016005F09BFE46E0012006F04BFD11F0FE
:100D800027FA97ED000ABCEEC00A10EE100AC9F867
:100D9000000005F08BFE564D0FE005F087FE11F0C8
:100DA00017FA97ED000ABCEEC00A10EE100AC9F857
:100DB00000009AF80100012802D028780028ECD120
:100DC000002006F027FD11F049FB98ED000A494983
:100DD000BCEEC00A10EE100A086005F067FE0FE0D6
:100DE00005F064FE11F03AFB98ED000A4149BCEEB3
:100DF000C00A10EE100A08609AF80100012802D01B
:100E000028780028ECD198ED000A4FF0964110EEBA
:100E1000100A884205DD38EE400AB1EE400A88ED3E
:100E2000000A97ED000A10EE100A884205DD38EE40
:100E3000400AB1EE400A87ED000A2749487810B110
:100E4000012810D01EE001EB840097ED000A00F5A8
:100E5000806080EDA10A022C14D298ED000A80ED8A
:100E6000A40A26460EE001EB840097ED000A00F587
:100E7000806080EDA60A022C04D298ED000A80ED75
:100E8000A90A26463146204605F0B6FE2146002036
:100E900002F09CF9022C0BD306208BF800000024F2
:100EA0002146002005F0A8FE2146002002F08EF920
:100EB000641CE4B29BF8000011283FF428AF0549F8
:100EC000009881F8400001B0BDEC028BBDE8F04F06
:100ED00007F02CBB780B0020480D00204C000020B0
:100EE000FFFF7F4B44000020400000203100002025
:100EF0003F00002050000020AC00002010B54FF44F
:100F00000051094803F001FD0121084803F0FDFCF0
:100F10004FF48061064803F0F6FCBDE81040042160
:100F2000044803F0F0BC000000080240000002404A
:100F3000001C02400010024030B587B005462878FA
:100F40004C4C04F8280C687804F8270CA87804F8AE
:100F5000260CE91C684607F0FDFA9DF8000004F82D
:100F6000240C019844F8200C029844F81C0C0398B7
:100F700044F8180C049844F8140C059844F8100C24
:100F8000069844F80C0C687A04F8080C687A04F89F
:100F9000080C05F10A01684607F0DCFA9DF800002C
:100FA00004F8040C01982060029860600398A06027
:100FB0000498E0600598206106986061287C20769E
:100FC000687CA07605F11201684607F0C3FA9DF827
:100FD0000000207701982062029860620398A06266
:100FE0000498E062059820630698606305F1180193
:100FF000684607F0AFFA9DF8000084F838000198C1
:10100000E06302982064039860640498A0640598E3
:10101000E0640698206505F11E01684607F09AFA1B
:101020009DF8000084F854000198A0650298E065DE
:1010300003982066049860660598A0660698E066A6
:1010400005F12401684607F085FA9DF8000084F850
:101050007000019860670298A0670398E0670498A1
:10106000C4F880000598C4F884000698C4F8880085
:1010700007B030BDA00B002010B50121CC052046E3
:1010800005F094F82046BDE81040002105F08EB828
:1010900001460020024A52680A4200D001207047EF
:1010A00000B0024030B500242A4B19682A4A11408A
:1010B00019601968026811431960596B21F0070122
:1010C0005963596B4268114359634168002928D01C
:1010D00001292DD0022930D0032933D0C1680A015B
:1010E00001690902446924038568214315430D43BE
:1010F000996B0D439D638169D963196C6FF30D0181
:101100001964196CC26911431964818C09045A6C01
:1011100002F040425A645A6C006A02430A435A641D
:1011200030BDC1680A02018A0904047D2406DBE798
:10113000C1680A02018A0904D6E7C1684A01016947
:10114000C902D1E7C1684A01016989024469E4031F
:10115000CAE7000000B00240FCE0FCFF0248016862
:1011600041F001010160704700B002400CB5094B2D
:101170001B788DF8063000910749895C8DF80410C2
:1011800005490A31895C8DF80510DDE9001206C0B9
:101190000CBD00002E00002026330108704710B55A
:1011A00090B0044603F0E2F80122214601A801F0C4
:1011B0004DFD9DF804008DF8240002980A900398D4
:1011C0000B9004980C9005980D9006980E90079837
:1011D0000F9009A800F07AF80890089810B010BD98
:1011E00010B590B0044603F0D9F80022214601A8BA
:1011F00001F02CFD9DF804008DF8240002980A905F
:1012000003980B9004980C9005980D9006980E90FA
:1012100007980F9009A800F059F80890089810B0A6
:1012200010BD000070B586B00121022004F0B0FFAF
:101230000121880404F0D6FF224E07220B213046FC
:1012400003F04AFB07220A21304603F045FB002445
:101250008DF8164001208DF8170002258DF81450E6
:10126000810204918DF8155004A9304603F0F6FA76
:101270008DF81450A802049004A9304603F0EEFA49
:101280004FF416500090ADF80440ADF80640ADF8AC
:101290000840ADF80C400C20ADF80A000A4C694635
:1012A00020460AF0CFFA04F015FD012240F2255144
:1012B00020460AF0ACFA012120460AF095FA06B061
:1012C00070BD00000004024000480040416842F246
:1012D0001072914204D941680A22B1FBF2F14160D7
:1012E0004068704738B5002000901D491D4842F203
:1012F00010734EF660242EE09DF8002000EBC20231
:10130000D2F8B4209DF8005001EBC5056D68AA42E3
:101310000CD89DF8002000EBC202D2F8B4209DF852
:10132000005001EBC5056D68AA4210D29DF800205F
:10133000032A06D29DF8002000EBC202C2F8B430A6
:1013400005E09DF8002000EBC202C2F8B4409DF811
:101350000020521C00929DF80020052ACCD338BDF5
:101360007C000020780B00202DE9FC5F0446012C56
:101370000BD000200090744D00984FF47F0948F284
:101380008B6820B1C5F8049003E00120F2E7C5F8AE
:1013900004804FF4A07610237A220421304603F013
:1013A000C5FD6A4F4FF0000A97F8E704012801D9FC
:1013B00087F8E7A497F8E704002300EB400101EB6E
:1013C000C00163480A18042130460DF025FFDFF8FC
:1013D00080B197F8E704ABF10E0BB8B3022001908F
:1013E00030E00198844201D1012000E0002000900B
:1013F000009810B1C5F8049001E0C5F80480019888
:101400001A26801E00EB800006EB800081B21023BC
:101410007A226C2003F08AFD01980023384490F86A
:10142000DB04C0EBC00000EB0B020198801E00EB58
:10143000800006EB800081B26C200DF0EDFE01987B
:10144000401C019001980C28CBD327E0FFE7C5F89A
:101450000480B5234FF4DD722E21002003F066FDD9
:10146000022C06D000200090009820B1C5F804900E
:1014700003E00120F7E7C5F8048010237A221A213F
:101480006C2003F053FD97F8DD040023C0EBC0008F
:1014900000EB0B021A216C200DF0BEFE01F090FB58
:1014A0002C4854266FF07F410C2C29D2DFE804F041
:1014B000060A2A2A2A2A2A2A2A2A2A2ABDE8FC5F78
:1014C00000F004BF2960686097F8C804CDF804A054
:1014D0001F4C12E00198002300EB400101EBC0001B
:1014E00002190198F12100EB800006EB001080B298
:1014F0000DF092FE0198401C019001980228E9D35A
:10150000BDE8FC9F2960686097F8C80410B1104CD2
:101510002C3401E00E4C0E3CCDF804A010E00198F4
:101520000023C0EBC00002190198F12100EB8000FC
:1015300006EB001080B20DF06FFE0198401C019088
:1015400001980228EBD3DBE7C4000020480D0020FF
:101550004C2F0108380031002DE9FC5F0446012CB6
:101560000AD000200090D14D00984FF47F0748F238
:101570008B6918B16F6003E00120F3E7C5F80490B0
:101580004FF4A07810237A220421404603F0CEFCC9
:10159000C74E307B012801D90020307396F8C8046B
:1015A00060B1307B002300EB400101EBC001C1487A
:1015B0000A18042140460DF02FFE0CE0307B00237A
:1015C00000EB400101EBC001BA4816380A180421AB
:1015D00040460DF021FE307BDFF8DCA24FF4B37BF8
:1015E00000287DD0022001904FF01A0842E00198B7
:1015F000844201D1012000E000200090009808B151
:101600006F6001E0C5F804900198801EC0EBC00037
:1016100006EB800081694069C9B20023052203F00E
:1016200009FA01981023801E00EB800008EB80006F
:1016300081B27A226C2003F079FC0198801EC0EB05
:10164000C00006EB8000C06900EB40000AEB4001DF
:101650009A48FEF7EBFD01980023801E00EB800006
:1016600008EB800081B2954A6C200DF0D5FD019801
:10167000401C019001980C28B9D30220019048E049
:1016800001980A30844201D1012000E0002000903E
:10169000009808B16F6001E0C5F804900198801EC1
:1016A000C0EBC00006EB8000D0F83011D0F82C0160
:1016B000C9B20023052203F0BDF901981023801E52
:1016C00000EB800008EB800081B27A22584603F0DC
:1016D0002DFC0198801EC0EBC00006EB800000E0EE
:1016E0001BE0D0F8340100EB40000AEB40017348E6
:1016F000FEF79CFD01980023801E00EB800008EBA4
:10170000800081B26D4A58460DF086FD0198401C5C
:10171000019001980C28B3D359E0C5F80490E32355
:101720004FF4DD722E21002003F000FC022C05D0C6
:1017300000200090009818B16F6003E00120F8E7E6
:10174000C5F80490B069C1B270690023052203F0A6
:1017500071F910237A221A216C2003F0E7FBF0695B
:1017600000EB40000AEB40015448FEF75FFD002308
:10177000524A1A216C200DF04FFD032C05D0002099
:101780000090009818B16F6003E00120F8E7C5F8F9
:101790000490D6F83001C1B2D6F82C0100230522FE
:1017A00003F048F910237A221A21584603F0BEFBB1
:1017B000D6F8340100EB40000AEB40013F48FEF749
:1017C00035FD00233D4A1A2158460DF025FD01F054
:1017D000F7F93B496FF07F40162C31D2DFE804F077
:1017E0000B104E4E4E4E4E4E4E4E4E4E4E4E4E4E9A
:1017F0004E4E4E4E4E4EBDE8FC5F002000F02CBF1A
:101800002860696096F8C8045424D8B1002001907B
:10181000284D12E00198002300EB400101EBC000CD
:1018200042190198F12100EB800004EB001080B216
:101830000DF0F2FC0198401C019001980228E9D3B8
:10184000BDE8FC9F002001901A4D163D12E0019862
:10185000002300EB400101EBC00042190198F12187
:1018600000EB800004EB001080B20DF0D5FC019875
:10187000401C019001980228E9D3E1E728606960E3
:1018800096F8C80440B102B00023BDE8F05FF12132
:101890000CA254200DF0C0BC02B00023BDE8F05FE4
:1018A000F1210AA254200DF0B7BC0000C4000020B2
:1018B000480D0020622F010866300108A81400209E
:1018C00038003100494E505554000000CAE4C8EBBE
:1018D000000000002DE9FC5F0446012C0AD0002026
:1018E0000090C54D00984FF47F0748F28B6918B1FE
:1018F0006F6003E00120F3E7C5F804904FF4A0788F
:10190000102384220421404603F010FBBB4E4FF00D
:10191000000B96F84002012801D986F840B296F8EB
:10192000C80460B1307B002300EB400101EBC00133
:10193000B3480A18042140460DF06EFC0DE096F8FD
:101940004002002300EB400101EBC001AC48163817
:101950000A18042140460DF05FFC96F840024FF44F
:10196000B37A00287DD0022001904FF01A083AE0A7
:101970000198844201D1012000E0002000900098ED
:1019800008B16F6001E0C5F804900198801EC0EBBB
:10199000C00006EB8000D0F84C12D0F84802C9B263
:1019A0000023062203F046F801981023801E00EB66
:1019B000800008EB800081B284226C2003F0B6FA2C
:1019C00090A19148FEF732FC01980023801E00EBA5
:1019D000800008EB800081B28B4A6C200DF01CFC6B
:1019E0000198401C019001980C28C1D3022001905D
:1019F0003DE001980A30844201D1012000E000203E
:101A00000090009808B16F6001E0C5F8049001985B
:101A1000801EC0EBC00006EB8000D0F86413D0F845
:101A20006003C9B20023062203F004F801981023D2
:101A3000801E00EB800008EB800081B284225046BB
:101A400003F074FA6FA17048FEF7F0FB01986E4A3C
:101A5000801E00EB800008EB800081B2002350461E
:101A600000E008E00DF0D8FB0198401C01900198BF
:101A70000C28BED352E0C5F80490E3234FF4DD7286
:101A80002E21002003F052FA022C05D000200090F5
:101A9000009818B16F6003E00120F8E7C5F80490E2
:101AA000D6F84C02C1B2D6F848020023062202F052
:101AB000C1FF102384221A216C2003F037FA51A1B0
:101AC0005148FEF7B3FB00234F4A1A216C200DF05A
:101AD000A3FB032C05D000200090009818B16F6084
:101AE00003E00120F8E7C5F80490D6F86403C1B21A
:101AF000D6F860030023062202F09CFF1023842204
:101B00001A21504603F012FA3EA13F48FEF78EFB21
:101B100000233D4A1A2150460DF07EFB01F050F89B
:101B20003A496FF07F40162C31D2DFE804F00B10F9
:101B30004E4E4E4E4E4E4E4E4E4E4E4E4E4E4E4EC5
:101B40004E4E4E4EBDE8FC5F002000F0A5BE286062
:101B5000696096F8C8045424D8B1CDF804B0284D73
:101B600012E00198002300EB400101EBC000421994
:101B70000198F12100EB800004EB001080B20DF021
:101B80004BFB0198401C019001980228E9D3BDE865
:101B9000FC9FCDF804B01A4D163D12E001980023C9
:101BA00000EB400101EBC00042190198F12100EB6C
:101BB000800004EB001080B20DF02EFB0198401C59
:101BC000019001980228E9D3E1E72860696096F85E
:101BD000C80440B102B00023BDE8F05FF1210CA2BF
:101BE00054200DF019BB02B00023BDE8F05FF121D5
:101BF00009A254200DF010BBC4000020480D0020A5
:101C0000622F010856000000A8140020380031009F
:101C1000494E505554000000CAE4C8EB00000000D3
:101C20002DE9FC470546012D0AD0002000904FF415
:101C30007F0648F28B68FE4C009818B1666003E09E
:101C40000120F3E7C4F80480FA4F97F8C80410B1F4
:101C5000DFF8E49303E0DFF8E093A9F11C09102317
:101C600068221A21582003F061F938780023C0EB6C
:101C7000C00000EB09021A2158200DF0CDFA022D08
:101C800005D000200090009818B1666003E00120A4
:101C9000F8E7C4F8048097F8C80420B1DFF89893F7
:101CA00009F1380903E0DFF8909309F11C091023CA
:101CB00068222E21582003F039F978780023C0EBF0
:101CC000C00000EB09022E2158200DF0A5FA032DCB
:101CD00005D000200090009818B1666003E0012054
:101CE000F8E7C4F8048097F8C80420B1DFF84893F7
:101CF00009F18E0903E0DFF8409309F1540910233C
:101D000068224221582003F011F9B8780023C0EB73
:101D1000C00000EB0902422158200DF07DFA042D8D
:101D200005D000200090009818B1666003E0012003
:101D3000F8E7C4F8048097F8C80420B1DFF8F892F7
:101D400009F19C0903E0DFF8F09209F1AA091023D8
:101D500068225621582003F0E9F8F8780023C0EBF8
:101D6000C00000EB0902562158200DF055FA052D50
:101D700005D000200090009818B1666003E00120B3
:101D8000F8E7C4F8048097F8C80410B1DFF8AC9203
:101D900003E0DFF8A892A9F14D094FF4A97A1023C6
:101DA00068221A21504603F0C1F87879A0B1387939
:101DB0000023401C00EB400101EBC00000EB0902D6
:101DC0001A2150460DF028FA062D0CD00020009064
:101DD000009850B166600AE000234A461A21504636
:101DE0000DF01AFAF0E70120F1E7C4F8048097F843
:101DF000C80420B1DFF84492A9F1620903E0DFF8DA
:101E00003C92A9F17709102368222E21504603F055
:101E10008DF8B8790023C0EBC00000EB09022E2139
:101E200050460DF0F9F9072D05D0002000900098DC
:101E300018B1666003E00120F8E7C4F8048097F861
:101E4000C80420B1DFF8F09109F18E0903E0DFF852
:101E5000E89109F15409102368224221504603F009
:101E600065F8F8790023C0EBC00000EB09024221BD
:101E700050460DF0D1F9082D05D0002000900098B3
:101E800018B1666003E00120F8E7C4F8048097F811
:101E9000C80410B1684E8E3601E0674E54361023E8
:101EA00068225621504603F041F8387A0023C0EBEF
:101EB000C0008219562150460DF0AEF900F080FEA8
:101EC00000205F4A54266FF07F41092D29D2DFE8B8
:101ED00005F005092A4B6CD9FBB98D00BDE8FC471C
:101EE00000F018B92160626097F8C81409B1524C2B
:101EF00001E0514C1C3C019010E001980023C0EB24
:101F0000C00002190198F12100EB800006EB0010DF
:101F100080B20DF081F90198401C019001980428CD
:101F2000EBD3BDE8FC872160626097F8C81411B15B
:101F3000414C383401E0404C1C34019010E00198D1
:101F40000023C0EBC00002190198F12100EB8000D2
:101F500006EB001080B20DF05FF90198401C019073
:101F600001980228EBD3DCE72160626097F8C8147F
:101F700011B1314C8E3401E02F4C5434019010E0FB
:101F800001980023C0EBC00002190198F12100EB79
:101F9000800006EB001080B20DF03EF90198401C65
:101FA000019001980228EBD3BBE72160626097F8AB
:101FB000C81411B1214C933C01E0204C853C0190A8
:101FC00010E001980023C0EBC00002190198F12134
:101FD00000EB800006EB001080B20DF01DF90198B7
:101FE000401C019001980228EBD39AE721606260BF
:101FF00097F8C81411B1104C8E3401E00E4C5434D3
:10200000019010E001980023C0EBC0000219019874
:10201000F12100EB800006EB001080B20DF0FCF81F
:102020000198401C019001980228EBD379E7000049
:10203000C4000020480D0020EA2E010819300108D4
:10204000380031002160626097F8C81409B12F4C44
:1020500001E02E4C3A3C019010E001980023C0EBC7
:10206000C00002190198F12100EB800006EB00107E
:1020700080B20DF0D1F80198401C0190019802281F
:10208000EBD34EE72160626097F8C81409B1204C89
:1020900000E01F4C019012E00198002300EB40018A
:1020A00001EBC00002190198F12100EB800006EB62
:1020B000001080B20DF0B0F80198401C019001981A
:1020C0000428E9D32DE7FFE72160626097F8C81480
:1020D00011B10E4C3F3401E00C4C2A34019010E059
:1020E00001980023C0EBC00002190198F12100EB18
:1020F000800006EB001080B20DF08EF80198401CB5
:10210000019001980328EBD30BE70000782F01081A
:102110007830010870B500F053FD45486FF07F41FD
:10212000016044494160444890F8C8144FF4A275D6
:102130004FF4CA7400293DD0002340A2E721542067
:102140000DF06AF800233FA2FB2154200DF064F843
:1021500000233EA2E721A4200DF05EF800233CA25C
:10216000FB21A4200DF058F800233BA2E721F42026
:102170000DF052F8002336A2FB21F4200DF04CF8AC
:10218000002337A2E72128460DF046F8002336A2A7
:10219000FB2128460DF040F8002335A2E721204618
:1021A0000DF03AF82046BDE87040002331A2FB2133
:1021B0000DF032B8002331A2E72154200DF02CF8A5
:1021C000002330A2FB2154200DF026F800232FA27B
:1021D000E721A4200DF020F800232EA2FB21A4204B
:1021E0000DF01AF800232DA2E721F4200DF014F8C9
:1021F000002328A2FB21F4200DF00EF8002329A2D1
:10220000E72128460DF008F8002328A2FB212846E4
:102210000DF002F8002327A2E72120460CF0FCFF76
:102220002046BDE87040002324A2FB210CF0F4BF3F
:10223000C400002038003100480D00204D454153B6
:102240000000000044495350000000005245530074
:10225000434F4D500000000020564F4C000000003E
:102260004348414E4E00000053454C4C00000000D6
:1022700053595300534554555000000020B2E2C159
:10228000BF00000020CFD4CABE00000020B5E7D7B1
:10229000E800000020B1C8BDCF00000020B5E7D1A4
:1022A000B900000020CDA8B5C000000020D1A1D405
:1022B000F100000020CFB5CDB300000020C9E8D662
:1022C000C3000000002000F0D9B8000070B500F095
:1022D00077FC45486FF07F410160444941604448C4
:1022E00090F8C8144FF4A2754FF4CA7400293DD079
:1022F000002340A2E72154200CF08EFF00233FA2D0
:10230000FB2154200CF088FF00233EA2E721A420EB
:102310000CF082FF00233CA2FB21A4200CF07CFFE8
:1023200000233BA2E721F4200CF076FF002336A225
:10233000FB21F4200CF070FF002337A2E721284690
:102340000CF06AFF002336A2FB2128460CF064FF44
:10235000002335A2E72120460CF05EFF2046BDE8B1
:102360007040002331A2FB210CF056BF002331A2A4
:10237000E72154200CF050FF002330A2FB21542011
:102380000CF04AFF00232FA2E721A4200CF044FF09
:1023900000232EA2FB21A4200CF03EFF00232DA23F
:1023A000E721F4200CF038FF00232CA2FB21F420BD
:1023B0000CF032FF00232BA2E72128460CF02CFF63
:1023C00000232AA2FB2128460CF026FF002325A289
:1023D000E72120460CF020FF2046BDE87040002396
:1023E00024A2FB210CF018BFC400002038003100EB
:1023F000480D00204D454153000000004449535012
:102400000000000052455300434F4D5000000000B3
:1024100020564F4C000000004348414E4E00000043
:1024200053454C4C0000000053595300534554553C
:102430005000000020B2E2C1BF00000020CFD4CA8B
:10244000BE00000020B5E7D7E800000020B1C8BDFD
:10245000CF00000020B5E7D1B900000020D1A1D401
:10246000F100000020CFB5CDB300000020C9E8D6B0
:10247000C300000020D0C5CFA200000010B5044664
:1024800000F09EFB504851496FF07F425CB3012C35
:102490007ED10260416000234DA2E72154200CF060
:1024A000BBFE00234CA2FB2154200CF0B5FE002300
:1024B0004BA2E721A4200CF0AFFE00234AA2FB218F
:1024C000A4200CF0A9FE4FF4CA74002348A2E7210F
:1024D00020460CF0A1FE20460023BDE8104046A295
:1024E000FB210CF099BE02604160454890F8C81489
:1024F0004FF4A274002931D0002342A2E7215420D6
:102500000CF08AFE002341A2FB2154200CF084FE33
:1025100000233CA2E721A4200CF07EFE00233DA274
:10252000FB21A4200CF078FE00233CA2E721F4203C
:102530000CF072FE002337A2FB21F4200CF06CFE9D
:10254000002338A2E72120460CF066FE2046002337
:10255000BDE8104034A2FB210CF05EBE002334A283
:10256000E72154200CF058FE002333A2FB21542015
:102570000CF052FE00232EA2E721A4200CF04CFE0A
:1025800000232FA2FB21A4200CF046FE002300E034
:1025900018E02DA2E721F4200CF03EFE002328A233
:1025A000FB21F4200CF038FE002327A2E72120466F
:1025B0000CF032FE20460023BDE8104024A2FB218F
:1025C0000CF02ABE10BD0000C4000020380031000D
:1025D000CEC4BCFE00000000B9DCC0ED000000006D
:1025E000B1A3B4E600000000CAFDBEDD000000009B
:1025F000B8FCB6E00000000020322F3200000000DE
:10260000480D00204D4541530000000044495350FF
:10261000000000005345545550000000205359530A
:102620000000000053595300494E464F000000007F
:10263000B2E2C1BF00000000CFD4CABE000000005B
:10264000C9E8D6C300000000CFB5CDB3000000003C
:10265000D0C5CFA20000000070B5054600F0B0FA6A
:102660005C485D4A6FF07F414FF4CA744DB3012D51
:102670007ED101604260002358A2E72154200CF073
:10268000CBFD002357A2FB2154200CF0C5FD0023F5
:1026900056A2E721A4200CF0BFFD002355A2FB2188
:1026A000A4200CF0B9FD002354A2E72120460CF031
:1026B000B3FD2046BDE87040002352A2FB210CF080
:1026C000ABBD01604260514890F8C8044FF4A27558
:1026D00000283DD000234EA2E72154200CF09CFDA1
:1026E00000234DA2FB2154200CF096FD00234CA2A8
:1026F000E721A4200CF090FD00234AA2FB21A42096
:102700000CF08AFD002349A2E721F4200CF084FD9F
:10271000002348A2FB21F4200CF07EFD002347A2F9
:10272000E72128460CF078FD002345A2FB2128462E
:102730000CF072FD002341A2E72120460CF06CFD55
:102740002046BDE8704000233FA2FB210CF064BD91
:1027500000233FA2E72154200CF05EFD00233EA29F
:10276000FB2154200CF058FD00233DA2E72100E09E
:102770002EE0A4200CF050FD00233BA2FB21A4205E
:102780000CF04AFD00233AA2E721F4200CF044FDAE
:10279000002339A2FB21F4200CF03EFD002338A2D7
:1027A000E72128460CF038FD002337A2FB212846FC
:1027B0000CF032FD002332A2E72120460CF02CFD64
:1027C0002046BDE87040002331A2FB210CF024BD5F
:1027D00070BD0000C400002038003100CEC4BCFE33
:1027E00000000000B9DCC0ED00000000B1A3B4E6B9
:1027F00000000000CAFDBEDD00000000B8FCB6E02D
:102800000000000020322F3200000000480D0020A0
:102810004D45415300000000444953500000000062
:10282000564F4C00434F4D50000000004348414E6E
:102830000000000053454C4C450000005359530024
:102840005345545550000000494E464F00000000CB
:10285000B2E2C1BF00000000CFD4CABE0000000039
:10286000B5E7D1B900000000B1C8BDCF000000003D
:10287000CDA8B5C000000000D1A1D4F10000000037
:10288000CFB5CDB300000000C9E8D6C300000000FA
:10289000D0C5CFA20000000070B5054600F090F949
:1028A0005C485D4A6FF07F414FF4CA744DB3012D0F
:1028B0007ED101604260002358A2E72154200CF031
:1028C000ABFC002357A2FB2154200CF0A5FC0023F5
:1028D00056A2E721A4200CF09FFC002355A2FB2167
:1028E000A4200CF099FC002354A2E72120460CF010
:1028F00093FC2046BDE87040002352A2FB210CF05F
:102900008BBC01604260514890F8C8044FF4A27536
:1029100000283DD000234EA2E72154200CF07CFC7F
:1029200000234DA2FB2154200CF076FC00234CA286
:10293000E721A4200CF070FC00234AA2FB21A42074
:102940000CF06AFC002349A2E721F4200CF064FC9F
:10295000002348A2FB21F4200CF05EFC002347A2D8
:10296000E72128460CF058FC002345A2FB2128460D
:102970000CF052FC002341A2E72120460CF04CFC55
:102980002046BDE8704000233FA2FB210CF044BC70
:1029900000233FA2E72154200CF03EFC00233EA27E
:1029A000FB2154200CF038FC00233DA2E72100E07D
:1029B0002EE0A4200CF030FC00233BA2FB21A4203D
:1029C0000CF02AFC00233AA2E721F4200CF024FCAE
:1029D000002339A2FB21F4200CF01EFC002338A2B6
:1029E000E72128460CF018FC002337A2FB212846DB
:1029F0000CF012FC002332A2E72120460CF00CFC64
:102A00002046BDE87040002331A2FB210CF004BC3D
:102A100070BD0000C400002038003100CEC4BCFEF0
:102A200000000000B9DCC0ED00000000B1A3B4E676
:102A300000000000CAFDBEDD00000000B8FCB6E0EA
:102A40000000000020322F3200000000480D00205E
:102A50004D45415300000000444953500000000020
:102A600052455300434F4D50000000004348414E33
:102A70000000000053454C4C4500000053595300E2
:102A80005345545550000000494E464F0000000089
:102A9000B2E2C1BF00000000CFD4CABE00000000F7
:102AA000B5E7D7E800000000B1C8BDCF00000000C6
:102AB000CDA8B5C000000000D1A1D4F100000000F5
:102AC000CFB5CDB300000000C9E8D6C300000000B8
:102AD000D0C5CFA2000000000FB410B59DF80800CB
:102AE000002812D09DF80800032807D99DF810107F
:102AF00000230622039801F09DFF06E09DF81810C0
:102B000000230722059801F095FF9DF808001A217F
:102B100010BC00EBC00001EB40010123034A4FF45D
:102B2000A0705DF814EB0CF077BB0000A814002037
:102B300071B581B0002000901D4C48F28B6531E0EA
:102B40009DF804100098401C814203D14FF47F018E
:102B5000616000E0656000EBC0001A2606EB4000F3
:102B600081B212235A22A02002F0E0F91148009904
:102B7000415C1148009A00EBC200D0F8B400002379
:102B8000062201F057FF00980123401C00EBC00013
:102B900006EB400081B2094AA0200CF03DFB0098F2
:102BA000401C009000980528CAD365607CBD0000D9
:102BB000C400002060000020780B0020A814002032
:102BC0002DE9F05F0024DFF878801E4EDFF878A052
:102BD00000274FF04C094FF0010BC6F8048004EBBE
:102BE0004401A00001EB041100EB810080B22C2312
:102BF0004C22E42102F09AF9C6F804A004EB840503
:102C00000BEB051080B201234C22E32102F08EF978
:102C100009EB051080B22D230122E32102F086F991
:102C200077604D2000EB051080B22D230322E321B5
:102C300002F07CF9641C062CCFD3BDE8F09F0000A5
:102C400038003100C4000020684369002DE9F04FCE
:102C500093B080460E46012012900C9000270B97EF
:102C60000A970997089703970297049702970D9779
:102C70004FF0200A0FAD07E09DF8340005F800A0E2
:102C80009DF83400401C0D909DF834000728F3D3C4
:102C90008DF843700AB1072400E00624DFF8A4B3DE
:102CA0004FF02E0957E1022002F034F80E909DF803
:102CB0003800002846D001210C919DF838001228D8
:102CC000F8D00CDC12283DD2DFE800F03C3C3C6040
:102CD000D0C3B63C3C3C3C5AA99C8F3C3C3D1A2896
:102CE000E8D009DCA0F113000728ECD2DFE800F0FF
:102CF0002A6E61542A2A0E001E2874D022DC1B285A
:102D0000D8D01C2870D01D281CD1C9E00497129778
:102D10009DF82000A04214D29DF82C0088B99DF89F
:102D2000200050B19DF8200005F800909DF820008B
:102D30000A909DF82000401C08909DF82C00401C33
:102D40000B900591EEE0049112979DF82000A042AF
:102D500014D29DF82C0088B99DF8200050B19DF840
:102D6000200005F800909DF820000A909DF82000B2
:102D7000401C08909DF82C00401C0B900591D1E060
:102D800006208BF8000012970597CBE01297059765
:102D900012208BF80000C5E09DF82000A04207D269
:102DA0009DF82010312068549DF82000401C0890A8
:102DB000B8E09DF82000A04207D29DF820103220F4
:102DC00068549DF82000401C0890ABE09DF820005E
:102DD000A04207D29DF82010332068549DF82000AF
:102DE000401C08909EE04EE077E09DF82000A04255
:102DF00007D29DF82010342068549DF82000401C14
:102E000008908FE09DF82000A04207D29DF8201086
:102E1000352068549DF82000401C089082E09DF801
:102E20002000A0427ED29DF82010362068549DF8E4
:102E30002000401C089075E09DF82000A04271D24F
:102E40009DF82010372068549DF82000401C089001
:102E500068E09DF82000A04264D29DF82010382040
:102E600068549DF82000401C08905BE09DF820000D
:102E7000A04257D29DF82010392068549DF82000B8
:102E8000401C08904EE09DF82000A0424AD29DF8D8
:102E90002010302068549DF82000401C089041E02C
:102EA0009DF82000A0423DD29DF8200040B39DF83F
:102EB0002C0028BB9DF8200050B19DF8200005F89B
:102EC00000909DF820000A909DF82000401C08907A
:102ED0009DF82C00401C0B9024E09DF8200080B150
:102EE0009DF82000401E08909DF8200005F800A0E5
:102EF0009DF828009DF82010884213D10B970A975F
:102F000010E09DF82000285C78B39DF82000285C34
:102F10002D2830D09DF820102D2068549DF82000D9
:102F2000401C08909DF83000A8B10C9746486FF0FF
:102F30007F4101604FF47F014160B088718810309B
:102F400082B23088102301F0F1FF718830880023AD
:102F50000FAA0CF061F99DF8480000287FF4A3AE99
:102F60009DF820000D90302011E0FFE79DF8201023
:102F70002D206854D2E79DF820102B206854CDE70F
:102F80009DF8341068549DF83410491C0D919DF83B
:102F90003410A142F4D30D9734E09DF83C00302862
:102FA0002CD39DF83C00392828D89DF83400285CA3
:102FB000302823D39DF83400285C39281ED89DF88A
:102FC00028009DF8341088420CD9029800EB80004C
:102FD0004000029002989DF83410695C0844303833
:102FE00002900BE0029800EB8000400002900298F3
:102FF0009DF83410695C0844303802909DF8340024
:10300000401C0D909DF83400A042C6D39DF82800C6
:1030100003909DF8040088F800000298C8F80400A6
:103020000398C8F808000498C8F80C000598C8F878
:1030300010000698C8F814000798C8F8180013B0D4
:10304000BDE8F08F31000020C4000020F8B52E4EFE
:10305000756848F28B6070602C4C607803281BD038
:10306000607860B101232AA26C2130200CF024F991
:10307000012327A2A32130200CF01EF918E0002321
:1030800023A25C2120200CF017F9002320A2932119
:1030900020200CF011F90BE000231DA27C21402020
:1030A0000CF0BAF800231AA2B32140200CF0B4F8B7
:1030B0001A21002319A208010CF0AEF8002317A270
:1030C0001A21E6200CF0A8F8FDF718FF0020FDF704
:1030D000B3FCFDF7A5FC16233C22B4214FF4C870C5
:1030E00001F024FF0F480090372328225C214FF481
:1030F000967002F0A9FA756094F841000A490978BF
:10310000BDE8F84000F062B8C4000020780B002051
:103110002D2D2D2D2D2D2D2D0000000020202020C7
:10312000202000009E6807083300002008B51349DE
:103130006FF07F400860124841794FF49670002983
:103140000BD0012911D0022906D10E490091372355
:1031500028225C2102F078FA08BD0B490091372340
:1031600028225C2102F070FA08BD0849009137233B
:1031700028225C2102F068FA08BD0000C40000208B
:103180006C0000209E680708D76B07083671070897
:1031900018B50B496FF07F4008600A484FF4AA74D5
:1031A0000090372328225C21204602F04DFA064980
:1031B0000091372328229321204602F045FA18BDBA
:1031C000C4000020106F070895760708012800D971
:1031D0000120062900D906210A4B48F28B625A6069
:1031E000C0EBC000084A00EB400002EB800001EB9E
:1031F000410100EB81020023D22140F29F100CF02C
:103200000BB80000C40000205432010830B595B05E
:1032100004460D4601F0AAF8012229466846FFF748
:1032200015FD9DF800008DF8380001980F90029868
:103230001090039811900498129005981390069896
:1032400014900EA9684601F05DFC9DF800008DF811
:103250001C00019808900298099003980A9004981D
:103260000B9005980C9006980D900B9818B90020BB
:10327000099008900A909DF81C00207008986060E2
:103280000998A0600A98E0600B9820610C98606132
:103290000D98A06115B030BD30B595B004460D460F
:1032A00001F07CF8002229466846FFF7CFFC9DF824
:1032B00000008DF8380001980F9002981090039844
:1032C00011900498129005981390069814900EA9E6
:1032D000684608F013F99DF800008DF81C0001986D
:1032E00008900298099003980A9004980B9005980A
:1032F0000C9006980D900B9818B900200990089032
:103300000A909DF81C002070089860600998A060E1
:103310000A98E0600B9820610C9860610D98A0619C
:1033200015B030BD2DE9F0470024DFF88880224F2A
:103330001A264FF4947908EB040090F8DD0498B154
:103340004FF47F40386004EB840006EB80010D46AB
:1033500000231AA21E200BF05FFF294600231AA2A9
:1033600048460BF059FF1EE01848386004EB840013
:1033700006EB8005002316A229461E200BF04CFF09
:103380002946002310A248460BF046FF2946002399
:1033900012A26E200BF040FF294600230FA24FF42B
:1033A000A3700BF039FF641CE4B20A2CC3D3BDE850
:1033B000F0870000480D0020C40000204F50454E0B
:1033C0002020523A00000000563A0000C0C0C00061
:1033D000434C4F534520523A000000002D2D2D2D17
:1033E0002D2D2D2D2D2D2D2D2D2D2D0070B500F0D9
:1033F000A1F81E4C6FF07F4525601D4860601D4E92
:1034000096F8C80408B11C4A01E01B4AF23A0023AE
:10341000DC32042118460BF0FFFE256048F28B6079
:10342000606096F8C80408B1144D01E0134D543D96
:1034300000241A26C4EBC40000EB4000421904EB40
:10344000840006EB800081B2002318460BF0E4FEF6
:10345000641C042CEED30023094A562152200BF0A1
:10346000DBFEBDE87040FEF72DBF0000C400002069
:103470000352F300480D0020502C010800320108CF
:10348000C013002070B500241825601C00EB8000DC
:1034900005EB800081B2012364225A2001F046FD31
:1034A000641C072CF1D370BD2DE9F04100F042F807
:1034B0001B4E6FF07F4737601A4870601A4C94F8C3
:1034C000C80408B1194A01E0184AF23A0023B032A0
:1034D000042118460BF0A0FE376048F28B60706044
:1034E00094F8C80408B1124D01E0114D583D002474
:1034F0004FF01A0804EB440000EBC400421904EB3F
:10350000840008EB800081B2002318460BF084FE93
:10351000641C082CEED37760BDE8F041FFF7B2BF22
:10352000C40000200352F300480D0020502C010875
:10353000FC30010810B500F093FEBDE81040FFF725
:103540003FBB00002DE9FF5F044600278DF80770A0
:10355000012C0AD000200290FA4D02984FF47F0609
:1035600048F28B6B18B16E6003E00120F3E7C5F8F9
:1035700004B0DFF8D48398F8C80410B1DFF8CC9316
:1035800003E0DFF8C893A9F13A09102366221A2153
:103590005A2001F0CBFC98F8C4040023C0EBC00013
:1035A00000EB09021C215A200BF036FE022C05D03C
:1035B00000200290029818B16E6003E00120F8E745
:1035C000C5F804B0102366222E215A2001F0AEFC6B
:1035D00098F8C504DFF87893C0EBC00000EB09024F
:1035E000002330215A200BF017FE032C05D00020B9
:1035F0000290029818B16E6003E00120F8E7C5F868
:1036000004B098F8C80410B1DFF840A303E0DFF875
:103610003CA3AAF13A0A1023662242215A2001F063
:1036200085FC98F8C6040023C0EBC00000EB0A023A
:1036300044215A200BF0F0FD042C05D0002002900C
:10364000029818B16E6003E00120F8E7C5F804B0F5
:1036500098F8C80410B1DFF8F4A203E0DFF8ECA298
:10366000AAF13A0A1023662256215A2001F05EFC84
:1036700098F8C7040023C0EBC00000EB0A025821F1
:103680005A200BF0C9FD052C05D0002002900298AD
:1036900018B16E6003E00120F8E7C5F804B010230C
:1036A00066226A215A2001F041FC98F8C804DFF82C
:1036B000A0A200230AF1380A0AEBC0026C215A20AA
:1036C0000BF0AAFD01A9002002F022FF69460020AC
:1036D00002F0ECFE062C05D000200290029818B1F2
:1036E0006E6003E00120F8E7C5F804B01023122251
:1036F0007E215A2001F01AFC9DF8032095A19648DE
:103700000BF02CFE0023944A80215A200BF084FDFC
:10371000C5F804B0002391A280216E200BF07CFD3F
:10372000072C05D000200290029818B16E6003E0CB
:103730000120F8E7C5F804B0102312227E2178207A
:1037400001F0F4FB9DF8012082A183480BF006FEF6
:103750000023814A802178200BF05EFDC5F804B07B
:1037600000237EA280218C200BF056FD082C05D072
:1037700000200290029818B16E6003E00120F8E783
:10378000C5F804B0102312227E21982001F0CEFB50
:103790009DF802206FA170480BF0E0FD00236E4AF7
:1037A000802198200BF038FD092C05D000200290D4
:1037B000029818B16E6003E00120F8E7C5F804B084
:1037C0001023122292215A2001F0B0FB9DF8042010
:1037D00060A161480BF0C2FD00235F4A94215A208A
:1037E0000BF01AFDC5F804B000235DA294216E20F1
:1037F0000BF012FD0A2C05D000200290029818B19F
:103800006E6003E00120F8E7C5F804B0102312222F
:103810009221782001F08AFB9DF805204DA14E48A9
:103820000BF09CFD00234C4A942178200BF0F4FC13
:10383000C5F804B000234AA294218C200BF0ECFCC4
:103840000B2C05D000200290029818B16E6003E0A6
:103850000120F8E7C5F804B0102312229221982025
:1038600001F064FB9DF806203AA13B480BF076FD81
:103870000023394A942198200BF0CEFC0C2C05D063
:1038800000200290029818B16E6003E00120F8E772
:10389000C5F804B010236622A6215A2001F046FB89
:1038A0000023304AA8215A200BF0B6FCFFF788F914
:1038B0006FF07F4028602C48686054250C2C09D29A
:1038C000DFE804F0060A28547290A5A5A5A5A5A5D1
:1038D000FEF7F8FCBDE8FF9F98F8C80408B11B4C40
:1038E00001E01A4C3A3C039710E003980023C0EB28
:1038F000C00002190398F12100EB800005EB0010D5
:1039000080B20BF089FC0398401C039003980228B6
:10391000EBD3DFE7039711E003980023C0EBC0006F
:1039200000EB09020398F12100EB800005EB001089
:1039300080B20BF071FC0398401C0390039805289B
:10394000EAD3C7E7C4000020480D0020782F010803
:103950005431010825326400A81400202D00000015
:103960003A000000111200203800310098F8C80415
:1039700008B1324C01E0314C3A3C039710E0039817
:103980000023C0EBC00002190398F12100EB800076
:1039900005EB001080B20BF03FFC0398401C039035
:1039A00003980228EBD395E798F8C80408B1234C94
:1039B00001E0224C3A3C039710E003980023C0EB4F
:1039C000C00002190398F12100EB800005EB001004
:1039D00080B20BF021FC0398401C0390039802284E
:1039E000EBD377E703970EE0039800230AEBC002BE
:1039F00000EB800005EB001080B2F1210BF00CFC15
:103A00000398401C039003980228EDD362E70397C4
:103A10000B4C0EE00398002304EBC00200EB800087
:103A200005EB001080B2F1210BF0F6FB0398401C6F
:103A3000039003980228EDD34CE70000782F01088B
:103A40009C31010810B500F00BFCBDE81040FFF7F9
:103A5000B7B810B500F004FCBDE81040FFF7B0B8EF
:103A600070B5FFF7EFFF194C6FF07F4525601848E0
:103A70006060184E96F8C80408B1174A01E0164A6B
:103A8000F23A0023042118460BF0C6FB256048F2E9
:103A90008B606060F07898B10024104D1A2604EB1A
:103AA0004400421904EB840006EB800081B200233D
:103AB00002200BF0B1FB641C0A2CF0D3FFF732FCA0
:103AC000BDE870400020FEF7D9BC0000C400002013
:103AD0000352F300480D0020502C0108FC3201086D
:103AE0002DE9F047FFF7B5FF414C6FF07F452560AA
:103AF00040486060404E96F8C80408B13F4A01E073
:103B00003E4AF23A00231632042118460BF084FB99
:103B1000256048F28B60606096F8C804307B384AB4
:103B20004FF482791A2770B30024904604EB4400C6
:103B300000EB080204EB840007EB8005A9B2002328
:103B400002200BF069FB96F8C80460B1A9B200230B
:103B50002CA220200BF060FBA9B200232BA2484628
:103B60000BF05AFB0BE0A9B200232AA248460BF047
:103B700053FBA9B200232AA220200BF04DFB641CAA
:103B80000A2CD3D321E0FFE73946002302200BF0B3
:103B900043FB96F8C80460B100231AA239462020DE
:103BA0000BF03AFB002319A2394648460BF034FBD0
:103BB0000BE000231AA2394620200BF02DFB002336
:103BC00014A2394648460BF027FB96F8C80438B1D2
:103BD000BDE8F0470023042114A2E6200BF01CBB33
:103BE000BDE8F0470023042113A2E6200BF014BB2C
:103BF000C40000200352F300480D0020502C01089F
:103C0000FC32010848495F52455300004C4F5F5257
:103C100045530000B5E7D7E8CFC2CFDE0000000073
:103C2000B5E7D7E8C9CFCFDE00000000434F4D50C5
:103C30004D4F44453A000000B1C8BDCFB7BDCABD25
:103C40003A0000002DE9F047FFF703FF414C6FF009
:103C50007F45256040486060404E96F8C80408B132
:103C60003F4A01E03E4AF23A00232C320421184632
:103C70000BF0D2FA256048F28B60606096F8C804B9
:103C800096F84002374A4FF482791A2770B300241D
:103C9000904604EB440000EB080204EB840007EBC1
:103CA0008005A9B2002302200BF0B6FA96F8C804EA
:103CB00060B1A9B200232CA220200BF0ADFAA9B26A
:103CC00000232CA248460BF0A7FA0BE0A9B2002370
:103CD0002AA220200BF0A0FAA9B200232AA248466B
:103CE0000BF09AFA641C0A2CD3D320E03946002347
:103CF00002200BF091FA96F8C80460B100231AA2D2
:103D0000394620200BF088FA00231AA2394648468B
:103D10000BF082FA0BE0002318A2394620200BF0AA
:103D20007BFA002318A2394648460BF075FA96F83C
:103D3000C80438B1BDE8F0470023042115A2E620ED
:103D40000BF06ABABDE8F0470023042114A2E62074
:103D50000BF062BAC40000200352F300480D0020AB
:103D6000502C0108FC320108564F4C5F4849474827
:103D700000000000564F4C5F4C4F5700B5E7D1B9DB
:103D8000C9CFCFDE00000000B5E7D1B9CFC2CFDE8A
:103D900000000000434F4D504D4F44453A00000095
:103DA000B1C8BDCFB7BDCABD3A0000002DE9F04192
:103DB000FFF74FFEFFF74DFE2B4E6FF07F44346050
:103DC0002A4870602A4D95F8C80408B1294A01E0D4
:103DD000284AF23A00235832042118460BF01CFA04
:103DE000346048F28B67776095F8C80408B1224DBB
:103DF00001E0214DC63D00244FF01A08092C14D2D1
:103E0000E01E052801D2776000E0776004EB4400F3
:103E100000EBC400421904EB840008EB800081B27F
:103E2000002318460BF0F8F916E0A4F10C00052861
:103E300001D2776000E0776004EB440000EBC4003F
:103E40004219A4F1090000EB800008EB800081B268
:103E50000023FA200BF0E0F9641C122CCED3BDE84D
:103E6000F041FEF757B90000C40000200352F300F0
:103E7000480D0020502C0108082E01082DE9F041C2
:103E8000FFF7E7FD3A4C6FF07F45256039486060E9
:103E9000394E96F8C80408B1384A01E0374AF23A78
:103EA00000234232042118460BF0B6F9256048F28F
:103EB0008B60606096F8C80496F8E704304A1A25CB
:103EC00068B30024174604EB4400C21904EB8400D5
:103ED00005EB800081B2002302200BF09DF9641CE9
:103EE0000A2CF0D3002496F8C80450B104EB8400E7
:103EF00005EB800081B2002322A220200BF08CF978
:103F000009E004EB840005EB800081B200231FA2CE
:103F100020200BF081F9641C0A2CE4D314E029461C
:103F2000002302200BF078F996F8C80430B1294636
:103F3000002314A220200BF06FF905E0294600238E
:103F400012A220200BF068F996F8C80438B1BDE839
:103F5000F041002304210FA2E6200BF05DB9BDE87B
:103F6000F041002304210EA2E6200BF055B9000019
:103F7000C40000200352F300480D0020502C01081B
:103F8000FC3201084348414E4E000000CDA8B5C0A8
:103F9000000000005345544D4F44453A00000000D6
:103FA000C9E8D6C3B7BDCABD3A0000002DE9FF4F2E
:103FB00083B0039E0024DFF87482002108F8041007
:103FC000641CE4B2092CF9D3DFF864B29BF8070053
:103FD00038B10BF099F802909648007808B90220A1
:103FE00002909BF8020010B102F0A8FC01909BF82F
:103FF0000200914D01280FD06FF07F40286048F2F9
:10400000E800864219D900242D2008F80400641C19
:10401000E4B2062CF9D317E09DF804108748204439
:1040200080F8A0109DF8040018B14FF47F002860BC
:10403000E5E74FF47F402860E1E79DF8101000238A
:104040000522304600F0F6FCDFF8F491D8F80010B5
:10405000C9F80310B8F80400A9F80700794F79618E
:10406000388379487949407900EB400001EB400002
:104070000188798380783877092078774FF0200A93
:1040800088F806A0724E71789DF8120003292BD093
:10409000717839B1D8B101236EA26C2130200BF0B8
:1040A0000BF91AE030B100236AA25C2120200BF04A
:1040B00003F905E0002368A25C2120200BF0FCF846
:1040C00000235A4A5C2140200BF0F6F820E001233F
:1040D00061A26C2130200BF0EFF80123534A6C21D0
:1040E00040200BF0E9F813E030B1002359A27C2105
:1040F00040200BF091F805E0002357A27C214020DE
:104100000BF08AF80023494A7C214A200BF084F8FE
:104110009BF80700012830D06FF07F4028609DF8A1
:10412000181000230622059800F084FCD8F800003F
:10413000C9F80B00B8F80410A9F80F1098F8062079
:1041400089F8112047F81F0FB980BA715620F8710D
:104150000920387241A00088F8811F3F70789DF8CF
:104160001A4003283CD07078C0B164B3012339A24F
:10417000A32130200BF0A0F82BE09DF808102F4869
:10418000204480F8AA109DF8080018B14FF47F0071
:104190002860C4E74FF47F402860C0E734B10023B3
:1041A0002CA2932120200BF087F805E000232AA2FF
:1041B000932120200BF080F800231C4A93214020FB
:1041C0000BF07AF820E0012323A2A32130200BF08A
:1041D00073F80123154AA32140200BF06DF813E07A
:1041E00034B100231BA2B32140200BF015F805E0E9
:1041F000002319A2B32140200BF00EF800230B4A34
:10420000B3214A200BF008F824B189F80AA087F8F6
:104210001EA003E02D2089F80A00B8770A484079EB
:1042200089F8090007B0BDE8F08F0000A81400204D
:10423000480D00202D000020C4000020F4130020B1
:10424000E80A0020FD0A00206C000020663001080A
:10425000780B0020200000002D0000000D0A000057
:104260000549044848601623AA220021084600F0A8
:104270005DBE00000352F300C40000201EB5114CC7
:1042800021680191616802910F496160012812D093
:104290004FF47F01022812D021600C4800901823AF
:1042A0003022F1214FF4CA7001F0CEF9019820605C
:1042B000029860601EBD4FF47F402060EDE72160F2
:1042C000EBE70000C4000020380031002C8907080B
:1042D00070B500F043F81E4C6FF07F4525601D4817
:1042E000606000231C4A042118460AF095FF2560EF
:1042F00048F28B6060600024174D4FF6FF76D63D84
:1043000004EB840000EBC400421904EB840006EACD
:10431000401000231A210AF07FFF641C032CEFD306
:1043200000240D4E1A25AF3E04EB840000EBC400C0
:104330008219601C00EBC00005EB400081B2002335
:1043400018460AF069FF641C052CEDD370BD00000F
:10435000C40000200352F300CC2B010810B5FFF776
:104360007FFFBDE81040FEF72BBC000010B5FEF744
:1043700027FC0848064941606FF07F410160002337
:10438000F121BDE8104004A254200AF045BF00000E
:1043900038003100C40000202056200010B5FEF780
:1043A0000FFC0B48094941606FF07F410160002319
:1043B00008A2F12154200AF02FFF0023F121BDE8CB
:1043C000104006A2A4200AF027BF000038003100E8
:1043D000C4000020206DA6B82020000020A6B82030
:1043E0000000000000B58FB00EA9002002F090F888
:1043F0000DA9002002F05AF89DF836309DF83A00D9
:104400009DF839109DF83820CDE90210CDE9003231
:104410009DF835309DF837200DA105A80AF09EFFC4
:1044200015486FF07F41016048F28B6141600023C5
:1044300005AA0421FA200AF0EFFE132205A90F486D
:10444000FBF7D0FE0D490920C8740FB000BD000075
:10445000323025302E32642D25302E32642D253019
:104460002E32642025302E32643A25302E32643AC2
:1044700025302E3264000000C4000020FD0A002018
:1044800010B54FF40054204600F054F8002804D032
:104490002046BDE8104000F047B810BD10B5082018
:1044A00000F048F800281FD010480CF048FA082106
:1044B0000F4800F021FA90B90E48002101700E4813
:1044C0000E4A012304781CB101700F20107002E025
:1044D0000370022010700A494FF400700860BDE8B4
:1044E0001040082000F020B810BD0000A086010098
:1044F000001002405A000020390000203100002046
:1045000080E100E01CB54FF40050009000208DF8D1
:10451000040001208DF807006946024800F09EF96A
:104520001CBD000000040240014908607047000003
:10453000143C014001460020024A12680A4200D0A1
:1045400001207047143C014030B51B4A8379016853
:10455000002B2AD013688B431360111D0B6804686D
:10456000A3430B60017911440B68046823430B607B
:10457000114C08342168036899432160231D196890
:104580000568A94319604179102905D011440A68CA
:10459000006802430A6030BD21680268114321604F
:1045A000196800680143196030BD00791044026841
:1045B0008A43026030BD0000003C01402DE9FF410C
:1045C0000121102001F0E4FD0121880301F018FE13
:1045D00001F093FB0826029600248DF80C4001257B
:1045E0008DF80F5002A9144800F038F90321042077
:1045F00003F0FAF800968DF804400C268DF805605B
:104600008DF806506846FFF79FFF6F03029702A9D7
:104610000A4800F023F90D21022003F0E5F8009785
:104620008DF804408DF805608DF806506846FFF758
:104630008BFFBDE8FF81000000100240000802402F
:1046400000224FF0204310280AD0B0F5807F09D017
:10465000B0F5805F09D0D3F85801814309D107E054
:10466000586EFAE7D3F88400F7E7D3F8A400F4E72C
:104670000122104670470000D0E900121143826801
:10468000C068521E520142EA4020014301480160C5
:1046900070470000500100A070B50468A100A1F1AE
:1046A000C041D1F84011CE0BF603D0E901121143FD
:1046B000D0E903231A4311434269C3691143826954
:1046C000056A11431943426A2943114331434FF0AC
:1046D0002046002C3CD0D6F840416FF30E042B430B
:1046E00022431343C6F8403102689200A2F1C0424F
:1046F000C2F84011016871B38900A1F1C041D1F83D
:10470000481101F07043816A0A684C68521E641EA9
:1047100042EA04148A68521E44EA02240A8A521E9B
:1047200044EA02421A43D6F8483103F07043CC6899
:10473000898A641E2403491E44EA01511943C6F8BC
:10474000481100688000A0F1C040C0F8482170BD49
:10475000C6F84011CEE7FFE7D6F8481101F07041E6
:10476000806A02684368521E5B1E42EA0313826835
:10477000521E43EA0223C268521E43EA0233028AEF
:10478000521E43EA0243828A007E521E43EA0252CC
:10479000401E42EA00600843C6F8480170BD0000B0
:1047A00002490A6842EA400008607047540100A0CC
:1047B0007CB5012140F2A71001F0EAFC2E20009008
:1047C00002208DF8050001208DF8040000248DF8EA
:1047D00006408DF807001D4D6946284600F03EF85A
:1047E0000E21284600F091F820250095184E6946C4
:1047F000304600F033F82021304600F084F84020A5
:104800000090144E6946304600F028F8009569463D
:10481000304600F023F82021304600F074F88DF87F
:1048200004408DF807402802009069460A4800F0CD
:1048300015F801F029F8FCF717F90AF0C1FC01F0AE
:10484000C9FA01F0E1FA02F079FD7CBD00080240EE
:10485000001C024000200240000402402DE9F0410B
:10486000002201274FF0030C07FA02F50B682B40DA
:10487000AB422CD1066853000CFA03F4A643066041
:104880000E79D0F800809E4046EA080606600E7950
:10489000012E01D0022E12D18668A64386604E7981
:1048A000D0F808809E4046EA080686604668AE4317
:1048B000466045688E799640B6B235434560C56816
:1048C000A543C560CC799C40C3681C43C460521C9E
:1048D000102AC9D3BDE8F08110B54B07DB0E9A4012
:1048E000C90800EB8100016A0F249C40A1430162CA
:1048F000016A1143016210BD0246002012690A429A
:1049000000D0012070474183704701837047000049
:10491000034A203902EB01111022FBF763BC0000AF
:104920003C8307080349085C002801D00020704739
:10493000012070473D0000204069806880B27047C8
:10494000D0F8CC000068C0F341407047084490F8AC
:104950009B03704700EB8100D0F85003704710B5FF
:10496000044600220023C4F8103304EB8200C0F890
:104970001433C0F85033A01880F88C33521CD2B2D4
:104980000F2AF2D30820A4F8B203204608F0B6FE9E
:10499000204608F045FC204608F066FB0121204631
:1049A00008F00EFF204608F0B3FB204608F072FC2A
:1049B000002010BDD0F81003704710B508F087FE36
:1049C000002010BD0022431883F89B2300EB411305
:1049D000C3F8C02308F0B4BD2DE9F0410546134FDC
:1049E0004FF4807631463846FFF78DFF00244FF4B0
:1049F0008058280604D541463846FFF786FF03E075
:104A000041463846FFF77FFF31463846FFF77DFFC6
:104A10000AF08EFC31463846FFF775FF6806050E32
:104A2000641CE4B2082CE4D3BDE8F0810008024025
:104A3000FEE700002DE9F041082A00D9082202B95A
:104A40000122072900D90721914200D911460024EB
:104A5000224E20273755641CE4B2142CFAD3144696
:104A60000A250DE0B0FBF5FC05FB1C0C06EB040869
:104A70000CF1300C08F801CCB0FBF5F0641EE4B288
:104A8000002CEFD169B110460C4605E0351815F839
:104A9000015C3554401EC0B2641EE4B2F6D22E242E
:104AA000345473B90020531E09E0345C302C08D113
:104AB000341864782E2C04D03754401CC0B298426D
:104AC000F3DB09B1521CD2B2002002E0B054521CF8
:104AD000D2B2142AFAD3BDE8F0810000A814002055
:104AE00006494FF48C70002201E001F8012B401EB2
:104AF00080B2FAD20248027070470000780B0020A2
:104B00003000002070B505462DED048B0C46606822
:104B1000DFED340A00EE100AB8EE400A20EE209ACB
:104B2000A068C0F10700FBF777FC41EC110B9FED8B
:104B30002E0B0AF041FCB0EE408AF0EE608A19EECE
:104B4000100AFBF776FC53EC182BFBF7F6FBFBF790
:104B500083FC00EE100A264910EE100A884201DD9F
:104B60009FED240A244910EE100A88420BDB032033
:104B7000A060DFED220A80EE201AFCEEC10A10EEE2
:104B8000900A606017E010EE100A1D4988420BDBA6
:104B90000420A060F2EE040A80EE201AFCEEC10AA6
:104BA00010EE900A606006E00520A060FCEEC00AEE
:104BB00010EE900A6060BCEEC00A10EE100AA06110
:104BC0002078287060686860A068A860E068E86085
:104BD0002069286160696861A069A861BDEC048BE7
:104BE00070BD000000247449000000000000244053
:104BF000001B374B001B374B8096184B0000C842F8
:104C0000002474492DE9F05FFF250020FFF7E4FE42
:104C1000DFF8D0A04FF4006949465046FFF76CFE1C
:104C2000DFF8C4804FF4806B00B359464046FFF76D
:104C300063FEE8B149464046FFF75EFED0B104216D
:104C40002A48FFF759FEB8B10426042E40D20024AA
:104C5000274F385DFFF7C0FE0AF06AFB76B1012EE0
:104C600013D0022E18D0032E23D11CE00026ECE72F
:104C70000126EAE70226E8E70326E6E7494650462A
:104C8000FFF73AFEA8B9254613E059464046FFF71C
:104C900033FE70B925460CE049464046FFF72CFE2E
:104CA00038B9254605E004211048FFF725FE00B974
:104CB0002546FF2D03D1641CE4B2082CC9D3FF2D77
:104CC00004D005EBC600C0B2BDE8F09F0020FBE7B2
:104CD0004FF400510548FFF70FFE08B10020F3E73D
:104CE0001F20F1E70020024000080240000C0240B3
:104CF000422D070810B5064C6078002805D000202A
:104D0000607000F055F8207810BD002010BD000044
:104D1000AC00002010B50146002002F0F3FD064C67
:104D20000020FFF7FFFD10B960780028F8D0BDE83B
:104D30001040FFF7DFBF0000AC00002070B5FFF7A8
:104D400061FF1A4C00230125E21CD0B12178814279
:104D500028D16178652901D2491C61706178642984
:104D60001BD00DD910709570A07800F10100C0B271
:104D7000A0700E2804D9A3705078002800D1557077
:104D800070BD207828B16178091F602901D21070A8
:104D9000557023706370937070BDA3701070557060
:104DA000957070BD2070637070BD0000A900002078
:104DB00010B5FBF73BFE4FF47A700BF0C0FDBDE879
:104DC0001040FBF72DBE00007CB501214FF486702A
:104DD00001F0DEF94FF49850009002208DF80500A4
:104DE00001208DF8040000248DF806408DF807009E
:104DF000134D69462846FFF731FD69152846FFF730
:104E000084FD4FF4406100918DF8044069462846C6
:104E1000FFF724FDE814009069460A48FFF71EFDDD
:104E20000420009069460848FFF718FD0748047001
:104E300044708470C01E0470447084707CBD000097
:104E40000008024000200240000C0240AC0000209C
:104E500010B500231C4C2468002C06D0012C0DD06A
:104E6000022C17D0032C1ED023E000EB4003C1EB33
:104E7000011000EB400003EB40131AE0A1F20F1108
:104E8000C0F5F070A1EB011100EB4110401E00EBEA
:104E900040030EE0A0F20F10A0EB001001EB401059
:104EA00000EB400305E000EB0010C1EB001303F240
:104EB0000F130648834205D205488068C252184441
:104EC000110C817010BD00005400002000FA050094
:104ED000B000002070B58AB0C0F30744C0F30725C6
:104EE000C6B2FCF7C9F84FF44030009001200190A1
:104EF0000494039502960F2005900B488068069055
:104F0000002007904FF4887008904FF4F0700990DB
:104F10006846FCF7C7F8FCF721F90220FCF7B8F85F
:104F20000028FAD00AB070BDB00000202DE9F04F83
:104F30008BB03B4C6468C4F3074704F0FF09C4F32B
:104F40000728384CDFF8D8A0C2F5F076AAF1140A89
:104F50002568DAF80840002D37D0C3F5887C012D8C
:104F60003ED0022D4CD000EB0010C3EB0010401AD5
:104F700000F5887000EB400005191FFA8CF6144606
:104F80009B46FCF779F84FF44030019001200290E5
:104F9000CDF81080CDF80C900597FF20069007956E
:104FA00008960994CDF828B001A8FCF77BF8FCF727
:104FB000D5F80220FCF76CF80028FAD0DAF80000E7
:104FC00000F0B4FA0BB0BDE8F08FC1EB011100EBBB
:104FD000411000EB40000519B6B21C469346D0E7DD
:104FE000ACEB0101C1EB0111C0EB4110801A00F5DF
:104FF000F07000EB40000519B6B21C469346C0E7BE
:10500000C0F58870801AC0EB001001EB401000EB77
:1050100040000519C3F5F07086B214469B46B0E710
:10502000C4000020540000202DE9F0438BB09046CE
:10503000994600242E4A1568002D0CD0C1EB0112B0
:1050400000EB42162B4A012D97680DD0022D11D08E
:10505000032D18D01AE000EB4002C1EB011000EB69
:10506000400002EB401411E0A6EB860022493844D0
:1050700044180BE0A0F20F10A0EB001001EB401061
:1050800000EB400402E006EB4600C4191948143056
:105090000068C0F30745C6B2C0F30727FBF7ECFF73
:1050A0004FF440300190012002900497039605953B
:1050B0000F2106910794B9F1000F12D040F2DF11D1
:1050C0000891CDF824800A9001A8FBF7EBFFFCF7CC
:1050D00045F80220FBF7DCFF0028FAD00BB0BDE852
:1050E000F083002108910990CDF82880ECE70000BA
:1050F00054000020B000002000FA05002DE9FC5FFC
:10510000012140F2FF1001F043F84FF00408CDF800
:10511000008003208DF8050002208DF80400002097
:105120008DF806008DF807006946AB48FFF796FB3F
:105130000E220221A848FFF7CFFB4FF00809CDF857
:1051400000906946A448FFF789FB0E220321A2487C
:10515000FFF7C2FB4FF4807ACDF800A069469E4865
:10516000FFF77CFB0E2208219B48FFF7B5FB0124CB
:10517000009469469948FFF771FB0922002197487E
:10518000FFF7AAFB4FF4006BCDF800B069469448D6
:10519000FFF764FB0E220B219148FFF79DFB2003D4
:1051A000009069468E48FFF759FB0E220C218C486F
:1051B000FFF792FB0220009069468848FFF74EFBFC
:1051C000092201218548FFF787FB402500956946A4
:1051D0008448FFF743FB0E2206218248FFF77CFB41
:1051E0002020009069468048FFF738FB0E220521F9
:1051F0007D48FFF771FB009569467B48FFF72EFB62
:105200000E2206217848FFF767FB6003009069468D
:105210007148FFF723FB0E220D216F48FFF75CFB5F
:10522000A602009669466F48FFF718FB09220A217B
:105230006C48FFF751FBE003009069466648FFF7B2
:105240000DFB0E220F216448FFF746FB00946946D0
:105250006648FFF703FB0E2200216448FFF73CFB82
:105260008027009769466248FFF7F8FA0E22072167
:105270005F48FFF731FBCDF8008069465B48FFF7D8
:10528000EDFA0E2202215948FFF726FB4FF01008D5
:10529000CDF8008069465448FFF7E0FA0E22042159
:1052A0005148FFF719FB2003009069464D48FFF76E
:1052B000D5FA0E220C214B48FFF70EFB00954D4D01
:1052C00069462846FFF7CAFA0E2206212846FFF74C
:1052D00003FBCDF800B069464248FFF7BFFA0E2243
:1052E0000B214048FFF7F8FACDF8008069463F48A7
:1052F000FFF7B4FA0E2204213C48FFF7EDFACDF88F
:10530000009069463648FFF7A9FA0E220321344877
:10531000FFF7E2FACDF800A069463048FFF79EFAA1
:105320000E2208212D48FFF7D7FA4FF40079CDF867
:10533000009069462948FFF791FA0E220921274873
:10534000FFF7CAFA009769462648FFF787FA0E2248
:1053500007212448FFF7C0FA009669462348FFF763
:105360007DFA0E220A212148FFF7B6FACDF8009007
:1053700069461E48FFF772FA0E2209211B48FFF703
:10538000ABFA00961C4E69463046FFF767FA0E22CC
:105390000A213046FFF7A0FACDF8008002208DF8F0
:1053A00005008DF8044000208DF806008DF80740B8
:1053B00069462846FFF752FA009769462846FFF7E4
:1053C0004DFA10212846FFF7A0FA80212846FFF762
:1053D0009CFABDE8FC9F0000001C02400004024053
:1053E000000002400018024000100240002002406D
:1053F00000080240000C02400014024000B58FB0CB
:105400000121880600F0FCFE0121C80500F0C0FE65
:10541000FFF774FE01F000FF062207214FF496709B
:1054200000F08AFF4FF4803000F076FF012000F09A
:105430007DFF3D2000F044FF0028FAD000200090BE
:105440000190029003900C900D900E9004900590A6
:105450002E2006901720079040F20E20089040F270
:10546000271009904FF409700A9040F23D100B90FC
:10547000684600F037F9012000F024F90FB000BDB4
:1054800010B590B02F20009040F20E20019018200F
:10549000029040F22710039001200490FF20059015
:1054A000069007900890099007200B9040F2A350B7
:1054B0000D90C01E0E904FF488700F900C480C9009
:1054C0004FF4C0600A900B4C6946204600F06CF91E
:1054D000012000F0B5F90121204600F059F9012022
:1054E00000F0AEF9044800F009F810B010BD00005B
:1054F00000FA05D004690140CC0000200149086190
:1055000070470000B00000200649002804D006487B
:1055100088600120C86070474FF0504088600020CC
:10552000C8607047B000002000FA05D0014908604B
:1055300070470000B000002010B50949C968002973
:1055400008D00146074800F021F9BDE810400120CD
:1055500000F076B901460348803800F017F9F4E707
:10556000B0000020046901402DE9F04F0446884650
:105570002546334902EB0210DFF8C8A001EB4009D1
:10558000002B0FD0002709EB070090F802B000268F
:105590005FEA0B6035D541462046DAF80020FFF778
:1055A00057FC34E04FF0000B09EB0B008778002626
:1055B000380606D541462046DAF80020FFF748FCB9
:1055C00005E041462046DAF80420FFF741FC780662
:1055D000070E641CA4B2601B10280CD0761CF6B217
:1055E000082EE5D30BF1010B0BF0FF0BBBF1200FE5
:1055F000DAD3BDE8F08F2C4608F101081FFA88F8CD
:10560000F0E741462046DAF80420FFF721FC4FEA94
:105610004B604FEA106B641CA4B2601B102808D0CA
:10562000761CF6B2082EB3D37F1CFFB2202FAAD36C
:10563000DFE72C4608F101081FFA88F8F4E70000BC
:105640004A2D0708C40000202DE9F84F04468B4678
:105650009246A04600270AFB03F0C11700EB5170E9
:10566000DFF85C90009025E00A98C65D00253006C2
:1056700006D559462046D9F80020FFF7E9FB05E09A
:1056800059462046D9F80420FFF7E2FB7006060EC3
:10569000641CA4B2A4EB0800504505D144460BF1AC
:1056A000010B1FFA8BFB03E06D1CEDB2082DDED35E
:1056B0007F1CBFB20098B7EBE00FD5DBBDE8F88FD9
:1056C000C40000200649002804D0086840F001000A
:1056D00008607047086820F001000860704700000B
:1056E0001868014030B5264A136826490B401360FC
:1056F000038A1B04146845692C431C431460121D63
:1057000013680B401360038B1B041468C5692C439A
:105710001C431460121D13680B401360038C1B04A0
:105720001468456A2C431C431460121D13680B4017
:105730001360018D09041368C46A23430B4313608B
:10574000111D0A68104B1A400A60D0E900231A4361
:10575000D0E9023423431A430B681A430A60416BB1
:105760000A02018E0B04064924310C6804F07F44C0
:105770000C600C68806B134304431C430C6030BD09
:105780000868014000F800F08F88FE0F4161704703
:10579000002904D0016841F00101016070470168EF
:1057A00021F001010160704770B58A8812044368D6
:1057B00003F4704343600B68134343608A89120407
:1057C000836803F4704383608B68134383600269CA
:1057D00022F0070202610A690261CA6913020A8C97
:1057E000120491F8244024068569002585618E699C
:1057F00022431E4316438661426922F0FF02426142
:105800004A694261C26940F207739A43C261D1E9B1
:105810000A231A43C261826A85620A6B82620A8F16
:105820001204C36A03F0E023C3624B6B1343C362E9
:10583000026B6FF30A020263C96B016370BD000063
:1058400001490860704700002468014010B54FF41A
:1058500080610948FFF759F84FF400510748FFF7F6
:1058600054F804210648FFF74EF8BDE81040012126
:105870000448FFF748B80000001C0240000802403E
:1058800000100240000002407CB50121BF2000F062
:105890007FFC0420009000248DF8054001258DF840
:1058A00004508DF806408DF8075069460C48FEF705
:1058B000D5FF4FF4B840009069460A48FEF7CEFF86
:1058C0008DF805408DF804508DF806408DF807508E
:1058D0000820009069460448FEF7C0FF7CBD000028
:1058E00000100240001C0240000C024010B50421D0
:1058F0000948FFF70AF801210848FFF706F84FF4B6
:1059000080610748FEF7FFFFBDE810404FF40051EB
:105910000448FEF7F8BF00000010024000000240FB
:10592000001C0240000802404FF400610148FEF7ED
:10593000EABF0000001C02404FF400610148FEF77E
:10594000E4BF0000001C02402DE9F047A6B0304D36
:10595000002085F8A10095F89E004FF003094FF054
:10596000020AE846082802D085F8A1901DE0A81C8C
:10597000FBF708F80746281DFBF704F84FF6FF7100
:1059800001EA40064B2E02D985F8A1900DE00024D3
:1059900009E008EB4401384600F07EF8A8B17F1C0E
:1059A000BFB2641CA4B2B442F3D395F8A10000289E
:1059B0002BD12878A87716496878C877700085F8C1
:1059C000A29081F82000002117E085F8A1A0ECE763
:1059D00095F8A20018F81130421C284485F8A2203E
:1059E000837708EB4100437895F8A200421C2844D5
:1059F00085F8A2208377491C89B2B142E8D30448D4
:105A000095F8A2101E3000F047F926B0BDE8F087E7
:105A10008401002000B50A4A002082F8A10092F813
:105A20009E00082803D0032082F8A10000BD901C2E
:105A3000FAF7A8FF101D5DF804EBFAF7A3BF00000A
:105A40008401002010B5104C104A94F89E0010609C
:105A5000082801D1092111600D49536809688B425A
:105A600011D051600B4A117809B1491E117011789B
:105A7000002908D1002806D0042801D301F02EF90E
:105A8000002084F89E0010BD84010020D800002072
:105A900028000020240000202DE9F34F89B07D4923
:105AA0003C280B6D0A6808938B6807930D6E0C6990
:105AB0008B6D06958D690595D1F828C0D1F8309089
:105AC000D1F878800F6F0E6A8D6ECDF81090D1F8F6
:105AD0008090CDF80C90D1F83890CDF80890D1F89E
