:020000040800F2
:10000000B8810020C10100088F610008114D00086F
:100010008D610008810A0008BDF1000800000000A1
:10002000000000000000000000000000357E000815
:100030009112000800000000D9630008EB8B000853
:10004000DB010008DB010008DB010008856E000809
:10005000DB010008DB010008DB010008DB01000810
:10006000DB010008C1460008DB010008DB010008D5
:10007000DB010008DB010008DB010008DB010008F0
:10008000DB010008DB010008DB010008DB010008E0
:10009000DB010008DB010008DB010008DB010008D0
:1000A000DB010008DB010008DB010008DB010008C0
:1000B000298D0008DB010008DB010008DB010008D6
:1000C000DB010008DB010008DB010008DB010008A0
:1000D000DB010008DB010008DB010008D1C10008DA
:1000E000A5460008DB010008DB010008DB01000871
:1000F000DB010008DB010008DB010008DB01000870
:10010000DB010008DB010008DB010008DB0100085F
:10011000DB010008DB0100083D8D0008DB01000861
:10012000DB010008DB010008DB010008DB0100083F
:10013000DB010008DB010008DB010008DB0100082F
:10014000DB010008DB010008DB010008DB0100081F
:10015000DB010008DB010008DB010008DB0100080F
:10016000DB010008DB010008DB010008DB010008FF
:10017000DB01000899620008DB010008DB010008D0
:10018000DB010008DB010008DB010008DB010008DF
:10019000DB010008DB010008DB010008DB010008CF
:1001A000DB010008DB010008DB010008DFF80CD0F0
:1001B00000F00EFB00480047612D0108B8810020C7
:1001C0000648804706480047FEE7FEE7FEE7FEE7F1
:1001D000FEE7FEE7FEE7FEE7FEE7FEE7CD8C000860
:1001E000AD01000840EA01039B0703D009E008C9FC
:1001F000121F08C0042AFAD203E011F8013B00F8EC
:10020000013B521EF9D27047D2B201E000F8012B37
:10021000491EFBD270470022F6E710B513460A4686
:1002200004461946FFF7F0FF204610BD421E12F8A3
:10023000013F002BFBD111F8013B02F8013B002BE1
:10024000F9D1704710B5002200E0521C835C8C5C31
:10025000A34201D1002BF8D1D8B2E1B2401A10BDAF
:10026000034611F8012B00F8012B002AF9D118469A
:1002700070472DE9FE4F81EA030404F0004421F0A9
:10028000004100944FF0000B23F0004350EA0104BA
:100290005ED052EA03045BD0C3F30A54C1F30A559B
:1002A0002C44A4F2F3340194A0FB0254C1F31301D3
:1002B00041F48011C3F3130343F4801301FB0244A0
:1002C00000FB034E840A970A44EA815447EA8357A5
:1002D000A4FB076802958D0A05FB07854FEA932C5E
:1002E00004FB0C542705029D4FEA065847EA1637CF
:1002F000B5EB08056EEB070C870E920E47EA8117E7
:1003000042EA8312A7FB0201B6EB0B0164EB000487
:100310002B0D43EA0C335E1844EB1C50DA46514671
:10032000E7FB0201C5F313044FEA0B3343EA14530E
:100330004FEA0432019C43EA0603A4F10C04029440
:10034000009CCDE900B400F00DF903B0BDE8F08FDA
:1003500000200146F9E72DE9F04D81EA030404F09D
:10036000004B21F0004514464FF0000A23F00041F5
:1003700050EA050220D054EA01021DD0C5F30A5705
:100380000246C5F31303C1F31300C1F30A5640F448
:10039000801543F48013A7EB0608101BD64608F21D
:1003A000FD3873EB050002D308F1010801E0921853
:1003B0005B41B8F1000F03DA00200146BDE8F08D83
:1003C00000204FF48011064684460EE0171B73EBA5
:1003D000050705D3121B63EB050306434CEA010C2A
:1003E00049084FEA300092185B4150EA0107EDD10D
:1003F00052EA030012D082EA040083EA05010843AE
:1004000005D0101BAB4106D20122002306E00022DA
:100410004FF0004302E06FF0010253101AEB0600A8
:100420004CEB085110EB0A0041EB0B01BDE8F04D1D
:1004300000F089B80EB540F2334102910021CDE9B8
:1004400000110A460B4600F08DF803B000BD00F025
:10045000004230F000400AD0C10D01F56071C0F3D8
:10046000160042EA0151C2084007114370470020BC
:100470000146704701F0004330B421F0004150EADA
:10048000010206D00A0DA2F56072C1F31301002A21
:1004900002DC30BC00207047440F44EAC104C100B4
:1004A000E01830BC00EBC25000F016B830B50B4677
:1004B000014600202022012409E021FA02F59D4294
:1004C00005D303FA02F5491B04FA02F52844151E68
:1004D000A2F10102F1DC30BD0029A8BF7047401C29
:1004E000490008BF20F00100704710B4B0FA80FC4A
:1004F00000FA0CF050EA010404BF10BC704749B187
:10050000CCF1200421FA04F411FA0CF118BF0121F6
:1005100021430843A3EB0C01CB1D4FEA00614FEAD6
:10052000102042BF002010BC704700EBC3501044A5
:100530000029A4BF10BC7047401C490008BF20F030
:10054000010010BC704710B5141E73F1000408DAE6
:10055000401C41F1000192185B411A4301D120F087
:10056000010010BD2DE9F04D92469B4611B1B1FA44
:1005700081F202E0B0FA80F22032904600F03AF9BF
:1005800004460F4640EA0A0041EA0B0153465A4628
:10059000084313D0114653EA010019D0C8F14002B4
:1005A000504600F036F905460E465046594642463A
:1005B00000F020F9084305D0012004E02046394628
:1005C000BDE8F08D0020054346EAE0762C43374332
:1005D0000A986305E40AA0EB08000022FD0A44EA39
:1005E00047540A3002D500200146E9E701051019F9
:1005F0006941DDE9084500196941BDE8F04DA2E710
:100600002DE9FE4F804681EA0300C00F0C460090A2
:1006100021F0004123F00045B8EB0200A94105D2CA
:100620004046214690461C460B46024623F00040B9
:10063000104347D0270DC7F30A00C3F30A510290B5
:10064000401A019040286BDAC3F3130040F4801B7A
:100650000098924620B10023D2EB030A63EB0B0B08
:1006600001985946C0F14002504600F0C3F80646D2
:100670000D4650465946019A00F0DBF810EB080091
:100680006141002487EA115284EAE7731A4340D09B
:10069000009A62B3019A012A4FEA075215DC001B47
:1006A00061EB02014FF0004202EA0752CDE900423D
:1006B000001C41F5801132462B46FFF753FF03B073
:1006C000BDE8F08F40462146F9E7001B61EB0201CF
:1006D000001C41F5801300185B412018A2F500179B
:1006E00047EB030140EAD570B6196D4111E06D0882
:1006F0004FEA360645EAC0754FEA0752001B61EB28
:100700000201001C41F5801149084FEA3000001930
:10071000514132462B4603B0BDE8F04FFFF713BFFF
:100720000098012240000023D0EB020263EBE0734B
:10073000009821464FEAE074B8EB000061EB040139
:10074000E9E783F000435BE781F0004158E770B5CB
:1007500021F0004303430CD0C1F30A550024D5EB2C
:10076000040564EB0403D617AD1AB34102DB002085
:10077000014670BD201841EB025170BD0EB5C10F8E
:1007800080EAE0700844CA07002140F233438DE854
:100790000E000A460B46FFF7E5FE03B000BD000061
:1007A00030B5041E71F1000404DB4FF000444042F8
:1007B00064EB0101141E73F1000405DB1C464FF0CD
:1007C0000043524263EB0403994208BF904230BD9C
:1007D000064C074D06E0E06840F0010394E807008E
:1007E00098471034AC42F6D3FFF7E4FC00460A0801
:1007F00020460A08202A04DB203A00FA02F10020F1
:1008000070479140C2F1200320FA03F3194390404E
:100810007047202A04DB203A21FA02F000217047B9
:1008200021FA02F3D040C2F1200291400843194658
:100830007047202A06DBCB17203A41FA02F043EA40
:10084000E07306E041FA02F3D040C2F12002914089
:100850000843194670472DE9F04D00231A461B1A2C
:100860008A4103DB00200146BDE8F08DC1F30A5246
:10087000C1F3130141F480154FF0000BD10702D1F1
:1008800000186D41521E0027044640F2FF11384601
:1008900001EB620A3E468046024600204FF480117A
:1008A000FFF7B7FFC2197141BB1846EB0100B4EB6B
:1008B000030C75EB000C04D3E41A65EB0005174636
:1008C0000E46241908F101006D4180463428E3DD0D
:1008D000F91946EB0600091BA84103D24FF0FF327D
:1008E000134601E0002213461BEB070046EB0A51BA
:1008F000BDE8F04DFFF727BE70B58C1810F8015B0E
:1009000015F0070301D110F8013B2A1106D110F8A8
:10091000012B03E010F8016B01F8016B5B1EF9D1AC
:100920002B0705D40023521E0DD401F8013BFAE732
:1009300010F8013BCB1A921C03E013F8015B01F89D
:10094000015B521EF9D5A142D8D3002070BD000032
:1009500010B504210D4804F046F901210C4804F0BB
:1009600042F94FF480610B4804F03DF94FF4005117
:10097000094804F038F98021084804F034F905F0FA
:100980002DFABDE810400BF0F3BB00000010024050
:1009900000000240001C024000080240000C02401F
:1009A0004178007841EA00207047000010B5074CFC
:1009B0002060084600F00CF820680028FCD1BDE853
:1009C000104000214FF0804008F021BAF4000020D0
:1009D0003EB504464FF080450021284608F017FA3E
:1009E00000220121284608F001FB022C02D0012C34
:1009F00003D005E00B20019002E042F6DF60019099
:100A00000520ADF800000020ADF80800ADF80200A8
:100A10006946284608F014FB0121284608F0F4F93D
:100A20000121284608F0E1F901221146284608F084
:100A3000DDFA0121284608F0EAF93EBD20210148EF
:100A400004F0D1B8001C02402021014804F0CDB8C8
:100A5000001C024009498979002904D028B10229E3
:100A600009D0FFF7EBBFFFF7E9BF012901D0FFF77E
:100A7000E5BFFFF7E9BFFFF7E7BF0000540D002017
:100A8000FEE700000B4B01281A7822F0020106D085
:100A900048B1022802D121F004001870704741F0DB
:100AA00004001870704742F0020020F00400187033
:100AB00070470000AC0000200B4B01281A7822F090
:100AC000080106D048B1022802D121F010001870A8
:100AD000704741F010001870704742F0080020F095
:100AE0001000187070470000AC0000200B4B01286C
:100AF0001A7822F0200106D048B1022802D121F054
:100B000040001870704741F040001870704742F084
:100B1000200020F04000187070470000AC0000205A
:100B200010B50D4901280A784C7822F0800309D0CD
:100B30000C46647824F0020448B1022801D10B70FD
:100B40004C7010BD0B7044F00200487010BD42F0B4
:100B5000800008704C7010BDAC0000207CB50121F5
:100B6000084605F0A1FDA020009002208DF80500A8
:100B700001248DF8044000258DF806508DF80740BB
:100B8000084E6946304603F0D9FF8DF804508DF8C1
:100B900006508DF80740402100916946304603F029
:100BA000CDFF7CBD0000024070B5FF22FF23084D41
:100BB00005F5807605E010F8014B54402A5D5A4057
:100BC000335D491E89B2F6D243EA022070BD0000AF
:100BD000983701082DE9F04F2DED028B81B00024EC
:100BE000F94890F8400000900021084606F026FBE6
:100BF0002146002002F0FCFBF448DFF8D493C178D2
:100C000011209FEDF48AF44FDFF8D083DFF8D0B3E2
:100C100000297DD0002511208BF80000E1E0284656
:100C200006F096FBDFF8A4A39AF8010048B143F65A
:100C3000982010F07DFC9AF8010038B1012834D0DA
:100C400061E044F6206010F073FCF4E7012007F047
:100C500009F912F09DF997ED000ABCEEC00A10EEFA
:100C6000100AC9F8000006F06BFA0BE006F068FA0B
:100C700012F08EF997ED000ABCEEC00A10EE100AD1
:100C8000C9F80000D74800780028EFD107F0EAF84B
:100C900012F0C2FA98ED000AD349BCEEC00A10EE79
:100CA000100A086006F04CFA2DE0012007F0DAF88F
:100CB00012F0E6F997ED000ABCEEC00A10EE100A39
:100CC000C9F8000006F03CFA0BE006F039FA12F021
:100CD000D7F997ED000ABCEEC00A10EE100AC9F869
:100CE0000000C04800780028EFD107F0BBF812F0F0
:100CF0000DFB98ED000ABC49BCEEC00A10EE100ACC
:100D0000086006F01DFA98ED000A10EE100A00E0E7
:100D100072E04FF09641884205DD38EE400AB1EEB0
:100D2000400A88ED000A97ED000A10EE100A88428A
:100D300005DD38EE400AB1EE400A87ED000A9AF868
:100D4000010010B101281AD032E005EB45000AEB92
:100D5000800000EB840097ED000A00F5806080EDD4
:100D60003A0A022C24D20AEBC50000EB840098ED6D
:100D7000000A00F5806080ED580A264618E005EB71
:100D800045000AEB800000EB840097ED000A00F5B7
:100D9000806080ED6C0A022C0AD20AEBC50000EBE1
:100DA000840098ED000A00F5806080ED8A0A2646EE
:100DB0003146204606F042FA2146002002F018FB98
:100DC000022C0CD306208BF80000002421460020C2
:100DD00006F034FA2146002002F00AFB01E0641C10
:100DE000E4B29BF8000011283FF419AF6D1CEDB27E
:100DF0000A2DFFF410AFDCE08BF80000DFF8ECA167
:100E0000D2E07248407810B101282FD075E001205F
:100E100007F028F812F0BCF897ED000ABCEEC00A03
:100E200010EE100AC9F8000006F08AF96D4D0BE0CB
:100E300006F086F912F0ACF897ED000ABCEEC00A95
:100E400010EE100AC9F8000028780028F0D107F049
:100E500009F812F0E1F998ED000A6348BCEEC00A07
:100E600010EE101A016006F06BF946E0012006F062
:100E7000F9FF12F005F997ED000ABCEEC00A10EE7A
:100E8000100AC9F8000006F05BF9564D0FE006F0B5
:100E900057F912F0F5F897ED000ABCEEC00A10EE13
:100EA000100AC9F800009AF80100012802D0287839
:100EB0000028ECD1002006F0D5FF12F027FA98EDBB
:100EC000000A4949BCEEC00A10EE100A086006F09C
:100ED00037F90FE006F034F912F018FA98ED000A2D
:100EE0004149BCEEC00A10EE100A08609AF80100F1
:100EF000012802D028780028ECD198ED000A4FF0A4
:100F0000964110EE100A884205DD38EE400AB1EE37
:100F1000400A88ED000A97ED000A10EE100A884298
:100F200005DD38EE400AB1EE400A87ED000A274998
:100F3000487810B1012810D01EE001EB840097ED35
:100F4000000A00F5806080EDA10A022C14D298ED11
:100F5000000A80EDA40A26460EE001EB840097ED1E
:100F6000000A00F5806080EDA60A022C04D298EDFC
:100F7000000A80EDA90A26463146204606F05EF9B1
:100F80002146002002F034FA022C0BD306208BF805
:100F9000000000242146002006F050F921460020E0
:100FA00002F026FA641CE4B29BF8000011283FF41A
:100FB00028AF0549009881F8400001B0BDEC028BD4
:100FC000BDE8F04F07F0E0BD840B0020540D002079
:100FD0004C000020FFFF7F4B440000204000002019
:100FE000310000203F00002050000020B30000200E
:100FF00010B54FF40051094803F0F7FD01210848EE
:1010000003F0F3FD4FF48061064803F0ECFDBDE80A
:1010100010400421044803F0E6BD0000000802402F
:1010200000000240001C02400010024030B587B0B2
:10103000054628784C4C04F8280C687804F8270CEE
:10104000A87804F8260CE91C684607F0B1FD9DF865
:10105000000004F8240C019844F8200C029844F88D
:101060001C0C039844F8180C049844F8140C0598C8
:1010700044F8100C069844F80C0C687A04F8080C34
:10108000687A04F8080C05F10A01684607F090FD3B
:101090009DF8000004F8040C01982060029860603C
:1010A0000398A0600498E06005982061069860614C
:1010B000287C2076687CA07605F11201684607F04E
:1010C00077FD9DF800002077019820620298606209
:1010D0000398A0620498E062059820630698606314
:1010E00005F11801684607F063FD9DF8000084F8DB
:1010F00038000198E06302982064039860640498C3
:10110000A0640598E0640698206505F11E01684614
:1011100007F04EFD9DF8000084F854000198A0658A
:101120000298E06503982066049860660598A066BA
:101130000698E06605F12401684607F039FD9DF840
:10114000000084F87000019860670298A067039817
:10115000E0670498C4F880000598C4F884000698F5
:10116000C4F8880007B030BDAC0B002010B50121D9
:10117000CC05204605F0A6FA2046BDE81040002127
:1011800005F0A0BA01460020024A52680A4200D087
:101190000120704700B0024030B500242A4B196886
:1011A0002A4A114019601968026811431960596B85
:1011B00021F007015963596B426811435963416833
:1011C000002928D001292DD0022930D0032933D07D
:1011D000C1680A0101690902446924038568214341
:1011E00015430D43996B0D439D638169D963196C58
:1011F0006FF30D011964196CC26911431964818C74
:1012000009045A6C02F040425A645A6C006A024364
:101210000A435A6430BDC1680A02018A0904047D88
:101220002406DBE7C1680A02018A0904D6E7C1681F
:101230004A010169C902D1E7C1684A01016989020D
:101240004469E403CAE7000000B00240FCE0FCFF90
:101250000248016841F001010160704700B002409E
:101260000CB5094B1B788DF8063000910749895C55
:101270008DF8041005490A31895C8DF80510DDE907
:10128000001206C00CBD00002E000020D64101084F
:10129000704710B590B0044603F07AF90122214658
:1012A00001A801F0EFFD9DF804008DF824000298DC
:1012B0000A9003980B9004980C9005980D9006984E
:1012C0000E9007980F9009A800F07AF808900898F7
:1012D00010B010BD10B590B0044603F071F90022B3
:1012E000214601A801F0CEFD9DF804008DF82400F0
:1012F00002980A9003980B9004980C9005980D9012
:1013000006980E9007980F9009A800F059F80890D9
:10131000089810B010BD000070B586B00121022001
:1013200005F0C2F90121880405F0E8F9224E0722F0
:101330000B21304603F040FC07220A21304603F01F
:101340003BFC00248DF8164001208DF81700022583
:101350008DF81450810204918DF8155004A930467F
:1013600003F0ECFB8DF81450A802049004A9304659
:1013700003F0E4FB4FF416500090ADF80440ADF8D4
:101380000640ADF80840ADF80C400C20ADF80A005E
:101390000A4C694620460AF0F5FF04F0F9FE0122E6
:1013A00040F2255120460AF0D2FF012120460AF0E2
:1013B0003BFF06B070BD0000000402400048004042
:1013C000416842F21072914204D941680A22B1FB8D
:1013D000F2F141604068704738B5002000901D4927
:1013E0001D4842F210734EF660242EE09DF8002056
:1013F00000EBC202D2F8B4209DF8005001EBC50505
:101400006D68AA420CD89DF8002000EBC202D2F809
:10141000B4209DF8005001EBC5056D68AA4210D2BA
:101420009DF80020032A06D29DF8002000EBC2029E
:10143000C2F8B43005E09DF8002000EBC202C2F80B
:10144000B4409DF80020521C00929DF80020052A0F
:10145000CCD338BD7C000020840B00201CB54FF499
:101460000050009000208DF804000C218DF805102C
:101470008DF80600684603F08BF91CBD2DE9FC5F72
:101480000446012C0BD000200090744D00984FF4BE
:101490007F0948F28B6820B1C5F8049003E0012071
:1014A000F2E7C5F804804FF4A07610237A220421D5
:1014B000304603F04FFF6A4F4FF0000A97F8E704F9
:1014C000012801D987F8E7A497F8E704002300EB87
:1014D000400101EBC00163480A18042130460EF0B8
:1014E0008DFCDFF880B197F8E704ABF10E0BB8B3D1
:1014F0000220019030E00198844201D1012000E0F7
:1015000000200090009810B1C5F8049001E0C5F8E3
:10151000048001981A26801E00EB800006EB8000F4
:1015200081B210237A226C2003F014FF019800236B
:10153000384490F8DB04C0EBC00000EB0B020198CC
:10154000801E00EB800006EB800081B26C200EF064
:1015500055FC0198401C019001980C28CBD327E042
:10156000FFE7C5F80480B5234FF4DD722E2100207B
:1015700003F0F0FE022C06D000200090009820B16D
:10158000C5F8049003E00120F7E7C5F804801023B4
:101590007A221A216C2003F0DDFE97F8DD04002387
:1015A000C0EBC00000EB0B021A216C200EF026FCF1
:1015B00001F022FC2C4854266FF07F410C2C29D2DC
:1015C000DFE804F0060A2A2A2A2A2A2A2A2A2A2AAC
:1015D000BDE8FC5F00F004BF2960686097F8C804AC
:1015E000CDF804A01F4C12E00198002300EB40014D
:1015F00001EBC00002190198F12100EB800006EB1D
:10160000001080B20EF0FAFB0198401C0190019886
:101610000228E9D3BDE8FC9F2960686097F8C804F8
:1016200010B1104C2C3401E00E4C0E3CCDF804A04F
:1016300010E001980023C0EBC00002190198F121CD
:1016400000EB800006EB001080B20EF0D7FB019893
:10165000401C019001980228EBD3DBE7CC0000206E
:10166000540D0020FC3D0108380031002DE9FC5FDD
:101670000446012C0AD000200090D14D00984FF470
:101680007F0748F28B6918B16F6003E00120F3E730
:10169000C5F804904FF4A07810237A220421404624
:1016A00003F058FEC74E307B012801D9002030736B
:1016B00096F8C80460B1307B002300EB400101EBD9
:1016C000C001C1480A18042140460EF097FB0CE007
:1016D000307B002300EB400101EBC001BA48163813
:1016E0000A18042140460EF089FB307BDFF8DCA2AB
:1016F0004FF4B37B00287DD0022001904FF01A08F0
:1017000042E00198844201D1012000E000200090D5
:10171000009808B16F6001E0C5F804900198801E40
:10172000C0EBC00006EB800081694069C9B20023AC
:10173000052203F0EFFA01981023801E00EB8000D1
:1017400008EB800081B27A226C2003F003FE01983E
:10175000801EC0EBC00006EB8000C06900EB4000BB
:101760000AEB40019A48FEF761FD01980023801EB4
:1017700000EB800008EB800081B2954A6C200EF0EF
:101780003DFB0198401C019001980C28B9D3022020
:10179000019048E001980A30844201D1012000E024
:1017A00000200090009808B16F6001E0C5F8049037
:1017B0000198801EC0EBC00006EB8000D0F830110D
:1017C000D0F82C01C9B20023052203F0A3FA019836
:1017D0001023801E00EB800008EB800081B27A228B
:1017E000584603F0B7FD0198801EC0EBC00006EB21
:1017F000800000E01BE0D0F8340100EB40000AEB71
:1018000040017348FEF712FD01980023801E00EB93
:10181000800008EB800081B26D4A58460EF0EEFA67
:101820000198401C019001980C28B3D359E0C5F8E9
:101830000490E3234FF4DD722E21002003F08AFD93
:10184000022C05D000200090009818B16F6003E0D2
:101850000120F8E7C5F80490B069C1B270690023AF
:10186000052203F057FA10237A221A216C2003F084
:1018700071FDF06900EB40000AEB40015448FEF7AF
:10188000D5FC0023524A1A216C200EF0B7FA032C23
:1018900005D000200090009818B16F6003E001208F
:1018A000F8E7C5F80490D6F83001C1B2D6F82C019B
:1018B0000023052203F02EFA10237A221A2158461B
:1018C00003F048FDD6F8340100EB40000AEB40017C
:1018D0003F48FEF7ABFC00233D4A1A2158460EF064
:1018E0008DFA01F089FA3B496FF07F40162C31D216
:1018F000DFE804F00B104E4E4E4E4E4E4E4E4E4E06
:101900004E4E4E4E4E4E4E4E4E4EBDE8FC5F0020AB
:1019100000F0BEBF2860696096F8C8045424D8B1AE
:1019200000200190284D12E00198002300EB4001B7
:1019300001EBC00042190198F12100EB800004EB9B
:10194000001080B20EF05AFA0198401C01900198E4
:101950000228E9D3BDE8FC9F002001901A4D163DF6
:1019600012E00198002300EB400101EBC000421996
:101970000198F12100EB800004EB001080B20EF022
:101980003DFA0198401C019001980228E9D3E1E753
:101990002860696096F8C80440B102B00023BDE831
:1019A000F05FF1210CA254200EF028BA02B00023FF
:1019B000BDE8F05FF1210AA254200EF01FBA00002A
:1019C000CC000020540D0020123E0108163F0108F3
:1019D000B414002038003100494E50555400000026
:1019E000CAE4C8EB000000002DE9FC5F0446012CAE
:1019F0000AD000200090C54D00984FF47F0748F2B0
:101A00008B6918B16F6003E00120F3E7C5F804901B
:101A10004FF4A078102384220421404603F09AFC5E
:101A2000BB4E4FF0000B96F84002012801D986F812
:101A300040B296F8C80460B1307B002300EB40014F
:101A400001EBC001B3480A18042140460EF0D6F954
:101A50000DE096F84002002300EB400101EBC001CD
:101A6000AC4816380A18042140460EF0C7F996F81B
:101A700040024FF4B37A00287DD0022001904FF04D
:101A80001A083AE00198844201D1012000E00020C8
:101A90000090009808B16F6001E0C5F804900198CB
:101AA000801EC0EBC00006EB8000D0F84C12D0F8CE
:101AB0004802C9B20023062203F02CF90198102332
:101AC000801E00EB800008EB800081B284226C2035
:101AD00003F040FC90A19148FEF7A8FB0198002379
:101AE000801E00EB800008EB800081B28B4A6C20E6
:101AF0000EF084F90198401C019001980C28C1D384
:101B0000022001903DE001980A30844201D1012079
:101B100000E000200090009808B16F6001E0C5F877
:101B200004900198801EC0EBC00006EB8000D0F846
:101B30006413D0F86003C9B20023062203F0EAF868
:101B400001981023801E00EB800008EB800081B21A
:101B50008422504603F0FEFB6FA17048FEF766FB3F
:101B600001986E4A801E00EB800008EB800081B275
:101B70000023504600E008E00EF040F90198401CB8
:101B8000019001980C28BED352E0C5F80490E323DD
:101B90004FF4DD722E21002003F0DCFB022C05D077
:101BA00000200090009818B16F6003E00120F8E772
:101BB000C5F80490D6F84C02C1B2D6F8480200230A
:101BC000062203F0A7F8102384221A216C2003F0C8
:101BD000C1FB51A15148FEF729FB00234F4A1A21AE
:101BE0006C200EF00BF9032C05D00020009000981B
:101BF00018B16F6003E00120F8E7C5F80490D6F84B
:101C00006403C1B2D6F860030023062203F082F811
:101C1000102384221A21504603F09CFB3EA13F482A
:101C2000FEF704FB00233D4A1A2150460EF0E6F869
:101C300001F0E2F83A496FF07F40162C31D2DFE82C
:101C400004F00B104E4E4E4E4E4E4E4E4E4E4E4EDD
:101C50004E4E4E4E4E4E4E4EBDE8FC5F002000F004
:101C600037BF2860696096F8C8045424D8B1CDF80D
:101C700004B0284D12E00198002300EB400101EB75
:101C8000C00042190198F12100EB800004EB001024
:101C900080B20EF0B3F80198401C01900198022820
:101CA000E9D3BDE8FC9FCDF804B01A4D163D12E013
:101CB0000198002300EB400101EBC000421901989C
:101CC000F12100EB800004EB001080B20EF096F8DA
:101CD0000198401C019001980228E9D3E1E72860AF
:101CE000696096F8C80440B102B00023BDE8F05F17
:101CF000F1210CA254200EF081B802B00023BDE8FF
:101D0000F05FF12109A254200EF078B8CC00002039
:101D1000540D0020123E010856000000B4140020AB
:101D200038003100494E505554000000CAE4C8EB59
:101D3000000000002DE9FC470546012D0AD00020D7
:101D400000904FF47F0648F28B68FE4C009818B163
:101D5000666003E00120F3E7C4F80480FA4F97F8C7
:101D6000C80410B1DFF8E49303E0DFF8E093A9F1D1
:101D70001C09102368221A21582003F0EBFA387846
:101D80000023C0EBC00000EB09021A2158200EF01E
:101D900035F8022D05D000200090009818B166603B
:101DA00003E00120F8E7C4F8048097F8C80420B1E4
:101DB000DFF8989309F1380903E0DFF8909309F10F
:101DC0001C09102368222E21582003F0C3FA7878CA
:101DD0000023C0EBC00000EB09022E2158200EF0BA
:101DE0000DF8032D05D000200090009818B1666012
:101DF00003E00120F8E7C4F8048097F8C80420B194
:101E0000DFF8489309F18E0903E0DFF8409309F108
:101E10005409102368224221582003F09BFAB87815
:101E20000023C0EBC00000EB0902422158200DF056
:101E3000E5FF042D05D000200090009818B16660E1
:101E400003E00120F8E7C4F8048097F8C80420B143
:101E5000DFF8F89209F19C0903E0DFF8F09209F14C
:101E6000AA09102368225621582003F073FAF87843
:101E70000023C0EBC00000EB0902562158200DF0F2
:101E8000BDFF052D05D000200090009818B16660B8
:101E900003E00120F8E7C4F8048097F8C80410B103
:101EA000DFF8AC9203E0DFF8A892A9F14D094FF4F6
:101EB000A97A102368221A21504603F04BFA787948
:101EC000A0B138790023401C00EB400101EBC000B9
:101ED00000EB09021A2150460DF090FF062D0CD0A0
:101EE00000200090009850B166600AE000234A4646
:101EF0001A2150460DF082FFF0E70120F1E7C4F807
:101F0000048097F8C80420B1DFF84492A9F162096F
:101F100003E0DFF83C92A9F17709102368222E2113
:101F2000504603F017FAB8790023C0EBC00000EB6D
:101F300009022E2150460DF061FF072D05D000202B
:101F40000090009818B1666003E00120F8E7C4F83B
:101F5000048097F8C80420B1DFF8F09109F18E09E8
:101F600003E0DFF8E89109F15409102368224221C7
:101F7000504603F0EFF9F8790023C0EBC00000EB06
:101F80000902422150460DF039FF082D05D00020EE
:101F90000090009818B1666003E00120F8E7C4F8EB
:101FA000048097F8C80410B1684E8E3601E0674E81
:101FB0005436102368225621504603F0CBF9387A64
:101FC0000023C0EBC0008219562150460DF016FFC9
:101FD00000F012FF00205F4A54266FF07F41092D68
:101FE00029D2DFE805F005092A4B6CD9FBB98D0031
:101FF000BDE8FC4700F018B92160626097F8C8148A
:1020000009B1524C01E0514C1C3C019010E0019888
:102010000023C0EBC00002190198F12100EB800001
:1020200006EB001080B20DF0E9FE0198401C019013
:1020300001980428EBD3BDE8FC872160626097F823
:10204000C81411B1414C383401E0404C1C340190AB
:1020500010E001980023C0EBC00002190198F121A3
:1020600000EB800006EB001080B20DF0C7FE019877
:10207000401C019001980228EBD3DCE721606260EC
:1020800097F8C81411B1314C8E3401E02F4C543400
:10209000019010E001980023C0EBC00002190198E4
:1020A000F12100EB800006EB001080B20DF0A6FEDF
:1020B0000198401C019001980228EBD3BBE72160F6
:1020C000626097F8C81411B1214C933C01E0204C98
:1020D000853C019010E001980023C0EBC00002197C
:1020E0000198F12100EB800006EB001080B20DF0AA
:1020F00085FE0198401C019001980228EBD39AE7D5
:102100002160626097F8C81411B1104C8E3401E060
:102110000E4C5434019010E001980023C0EBC00035
:1021200002190198F12100EB800006EB001080B24B
:102130000DF064FE0198401C019001980228EBD339
:1021400079E70000CC000020540D00209A3D0108E2
:10215000C93E0108380031002160626097F8C81458
:1021600009B12F4C01E02E4C3A3C019010E001984F
:102170000023C0EBC00002190198F12100EB8000A0
:1021800006EB001080B20DF039FE0198401C019062
:1021900001980228EBD34EE72160626097F8C814DB
:1021A00009B1204C00E01F4C019012E0019800237F
:1021B00000EB400101EBC00002190198F12100EB96
:1021C000800006EB001080B20DF018FE0198401C54
:1021D000019001980428E9D32DE7FFE721606260B0
:1021E00097F8C81411B10E4C3F3401E00C4C2A345E
:1021F000019010E001980023C0EBC0000219019883
:10220000F12100EB800006EB001080B20DF0F6FD2E
:102210000198401C019001980328EBD30BE70000C4
:10222000283E0108283F010870B500F0E5FD45484B
:102230006FF07F41016044494160444890F8C81400
:102240004FF4A2754FF4CA7400293DD0002340A278
:10225000E72154200DF0D2FD00233FA2FB215420A2
:102260000DF0CCFD00233EA2E721A4200DF0C6FD19
:1022700000233CA2FB21A4200DF0C0FD00233BA2C3
:10228000E721F4200DF0BAFD002336A2FB21F42053
:102290000DF0B4FD002337A2E72128460DF0AEFD76
:1022A000002336A2FB2128460DF0A8FD002335A20D
:1022B000E72120460DF0A2FD2046BDE87040002336
:1022C00031A2FB210DF09ABD002331A2E721542059
:1022D0000DF094FD002330A2FB2154200DF08EFD63
:1022E00000232FA2E721A4200DF088FD00232EA2B9
:1022F000FB21A4200DF082FD00232DA2E721F42074
:102300000DF07CFD002328A2FB21F4200DF076FDCA
:10231000002329A2E72128460DF070FD002328A202
:10232000FB2128460DF06AFD002327A2E721204665
:102330000DF064FD2046BDE87040002324A2FB217F
:102340000DF05CBDCC00002038003100540D0020A1
:102350004D45415300000000444953500000000027
:1023600052455300434F4D500000000020564F4C43
:10237000000000004348414E4E00000053454C4CC5
:1023800000000000535953005345545550000000BD
:1023900020B2E2C1BF00000020CFD4CABE000000BE
:1023A00020B5E7D7E800000020B1C8BDCF0000008D
:1023B00020B5E7D1B900000020CDA8B5C0000000CD
:1023C00020D1A1D4F100000020CFB5CDB300000092
:1023D00020C9E8D6C3000000022000F0D9B80000F0
:1023E00070B500F009FD45486FF07F410160444938
:1023F0004160444890F8C8144FF4A2754FF4CA7471
:1024000000293DD0002340A2E72154200DF0F6FC26
:1024100000233FA2FB2154200DF0F0FC00233EA23C
:10242000E721A4200DF0EAFC00233CA2FB21A4201C
:102430000DF0E4FC00233BA2E721F4200DF0DEFCCC
:10244000002336A2FB21F4200DF0D8FC002337A294
:10245000E72128460DF0D2FC002336A2FB212846B6
:102460000DF0CCFC002335A2E72120460DF0C6FC80
:102470002046BDE87040002331A2FB210DF0BEBC18
:10248000002331A2E72154200DF0B8FC002330A234
:10249000FB2154200DF0B2FC00232FA2E721A42041
:1024A0000DF0ACFC00232EA2FB21A4200DF0A6FC15
:1024B00000232DA2E721F4200DF0A0FC00232CA284
:1024C000FB21F4200DF09AFC00232BA2E7212846E3
:1024D0000DF094FC00232AA2FB2128460DF08EFC6F
:1024E000002325A2E72120460DF088FC2046BDE808
:1024F0007040002324A2FB210DF080BCCC00002002
:1025000038003100540D00204D45415300000000BB
:10251000444953500000000052455300434F4D5072
:102520000000000020564F4C000000004348414E80
:102530004E00000053454C4C00000000535953001E
:10254000534554555000000020B2E2C1BF000000C6
:1025500020CFD4CABE00000020B5E7D7E8000000B5
:1025600020B1C8BDCF00000020B5E7D1B900000000
:1025700020D1A1D4F100000020CFB5CDB3000000E0
:1025800020C9E8D6C300000020D0C5CFA2000000BB
:1025900070B5044600F030FC93489449944B6FF0BA
:1025A0007F424FF4A275002C49D04FF4CA76012C1B
:1025B0007ED0022C7DD10260416093F8C8040028CF
:1025C00078D000238BA2E72154200DF017FC0023C4
:1025D0008AA2FB2154200DF011FC002385A2E721E3
:1025E000A4200DF00BFC002386A2FB21A4200DF0FB
:1025F00005FC002385A2E721F4200DF0FFFB00235A
:1026000080A2FB21F4200DF0F9FB002381A2E72139
:1026100028460DF0F3FB00237FA2FB2128460DF096
:10262000EDFB00237BA2E72130460DF0E7FB3046AF
:10263000BDE8704000237AA2FB210DF0DFBB0260F1
:10264000416093F8C804002831D0002369A2E72133
:1026500054200DF0D3FB002368A2FB2154200DF081
:10266000CDFB002363A2E721A4200DF0C7FB0023CC
:1026700064A2FB21A4200DF0C1FB002363A2E7218B
:10268000F4200DF0BBFB00235EA2FB21F4200DF033
:10269000B5FB00235FA2E72128460DF0AFFB2846DB
:1026A000BDE8704000235CA2FB210DF0A7BB02E057
:1026B00033E098E059E000235BA2E72154200DF0BD
:1026C0009DFB00235AA2FB2154200DF097FB002311
:1026D00055A2E721A4200DF091FB002356A2FB2177
:1026E000A4200DF08BFB002355A2E721F4200DF070
:1026F00085FB002350A2FB21F4200DF07FFB00237B
:102700004FA2E72128460DF079FB2846BDE870402E
:1027100000234DA2FB210DF071BB0260416000233C
:102720004BA2E72154200DF069FB00234AA2FB21B4
:1027300054200DF063FB002349A2E721A4200DF0F3
:102740005DFB002348A2FB21A4200DF057FB0023D2
:1027500047A2E72130460DF051FB3046BDE87040FE
:10276000002345A2FB210DF049BB00232EA2E72147
:1027700054200DF043FB00232DA2FB2154200DF02B
:102780003DFB002328A2E721A4200DF037FB002306
:1027900029A2FB21A4200DF031FB002328A2E72170
:1027A000F4200DF02BFB002323A2FB21F4200DF0DD
:1027B00025FB002322A2E72128460DF01FFB002362
:1027C00021A2FB2128460DF019FB00232CA2E721B2
:1027D00030460DF013FB3046BDE8704000232AA2BE
:1027E000FB210DF00BBB70BDCC0000203800310088
:1027F000540D00204D454153000000004449535002
:102800000000000053455455500000002053595318
:102810000000000053595300494E464F000000008D
:102820005550444154450000B2E2C1BF00000000D1
:10283000CFD4CABE00000000C9E8D6C30000000023
:10284000CFB5CDB300000000D0C5CFA2000000007E
:10285000CEC4BCFE00000000B9DCC0ED00000000EA
:10286000B1A3B4E600000000CAFDBEDD0000000018
:10287000B8FCB6E00000000020322F32000000005B
:10288000B9CCBCFE00000000C9FDBCB600000000D1
:1028900070B5054600F0B0FA5C485D4A6FF07F41C4
:1028A0004FF4CA744DB3012D7ED101604260002304
:1028B00058A2E72154200DF0A1FA002357A2FB21D2
:1028C00054200DF09BFA002356A2E721A4200DF01E
:1028D00095FA002355A2FB21A4200DF08FFA0023C6
:1028E00054A2E72120460DF089FA2046BDE8704049
:1028F000002352A2FB210DF081BA016042605148D1
:1029000090F8C8044FF4A27500283DD000234EA2D1
:10291000E72154200DF072FA00234DA2FB21542030
:102920000DF06CFA00234CA2E721A4200DF066FA0A
:1029300000234AA2FB21A4200DF060FA002349A243
:10294000E721F4200DF05AFA002348A2FB21F420DD
:102950000DF054FA002347A2E72128460DF04EFA65
:10296000002345A2FB2128460DF048FA002341A28E
:10297000E72120460DF042FA2046BDE870400023D2
:102980003FA2FB210DF03ABA00233FA2E7215420D9
:102990000DF034FA00233EA2FB2154200DF02EFA54
:1029A00000233DA2E72100E02EE0A4200DF026FA4E
:1029B00000233BA2FB21A4200DF020FA00233AA221
:1029C000E721F4200DF01AFA002339A2FB21F420AC
:1029D0000DF014FA002338A2E72128460DF00EFA74
:1029E000002337A2FB2128460DF008FA002332A26B
:1029F000E72120460DF002FA2046BDE87040002392
:102A000031A2FB210DF0FAB970BD0000CC0000200E
:102A100038003100CEC4BCFE00000000B9DCC0EDBF
:102A200000000000B1A3B4E600000000CAFDBEDD56
:102A300000000000B8FCB6E00000000020322F3299
:102A400000000000540D00204D45415300000000DF
:102A50004449535000000000564F4C00434F4D5026
:102A6000000000004348414E0000000053454C4C1C
:102A70004500000053595300534554555000000081
:102A8000494E464F00000000B2E2C1BF0000000006
:102A9000CFD4CABE00000000B5E7D1B900000000E5
:102AA000B1C8BDCF00000000CDA8B5C00000000037
:102AB000D1A1D4F100000000CFB5CDB300000000DB
:102AC000C9E8D6C300000000D0C5CFA200000000B6
:102AD00070B5054600F090F95C485D4A6FF07F41A3
:102AE0004FF4CA744DB3012D7ED1016042600023C2
:102AF00058A2E72154200DF081F9002357A2FB21B1
:102B000054200DF07BF9002356A2E721A4200DF0FC
:102B100075F9002355A2FB21A4200DF06FF90023C5
:102B200054A2E72120460DF069F92046BDE8704027
:102B3000002352A2FB210DF061B9016042605148AF
:102B400090F8C8044FF4A27500283DD000234EA28F
:102B5000E72154200DF052F900234DA2FB2154200F
:102B60000DF04CF900234CA2E721A4200DF046F90A
:102B700000234AA2FB21A4200DF040F9002349A222
:102B8000E721F4200DF03AF9002348A2FB21F420BC
:102B90000DF034F9002347A2E72128460DF02EF965
:102BA000002345A2FB2128460DF028F9002341A26D
:102BB000E72120460DF022F92046BDE870400023B1
:102BC0003FA2FB210DF01AB900233FA2E7215420B8
:102BD0000DF014F900233EA2FB2154200DF00EF954
:102BE00000233DA2E72100E02EE0A4200DF006F92D
:102BF00000233BA2FB21A4200DF000F900233AA200
:102C0000E721F4200DF0FAF8002339A2FB21F4208B
:102C10000DF0F4F8002338A2E72128460DF0EEF875
:102C2000002337A2FB2128460DF0E8F8002332A24A
:102C3000E72120460DF0E2F82046BDE87040002371
:102C400031A2FB210DF0DAB870BD0000CC000020ED
:102C500038003100CEC4BCFE00000000B9DCC0ED7D
:102C600000000000B1A3B4E600000000CAFDBEDD14
:102C700000000000B8FCB6E00000000020322F3257
:102C800000000000540D00204D454153000000009D
:102C9000444953500000000052455300434F4D50EB
:102CA000000000004348414E0000000053454C4CDA
:102CB000450000005359530053455455500000003F
:102CC000494E464F00000000B2E2C1BF00000000C4
:102CD000CFD4CABE00000000B5E7D7E8000000006E
:102CE000B1C8BDCF00000000CDA8B5C000000000F5
:102CF000D1A1D4F100000000CFB5CDB30000000099
:102D0000C9E8D6C300000000D0C5CFA20000000073
:102D10000FB410B59DF80800002812D09DF80800E7
:102D2000032807D99DF8101000230622039801F00C
:102D3000F1FF06E09DF8181000230722059801F026
:102D4000E9FF9DF808001A2110BC00EBC00001EB60
:102D500040010123034A4FF4A0705DF814EB0DF01D
:102D60004DB80000B414002071B581B0002000906F
:102D70001D4C48F28B6531E09DF804100098401C12
:102D8000814203D14FF47F01616000E0656000EB98
:102D9000C0001A2606EB400081B212235A22A0205E
:102DA00002F0D8FA11480099415C1148009A00EBF2
:102DB000C200D0F8B4000023062201F0ABFF009857
:102DC0000123401C00EBC00006EB400081B2094A21
:102DD000A0200DF013F80098401C009000980528E2
:102DE000CAD365607CBD0000CC00002060000020DC
:102DF000840B0020B41400202DE9F05F0024DFF8DC
:102E000078801E4EDFF878A000274FF04C094FF075
:102E1000010BC6F8048004EB4401A00001EB04118F
:102E200000EB810080B22C234C22E42102F092FAC4
:102E3000C6F804A004EB84050BEB051080B2012357
:102E40004C22E32102F086FA09EB051080B22D2313
:102E50000122E32102F07EFA77604D2000EB05109D
:102E600080B22D230322E32102F074FA641C062CA5
:102E7000CFD3BDE8F09F000038003100CC00002027
:102E8000684369002DE9F04F93B080460E4601205B
:102E900012900C9000270B970A97099708970397B1
:102EA0000297049702970D974FF0200A0FAD07E0A5
:102EB0009DF8340005F800A09DF83400401C0D90EA
:102EC0009DF834000728F3D38DF843700AB1072426
:102ED00000E00624DFF8A4B34FF02E0957E10220EA
:102EE00002F02CF90E909DF83800002846D0012100
:102EF0000C919DF838001228F8D00CDC12283DD235
:102F0000DFE800F03C3C3C60D0C3B63C3C3C3C5A63
:102F1000A99C8F3C3C3D1A28E8D009DCA0F11300A5
:102F20000728ECD2DFE800F02A6E61542A2A0E004E
:102F30001E2874D022DC1B28D8D01C2870D01D2855
:102F40001CD1C9E0049712979DF82000A04214D22A
:102F50009DF82C0088B99DF8200050B19DF8200004
:102F600005F800909DF820000A909DF82000401C74
:102F700008909DF82C00401C0B900591EEE0049108
:102F800012979DF82000A04214D29DF82C0088B919
:102F90009DF8200050B19DF8200005F800909DF8A4
:102FA00020000A909DF82000401C08909DF82C00FD
:102FB000401C0B900591D1E006208BF80000129781
:102FC0000597CBE01297059712208BF80000C5E01B
:102FD0009DF82000A04207D29DF8201031206854AF
:102FE0009DF82000401C0890B8E09DF82000A04209
:102FF00007D29DF82010322068549DF82000401C14
:103000000890ABE09DF82000A04207D29DF8201068
:10301000332068549DF82000401C08909EE04EE04C
:1030200077E09DF82000A04207D29DF820103420C0
:1030300068549DF82000401C08908FE09DF8200007
:10304000A04207D29DF82010352068549DF820003A
:10305000401C089082E09DF82000A0427ED29DF89E
:103060002010362068549DF82000401C089075E020
:103070009DF82000A04271D29DF82010372068549E
:103080009DF82000401C089068E09DF82000A042B8
:1030900064D29DF82010382068549DF82000401C10
:1030A00008905BE09DF82000A04257D29DF82010C8
:1030B000392068549DF82000401C08904EE09DF88F
:1030C0002000A0424AD29DF82010302068549DF87C
:1030D0002000401C089041E09DF82000A0423DD215
:1030E0009DF8200040B39DF82C0028BB9DF82000DF
:1030F00050B19DF8200005F800909DF820000A903E
:103100009DF82000401C08909DF82C00401C0B905E
:1031100024E09DF8200080B19DF82000401E08901A
:103120009DF8200005F800A09DF828009DF82010CB
:10313000884213D10B970A9710E09DF82000285C75
:1031400078B39DF82000285C2D2830D09DF8201001
:103150002D2068549DF82000401C08909DF83000F8
:10316000A8B10C9746486FF07F4101604FF47F0192
:103170004160B0887188103082B23088102302F02C
:10318000E9F87188308800230FAA0CF037FE9DF80B
:10319000480000287FF4A3AE9DF820000D90302059
:1031A00011E0FFE79DF820102D206854D2E79DF82C
:1031B00020102B206854CDE79DF8341068549DF8FA
:1031C0003410491C0D919DF83410A142F4D30D9791
:1031D00034E09DF83C0030282CD39DF83C00392881
:1031E00028D89DF83400285C302823D39DF834007B
:1031F000285C39281ED89DF828009DF83410884294
:103200000CD9029800EB80004000029002989DF8D3
:103210003410695C0844303802900BE0029800EBEF
:1032200080004000029002989DF83410695C0844C8
:10323000303802909DF83400401C0D909DF8340009
:10324000A042C6D39DF8280003909DF8040088F89A
:1032500000000298C8F804000398C8F80800049811
:10326000C8F80C000598C8F810000698C8F81400B3
:103270000798C8F8180013B0BDE8F08F310000209F
:10328000CC00002070B52A4E756848F28B607060E3
:10329000284C607803281BD0607860B1012326A2F7
:1032A0006C2130200CF0FAFD012323A2A321302051
:1032B0000CF0F4FD18E000231FA25C2120200CF08C
:1032C000EDFD00231CA2932120200CF0E7FD0BE074
:1032D000002319A27C2140200CF090FD002316A2AF
:1032E000B32140200CF08AFD1A21002315A2080109
:1032F0000CF084FD002313A21A21E6200CF07EFDC1
:10330000FDF776FE0020FDF7A5FBFDF797FB1623E2
:103310003C22B4214FF4C87002F01CF8756094F898
:1033200041000A490978BDE8704000F061B800002A
:10333000CC000020840B00202D2D2D2D2D2D2D2D8A
:10334000000000002020202020200000330000206A
:1033500008B513496FF07F400860124841794FF477
:10336000967000290BD0012911D0022906D10E49EF
:103370000091372328225C2102F07AFB08BD0B491B
:103380000091372328225C2102F072FB08BD084916
:103390000091372328225C2102F06AFB08BD00005F
:1033A000CC0000206C0000204E770708877A0708C1
:1033B000E67F070818B50B496FF07F4008600A48A0
:1033C0004FF4AA740090372328225C21204602F093
:1033D0004FFB06490091372328229321204602F013
:1033E00047FB18BDCC000020C07D070845850708B5
:1033F000012800D90120062900D906210A4B48F2EC
:103400008B625A60C0EBC000084A00EB400002EB40
:10341000800001EB410100EB81020023D22140F248
:103420009F100CF0EBBC0000CC0000200441010810
:1034300030B595B004460D4601F0AAF801222946A0
:103440006846FFF71FFD9DF800008DF838000198D1
:103450000F9002981090039811900498129005987C
:103460001390069814900EA9684601F0F1FC9DF89F
:1034700000008DF81C0001980890029809900398AC
:103480000A9004980B9005980C9006980D900B9854
:1034900018B90020099008900A909DF81C0020702F
:1034A000089860600998A0600A98E0600B98206115
:1034B0000C9860610D98A06115B030BD30B595B025
:1034C00004460D4601F07CF8002229466846FFF7C5
:1034D000D9FC9DF800008DF8380001980F900298F3
:1034E00010900398119004981290059813900698E4
:1034F00014900EA9684608F021FD9DF800008DF893
:103500001C00019808900298099003980A9004986A
:103510000B9005980C9006980D900B9818B9002008
:10352000099008900A909DF81C002070089860602F
:103530000998A0600A98E0600B9820610C9860617F
:103540000D98A06115B030BD2DE9F0470024DFF8DB
:103550008880224F1A264FF4947908EB040090F8E3
:10356000DD0498B14FF47F40386004EB840006EB33
:1035700080010D4600231AA21E200CF03FFC2946B4
:1035800000231AA248460CF039FC1EE018483860A7
:1035900004EB840006EB8005002316A229461E20BA
:1035A0000CF02CFC2946002310A248460CF026FC07
:1035B0002946002312A26E200CF020FC294600238D
:1035C0000FA24FF4A3700CF019FC641CE4B20A2C97
:1035D000C3D3BDE8F0870000540D0020CC000020CC
:1035E0004F50454E2020523A00000000563A00004D
:1035F000C0C0C000434C4F534520523A0000000069
:103600002D2D2D2D2D2D2D2D2D2D2D2D2D2D2D0017
:1036100070B500F0A1F81E4C6FF07F4525601D4885
:1036200060601D4E96F8C80408B11C4A01E01B4AB0
:10363000F23A0023DC32042118460CF0DFFB25604F
:1036400048F28B60606096F8C80408B1144D01E040
:10365000134D543D00241A26C4EBC40000EB400077
:10366000421904EB840006EB800081B20023184667
:103670000CF0C4FB641C042CEED30023094A562131
:1036800052200CF0BBFBBDE870400020FEF780BF6D
:10369000CC0000200352F300540D0020003B010831
:1036A000B0400108CC13002070B500241825601C20
:1036B00000EB800005EB800081B2012364225A20D8
:1036C00001F048FE641C072CF1D370BD2DE9F041D8
:1036D00000F042F81B4E6FF07F4737601A48706069
:1036E0001A4C94F8C80408B1194A01E0184AF23A91
:1036F0000023B032042118460CF080FB376048F2FA
:103700008B60706094F8C80408B1124D01E0114D4F
:10371000583D00244FF01A0804EB440000EBC400AD
:10372000421904EB840008EB800081B200231846A4
:103730000CF064FB641C082CEED37760BDE8F0410C
:10374000FFF7B2BFCC0000200352F300540D00205D
:10375000003B0108AC3F010810B500F093FEBDE846
:103760001040FFF749BB00002DE9FF5F044600272A
:103770008DF80770012C0AD000200290FA4D0298B3
:103780004FF47F0648F28B6B18B16E6003E00120A6
:10379000F3E7C5F804B0DFF8D48398F8C80410B193
:1037A000DFF8CC9303E0DFF8C893A9F13A091023BE
:1037B00066221A215A2001F0CDFD98F8C404002396
:1037C000C0EBC00000EB09021C215A200CF016FBD4
:1037D000022C05D000200290029818B16E6003E020
:1037E0000120F8E7C5F804B0102366222E215A20E4
:1037F00001F0B0FD98F8C504DFF87893C0EBC00085
:1038000000EB0902002330215A200CF0F7FA032CB8
:1038100005D000200290029818B16E6003E00120EC
:10382000F8E7C5F804B098F8C80410B1DFF840A371
:1038300003E0DFF83CA3AAF13A0A102366224221F2
:103840005A2001F087FD98F8C6040023C0EBC000A1
:1038500000EB0A0244215A200CF0D0FA042C05D0C7
:1038600000200290029818B16E6003E00120F8E792
:10387000C5F804B098F8C80410B1DFF8F4A203E06A
:10388000DFF8ECA2AAF13A0A1023662256215A2048
:1038900001F060FD98F8C7040023C0EBC00000EB06
:1038A0000A0258215A200CF0A9FA052C05D0002054
:1038B0000290029818B16E6003E00120F8E7C5F8A5
:1038C00004B0102366226A215A2001F043FD98F8C3
:1038D000C804DFF8A0A200230AF1380A0AEBC002EC
:1038E0006C215A200CF08AFA01A9002003F03EF95D
:1038F0006946002003F008F9062C05D0002002904C
:10390000029818B16E6003E00120F8E7C5F804B032
:10391000102312227E215A2001F01CFD9DF8032065
:1039200095A196480CF00CFB0023944A80215A2064
:103930000CF064FAC5F804B0002391A280216E2037
:103940000CF05CFA072C05D000200290029818B108
:103950006E6003E00120F8E7C5F804B010231222DE
:103960007E21782001F0F6FC9DF8012082A1834899
:103970000CF0E6FA0023814A802178200CF03EFA10
:10398000C5F804B000237EA280218C200CF036FA0A
:10399000082C05D000200290029818B16E6003E058
:1039A0000120F8E7C5F804B0102312227E219820E8
:1039B00001F0D0FC9DF802206FA170480CF0C0FA15
:1039C00000236E4A802198200CF018FA092C05D0AB
:1039D00000200290029818B16E6003E00120F8E721
:1039E000C5F804B01023122292215A2001F0B2FC33
:1039F0009DF8042060A161480CF0A2FA00235F4A00
:103A000094215A200CF0FAF9C5F804B000235DA205
:103A100094216E200CF0F2F90A2C05D000200290BF
:103A2000029818B16E6003E00120F8E7C5F804B011
:103A3000102312229221782001F08CFC9DF80520A1
:103A40004DA14E480CF07CFA00234C4A942178207A
:103A50000CF0D4F9C5F804B000234AA294218C20BC
:103A60000CF0CCF90B2C05D000200290029818B174
:103A70006E6003E00120F8E7C5F804B010231222BD
:103A80009221982001F066FC9DF806203AA13B485F
:103A90000CF056FA0023394A942198200CF0AEF924
:103AA0000C2C05D000200290029818B16E6003E043
:103AB0000120F8E7C5F804B010236622A6215A2099
:103AC00001F048FC0023304AA8215A200CF096F956
:103AD000FFF792F96FF07F4028602C48686054250A
:103AE0000C2C09D2DFE804F0060A28547290A5A530
:103AF000A5A5A5A5FEF770FCBDE8FF9F98F8C80432
:103B000008B11B4C01E01A4C3A3C039710E00398B3
:103B10000023C0EBC00002190398F12100EB8000E4
:103B200005EB001080B20CF069F90398401C03907B
:103B300003980228EBD3DFE7039711E003980023F3
:103B4000C0EBC00000EB09020398F12100EB8000FC
:103B500005EB001080B20CF051F90398401C039063
:103B600003980528EAD3C7E7CC000020540D0020B5
:103B7000283E01080440010825326400B4140020E6
:103B80002D0000003A0000001D1200203800310016
:103B900098F8C80408B1324C01E0314C3A3C039724
:103BA00010E003980023C0EBC00002190398F12134
:103BB00000EB800005EB001080B20CF01FF90398B9
:103BC000401C039003980228EBD395E798F8C804AB
:103BD00008B1234C01E0224C3A3C039710E00398D3
:103BE0000023C0EBC00002190398F12100EB800014
:103BF00005EB001080B20CF001F90398401C039013
:103C000003980228EBD377E703970EE0039800238D
:103C10000AEBC00200EB800005EB001080B2F1213E
:103C20000CF0ECF80398401C039003980228EDD3A5
:103C300062E703970B4C0EE00398002304EBC002ED
:103C400000EB800005EB001080B2F1210CF0D6F8FB
:103C50000398401C039003980228EDD34CE7000022
:103C6000283E01084C40010810B500F00BFCBDE8EF
:103C70001040FFF7C1B810B500F004FCBDE81040DB
:103C8000FFF7BAB870B5FFF7EFFF194C6FF07F453B
:103C9000256018486060184E96F8C80408B1174AA5
:103CA00001E0164AF23A0023042118460CF0A6F867
:103CB000256048F28B606060F07898B10024104D68
:103CC0001A2604EB4400421904EB840006EB800042
:103CD00081B2002302200CF091F8641C0A2CF0D36E
:103CE000FFF732FCBDE870400020FEF751BC000039
:103CF000CC0000200352F300540D0020003B0108CB
:103D0000AC4101082DE9F047FFF7B5FF414C6FF0DA
:103D10007F45256040486060404E96F8C80408B171
:103D20003F4A01E03E4AF23A002316320421184687
:103D30000CF064F8256048F28B60606096F8C80467
:103D4000307B384A4FF482791A2770B300249046AA
:103D500004EB440000EB080204EB840007EB800551
:103D6000A9B2002302200CF049F896F8C80460B10B
:103D7000A9B200232CA220200CF040F8A9B2002305
:103D80002BA248460CF03AF80BE0A9B200232AA275
:103D900048460CF033F8A9B200232AA220200CF0E8
:103DA0002DF8641C0A2CD3D321E0FFE73946002309
:103DB00002200CF023F896F8C80460B100231AA280
:103DC000394620200CF01AF8002319A2394648463B
:103DD0000CF014F80BE000231AA2394620200CF056
:103DE0000DF8002314A2394648460CF007F896F85F
:103DF000C80438B1BDE8F0470023042114A2E6202E
:103E00000BF0FCBFBDE8F0470023042113A2E6201D
:103E10000BF0F4BFCC0000200352F300540D00203F
:103E2000003B0108AC41010848495F52455300007E
:103E30004C4F5F5245530000B5E7D7E8CFC2CFDE05
:103E400000000000B5E7D7E8C9CFCFDE00000000D2
:103E5000434F4D504D4F44453A000000B1C8BDCFCF
:103E6000B7BDCABD3A0000002DE9F047FFF703FFD8
:103E7000414C6FF07F45256040486060404E96F8A9
:103E8000C80408B13F4A01E03E4AF23A00232C320E
:103E9000042118460BF0B2FF256048F28B60606089
:103EA00096F8C80496F84002374A4FF482791A27E8
:103EB00070B30024904604EB440000EB080204EBCE
:103EC000840007EB8005A9B2002302200BF096FFC7
:103ED00096F8C80460B1A9B200232CA220200BF0F0
:103EE0008DFFA9B200232CA248460BF087FF0BE000
:103EF000A9B200232AA220200BF080FFA9B2002340
:103F00002AA248460BF07AFF641C0A2CD3D320E087
:103F10003946002302200BF071FF96F8C80460B107
:103F200000231AA2394620200BF068FF00231AA2B2
:103F3000394648460BF062FF0BE0002318A23946D1
:103F400020200BF05BFF002318A2394648460BF0F7
:103F500055FF96F8C80438B1BDE8F04700230421A6
:103F600015A2E6200BF04ABFBDE8F047002304216C
:103F700014A2E6200BF042BFCC0000200352F30055
:103F8000540D0020003B0108AC410108564F4C5F26
:103F90004849474800000000564F4C5F4C4F5700BF
:103FA000B5E7D1B9C9CFCFDE00000000B5E7D1B980
:103FB000CFC2CFDE00000000434F4D504D4F44456F
:103FC0003A000000B1C8BDCFB7BDCABD3A0000007D
:103FD0002DE9F041FFF74FFEFFF74DFE2B4E6FF03E
:103FE0007F4434602A4870602A4D95F8C80408B1AF
:103FF000294A01E0284AF23A00235832042118469F
:104000000BF0FCFE346048F28B67776095F8C804CB
:1040100008B1224D01E0214DC63D00244FF01A08A1
:10402000092C14D2E01E052801D2776000E07760E9
:1040300004EB440000EBC400421904EB840008EBDD
:10404000800081B2002318460BF0D8FE16E0A4F1E0
:104050000C00052801D2776000E0776004EB440093
:1040600000EBC4004219A4F1090000EB800008EB4A
:10407000800081B20023FA200BF0C0FE641C122CD9
:10408000CED3BDE8F041FEF7CFB80000CC00002051
:104090000352F300540D0020003B0108B83C010816
:1040A0002DE9F041FFF7E7FD3A4C6FF07F452560C1
:1040B00039486060394E96F8C80408B1384A01E0C2
:1040C000374AF23A00234232042118460BF096FE9A
:1040D000256048F28B60606096F8C80496F8E704A3
:1040E000304A1A2568B30024174604EB4400C2196D
:1040F00004EB840005EB800081B2002302200BF06A
:104100007DFE641C0A2CF0D3002496F8C80450B13C
:1041100004EB840005EB800081B2002322A2202062
:104120000BF06CFE09E004EB840005EB800081B22B
:1041300000231FA220200BF061FE641C0A2CE4D394
:1041400014E02946002302200BF058FE96F8C8041C
:1041500030B12946002314A220200BF04FFE05E0C9
:104160002946002312A220200BF048FE96F8C8042E
:1041700038B1BDE8F041002304210FA2E6200BF086
:104180003DBEBDE8F041002304210EA2E6200BF065
:1041900035BE0000CC0000200352F300540D002077
:1041A000003B0108AC4101084348414E4E0000006D
:1041B000CDA8B5C0000000005345544D4F44453ACA
:1041C00000000000C9E8D6C3B7BDCABD3A00000070
:1041D0002DE9FF4F83B0039E0024DFF87482002195
:1041E00008F80410641CE4B2092CF9D3DFF864B2B7
:1041F0009BF8070038B10BF071FD029096480078EB
:1042000008B9022002909BF8020010B102F0C4FE2F
:1042100001909BF80200914D01280FD06FF07F4074
:10422000286048F2E800864219D900242D2008F8B9
:104230000400641CE4B2062CF9D317E09DF80410C6
:104240008748204480F8A0109DF8040018B14FF46E
:104250007F002860E5E74FF47F402860E1E79DF8A4
:10426000101000230522304600F054FDDFF8F491D1
:10427000D8F80010C9F80310B8F80400A9F807002E
:10428000794F7961388379487949407900EB40006A
:1042900001EB4000018879838078387709207877AE
:1042A0004FF0200A88F806A0724E71789DF812002F
:1042B00003292BD0717839B1D8B101236EA26C21BA
:1042C00030200BF0EBFD1AE030B100236AA25C2134
:1042D00020200BF0E3FD05E0002368A25C212020F4
:1042E0000BF0DCFD00235A4A5C2140200BF0D6FD88
:1042F00020E0012361A26C2130200BF0CFFD0123CF
:10430000534A6C2140200BF0C9FD13E030B100236B
:1043100059A27C2140200BF071FD05E0002357A23B
:104320007C2140200BF06AFD0023494A7C214A2071
:104330000BF064FD9BF80700012830D06FF07F4040
:1043400028609DF8181000230622059800F0E2FC72
:10435000D8F80000C9F80B00B8F80410A9F80F103D
:1043600098F8062089F8112047F81F0FB980BA7114
:104370005620F8710920387241A00088F8811F3F4B
:1043800070789DF81A4003283CD07078C0B164B3AF
:10439000012339A2A32130200BF080FD2BE09DF8F2
:1043A00008102F48204480F8AA109DF8080018B182
:1043B0004FF47F002860C4E74FF47F402860C0E7D7
:1043C00034B100232CA2932120200BF067FD05E0DF
:1043D00000232AA2932120200BF060FD00231C4A19
:1043E000932140200BF05AFD20E0012323A2A321BA
:1043F00030200BF053FD0123154AA32140200BF080
:104400004DFD13E034B100231BA2B32140200BF07B
:10441000F5FC05E0002319A2B32140200BF0EEFCCF
:1044200000230B4AB3214A200BF0E8FC24B189F8A1
:104430000AA087F81EA003E02D2089F80A00B877AB
:104440000A48407989F8090007B0BDE8F08F0000FC
:10445000B4140020540D00202D000020CC000020BA
:1044600000140020F40A0020090B00206C0000203A
:10447000163F0108840B0020200000002D000000E2
:104480000D0A00000549044848601623AA220021AD
:10449000084600F05FBF00000352F300CC0000208C
:1044A0001EB5114C21680191616802910F4961604C
:1044B000012812D04FF47F01022812D021600C484D
:1044C000009018233022F1214FF4CA7001F0D0FA85
:1044D00001982060029860601EBD4FF47F4020600C
:1044E000EDE72160EBE70000CC0000203800310050
:1044F000DC97070870B500F043F81E4C6FF07F455D
:1045000025601D48606000231C4A042118460BF0FA
:1045100075FC256048F28B6060600024174D4FF6F3
:10452000FF76D63D04EB840000EBC400421904EB97
:10453000840006EA401000231A210BF05FFC641C83
:10454000032CEFD300240D4E1A25AF3E04EB84005C
:1045500000EBC4008219601C00EBC00005EB4000BA
:1045600081B2002318460BF049FC641C052CEDD3E6
:1045700070BD0000CC0000200352F3007C3A01081B
:1045800010B5FFF77FFFBDE81040FEF735BC000017
:1045900010B5FEF731FC0848064941606FF07F41D5
:1045A00001600023F121BDE8104004A254200BF06B
:1045B00025BC000038003100CC000020205620002F
:1045C00010B5FEF719FC0B48094941606FF07F41B7
:1045D0000160002308A2F12154200BF00FFC0023FE
:1045E000F121BDE8104006A2A4200BF007BC00009A
:1045F00038003100CC000020206DA6B8202000003B
:1046000020A6B8200000000000B58FB00EA9002041
:1046100002F0ACFA0DA9002002F076FA9DF83630CF
:104620009DF83A009DF839109DF83820CDE9021028
:10463000CDE900329DF835309DF837200DA105A851
:104640000BF07EFC15486FF07F41016048F28B61F2
:104650004160002305AA0421FA200BF0CFFB1322AE
:1046600005A90F48FBF7BEFD0D490920C8740FB01E
:1046700000BD0000323025302E32642D25302E3220
:10468000642D25302E32642025302E32643A2530B8
:104690002E32643A25302E3264000000CC00002017
:1046A000090B002010B54FF40054204600F066F8C6
:1046B000002804D02046BDE8104000F047B810BDE7
:1046C00010B5082000F05AF800281FD010480CF050
:1046D0002FFF08210F4800F07FFA90B90E48002103
:1046E00001700E480E4A012304781CB101700F209E
:1046F000107002E00370022010700A494FF400703D
:104700000860BDE81040082000F020B810BD00008F
:10471000A0860100001002405A000020390000204D
:104720003100002080E100E01CB54FF40050009003
:1047300000208DF8040001208DF80700694602482A
:1047400000F0FCF91CBD00000004024001490860B3
:1047500070470000143C0140064900200860091D14
:104760000860091D0860091D0860024902481431EB
:1047700008607047003C0140FFFF7F0001460020B9
:10478000024A12680A4200D001207047143C0140DE
:1047900030B51B4A83790168002B2AD013688B43FC
:1047A0001360111D0B680468A3430B600179114469
:1047B0000B68046823430B60114C083421680368BC
:1047C00099432160231D19680568A943196041793F
:1047D000102905D011440A68006802430A6030BD00
:1047E000216802681143216019680068014319605B
:1047F00030BD0079104402688A43026030BD000079
:10480000003C01402DE9FF410121102001F04CFF47
:104810000121880301F08EFF01F0CDFC08260296ED
:1048200000248DF80C4001258DF80F5002A9144882
:1048300000F084F90321042003F0FEFA00968DF8BD
:1048400004400C268DF805608DF806506846FFF789
:104850009FFF6F03029702A90A4800F06FF90D212C
:10486000022003F0E9FA00978DF804408DF8056006
:104870008DF806506846FFF78BFFBDE8FF8100000A
:10488000001002400008024000224FF02043102890
:104890000AD0B0F5807F09D0B0F5805F09D0D3F899
:1048A0005801814309D107E0586EFAE7D3F8840034
:1048B000F7E7D3F8A400F4E70122104670470000A0
:1048C000D0E9001211438268C068521E520142EAC8
:1048D000402001430148016070470000500100A0E2
:1048E00070B50468A100A1F1C041D1F84011CE0B10
:1048F000F603D0E901121143D0E903231A4311430F
:104900004269C36911438269056A11431943426AC6
:104910002943114331434FF02046002C3CD0D6F8B8
:1049200040416FF30E042B4322431343C6F840313A
:1049300002689200A2F1C042C2F84011016871B34E
:104940008900A1F1C041D1F8481101F07043816A9A
:104950000A684C68521E641E42EA04148A68521E99
:1049600044EA02240A8A521E44EA02421A43D6F852
:10497000483103F07043CC68898A641E2403491EC1
:1049800044EA01511943C6F8481100688000A0F1BB
:10499000C040C0F8482170BDC6F84011CEE7FFE71F
:1049A000D6F8481101F07041806A02684368521ECF
:1049B0005B1E42EA03138268521E43EA0223C26866
:1049C000521E43EA0233028A521E43EA0243828A9B
:1049D000007E521E43EA0252401E42EA0060084333
:1049E000C6F8480170BD000002490A6842EA40006A
:1049F00008607047540100A02DE9FC5F012140F2DE
:104A0000A71001F051FE2620009002268DF80560C7
:104A100001248DF8044000258DF806508DF80740DC
:104A20006946414800F08AF806213F4800F0DDF869
:104A300020270097DFF8F4806946404600F07EF8B2
:104A40002021404600F0CFF84FF04009CDF800900B
:104A5000DFF8DCA06946504600F070F80097694620
:104A6000504600F06BF82021504600F0BCF88DF85D
:104A700004508DF8075060030090DFF8B8B0694625
:104A8000584600F05BF88DF804508DF807504FF051
:104A90000808CDF800806946234800F04FF8CDF8AB
:104AA00000808DF805608DF804408DF806508DF873
:104AB00007406946504600F041F8CDF800908DF867
:104AC00005608DF804408DF806508DF80740694662
:104AD000154800F033F8CDF800808DF805608DF8AA
:104AE00004408DF806508DF807406946584600F09E
:104AF00025F800978DF805608DF804408DF8065074
:104B00008DF8074069460C4800F018F801F016F9D6
:104B1000FCF724F80BF046F901F0C4FB01F0DCFBD4
:104B200002F034FFBDE8FC9F00080240001C024078
:104B30000020024000040240000C02402DE9F04138
:104B4000002201274FF0030C07FA02F50B682B40F7
:104B5000AB422CD1066853000CFA03F4A64306605E
:104B60000E79D0F800809E4046EA080606600E796D
:104B7000012E01D0022E12D18668A64386604E799E
:104B8000D0F808809E4046EA080686604668AE4334
:104B9000466045688E799640B6B235434560C56833
:104BA000A543C560CC799C40C3681C43C460521CBB
:104BB000102AC9D3BDE8F08110B54B07DB0E9A402F
:104BC000C90800EB8100016A0F249C40A1430162E7
:104BD000016A1143016210BD0246002012690A42B7
:104BE00000D0012070474183704701837047000067
:104BF000034A203902EB01111022FBF7F3BA00003F
:104C0000EC9107080349085C002801D00020704798
:104C1000012070473D0000204069806880B27047E5
:104C2000D0F8CC000068C0F341407047084490F8C9
:104C30009B03704700EB8100D0F85003704710B51C
:104C4000044600220023C4F8103304EB8200C0F8AD
:104C50001433C0F85033A01880F88C33521CD2B2F1
:104C60000F2AF2D30820A4F8B203204609F0E6FA8E
:104C7000204609F075F8204608F096FF01212046ED
:104C800009F03EFB204608F0E3FF204609F0A2F8B9
:104C9000002010BDD0F81003704710B509F0B7FA26
:104CA000002010BD0022431883F89B2300EB411322
:104CB000C3F8C02309F0E4B92DE9F0410546134FCC
:104CC0004FF4807631463846FFF78DFF00244FF4CD
:104CD0008058280604D541463846FFF786FF03E092
:104CE00041463846FFF77FFF31463846FFF77DFFE4
:104CF0000BF010F931463846FFF775FF6806050ED0
:104D0000641CE4B2082CE4D3BDE8F0810008024042
:104D1000FEE700002DE9F041082A00D9082202B977
:104D20000122072900D90721914200D91146002408
:104D3000224E20273755641CE4B2142CFAD31446B3
:104D40000A250DE0B0FBF5FC05FB1C0C06EB040886
:104D50000CF1300C08F801CCB0FBF5F0641EE4B2A5
:104D6000002CEFD169B110460C4605E0351815F856
:104D7000015C3554401EC0B2641EE4B2F6D22E244B
:104D8000345473B90020531E09E0345C302C08D130
:104D9000341864782E2C04D03754401CC0B298428A
:104DA000F3DB09B1521CD2B2002002E0B054521C15
:104DB000D2B2142AFAD3BDE8F0810000B414002066
:104DC0002DE9FC4101214FF4837001F0B3FC082769
:104DD000009702248DF8054001258DF80450002627
:104DE0008DF8066069460E48FFF7A8FE4020009047
:104DF0008DF805408DF804508DF806606946094825
:104E0000FFF79CFE00978DF805408DF804508DF853
:104E1000066069460448FFF791FEBDE8FC8100008A
:104E200000040240000802400020024006494FF4FE
:104E30008C70002201E001F8012B401E80B2FAD2F2
:104E40000248027070470000840B002030000020F0
:104E500070B505462DED048B0C466068DFED340A15
:104E600000EE100AB8EE400A20EE209AA068C0F1C9
:104E70000700FBF7DFFA41EC110B9FED2E0B0BF057
:104E80008BF8B0EE408AF0EE608A19EE100AFBF75C
:104E9000DEFA53EC182BFBF75EFAFBF7EBFA00EEA9
:104EA000100A264910EE100A884201DD9FED240AFF
:104EB000244910EE100A88420BDB0320A060DFEDCE
:104EC000220A80EE201AFCEEC10A10EE900A606001
:104ED00017E010EE100A1D4988420BDB0420A06089
:104EE000F2EE040A80EE201AFCEEC10A10EE900ADF
:104EF000606006E00520A060FCEEC00A10EE900A9B
:104F00006060BCEEC00A10EE100AA0612078287024
:104F100060686860A068A860E068E860206928614F
:104F200060696861A069A861BDEC048B70BD000078
:104F3000002474490000000000002440001B374B8F
:104F4000001B374B8096184B0000C8420024744960
:104F50002DE9F04137285DD172B62F4C65682F4E90
:104F60000021304603F053FFB704384603F05CFFDE
:104F70000021384603F04BFF304603F055FF002276
:104F80000121304604F032F80021304603F03FFFA3
:104F9000234E304607F054F9002240F225513046A6
:104FA00007F0D5F90021304607F03EF901F0DEFBAD
:104FB000002001F09DFCFFF7CFFB4FF0E020002622
:104FC000066101F01BFD0021381401F0F5FD002001
:104FD00001F0A8FFFCF742FA1249134807F010FB52
:104FE00072B6432001F0FAF82A2001F0F7F84D20BC
:104FF00001F0F4F84C2001F0F1F872B6206880F36B
:10500000098886F31488206880F30888AC46BDE8D8
:10501000F0416047BDE8F08100000C08001000403E
:1050200000480040D43A0020283500202DE9F05FE8
:10503000FF250020FFF740FEDFF8D0A04FF4006905
:1050400049465046FFF7C8FDDFF8C4804FF4806B37
:1050500000B359464046FFF7BFFDE8B14946404618
:10506000FFF7BAFDD0B104212A48FFF7B5FDB8B16A
:105070000426042E40D20024274F385DFFF71CFE83
:105080000AF048FF76B1012E13D0022E18D0032E5D
:1050900023D11CE00026ECE70126EAE70226E8E738
:1050A0000326E6E749465046FFF796FDA8B9254690
:1050B00013E059464046FFF78FFD70B925460CE0D6
:1050C00049464046FFF788FD38B9254605E00421EA
:1050D0001048FFF781FD00B92546FF2D03D1641C60
:1050E000E4B2082CC9D3FF2D04D005EBC600C0B232
:1050F000BDE8F09F0020FBE74FF400510548FFF7A3
:105100006BFD08B10020F3E71F20F1E7002002400B
:1051100000080240000C0240F23B070810B5064CA4
:105120006078002805D00020607000F055F82078E5
:1051300010BD002010BD0000B300002010B50146D6
:10514000002002F007FF064C0020FFF75BFD10B9BE
:1051500060780028F8D0BDE81040FFF7DFBF0000FE
:10516000B300002070B5FFF761FF1A4C0023012542
:10517000E21CD0B12178814228D16178652901D221
:10518000491C6170617864291BD00DD9107095702D
:10519000A07800F10100C0B2A0700E2804D9A3705D
:1051A0005078002800D1557070BD207828B1617802
:1051B000091F602901D210705570237063709370BD
:1051C00070BDA37010705570957070BD20706370C5
:1051D00070BD0000B000002010B5FBF735FC4FF4A7
:1051E0007A700CF0A5F9BDE81040FBF727BC000071
:1051F0007CB501214FF4867001F056FA4FF49850B7
:10520000009002208DF8050001208DF80400002494
:105210008DF806408DF80700134D69462846FFF7C4
:105220008DFC69152846FFF7E0FC4FF440610091C2
:105230008DF8044069462846FFF780FCE81400908A
:1052400069460A48FFF77AFC04200090694608483E
:10525000FFF774FC0748047044708470C01E04702B
:10526000447084707CBD00000008024000200240B1
:10527000000C0240B300002010B500231C4C246831
:10528000002C06D0012C0DD0022C17D0032C1ED0E0
:1052900023E000EB4003C1EB011000EB400003EB07
:1052A00040131AE0A1F20F11C0F5F070A1EB01114B
:1052B00000EB4110401E00EB40030EE0A0F20F1087
:1052C000A0EB001001EB401000EB400305E000EB09
:1052D0000010C1EB001303F20F130648834205D2FE
:1052E00005488068C2521844110C817010BD00003E
:1052F0005400002000FA0500B800002070B58AB004
:10530000C0F30744C0F30725C6B2FBF72FFF4FF4E5
:1053100040300090012001900494039502960F20E4
:1053200005900B4880680690002007904FF4887025
:1053300008904FF4F07009906846FBF72DFFFBF7DB
:1053400087FF0220FBF71EFF0028FAD00AB070BDCD
:10535000B80000202DE9F04F8BB03B4C6468C4F3DB
:10536000074704F0FF09C4F30728384CDFF8D8A03A
:10537000C2F5F076AAF1140A2568DAF80840002D83
:1053800037D0C3F5887C012D3ED0022D4CD000EBE8
:105390000010C3EB0010401A00F5887000EB4000CD
:1053A00005191FFA8CF614469B46FBF7DFFE4FF4F7
:1053B0004030019001200290CDF81080CDF80C9083
:1053C0000597FF200690079508960994CDF828B018
:1053D00001A8FBF7E1FEFBF73BFF0220FBF7D2FE43
:1053E0000028FAD0DAF8000000F0B4FA0BB0BDE8FB
:1053F000F08FC1EB011100EB411000EB40000519EB
:10540000B6B21C469346D0E7ACEB0101C1EB0111EB
:10541000C0EB4110801A00F5F07000EB4000051958
:10542000B6B21C469346C0E7C0F58870801AC0EB40
:10543000001001EB401000EB40000519C3F5F070BF
:1054400086B214469B46B0E7CC00002054000020F2
:105450002DE9F0438BB09046994600242E4A1568FA
:10546000002D0CD0C1EB011200EB42162B4A012D8E
:1054700097680DD0022D11D0032D18D01AE000EB43
:105480004002C1EB011000EB400002EB401411E0C0
:10549000A6EB86002249384444180BE0A0F20F1016
:1054A000A0EB001001EB401000EB400402E006EB23
:1054B0004600C419194814300068C0F30745C6B245
:1054C000C0F30727FBF752FE4FF440300190012054
:1054D00002900497039605950F2106910794B9F160
:1054E000000F12D040F2DF110891CDF824800A900D
:1054F00001A8FBF751FEFBF7ABFE0220FBF742FED3
:105500000028FAD00BB0BDE8F08300210891099083
:10551000CDF82880ECE7000054000020B8000020FF
:1055200000FA05002DE9FC5F012140F2FF1001F0B7
:10553000BBF84FF00408CDF8008003208DF805007B
:1055400002208DF8040000208DF806008DF8070079
:105550006946AB48FFF7F2FA0E220221A848FFF78E
:105560002BFB4FF00809CDF800906946A448FFF7DF
:10557000E5FA0E220321A248FFF71EFB4FF4807AC2
:10558000CDF800A069469E48FFF7D8FA0E22082100
:105590009B48FFF711FB0124009469469948FFF7E7
:1055A000CDFA092200219748FFF706FB4FF4006B64
:1055B000CDF800B069469448FFF7C0FA0E220B21DF
:1055C0009148FFF7F9FA2003009069468E48FFF7EB
:1055D000B5FA0E220C218C48FFF7EEFA022000905B
:1055E00069468848FFF7AAFA092201218548FFF792
:1055F000E3FA4025009569468448FFF79FFA0E229A
:1056000006218248FFF7D8FA20200090694680489A
:10561000FFF794FA0E2205217D48FFF7CDFA009599
:1056200069467B48FFF78AFA0E2206217848FFF781
:10563000C3FA6003009069467148FFF77FFA0E22B3
:105640000D216F48FFF7B8FAA602009669466F4829
:10565000FFF774FA09220A216C48FFF7ADFAE0035C
:10566000009069466648FFF769FA0E220F216448E8
:10567000FFF7A2FA009469466648FFF75FFA0E2228
:1056800000216448FFF798FA80270097694662482E
:10569000FFF754FA0E2207215F48FFF78DFACDF885
:1056A000008069465B48FFF749FA0E2202215948FB
:1056B000FFF782FA4FF01008CDF800806946544891
:1056C000FFF73CFA0E2204215148FFF775FA200338
:1056D000009069464D48FFF731FA0E220C214B48E5
:1056E000FFF76AFA00954D4D69462846FFF726FAFE
:1056F0000E2206212846FFF75FFACDF800B0694672
:105700004248FFF71BFA0E220B214048FFF754FADC
:10571000CDF8008069463F48FFF710FA0E220421B9
:105720003C48FFF749FACDF8009069463648FFF744
:1057300005FA0E2203213448FFF73EFACDF800A007
:1057400069463048FFF7FAF90E2208212D48FFF785
:1057500033FA4FF40079CDF8009069462948FFF7F5
:10576000EDF90E2209212748FFF726FA009769462E
:105770002648FFF7E3F90E2207212448FFF71CFA19
:10578000009669462348FFF7D9F90E220A212148DD
:10579000FFF712FACDF8009069461E48FFF7CEF9E0
:1057A0000E2209211B48FFF707FA00961C4E694696
:1057B0003046FFF7C3F90E220A213046FFF7FCF905
:1057C000CDF8008002208DF805008DF804400020FF
:1057D0008DF806008DF8074069462846FFF7AEF9B8
:1057E000009769462846FFF7A9F910212846FFF7D8
:1057F000FCF980212846FFF7F8F9BDE8FC9F00007E
:10580000001C024000040240000002400018024058
:10581000001002400020024000080240000C02403C
:105820000014024000B58FB00121880600F082FF0D
:105830000121C80500F038FFFFF774FE02F014F8EC
:10584000062207214FF4967001F048F84FF480309B
:1058500001F034F8012001F03BF83D2001F002F89E
:105860000028FAD0002000900190029003900C9044
:105870000D900E90049005902E2006901720079012
:1058800040F20E20089040F2271009904FF4097062
:105890000A9040F23D100B90684600F07DF901201F
:1058A00000F06AF90FB000BD10B590B02F20009045
:1058B00040F20E2001901820029040F22710039031
:1058C00001200490FF200590069007900890099011
:1058D00007200B9040F2A3500D90C01E0E904FF485
:1058E00088700F900C480C904FF4C0600A900B4CDD
:1058F0006946204600F0B2F9012000F0FBF90121D1
:10590000204600F09FF9012000F0F4F9044800F06F
:1059100009F810B010BD000000FA05D0046901407C
:10592000D40000200149086170470000B800002041
:105930000649002804D0064888600120C8607047E6
:105940004FF0504088600020C8607047B8000020C9
:1059500000FA05D00149086070470000B800002037
:1059600010B50949C968002908D00146074800F068
:1059700067F9BDE81040012000F0BCB901460348BA
:10598000803800F05DF9F4E7B800002004690140B8
:105990002DE9F04F044688462546334902EB0210B4
:1059A000DFF8C8A001EB4009002B0FD0002709EB5E
:1059B000070090F802B000265FEA0B6035D541463B
:1059C0002046DAF80020FFF757FC34E04FF0000BD8
:1059D00009EB0B0087780026380606D5414620469D
:1059E000DAF80020FFF748FC05E041462046DAF8E7
:1059F0000420FFF741FC7806070E641CA4B2601B6C
:105A000010280CD0761CF6B2082EE5D30BF1010B52
:105A10000BF0FF0BBBF1200FDAD3BDE8F08F2C4663
:105A200008F101081FFA88F8F0E741462046DAF845
:105A30000420FFF721FC4FEA4B604FEA106B641C17
:105A4000A4B2601B102808D0761CF6B2082EB3D37F
:105A50007F1CFFB2202FAAD3DFE72C4608F10108F4
:105A60001FFA88F8F4E70000FA3B0708CC00002092
:105A70002DE9F84F04468B469246A04600270AFBC4
:105A800003F0C11700EB5170DFF85C90009025E047
:105A90000A98C65D0025300606D559462046D9F835
:105AA0000020FFF7E9FB05E059462046D9F804201D
:105AB000FFF7E2FB7006060E641CA4B2A4EB08001C
:105AC000504505D144460BF1010B1FFA8BFB03E057
:105AD0006D1CEDB2082DDED37F1CBFB20098B7EB72
