:020000040800F2
:1000000008820020C1010008CB5A000829490008D5
:10001000C95A00086D0A00087DDE000800000000D3
:100020000000000000000000000000004977000808
:10003000BD11000800000000755E0008E3840008A0
:10004000DB010008DB010008DB010008A1670008F4
:10005000DB010008DB010008DB010008DB01000810
:10006000DB01000895430008DB010008DB01000804
:10007000DB010008DB010008DB010008DB010008F0
:10008000DB010008DB010008DB010008DB010008E0
:10009000DB010008DB010008DB010008DB010008D0
:1000A000DB010008DB010008DB010008DB010008C0
:1000B0001D860008DB010008DB010008DB010008E9
:1000C000DB010008DB010008DB010008DB010008A0
:1000D000DB010008DB010008DB01000891AF00082C
:1000E00079430008DB010008DB010008DB010008A0
:1000F000DB010008DB010008DB010008DB01000870
:10010000DB010008DB010008DB010008DB0100085F
:10011000DB010008DB01000831860008DB01000874
:10012000DB010008DB010008DB010008DB0100083F
:10013000DB010008DB010008DB010008DB0100082F
:10014000DB010008DB010008DB010008DB0100081F
:10015000DB010008DB010008DB010008DB0100080F
:10016000DB010008DB010008DB010008DB010008FF
:10017000DB010008C15B0008DB010008DB010008AF
:10018000DB010008DB010008DB010008DB010008DF
:10019000DB010008DB010008DB010008DB010008CF
:1001A000DB010008DB010008DB010008DFF80CD0F0
:1001B00000F000FB004800473916010808820020C3
:1001C0000648804706480047FEE7FEE7FEE7FEE7F1
:1001D000FEE7FEE7FEE7FEE7FEE7FEE7C185000873
:1001E000AD01000840EA01039B0703D009E008C9FC
:1001F000121F08C0042AFAD203E011F8013B00F8EC
:10020000013B521EF9D27047D2B201E000F8012B37
:10021000491EFBD270470022F6E710B513460A4686
:1002200004461946FFF7F0FF204610BD421E12F8A3
:10023000013F002BFBD111F8013B02F8013B002BE1
:10024000F9D17047034611F8012B00F8012B002A61
:10025000F9D1184670472DE9FE4F81EA030404F0F6
:10026000004421F0004100944FF0000B23F00043C4
:1002700050EA01045ED052EA03045BD0C3F30A548F
:10028000C1F30A552C44A4F2F3340194A0FB0254A8
:10029000C1F3130141F48011C3F3130343F480133A
:1002A00001FB024400FB034E840A970A44EA81548E
:1002B00047EA8357A4FB076802958D0A05FB07856B
:1002C0004FEA932C04FB0C542705029D4FEA065875
:1002D00047EA1637B5EB08056EEB070C870E920E52
:1002E00047EA811742EA8312A7FB0201B6EB0B0132
:1002F00064EB00042B0D43EA0C335E1844EB1C50F6
:10030000DA465146E7FB0201C5F313044FEA0B330B
:1003100043EA14534FEA0432019C43EA0603A4F172
:100320000C040294009CCDE900B400F00DF903B078
:10033000BDE8F08F00200146F9E72DE9F04D81EA94
:10034000030404F0004B21F0004514464FF0000A6E
:1003500023F0004150EA050220D054EA01021DD0EA
:10036000C5F30A570246C5F31303C1F31300C1F3E3
:100370000A5640F4801543F48013A7EB0608101BBF
:10038000D64608F2FD3873EB050002D308F10108E8
:1003900001E092185B41B8F1000F03DA002001463A
:1003A000BDE8F08D00204FF48011064684460EE033
:1003B000171B73EB050705D3121B63EB05030643FD
:1003C0004CEA010C49084FEA300092185B4150EAB0
:1003D0000107EDD152EA030012D082EA040083EA59
:1003E0000501084305D0101BAB4106D201220023B2
:1003F00006E000224FF0004302E06FF001025310CC
:100400001AEB06004CEB085110EB0A0041EB0B0114
:10041000BDE8F04D00F089B80EB540F233410291CD
:100420000021CDE900110A460B4600F08DF803B01B
:1004300000BD00F0004230F000400AD0C10D01F5CF
:100440006071C0F3160042EA0151C208400711432F
:10045000704700200146704701F0004330B421F09E
:10046000004150EA010206D00A0DA2F56072C1F304
:100470001301002A02DC30BC00207047440F44EA1C
:10048000C104C100E01830BC00EBC25000F016B847
:1004900030B50B46014600202022012409E021FA54
:1004A00002F59D4205D303FA02F5491B04FA02F551
:1004B0002844151EA2F10102F1DC30BD0029A8BFBD
:1004C0007047401C490008BF20F00100704710B47D
:1004D000B0FA80FC00FA0CF050EA010404BF10BC32
:1004E000704749B1CCF1200421FA04F411FA0CF15F
:1004F00018BF012121430843A3EB0C01CB1D4FEA98
:1005000000614FEA102042BF002010BC704700EB92
:10051000C35010440029A4BF10BC7047401C4900C0
:1005200008BF20F0010010BC704710B5141E73F115
:10053000000408DA401C41F1000192185B411A43A3
:1005400001D120F0010010BD2DE9F04D92469B46EF
:1005500011B1B1FA81F202E0B0FA80F22032904695
:1005600000F03AF904460F4640EA0A0041EA0B015E
:1005700053465A46084313D0114653EA010019D096
:10058000C8F14002504600F036F905460E46504686
:100590005946424600F020F9084305D0012004E006
:1005A00020463946BDE8F08D0020054346EAE07656
:1005B0002C4337430A986305E40AA0EB08000022A5
:1005C000FD0A44EA47540A3002D500200146E9E713
:1005D000010510196941DDE9084500196941BDE8C7
:1005E000F04DA2E72DE9FE4F804681EA0300C00FDF
:1005F0000C46009021F0004123F00045B8EB0200CA
:10060000A94105D24046214690461C460B4602466B
:1006100023F00040104347D0270DC7F30A00C3F36F
:100620000A510290401A019040286BDAC3F313007C
:1006300040F4801B0098924620B10023D2EB030ABD
:1006400063EB0B0B01985946C0F14002504600F095
:10065000C3F806460D4650465946019A00F0DBF8AD
:1006600010EB08006141002487EA115284EAE77325
:100670001A4340D0009A62B3019A012A4FEA075206
:1006800015DC001B61EB02014FF0004202EA075249
:10069000CDE90042001C41F5801132462B46FFF7A0
:1006A00053FF03B0BDE8F08F40462146F9E7001B39
:1006B00061EB0201001C41F5801300185B4120181A
:1006C000A2F5001747EB030140EAD570B6196D415A
:1006D00011E06D084FEA360645EAC0754FEA075249
:1006E000001B61EB0201001C41F5801149084FEA33
:1006F00030000019514132462B4603B0BDE8F04F9F
:10070000FFF713BF0098012240000023D0EB020244
:1007100063EBE073009821464FEAE074B8EB000009
:1007200061EB0401E9E783F000435BE781F00041FE
:1007300058E770B521F0004303430CD0C1F30A55CC
:100740000024D5EB040564EB0403D617AD1AB341BE
:1007500002DB0020014670BD201841EB025170BD44
:100760000EB5C10F80EAE0700844CA07002140F2CC
:1007700033438DE80E000A460B46FFF7E5FE03B053
:1007800000BD000030B5041E71F1000404DB4FF021
:100790000044404264EB0101141E73F1000405DBC8
:1007A0001C464FF00043524263EB0403994208BFDA
:1007B000904230BD064C074D06E0E06840F0010372
:1007C00094E8070098471034AC42F6D3FFF7F2FCE8
:1007D000D0340408F0340408202A04DB203A00FA5C
:1007E00002F1002070479140C2F1200320FA03F388
:1007F000194390407047202A04DB203A21FA02F086
:100800000021704721FA02F3D040C2F1200291404A
:10081000084319467047202A06DBCB17203A41FAD5
:1008200002F043EAE07306E041FA02F3D040C2F17D
:10083000200291400843194670472DE9F04D0023EE
:100840001A461B1A8A4103DB00200146BDE8F08DE1
:10085000C1F30A52C1F3130141F480154FF0000BAC
:10086000D10702D100186D41521E0027044640F204
:10087000FF11384601EB620A3E46804602460020E0
:100880004FF48011FFF7B7FFC2197141BB1846EB57
:100890000100B4EB030C75EB000C04D3E41A65EB18
:1008A000000517460E46241908F101006D418046E7
:1008B0003428E3DDF91946EB0600091BA84103D2F1
:1008C0004FF0FF32134601E0002213461BEB0700F6
:1008D00046EB0A51BDE8F04DFFF727BE70B58C1806
:1008E00010F8015B15F0070301D110F8013B2A1144
:1008F00006D110F8012B03E010F8016B01F8016B31
:100900005B1EF9D12B0705D40023521E0DD401F82C
:10091000013BFAE710F8013BCB1A921C03E013F8F5
:10092000015B01F8015B521EF9D5A142D8D300202A
:1009300070BD000010B504210D4803F060FF0121D7
:100940000C4803F05CFF4FF480610B4803F057FF45
:100950004FF40051094803F052FF8021084803F08A
:100960004EFF04F0DDFEBDE810400AF0E1BA0000E1
:100970000010024000000240001C0240000802403B
:10098000000C02404178007841EA002070470000E6
:1009900010B5074C2060084600F00CF820680028CD
:1009A000FCD1BDE8104000214FF0804007F0A9BE07
:1009B000E80000203EB504464FF08045002128465F
:1009C00007F09FFE00220121284607F0B2FE022C0C
:1009D00002D0012C03D005E00B20019002E042F68A
:1009E000DF6001900520ADF800000020ADF80800A0
:1009F000ADF802006946284607F0C6FE01212846E8
:100A000007F07CFE0121284607F069FE012211460D
:100A1000284607F08EFE0121284607F072FE3EBDF3
:100A20002021014803F0EBBE001C024020210148B8
:100A300003F0E7BE001C02400B4991F84220002A57
:100A400006D038B191F8420002280BD0FFF7E8BF7A
:100A5000FFF7E6BF91F84200012801D0FFF7E0BFA1
:100A6000FFF7E4BFFFF7E2BF780B0020FEE70000CE
:100A70007CB50121084605F047FBA020009002202C
:100A80008DF8050001248DF8044000258DF80650EE
:100A90008DF80740084E6946304603F05BFE8DF83E
:100AA00004508DF806508DF80740402100916946AA
:100AB000304603F04FFE7CBD0000024070B5FF22BF
:100AC000FF23084D05F5807605E010F8014B5440F2
:100AD0002A5D5A40335D491E89B2F6D243EA0220AC
:100AE00070BD0000702001082DE9F04F2DED028B44
:100AF00081B00024FE4890F8400000900021084694
:100B000006F034F82146002002F07AFBF948DFF8BD
:100B1000E893C17811209FEDF98AF94FDFF8E4835B
:100B2000DFF8E4B300297DD0002511208BF8000008
:100B3000E2E0F6484078012875D0284606F092F8A1
:100B4000DFF8B0A39AF8010048B144F620600FF036
:100B5000CEFA9AF8010038B1012834D061E048F6A5
:100B6000B8000FF0C4FAF4E7012006F005FE10F01B
:100B70007BFE97ED000ABCEEC00A10EE100AC9F821
:100B8000000005F045FF0BE005F042FF10F06CFEA1
:100B900097ED000ABCEEC00A10EE100AC9F800007A
:100BA000DB4800780028EFD106F0E6FD10F0A0FF4A
:100BB00098ED000AD748BCEEC00A10EE101A01608A
:100BC00005F026FF2DE0012006F0D6FD10F0C4FE52
:100BD00097ED000ABCEEC00A10EE100AC9F800003A
:100BE00005F016FF0BE005F013FF10F0B5FE97EDD2
:100BF000000ABCEEC00A10EE100AC9F80000C44892
:100C000000780028EFD106F0B7FD10F0EBFF98ED6B
:100C1000000AC049BCEEC00A10EE100A086005F0D8
:100C2000F7FE01E073E06CE098ED000A4FF09641AA
:100C300010EE100A884205DD38EE400AB1EE400A97
:100C400088ED000A97ED000A10EE100A884205DDD3
:100C500038EE400AB1EE400A87ED000A9AF801002A
:100C600010B1012818D02EE00AEB051000EB84002B
:100C700097ED000A00F5806080ED3A0A022C22D23E
:100C80000AEBC50000EB840098ED000A00F58060D7
:100C900080ED620A264616E00AEB051000EB8400A0
:100CA00097ED000A00F5806080ED760A022C0AD2EA
:100CB0000AEBC50000EB840098ED000A00F58060A7
:100CC00080ED9E0A26463146204605F04FFF21461C
:100CD000002002F095FA032C0CD306208BF80000BC
:100CE00000242146002005F041FF2146002002F0AB
:100CF00087FA01E0641CE4B29BF8000011283FF47D
:100D000018AF6D1CEDB20A2DFFF40FAFE6E08BF8C3
:100D10000000DEE0DFF8F4A19AF8010001287DD0A0
:100D2000DFF8D0B19BF8010010B101282FD079E095
:100D3000012006F021FD10F097FD97ED000ABCEEB2
:100D4000C00A10EE100AC9F8000005F061FE704DEF
:100D50000BE005F05DFE10F087FD97ED000ABCEE9C
:100D6000C00A10EE100AC9F8000028780028F0D157
:100D700006F002FD10F0BCFE98ED000A6549BCEEDD
:100D8000C00A10EE100A086005F042FE4AE0012099
:100D900006F0F2FC10F0E0FD97ED000ABCEEC00A90
:100DA00010EE100AC9F8000005F032FE584D0FE0B1
:100DB00005F02EFE10F0D0FD97ED000ABCEEC00A43
:100DC00010EE100AC9F800009AF80100012802D0BC
:100DD00028780028ECD1002006F0CEFC10F002FFAD
:100DE00098ED000A4B49BCEEC00A10EE100A0860EC
:100DF00005F00EFEDFF81CA10FE005F009FE10F073
:100E0000F1FE98ED000ABCEEC00A10EE100ACAF816
:100E100000003E484078012804D000E05EE02878D9
:100E20000028EAD198ED000A4FF0964110EE100A22
:100E3000884205DD38EE400AB1EE400A88ED000A2E
:100E400097ED000A10EE100A884205DD38EE400AE0
:100E5000B1EE400A87ED000A9BF8010010B10128AD
:100E600010D01EE00BEB840097ED000A00F58060C7
:100E700080EDB50A022C14D298ED000A80EDB90A73
:100E800026460EE00BEB840097ED000A00F580602B
:100E900080EDBB0A022C04D298ED000A80EDBF0A57
:100EA00026463146204605F061FE2146002002F02C
:100EB000A7F9032C0BD314490620087000242146FF
:100EC000002005F053FE2146002002F099F9641C31
:100ED000E4B20D48007811283FF41CAF0449009893
:100EE00081F8400001B0BDEC028BBDE8F04F13E08B
:100EF000780B00204C0D00204C000020FFFF7F4BA2
:100F0000440000204000002031000020AB00002001
:100F10003F0000205000002007F0B2BA10B54FF497
:100F20008061094803F06BFC4FF40051074803F05F
:100F300066FC0421064803F062FCBDE81040012174
:100F4000044803F05CBC0000001C024000080240A2
:100F5000001002400000024030B587B005462878F6
:100F60004C4C04F8280C687804F8270CA87804F88E
:100F7000260CE91C684607F097FA9DF8000004F873
:100F8000240C019844F8200C029844F81C0C039897
:100F900044F8180C049844F8140C059844F8100C04
:100FA000069844F80C0C687A04F8080C687A04F87F
:100FB000080C05F10A01684607F076FA9DF8000072
:100FC00004F8040C01982060029860600398A06007
:100FD0000498E0600598206106986061287C20767E
:100FE000687CA07605F11201684607F05DFA9DF86D
:100FF0000000207701982062029860620398A06246
:101000000498E062059820630698606305F1180172
:10101000684607F049FA9DF8000084F83800019806
:10102000E06302982064039860640498A0640598C3
:10103000E0640698206505F11E01684607F034FA61
:101040009DF8000084F854000198A0650298E065BE
:1010500003982066049860660598A0660698E06686
:1010600005F12401684607F01FFA9DF8000084F896
:101070007000019860670298A0670398E067049881
:10108000C4F880000598C4F884000698C4F8880065
:1010900007B030BDA00B002010B50121CC052046C3
:1010A00005F040F82046BDE81040002105F03AB8B0
:1010B00001460020024A52680A4200D001207047CF
:1010C00000B0024030B500242A4B19682A4A11406A
:1010D00019601968026811431960596B21F0070102
:1010E0005963596B4268114359634168002928D0FC
:1010F00001292DD0022930D0032933D0C1680A013B
:1011000001690902446924038568214315430D439D
:10111000996B0D439D638169D963196C6FF30D0160
:101120001964196CC26911431964818C09045A6CE1
:1011300002F040425A645A6C006A02430A435A64FD
:1011400030BDC1680A02018A0904047D2406DBE778
:10115000C1680A02018A0904D6E7C1684A01016927
:10116000C902D1E7C1684A01016989024469E403FF
:10117000CAE7000000B00240FCE0FCFF0248016842
:1011800041F001010160704700B002400CB5094B0D
:101190001B788DF8063000910749895C8DF80410A2
:1011A00005490A31895C8DF80510DDE9001206C099
:1011B0000CBD00002E000020AE2A0108704710B5BB
:1011C00090B0044603F052F80122214601A801F034
:1011D00073FD9DF804008DF8240002980A9003988E
:1011E0000B9004980C9005980D9006980E90079817
:1011F0000F9009A800F07AF80890089810B010BD78
:1012000010B590B0044603F049F80022214601A829
:1012100001F052FD9DF804008DF8240002980A9018
:1012200003980B9004980C9005980D9006980E90DA
:1012300007980F9009A800F059F80890089810B086
:1012400010BD000070B586B00121022004F05CFFE3
:101250000121880404F082FF224E07220B21304630
:1012600003F0B6FA07220A21304603F0B1FA00244F
:101270008DF8164001208DF8170002258DF81450C6
:10128000810204918DF8155004A9304603F062FAEA
:101290008DF81450A802049004A9304603F05AFABD
:1012A0004FF416500090ADF80440ADF80640ADF88C
:1012B0000840ADF80C400C20ADF80A000A4C694615
:1012C000204609F0BFFE04F001FC012240F2255146
:1012D000204609F09CFE0121204609F085FE06B05B
:1012E00070BD00000004024000480040416842F226
:1012F0001072914204D941680A22B1FBF2F14160B7
:101300004068704738B5002000901D491D4842F2E2
:1013100010734EF660242EE09DF8002000EBC20210
:10132000D2F8B4209DF8005001EBC5056D68AA42C3
:101330000CD89DF8002000EBC202D2F8B4209DF832
:10134000005001EBC5056D68AA4210D29DF800203F
:10135000032A06D29DF8002000EBC202C2F8B43086
:1013600005E09DF8002000EBC202C2F8B4409DF8F1
:101370000020521C00929DF80020052ACCD338BDD5
:101380007C000020780B00202DE9FC5F0446012C36
:101390000BD000200090744D00984FF47F0948F264
:1013A0008B6820B1C5F8049003E00120F2E7C5F88E
:1013B00004804FF4A07610237A220421304603F0F3
:1013C000B1FC6A4F4FF0000A97F8E704012801D9F1
:1013D00087F8E7A497F8E704002300EB400101EB4E
:1013E000C00163480A18042130460DF0EFFADFF817
:1013F00080B197F8E704ABF10E0BB8B3022001906F
:1014000030E00198844201D1012000E000200090EA
:10141000009810B1C5F8049001E0C5F80480019867
:101420001A26801E00EB800006EB800081B210239C
:101430007A226C2003F076FC01980023384490F85F
:10144000DB04C0EBC00000EB0B020198801E00EB38
:10145000800006EB800081B26C200DF0B7FA019895
:10146000401C019001980C28CBD327E0FFE7C5F87A
:101470000480B5234FF4DD722E21002003F052FCCE
:10148000022C06D000200090009820B1C5F80490EE
:1014900003E00120F7E7C5F8048010237A221A211F
:1014A0006C2003F03FFC97F8DD040023C0EBC00084
:1014B00000EB0B021A216C200DF088FA01F0B6FB4C
:1014C0002C4854266FF07F410C2C29D2DFE804F021
:1014D000060A2A2A2A2A2A2A2A2A2A2ABDE8FC5F58
:1014E00000F02ABF2960686097F8C804CDF804A00E
:1014F0001F4C12E00198002300EB400101EBC000FB
:1015000002190198F12100EB800006EB001080B277
:101510000DF05CFA0198401C019001980228E9D373
:10152000BDE8FC9F2960686097F8C80410B1104CB2
:101530002C3401E00E4C0E3CCDF804A010E00198D4
:101540000023C0EBC00002190198F12100EB8000DC
:1015500006EB001080B20DF039FA0198401C0190A2
:1015600001980228EBD3DBE7C40000204C0D0020DB
:10157000D4260108380031002DE9FC5F0446012C17
:101580000AD000200090D14D00984FF47F0748F218
:101590008B6918B16F6003E00120F3E7C5F8049090
:1015A0004FF4A07810237A220421404603F0BAFBBE
:1015B000C74E307B012801D90020307396F8C8044B
:1015C00060B1307B002300EB400101EBC001C1485A
:1015D0000A18042140460DF0F9F90CE0307B002395
:1015E00000EB400101EBC001BA4816380A1804218B
:1015F00040460DF0EBF9307BDFF8DCA24FF4B37B13
:1016000000287DD0022001904FF01A0842E0019896
:10161000844201D1012000E000200090009808B130
:101620006F6001E0C5F804900198801EC0EBC00017
:1016300006EB800081694069C9B20023052203F0EE
:1016400075F901981023801E00EB800008EB8000E4
:1016500081B27A226C2003F065FB0198801EC0EBFA
:10166000C00006EB8000C06900EB40000AEB4001BF
:101670009A48FEF7DBFD01980023801E00EB8000F6
:1016800008EB800081B2954A6C200DF09FF901981B
:10169000401C019001980C28B9D30220019048E029
:1016A00001980A30844201D1012000E0002000901E
:1016B000009808B16F6001E0C5F804900198801EA1
:1016C000C0EBC00006EB8000D0F83011D0F82C0140
:1016D000C9B20023052203F029F901981023801EC6
:1016E00000EB800008EB800081B27A22584603F0BC
:1016F00019FB0198801EC0EBC00006EB800000E0E3
:101700001BE0D0F8340100EB40000AEB40017348C5
:10171000FEF78CFD01980023801E00EB800008EB93
:10172000800081B26D4A58460DF050F90198401C76
:10173000019001980C28B3D359E0C5F80490E32335
:101740004FF4DD722E21002003F0ECFA022C05D0BC
:1017500000200090009818B16F6003E00120F8E7C6
:10176000C5F80490B069C1B270690023052203F086
:10177000DDF810237A221A216C2003F0D3FAF069E5
:1017800000EB40000AEB40015448FEF74FFD0023F8
:10179000524A1A216C200DF019F9032C05D00020B3
:1017A0000090009818B16F6003E00120F8E7C5F8D9
:1017B0000490D6F83001C1B2D6F82C0100230522DE
:1017C00003F0B4F810237A221A21584603F0AAFA3B
:1017D000D6F8340100EB40000AEB40013F48FEF729
:1017E00025FD00233D4A1A2158460DF0EFF801F07F
:1017F0001DFA3B496FF07F40162C31D2DFE804F030
:101800000B104E4E4E4E4E4E4E4E4E4E4E4E4E4E79
:101810004E4E4E4E4E4EBDE8FC5F002000F052BFD3
:101820002860696096F8C8045424D8B1002001905B
:10183000284D12E00198002300EB400101EBC000AD
:1018400042190198F12100EB800004EB001080B2F6
:101850000DF0BCF80198401C019001980228E9D3D2
:10186000BDE8FC9F002001901A4D163D12E0019842
:10187000002300EB400101EBC00042190198F12167
:1018800000EB800004EB001080B20DF09FF801988F
:10189000401C019001980228E9D3E1E728606960C3
:1018A00096F8C80440B102B00023BDE8F05FF12112
:1018B0000CA254200DF08AB802B00023BDE8F05FFE
:1018C000F1210AA254200DF081B80000C4000020CC
:1018D0004C0D0020EA260108EE270108041500201F
:1018E00038003100494E505554000000CAE4C8EB9E
:1018F000000000002DE9FC5F0446012C0AD0002006
:101900000090D84D00984FF47F0748F28B6918B1CA
:101910006F6003E00120F3E7C5F804904FF4A0786E
:1019200010237A220421404603F0FCF9CE4E96F8AB
:101930004002012802D9002086F8400296F8C80427
:1019400060B1307B002300EB400101EBC001C748D0
:101950000A18042140460DF039F80DE096F84002CF
:10196000002300EB400101EBC001C04816380A1803
:10197000042140460DF02AF896F84002DFF8F0A264
:1019800000287CD04FF0020BCDF804B04FF01A08BD
:1019900045E00198844201D1012000E00020009040
:1019A000009808B16F6001E0C5F804900198801EAE
:1019B000C0EBC00006EB8000D0F84C12D0F8480213
:1019C000C9B20023052202F0B1FF01981023801E46
:1019D00000EB800008EB800081B27A226C2003F0DB
:1019E000A1F90198801EC0EBC00006EB8000D0F882
:1019F000500200EB40000AEB40019E48FEF716FC47
:101A000001980023801E00EB800008EB800081B26B
:101A1000984A76200CF0DAFF0198401C019001985A
:101A20000C28B6D3CDF804B04AE001980A308442BD
:101A300001D1012000E000200090009808B16F6003
:101A400001E0C5F804900198801EC0EBC00006EBD1
:101A50008000D0F86413D0F86003C9B200230522D7
:101A600002F064FF01981023801E00EB800008EB59
:101A7000800081B24FF4B87B7A22584600E023E020
:101A800003F050F90198801EC0EBC00006EB800007
:101A9000D0F8680300EB40000AEB40017548FEF700
:101AA000C5FB01980023801E00EB800008EB80003E
:101AB00081B2704A58460CF089FF0198401C019091
:101AC00001980C28B1D35EE0C5F80490E3234FF4ED
:101AD000DD722E21002003F025F9022C05D0002014
:101AE0000090009818B16F6003E00120F8E7C5F896
:101AF0000490D6F84C02C1B2D6F848020023052261
:101B000002F014FF10237A221A21762003F00AF93A
:101B1000D6F8500200EB40000AEB40015548FEF7B2
:101B200085FB0023534A1A2176200CF04FFF032C2B
:101B300005D000200090009818B16F6003E00120EC
:101B4000F8E7C5F80490D6F86403C1B2D6F860038C
:101B50000023052202F0EAFE4FF4B37710237A2225
:101B60001A21384603F0DEF8D6F8680300EB40008F
:101B70000AEB40013F48FEF759FB00233D4A1A217A
:101B800038460CF023FF01F051F83B486FF07F41DD
:101B9000162C31D2DFE804F00B104E4E4E4E4E4E56
:101BA0004E4E4E4E4E4E4E4E4E4E4E4E4E4EBDE84C
:101BB000FC5F002000F0A6BE2960686096F8C804AB
:101BC0005424D8B100200190284D12E00198002340
:101BD00000EB400101EBC00042190198F12100EB3C
:101BE000800004EB001080B20CF0F0FE0198401C65
:101BF000019001980228E9D3BDE8FC9F00200190E4
:101C00001A4D163D12E00198002300EB400101EB54
:101C1000C00042190198F12100EB800004EB001094
:101C200080B20CF0D3FE0198401C0190019802286C
:101C3000E9D3E1E72960686096F8C80440B102B0D2
:101C40000023BDE8F05FF1210CA254200CF0BEBED1
:101C500002B00023BDE8F05FF1210AA254200CF08D
:101C6000B5BE0000C40000204C0D0020EA2601088B
:101C7000EE2701080415002038003100494E505568
:101C800054000000CAE4C8EB000000002DE9FC4746
:101C90000546012D0AD0002000904FF47F0648F23F
:101CA0008B68FE4C009818B1666003E00120F3E7F2
:101CB000C4F80480FA4F97F8C80410B1DFF8E49331
:101CC00003E0DFF8E093A9F11C09102368221A2130
:101CD000582003F027F838780023C0EBC00000EB51
:101CE00009021A2158200CF071FE022D05D00020A7
:101CF0000090009818B1666003E00120F8E7C4F88E
:101D0000048097F8C80420B1DFF8989309F13809E6
:101D100003E0DFF8909309F11C09102368222E21BB
:101D2000582002F0FFFF78780023C0EBC00000EBE2
:101D300009022E2158200CF049FE032D05D0002069
:101D40000090009818B1666003E00120F8E7C4F83D
:101D5000048097F8C80420B1DFF8489309F18E0990
:101D600003E0DFF8409309F154091023682242216F
:101D7000582002F0D7FFB8780023C0EBC00000EB7A
:101D80000902422158200CF021FE042D05D000202C
:101D90000090009818B1666003E00120F8E7C4F8ED
:101DA000048097F8C80420B1DFF8F89209F19C0983
:101DB00003E0DFF8F09209F1AA0910236822562106
:101DC000582002F0AFFFF8780023C0EBC00000EB12
:101DD0000902562158200CF0F9FD052D05D00020F0
:101DE0000090009818B1666003E00120F8E7C4F89D
:101DF000048097F8C80410B1DFF8AC9203E0DFF874
:101E0000A892A9F14D094FF4A97A102368221A214A
:101E1000504602F087FF7879A0B138790023401C42
:101E200000EB400101EBC00000EB09021A21504613
:101E30000CF0CCFD062D0CD000200090009850B185
:101E400066600AE000234A461A2150460CF0BEFDA7
:101E5000F0E70120F1E7C4F8048097F8C80420B146
:101E6000DFF84492A9F1620903E0DFF83C92A9F19E
:101E70007709102368222E21504602F053FFB879CB
:101E80000023C0EBC00000EB09022E2150460CF0ED
:101E90009DFD072D05D000200090009818B16660C8
:101EA00003E00120F8E7C4F8048097F8C80420B1E3
:101EB000DFF8F09109F18E0903E0DFF8E89109F10C
:101EC0005409102368224221504602F02BFFF87972
:101ED0000023C0EBC00000EB0902422150460CF089
:101EE00075FD082D05D000200090009818B166609F
:101EF00003E00120F8E7C4F8048097F8C80410B1A3
:101F0000684E8E3601E0674E543610236822562103
:101F1000504602F007FF387A0023C0EBC000821958
:101F2000562150460CF052FD00F080FE00205F4A22
:101F300054266FF07F41092D29D2DFE805F005090D
:101F40002A4B6CD9FBB98D00BDE8FC4700F018B9ED
:101F50002160626097F8C81409B1524C01E0514CFD
:101F60001C3C019010E001980023C0EBC000021956
:101F70000198F12100EB800006EB001080B20CF01C
:101F800025FD0198401C019001980428EBD3BDE881
:101F9000FC872160626097F8C81411B1414C383455
:101FA00001E0404C1C34019010E001980023C0EB8C
:101FB000C00002190198F12100EB800006EB00102F
:101FC00080B20CF003FD0198401C0190019802289A
:101FD000EBD3DCE72160626097F8C81411B1314C93
:101FE0008E3401E02F4C5434019010E0019800230E
:101FF000C0EBC00002190198F12100EB800006EB54
:10200000001080B20CF0E2FC0198401C0190019895
:102010000228EBD3BBE72160626097F8C81411B1C6
:10202000214C933C01E0204C853C019010E001984C
:102030000023C0EBC00002190198F12100EB8000E1
:1020400006EB001080B20CF0C1FC0198401C01901E
:1020500001980228EBD39AE72160626097F8C814D0
:1020600011B1104C8E3401E00E4C5434019010E04C
:1020700001980023C0EBC00002190198F12100EB88
:10208000800006EB001080B20CF0A0FC0198401C10
:10209000019001980228EBD379E70000C4000020EA
:1020A0004C0D002072260108A127010838003100DC
:1020B0002160626097F8C81409B12F4C01E02E4CE2
:1020C0003A3C019010E001980023C0EBC0000219D7
:1020D0000198F12100EB800006EB001080B20CF0BB
:1020E00075FC0198401C019001980228EBD34EE743
:1020F0002160626097F8C81409B1204C00E01F4CC1
:10210000019012E00198002300EB400101EBC000B8
:1021100002190198F12100EB800006EB001080B25B
:102120000CF054FC0198401C019001980428E9D35C
:102130002DE7FFE72160626097F8C81411B10E4CDB
:102140003F3401E00C4C2A34019010E00198002348
:10215000C0EBC00002190198F12100EB800006EBF2
:10216000001080B20CF032FC0198401C01900198E4
:102170000328EBD30BE70000002701080028010823
:1021800070B500F053FD45486FF07F410160444950
:102190004160444890F8C8144FF4A2754FF4CA74D3
:1021A00000293DD0002340A2E72154200CF00EFC72
:1021B00000233FA2FB2154200CF008FC00233EA288
:1021C000E721A4200CF002FC00233CA2FB21A42068
:1021D0000CF0FCFB00233BA2E721F4200CF0F6FB03
:1021E000002336A2FB21F4200CF0F0FB002337A2E1
:1021F000E72128460CF0EAFB002336A2FB21284603
:102200000CF0E4FB002335A2E72120460CF0DEFBB6
:102210002046BDE87040002331A2FB210CF0D6BB64
:10222000002331A2E72154200CF0D0FB002330A280
:10223000FB2154200CF0CAFB00232FA2E721A4208D
:102240000CF0C4FB00232EA2FB21A4200CF0BEFB4B
:1022500000232DA2E721F4200CF0B8FB002328A2D4
:10226000FB21F4200CF0B2FB002329A2E721284631
:102270000CF0ACFB002328A2FB2128460CF0A6FBA7
:10228000002327A2E72120460CF0A0FB2046BDE852
:102290007040002324A2FB210CF098BBC400002056
:1022A000380031004C0D00204D4541530000000026
:1022B000444953500000000052455300434F4D50D5
:1022C0000000000020564F4C000000004348414EE3
:1022D0004E00000053454C4C000000005359530081
:1022E000534554555000000020B2E2C1BF00000029
:1022F00020CFD4CABE00000020B5E7D7E800000018
:1023000020B1C8BDCF00000020B5E7D1B900000062
:1023100020CDA8B5C000000020D1A1D4F10000005C
:1023200020CFB5CDB300000020C9E8D6C30000001F
:10233000002000F0D9B8000070B500F077FC4548E7
:102340006FF07F41016044494160444890F8C814EF
:102350004FF4A2754FF4CA7400293DD0002340A267
:10236000E72154200CF032FB00233FA2FB21542034
:102370000CF02CFB00233EA2E721A4200CF026FB4E
:1023800000233CA2FB21A4200CF020FB00233BA255
:10239000E721F4200CF01AFB002336A2FB21F420E5
:1023A0000CF014FB002337A2E72128460CF00EFBAB
:1023B000002336A2FB2128460CF008FB002335A29F
:1023C000E72120460CF002FB2046BDE870400023C8
:1023D00031A2FB210CF0FABA002331A2E7215420EC
:1023E0000CF0F4FA002330A2FB2154200CF0EEFA9A
:1023F00000232FA2E721A4200CF0E8FA00232EA24C
:10240000FB21A4200CF0E2FA00232DA2E721F42006
:102410000CF0DCFA00232CA2FB21F4200CF0D6FAFD
:1024200000232BA2E72128460CF0D0FA00232AA291
:10243000FB2128460CF0CAFA002325A2E7212046FA
:102440000CF0C4FA2046BDE87040002324A2FB2112
:102450000CF0BCBAC4000020380031004C0D002044
:102460004D45415300000000444953500000000016
:1024700052455300434F4D500000000020564F4C32
:10248000000000004348414E4E00000053454C4CB4
:1024900000000000535953005345545550000000AC
:1024A00020B2E2C1BF00000020CFD4CABE000000AD
:1024B00020B5E7D7E800000020B1C8BDCF0000007C
:1024C00020B5E7D1B900000020D1A1D4F10000006F
:1024D00020CFB5CDB300000020C9E8D6C30000006E
:1024E00020D0C5CFA200000010B5044600F09EFB2E
:1024F000504851496FF07F425CB3012C7ED102609D
:10250000416000234DA2E72154200CF05FFA002324
:102510004CA2FB2154200CF059FA00234BA2E721D6
:10252000A4200CF053FA00234AA2FB21A4200CF0B3
:102530004DFA4FF4CA74002348A2E72120460CF05C
:1025400045FA20460023BDE8104046A2FB210CF0CE
:102550003DBA02604160454890F8C8144FF4A27437
:10256000002931D0002342A2E72154200CF02EFA9A
:10257000002341A2FB2154200CF028FA00233CA2A6
:10258000E721A4200CF022FA00233DA2FB21A42085
:102590000CF01CFA00233CA2E721F4200CF016FA00
:1025A000002337A2FB21F4200CF010FA002338A2FC
:1025B000E72120460CF00AFA20460023BDE810402F
:1025C00034A2FB210CF002BA002334A2E7215420EC
:1025D0000CF0FCF9002333A2FB2154200CF0F6F997
:1025E00000232EA2E721A4200CF0F0F900232FA253
:1025F000FB21A4200CF0EAF9002300E018E02DA252
:10260000E721F4200CF0E2F9002328A2FB21F420BA
:102610000CF0DCF9002327A2E72120460CF0D6F9C4
:1026200020460023BDE8104024A2FB210CF0CEB9C7
:1026300010BD0000C400002038003100CEC4BCFE34
:1026400000000000B9DCC0ED00000000B1A3B4E65A
:1026500000000000CAFDBEDD00000000B8FCB6E0CE
:102660000000000020322F32000000004C0D00203E
:102670004D45415300000000444953500000000004
:10268000534554555000000020535953000000009A
:1026900053595300494E464F00000000B2E2C1BFFB
:1026A00000000000CFD4CABE00000000C9E8D6C3B5
:1026B00000000000CFB5CDB300000000D0C5CFA210
:1026C0000000000070B5054600F0B0FA5C485D4AB5
:1026D0006FF07F414FF4CA744DB3012D7ED101607C
:1026E0004260002358A2E72154200CF06FF9002328
:1026F00057A2FB2154200CF069F9002356A2E721D0
:10270000A4200CF063F9002355A2FB21A4200CF0B7
:102710005DF9002354A2E72120460CF057F920462A
:10272000BDE87040002352A2FB210CF04FB90160BC
:102730004260514890F8C8044FF4A27500283DD07B
:1027400000234EA2E72154200CF040F900234DA2B3
:10275000FB2154200CF03AF900234CA2E721A420DD
:102760000CF034F900234AA2FB21A4200CF02EF92E
:10277000002349A2E721F4200CF028F9002348A205
:10278000FB21F4200CF022F9002347A2E721284680
:102790000CF01CF9002345A2FB2128460CF016F989
:1027A000002341A2E72120460CF010F92046BDE8A5
:1027B000704000233FA2FB210CF008B900233FA288
:1027C000E72154200CF002F900233EA2FB21542003
:1027D0000CF0FCF800233DA2E72100E02EE0A4204D
:1027E0000CF0F4F800233BA2FB21A4200CF0EEF83F
:1027F00000233AA2E721F4200CF0E8F8002339A2E4
:10280000FB21F4200CF0E2F8002338A2E72128464F
:102810000CF0DCF8002337A2FB2128460CF0D6F898
:10282000002332A2E72120460CF0D0F82046BDE874
:102830007040002331A2FB210CF0C8B870BD00002D
:10284000C400002038003100CEC4BCFE00000000EF
:10285000B9DCC0ED00000000B1A3B4E60000000048
:10286000CAFDBEDD00000000B8FCB6E000000000BC
:1028700020322F32000000004C0D00204D45415306
:10288000000000004449535000000000564F4C0027
:10289000434F4D50000000004348414E00000000EF
:1028A00053454C4C45000000535953005345545573
:1028B00050000000494E464F00000000B2E2C1BF88
:1028C00000000000CFD4CABE00000000B5E7D1B9B7
:1028D00000000000B1C8BDCF00000000CDA8B5C009
:1028E00000000000D1A1D4F100000000CFB5CDB3AD
:1028F00000000000C9E8D6C300000000D0C5CFA288
:102900000000000070B5054600F090F95C485D4A93
:102910006FF07F414FF4CA744DB3012D7ED1016039
:102920004260002358A2E72154200CF04FF8002306
:1029300057A2FB2154200CF049F8002356A2E721AE
:10294000A4200CF043F8002355A2FB21A4200CF096
:102950003DF8002354A2E72120460CF037F820462A
:10296000BDE87040002352A2FB210CF02FB801609B
:102970004260514890F8C8044FF4A27500283DD039
:1029800000234EA2E72154200CF020F800234DA292
:10299000FB2154200CF01AF800234CA2E721A420BC
:1029A0000CF014F800234AA2FB21A4200CF00EF82E
:1029B000002349A2E721F4200CF008F8002348A2E4
:1029C000FB21F4200CF002F8002347A2E72128465F
:1029D0000BF0FCFF002345A2FB2128460BF0F6FF7D
:1029E000002341A2E72120460BF0F0FF2046BDE87E
:1029F000704000233FA2FB210BF0E8BF00233FA261
:102A0000E72154200BF0E2FF00233EA2FB215420DB
:102A10000BF0DCFF00233DA2E72100E02EE0A42024
:102A20000BF0D4FF00233BA2FB21A4200BF0CEFF30
:102A300000233AA2E721F4200BF0C8FF002339A2BB
:102A4000FB21F4200BF0C2FF002338A2E721284627
:102A50000BF0BCFF002337A2FB2128460BF0B6FF8A
:102A6000002332A2E72120460BF0B0FF2046BDE84C
:102A70007040002331A2FB210BF0A8BF70BD000005
:102A8000C400002038003100CEC4BCFE00000000AD
:102A9000B9DCC0ED00000000B1A3B4E60000000006
:102AA000CAFDBEDD00000000B8FCB6E0000000007A
:102AB00020322F32000000004C0D00204D454153C4
:102AC00000000000444953500000000052455300EC
:102AD000434F4D50000000004348414E00000000AD
:102AE00053454C4C45000000535953005345545531
:102AF00050000000494E464F00000000B2E2C1BF46
:102B000000000000CFD4CABE00000000B5E7D7E83F
:102B100000000000B1C8BDCF00000000CDA8B5C0C6
:102B200000000000D1A1D4F100000000CFB5CDB36A
:102B300000000000C9E8D6C300000000D0C5CFA245
:102B4000000000000FB410B59DF80800002812D056
:102B50009DF80800032807D99DF8101000230622CD
:102B6000039801F0E3FE06E09DF818100023072209
:102B7000059801F0DBFE9DF808001A2110BC00EB5F
:102B8000C00001EB40010123034A4FF4A0705DF83F
:102B900014EB0BF01BBF00000415002071B581B0D1
:102BA000002000901D4C48F28B6531E09DF8041028
:102BB0000098401C814203D14FF47F01616000E026
:102BC000656000EBC0001A2606EB400081B21223BC
:102BD0005A22A02002F0A6F811480099415C114841
:102BE000009A00EBC200D0F8B4000023062201F0E6
:102BF0009DFE00980123401C00EBC00006EB400046
:102C000081B2094AA0200BF0E1FE0098401C009020
:102C100000980528CAD365607CBD0000C400002070
:102C200060000020780B0020041500202DE9F05FE3
:102C30000024DFF878801E4EDFF878A000274FF0E0
:102C40004C094FF0010BC6F8048004EB4401A000CE
:102C500001EB041100EB810080B22C234C22E42113
:102C600002F060F8C6F804A004EB84050BEB051035
:102C700080B201234C22E32102F054F809EB051045
:102C800080B22D230122E32102F04CF877604D2021
:102C900000EB051080B22D230322E32102F042F85D
:102CA000641C062CCFD3BDE8F09F00003800310033
:102CB000C4000020684369002DE9F04F93B08046BE
:102CC0000E46012012900C9000270B970A97099747
:102CD000089703970297049702970D974FF0200AE1
:102CE0000FAD07E09DF8340005F800A09DF8340012
:102CF000401C0D909DF834000728F3D38DF84370E5
:102D00000AB1072400E00624DFF8A4B34FF02E092F
:102D100057E1022001F0FAFE0E909DF838000028DD
:102D200046D001210C919DF838001228F8D00CDC17
:102D300012283DD2DFE800F03C3C3C60D0C3B63CFA
:102D40003C3C3C5AA99C8F3C3C3D1A28E8D009DC0D
:102D5000A0F113000728ECD2DFE800F02A6E6154DE
:102D60002A2A0E001E2874D022DC1B28D8D01C284A
:102D700070D01D281CD1C9E0049712979DF820003F
:102D8000A04214D29DF82C0088B99DF8200050B1C3
:102D90009DF8200005F800909DF820000A909DF80D
:102DA0002000401C08909DF82C00401C0B900591C1
:102DB000EEE0049112979DF82000A04214D29DF8F5
:102DC0002C0088B99DF8200050B19DF8200005F82E
:102DD00000909DF820000A909DF82000401C08906B
:102DE0009DF82C00401C0B900591D1E006208BF83B
:102DF000000012970597CBE01297059712208BF8E9
:102E00000000C5E09DF82000A04207D29DF82010E8
:102E1000312068549DF82000401C0890B8E09DF8CF
:102E20002000A04207D29DF82010322068549DF85F
:102E30002000401C0890ABE09DF82000A04207D283
:102E40009DF82010332068549DF82000401C089005
:102E50009EE04EE077E09DF82000A04207D29DF86A
:102E60002010342068549DF82000401C08908FE00A
:102E70009DF82000A04207D29DF82010352068540C
:102E80009DF82000401C089082E09DF82000A042A0
:102E90007ED29DF82010362068549DF82000401CFA
:102EA000089075E09DF82000A04271D29DF8201096
:102EB000372068549DF82000401C089068E09DF879
:102EC0002000A04264D29DF82010382068549DF85C
:102ED0002000401C08905BE09DF82000A04257D2E3
:102EE0009DF82010392068549DF82000401C08905F
:102EF0004EE09DF82000A0424AD29DF820103020DC
:102F000068549DF82000401C089041E09DF8200086
:102F1000A0423DD29DF8200040B39DF82C0028BB74
:102F20009DF8200050B19DF8200005F800909DF814
:102F300020000A909DF82000401C08909DF82C006D
:102F4000401C0B9024E09DF8200080B19DF82000EB
:102F5000401E08909DF8200005F800A09DF828006C
:102F60009DF82010884213D10B970A9710E09DF826
:102F70002000285C78B39DF82000285C2D2830D0F4
:102F80009DF820102D2068549DF82000401C0890CA
:102F90009DF83000A8B10C9746486FF07F41016062
:102FA0004FF47F014160B0887188103082B2308860
:102FB000102301F0B7FE7188308800230FAA0BF0B0
:102FC00005FD9DF8480000287FF4A3AE9DF8200081
:102FD0000D90302011E0FFE79DF820102D2068545F
:102FE000D2E79DF820102B206854CDE79DF83410CF
:102FF00068549DF83410491C0D919DF83410A1427D
:10300000F4D30D9734E09DF83C0030282CD39DF884
:103010003C00392828D89DF83400285C302823D378
:103020009DF83400285C39281ED89DF828009DF8AA
:10303000341088420CD9029800EB800040000290C6
:1030400002989DF83410695C0844303802900BE017
:10305000029800EB80004000029002989DF8341026
:10306000695C0844303802909DF83400401C0D9093
:103070009DF83400A042C6D39DF8280003909DF827
:10308000040088F800000298C8F804000398C8F803
:1030900008000498C8F80C000598C8F810000698B5
:1030A000C8F814000798C8F8180013B0BDE8F08FEE
:1030B00031000020C4000020F8B5284E756848F2A1
:1030C0008B607060264C607803281BD0607860B1FC
:1030D000012324A26C2130200BF0C8FC012321A283
:1030E000A32130200BF0C2FC18E000231DA25C21BC
:1030F00020200BF0BBFC00231AA2932120200BF010
:10310000B5FC0BE0002317A27C2140200BF05EFCF5
:10311000002314A2B32140200BF058FCFDF7FEFE63
:103120000020FDF789FCFDF77BFC16233C22B4212F
:103130004FF4C87001F0F6FD0D48009037232822A7
:103140005C214FF4967002F07BF9756094F84100B1
:1031500008490978BDE8F84000F052B8C4000020E2
:10316000780B00202D2D2D2D2D2D2D2D0000000054
:103170001E6601083300002008B5114841794FF45C
:10318000967000290BD0012911D0022906D10D49D2
:103190000091372328225C2102F052F908BD0A4928
:1031A0000091372328225C2102F04AF908BD074923
:1031B0000091372328225C2102F042F908BD00006B
:1031C0006C0000201E66010857690108B66E0108F0
:1031D00018B509484FF4AA740090372328225C21BF
:1031E000204602F02DF9054900913723282293212A
:1031F000204602F025F918BD906C010815740108ED
:10320000012800D90120062900D906210A4B48F2DD
:103210008B625A60C0EBC000084A00EB400002EB32
:10322000800001EB410100EB81020023D22140F23A
:103230009F100BF0CBBB0000C4000020DC2901086C
:1032400030B595B004460D4601F028F80022294615
:103250006846FFF731FD9DF800008DF838000198B1
:103260000F9002981090039811900498129005986E
:103270001390069814900EA9684607F03FFD9DF83C
:1032800000008DF81C00019808900298099003989E
:103290000A9004980B9005980C9006980D900B9846
:1032A00018B90020099008900A909DF81C00207021
:1032B000089860600998A0600A98E0600B98206107
:1032C0000C9860610D98A06115B030BD2DE9F047F4
:1032D0000024DFF88880224F1A264FF4947908EBF7
:1032E000040090F8DD0498B14FF47F40386004EB9F
:1032F000840006EB80010D4600231AA21E200BF06D
:1033000065FB294600231AA248460BF05FFB1EE02E
:103310001848386004EB840006EB8005002316A2F1
:1033200029461E200BF052FB2946002310A24846D6
:103330000BF04CFB2946002312A26E200BF046FB3B
:10334000294600230FA24FF4A3700BF03FFB641C2F
:10335000E4B20A2CC3D3BDE8F08700004C0D002076
:10336000C40000204F50454E2020523A000000007B
:10337000563A0000C0C0C000434C4F534520523A5B
:10338000000000002D2D2D2D2D2D2D2D2D2D2D2D21
:103390002D2D2D0070B500F0A1F81E4C6FF07F456B
:1033A00025601D4860601D4E96F8C80408B11C4A8F
:1033B00001E01B4AF23A0023DC32042118460BF0EC
:1033C00005FB256048F28B60606096F8C80408B180
:1033D000144D01E0134D543D00241A26C4EBC400E3
:1033E00000EB4000421904EB840006EB800081B240
:1033F000002318460BF0EAFA641C042CEED30023D9
:10340000094A562152200BF0E1FABDE87040FEF760
:103410008FBF0000C40000200352F3004C0D0020B9
:10342000D823010888290108880C002070B50024E1
:103430001825601C00EB800005EB800081B20123A1
:1034400064225A2001F06EFC641C072CF1D370BD7D
:103450002DE9F04100F042F81B4E6FF07F473760D6
:103460001A4870601A4C94F8C80408B1194A01E06F
:10347000184AF23A0023B032042118460BF0A6FA9B
:10348000376048F28B60706094F8C80408B1124D40
:1034900001E0114D583D00244FF01A0804EB4400A0
:1034A00000EBC400421904EB840008EB800081B2F9
:1034B000002318460BF08AFA641C082CEED37760C0
:1034C000BDE8F041FFF7B2BFC40000200352F30093
:1034D0004C0D0020D82301088428010810B500F005
:1034E0003FFEBDE81040FFF7A1BB00002DE9FF5FE4
:1034F000044600278DF80770012C0AD000200290A6
:10350000FA4D02984FF47F0648F28B6B18B16E604B
:1035100003E00120F3E7C5F804B0DFF8D48398F89E
:10352000C80410B1DFF8CC9303E0DFF8C893A9F129
:103530003A09102366221A215A2001F0F3FB98F869
:10354000C4040023C0EBC00000EB09021C215A2078
:103550000BF03CFA022C05D000200290029818B122
:103560006E6003E00120F8E7C5F804B0102366227E
:103570002E215A2001F0D6FB98F8C504DFF8789385
:10358000C0EBC00000EB0902002330215A200BF0F1
:103590001DFA032C05D000200290029818B16E602D
:1035A00003E00120F8E7C5F804B098F8C80410B1AA
:1035B000DFF840A303E0DFF83CA3AAF13A0A1023A6
:1035C000662242215A2001F0ADFB98F8C604002380
:1035D000C0EBC00000EB0A0244215A200BF0F6F9C0
:1035E000042C05D000200290029818B16E6003E010
:1035F0000120F8E7C5F804B098F8C80410B1DFF866
:10360000F4A203E0DFF8ECA2AAF13A0A1023662242
:1036100056215A2001F086FB98F8C7040023C0EB1E
:10362000C00000EB0A0258215A200BF0CFF9052CFC
:1036300005D000200290029818B16E6003E00120CE
:10364000F8E7C5F804B0102366226A215A2001F079
:1036500069FB98F8C804DFF8A0A200230AF1380A31
:103660000AEBC0026C215A200BF0B0F901A900202E
:1036700002F00AFF6946002002F0D4FE062C05D0B5
:1036800000200290029818B16E6003E00120F8E774
:10369000C5F804B0102312227E215A2001F042FB0B
:1036A0009DF8032095A196480BF032FA0023944A26
:1036B00080215A200BF08AF9C5F804B0002391A2AA
:1036C00080216E200BF082F9072C05D0002002909B
:1036D000029818B16E6003E00120F8E7C5F804B065
:1036E000102312227E21782001F01CFB9DF801207E
:1036F00082A183480BF00CFA0023814A80217820B4
:103700000BF064F9C5F804B000237EA280218C2060
:103710000BF05CF9082C05D000200290029818B13B
:103720006E6003E00120F8E7C5F804B01023122210
:103730007E21982001F0F6FA9DF802206FA17048D2
:103740000BF0E6F900236E4A802198200BF03EF939
:10375000092C05D000200290029818B16E6003E099
:103760000120F8E7C5F804B01023122292215A2054
:1037700001F0D8FA9DF8042060A161480BF0C8F967
:1037800000235F4A94215A200BF020F9C5F804B0B9
:1037900000235DA294216E200BF018F90A2C05D0AD
:1037A00000200290029818B16E6003E00120F8E753
:1037B000C5F804B0102312229221782001F0B2FA49
:1037C0009DF805204DA14E480BF0A2F900234C4A6C
:1037D000942178200BF0FAF8C5F804B000234AA22F
:1037E00094218C200BF0F2F80B2C05D000200290D5
:1037F000029818B16E6003E00120F8E7C5F804B044
:10380000102312229221982001F08CFA9DF80620B4
:103810003AA13B480BF07CF90023394A94219820C7
:103820000BF0D4F80C2C05D000200290029818B1AF
:103830006E6003E00120F8E7C5F804B010236622AB
:10384000A6215A2001F06EFA0023304AA8215A20FE
:103850000BF0BCF8FFF7EAF96FF07F4028602C48C6
:10386000686054250C2C09D2DFE804F0060A2854BD
:103870007290A5A5A5A5A5A5FEF75AFDBDE8FF9FD9
:1038800098F8C80408B11B4C01E01A4C3A3C039765
:1038900010E003980023C0EBC00002190398F12147
:1038A00000EB800005EB001080B20BF08FF803985E
:1038B000401C039003980228EBD3DFE7039711E045
:1038C00003980023C0EBC00000EB09020398F1212C
:1038D00000EB800005EB001080B20BF077F8039846
:1038E000401C039003980528EAD3C7E7C4000020D2
:1038F0004C0D002000270108DC2801082532640057
:10390000041500202D0000003A00000015120020D0
:103910003800310098F8C80408B1324C01E0314C4D
:103920003A3C039710E003980023C0EBC000021953
:103930000398F12100EB800005EB001080B20BF042
:1039400045F80398401C039003980228EBD395E7B1
:1039500098F8C80408B1234C01E0224C3A3C039784
:1039600010E003980023C0EBC00002190398F12176
:1039700000EB800005EB001080B20BF027F80398F5
:10398000401C039003980228EBD377E703970EE0DF
:10399000039800230AEBC00200EB800005EB001047
:1039A00080B2F1210BF012F80398401C03900398A9
:1039B0000228EDD362E703970B4C0EE00398002337
:1039C00004EBC00200EB800005EB001080B2F12197
:1039D0000AF0FCFF0398401C039003980228EDD3E3
:1039E0004CE70000002701082429010810B500F069
:1039F000B7FBBDE81040FFF719B910B500F0B0FBF8
:103A0000BDE81040FFF712B970B5FFF7EFFF194C92
:103A10006FF07F45256018486060184E96F8C8041E
:103A200008B1174A01E0164AF23A00230421184669
:103A30000AF0CCFF256048F28B606060F07898B1A6
:103A40000024104D1A2604EB4400421904EB8400B4
:103A500006EB800081B2002302200AF0B7FF641C4D
:103A60000A2CF0D3FFF732FCBDE870400020FEF7CF
:103A70003BBD0000C40000200352F3004C0D0020A9
:103A8000D8230108842A01082DE9F047FFF7B5FF84
:103A9000414C6FF07F45256040486060404E96F88D
:103AA000C80408B13F4A01E03E4AF23A0023163208
:103AB000042118460AF08AFF256048F28B60606096
:103AC00096F8C804307B384A4FF482791A2770B3CD
:103AD0000024904604EB440000EB080204EB840051
:103AE00007EB8005A9B2002302200AF06FFF96F8C9
:103AF000C80460B1A9B200232CA220200AF066FFFE
:103B0000A9B200232BA248460AF060FF0BE0A9B23D
:103B100000232AA248460AF059FFA9B200232AA28C
:103B200020200AF053FF641C0A2CD3D321E0FFE7C6
:103B30003946002302200AF049FF96F8C80460B114
:103B400000231AA2394620200AF040FF002319A2C0
:103B5000394648460AF03AFF0BE000231AA23946DC
:103B600020200AF033FF002314A2394648460AF009
:103B70002DFF96F8C80438B1BDE8F04700230421B2
:103B800014A2E6200AF022BFBDE8F047002304217A
:103B900013A2E6200AF01ABFC40000200352F3006B
:103BA0004C0D0020D8230108842A010848495F529F
:103BB000455300004C4F5F5245530000B5E7D7E82E
:103BC000CFC2CFDE00000000B5E7D7E8C9CFCFDE17
:103BD00000000000434F4D504D4F44453A00000057
:103BE000B1C8BDCFB7BDCABD3A0000002DE9F0474E
:103BF000FFF703FF414C6FF07F4525604048606050
:103C0000404E96F8C80408B13F4A01E03E4AF23AF5
:103C100000232C32042118460AF0D8FE256048F211
:103C20008B60606096F8C80496F84002374A4FF4FB
:103C300082791A2770B30024904604EB440000EB0D
:103C4000080204EB840007EB8005A9B200230220E0
:103C50000AF0BCFE96F8C80460B1A9B200232CA2F9
:103C600020200AF0B3FEA9B200232CA248460AF095
:103C7000ADFE0BE0A9B200232AA220200AF0A6FE86
:103C8000A9B200232AA248460AF0A0FE641C0A2C0E
:103C9000D3D320E03946002302200AF097FE96F89D
:103CA000C80460B100231AA2394620200AF08EFE13
:103CB00000231AA2394648460AF088FE0BE000238A
:103CC00018A2394620200AF081FE002318A23946A6
:103CD00048460AF07BFE96F8C80438B1BDE8F047C4
:103CE0000023042115A2E6200AF070BEBDE8F047CB
:103CF0000023042114A2E6200AF068BEC4000020BC
:103D00000352F3004C0D0020D8230108842A010837
:103D1000564F4C5F4849474800000000564F4C5FE3
:103D20004C4F5700B5E7D1B9C9CFCFDE0000000036
:103D3000B5E7D1B9CFC2CFDE00000000434F4D50F0
:103D40004D4F44453A000000B1C8BDCFB7BDCABD14
:103D50003A0000002DE9F041FFF74FFEFFF74DFE5E
:103D60002B4E6FF07F4434602A4870602A4D95F8DE
:103D7000C80408B1294A01E0284AF23A002358321F
:103D8000042118460AF022FE346048F28B677760FF
:103D900095F8C80408B1224D01E0214DC63D00242C
:103DA0004FF01A08092C14D2E01E052801D27760C2
:103DB00000E0776004EB440000EBC400421904EB20
:103DC000840008EB800081B2002318460AF0FEFD53
:103DD00016E0A4F10C00052801D2776000E07760BE
:103DE00004EB440000EBC4004219A4F1090000EB0D
:103DF000800008EB800081B20023FA200AF0E6FD83
:103E0000641C122CCED3BDE8F041FEF7B9B9000016
:103E1000C40000200352F3004C0D0020D8230108F9
:103E2000902501082DE9F041FFF7E7FD3A4C6FF0CE
:103E30007F45256039486060394E96F8C80408B15E
:103E4000384A01E0374AF23A002342320421184648
:103E50000AF0BCFD256048F28B60606096F8C804EB
:103E600096F8E704304A1A2568B30024174604EB95
:103E70004400C21904EB840005EB800081B20023EA
:103E800002200AF0A3FD641C0A2CF0D3002496F84B
:103E9000C80450B104EB840005EB800081B200231C
:103EA00022A220200AF092FD09E004EB840005EB39
:103EB000800081B200231FA220200AF087FD641C2D
:103EC0000A2CE4D314E02946002302200AF07EFDE8
:103ED00096F8C80430B12946002314A220200AF025
:103EE00075FD05E02946002312A220200AF06EFD90
:103EF00096F8C80438B1BDE8F041002304210FA2B0
:103F0000E6200AF063BDBDE8F041002304210EA2C3
:103F1000E6200AF05BBD0000C40000200352F3005D
:103F20004C0D0020D8230108842A01084348414E43
:103F30004E000000CDA8B5C0000000005345544D10
:103F40004F44453A00000000C9E8D6C3B7BDCABD1A
:103F50003A0000002DE9FF5F00980021774C002215
:103F60006254491CC9B20929FAD348F2E8014FF05A
:103F70002D08884207D9002004F80080401CC0B2F8
:103F80000628F9D305E09DF804100023052200F06F
:103F9000CDFC6B4D2068C5F80300A188A5F807107B
:103FA000684F78613983DFF8A0A168499AF8050065
:103FB00000EB400001EB400001887983807838777E
:103FC0004FF0090B87F81DB04FF0200984F80690D8
:103FD0005F4E71789DF8060003292BD0717839B1B6
:103FE000D8B101235BA26C2130200AF03FFD1AE01A
:103FF00030B1002357A25C2120200AF037FD05E0F4
:10400000002355A25C2120200AF030FD00234B4AFA
:104010005C2140200AF02AFD20E001234EA26C2101
:1040200030200AF023FD0123444A6C2140200AF08D
:104030001DFD13E030B1002346A27C2140200AF090
:10404000C5FC05E0002344A27C2140200AF0BEFC10
:1040500000233A4A7C214A200AF0B8FC9DF80C1053
:1040600000230622029800F061FC2268C5F80B20AC
:10407000A188A5F80F10A079687447F81F2FB980A0
:10408000B8715620F87187F808B034A00088F8811C
:104090001F3F70789DF80E4003282BD0707838B100
:1040A000DCB101232BA2A32130200AF0DFFC1AE0AF
:1040B00034B1002327A2932120200AF0D7FC05E089
:1040C000002325A2932120200AF0D0FC00231B4AC4
:1040D000932140200AF0CAFC20E001231EA2A32164
:1040E00030200AF0C3FC0123144AA32140200AF027
:1040F000BDFC13E034B1002316A2B32140200AF026
:1041000065FC05E0002314A2B32140200AF05EFC08
:1041100000230A4AB3214A200AF058FC24B185F84A
:104120000A9087F81E9003E085F80A8087F81E80C1
:104130009AF805006872BDE8FF9F00000415002092
:10414000E80A0020FD0A00206C000020EE2701088C
:10415000780B0020200000002D0000000D0A000058
:104160000549044848601623AA220021084600F0A9
:10417000D9BD00000352F300C40000201EB5114C4D
:1041800021680191616802910F496160012812D094
:104190004FF47F01022812D021600C4800901823B0
:1041A0003022F1214FF4CA7001F04AF901982060E1
:1041B000029860601EBD4FF47F402060EDE72160F3
:1041C000EBE70000C400002038003100AC86010895
:1041D00070B500F043F81E4C6FF07F4525601D4818
:1041E000606000231C4A042118460AF0EFFB25609A
:1041F00048F28B6060600024174D4FF6FF76D63D85
:1042000004EB840000EBC400421904EB840006EACE
:10421000401000231A210AF0D9FB641C032CEFD3B1
:1042200000240D4E1A25AF3E04EB840000EBC400C1
:104230008219601C00EBC00005EB400081B2002336
:1042400018460AF0C3FB641C052CEDD370BD0000BA
:10425000C40000200352F3005423010810B5FFF7F7
:104260007FFFBDE81040FEF7E1BC000010B5FEF78F
:10427000DDFC0848064941606FF07F410160002382
:10428000F121BDE8104004A254200AF09FBB0000B9
:1042900038003100C40000202056200010B5FEF781
:1042A000C5FC0B48094941606FF07F410160002364
:1042B00008A2F12154200AF089FB0023F121BDE876
:1042C000104006A2A4200AF081BB00003800310093
:1042D000C4000020206DA6B82020000020A6B82031
:1042E0000000000000B58FB00EA9002002F0CCF84D
:1042F0000DA9002002F096F89DF836309DF83A009E
:104300009DF839109DF83820CDE90210CDE9003232
:104310009DF835309DF837200BA105A80AF0F8FB71
:10432000134948F28B604860002305AA0421FA2053
:104330000AF04CFB132205A90E48FBF753FF0D4969
:104340000920C8740FB000BD323025302E32642DE4
:1043500025302E32642D25302E32642025302E3229
:10436000643A25302E32643A25302E326400000043
:10437000C4000020FD0A002010B54FF40054204670
:1043800000F054F8002804D02046BDE8104000F0AA
:1043900047B810BD10B5082000F048F800281FD01D
:1043A00010480BF0A4FE08210F4800F021FA90B944
:1043B0000E48002101700E480E4A012304781CB1FA
:1043C00001700F20107002E00370022010700A4983
:1043D0004FF400700860BDE81040082000F020B8DD
:1043E00010BD0000A0860100001002405A0000200D
:1043F000390000203100002080E100E01CB54FF4BE
:104400000050009000208DF8040001208DF8070076
:104410006946024800F09EF91CBD000000040240FD
:104420000149086070470000143C0140014600202B
:10443000024A12680A4200D001207047143C014031
:1044400030B51B4A83790168002B2AD013688B434F
:104450001360111D0B680468A3430B6001791144BC
:104460000B68046823430B60114C0834216803680F
:1044700099432160231D19680568A9431960417992
:10448000102905D011440A68006802430A6030BD53
:1044900021680268114321601968006801431960AE
:1044A00030BD0079104402688A43026030BD0000CC
:1044B000003C01402DE9FF410121102001F024FEC4
:1044C0000121880301F058FE01F013FB0826029633
:1044D00000248DF80C4001258DF80F5002A91448D6
:1044E00000F038F90321042003F030F900968DF82C
:1044F00004400C268DF805608DF806506846FFF7DD
:104500009FFF6F03029702A90A4800F023F90D21CB
:10451000022003F01BF900978DF804408DF8056028
:104520008DF806506846FFF78BFFBDE8FF8100005D
:10453000001002400008024000224FF020431028E3
:104540000AD0B0F5807F09D0B0F5805F09D0D3F8EC
:104550005801814309D107E0586EFAE7D3F8840087
:10456000F7E7D3F8A400F4E70122104670470000F3
:10457000D0E9001211438268C068521E520142EA1B
:10458000402001430148016070470000500100A035
:1045900070B50468A100A1F1C041D1F84011CE0B63
:1045A000F603D0E901121143D0E903231A43114362
:1045B0004269C36911438269056A11431943426A1A
:1045C0002943114331434FF02046002C3CD0D6F80C
:1045D00040416FF30E042B4322431343C6F840318E
:1045E00002689200A2F1C042C2F84011016871B3A2
:1045F0008900A1F1C041D1F8481101F07043816AEE
:104600000A684C68521E641E42EA04148A68521EEC
:1046100044EA02240A8A521E44EA02421A43D6F8A5
:10462000483103F07043CC68898A641E2403491E14
:1046300044EA01511943C6F8481100688000A0F10E
:10464000C040C0F8482170BDC6F84011CEE7FFE772
:10465000D6F8481101F07041806A02684368521E22
:104660005B1E42EA03138268521E43EA0223C268B9
:10467000521E43EA0233028A521E43EA0243828AEE
:10468000007E521E43EA0252401E42EA0060084386
:10469000C6F8480170BD000002490A6842EA4000BD
:1046A00008607047540100A07CB5012140F2A710BA
:1046B00001F02AFD2E20009002208DF80500012037
:1046C0008DF8040000248DF806408DF807001D4D7C
:1046D0006946284600F03EF80E21284600F091F881
:1046E00020250095184E6946304600F033F8202109
:1046F000304600F084F840200090144E6946304661
:1047000000F028F800956946304600F023F8202193
:10471000304600F074F88DF804408DF80740280208
:10472000009069460A4800F015F800F0A9FFFCF770
:104730009FF90AF01FF901F049FA01F061FA02F05D
:10474000AFFD7CBD00080240001C0240002002407A
:10475000000402402DE9F041002201274FF0030C34
:1047600007FA02F50B682B40AB422CD106685300C8
:104770000CFA03F4A64306600E79D0F800809E4040
:1047800046EA080606600E79012E01D0022E12D1EB
:104790008668A64386604E79D0F808809E4046EA37
:1047A000080686604668AE43466045688E79964046
:1047B000B6B235434560C568A543C560CC799C4019
:1047C000C3681C43C460521C102AC9D3BDE8F081E1
:1047D00010B54B07DB0E9A40C90800EB8100016A57
:1047E0000F249C40A1430162016A1143016210BD84
:1047F0000246002012690A4200D00120704741831E
:104800007047018370470000034A203902EB011111
:104810001022FBF7E7BC0000BC8001080349085CDC
:10482000002801D000207047012070473D00002083
:104830004069806880B27047D0F8CC000068C0F34F
:1048400041407047084490F89B03704700EB81009B
:10485000D0F85003704710B5044600220023C4F876
:10486000103304EB8200C0F81433C0F85033A018A2
:1048700080F88C33521CD2B20F2AF2D30820A4F84D
:10488000B203204608F03AFB204608F0C9F820465B
:1048900007F0EAFF0121204608F092FB204608F0CD
:1048A00037F8204608F0F6F8002010BDD0F81003C5
:1048B000704710B508F00BFB002010BD0022431814
:1048C00083F89B2300EB4113C3F8C02308F038BAE8
:1048D0002DE9F0410546134F4FF4807631463846B6
:1048E000FFF78DFF00244FF48058280604D5414679
:1048F0003846FFF786FF03E041463846FFF77FFF63
:1049000031463846FFF77DFF0AF0ECF8314638466D
:10491000FFF775FF6806050E641CE4B2082CE4D3AB
:10492000BDE8F08100080240FEE700002DE9F041FB
:10493000082A00D9082202B90122072900D9072133
:10494000914200D911460024224E20273755641C7D
:10495000E4B2142CFAD314460A250DE0B0FBF5FCA2
:1049600005FB1C0C06EB04080CF1300C08F801CC1C
:10497000B0FBF5F0641EE4B2002CEFD169B1104633
:104980000C4605E0351815F8015C3554401EC0B2E0
:10499000641EE4B2F6D22E24345473B90020531EA0
:1049A00009E0345C302C08D1341864782E2C04D003
:1049B0003754401CC0B29842F3DB09B1521CD2B24A
:1049C000002002E0B054521CD2B2142AFAD3BDE83F
:1049D000F08100000415002006494FF48E7000227B
:1049E00001E001F8012B401E80B2FAD202480270A9
:1049F00070470000780B0020300000202DE9F05FA8
:104A0000FF250020FFF764FFDFF8D0A04FF4006916
:104A100049465046FFF7ECFEDFF8C4804FF4806B48
:104A200000B359464046FFF7E3FEE8B14946404629
:104A3000FFF7DEFED0B104212A48FFF7D9FEB8B156
:104A40000426042E40D20024274F385DFFF740FF94
:104A50000AF048F876B1012E13D0022E18D0032E9A
:104A600023D11CE00026ECE70126EAE70226E8E76E
:104A70000326E6E749465046FFF7BAFEA8B92546A1
:104A800013E059464046FFF7B3FE70B925460CE0E7
:104A900049464046FFF7ACFE38B9254605E00421FB
:104AA0001048FFF7A5FE00B92546FF2D03D1641C71
:104AB000E4B2082CC9D3FF2D04D005EBC600C0B268
:104AC000BDE8F09F0020FBE74FF400510548FFF7D9
:104AD0008FFE08B10020F3E71F20F1E7002002401D
:104AE00000080240000C0240C22A010810B5064C22
:104AF0006078002805D00020607000F055F820781C
:104B000010BD002010BD0000AB00002010B5014614
:104B1000002002F0A9FE064C0020FFF77FFE10B92E
:104B200060780028F8D0BDE81040FFF7DFBF000034
:104B3000AB00002070B5FFF761FF1A4C0023012580
:104B4000E21CD0B12178814228D16178652901D257
:104B5000491C6170617864291BD00DD91070957063
:104B6000A07800F10100C0B2A0700E2804D9A37093
:104B70005078002800D1557070BD207828B1617838
:104B8000091F602901D210705570237063709370F3
:104B900070BDA37010705570957070BD20706370FB
:104BA00070BD0000A800002010B5FBF73FFF4FF4D8
:104BB0007A700BF09CFABDE81040FBF731BF0000A3
:104BC0007CB501214FF4867001F09EFA4FF49850A5
:104BD000009002208DF8050001208DF804000024CB
:104BE0008DF806408DF80700134D69462846FFF7FB
:104BF000B1FD69152846FFF704FE4FF440610091AE
:104C00008DF8044069462846FFF7A4FDE81400909B
:104C100069460A48FFF79EFD04200090694608484F
:104C2000FFF798FD0748047044708470C01E04703C
:104C3000447084707CBD00000008024000200240E7
:104C4000000C0240AB00002010B500231C4C24686F
:104C5000002C06D0012C0DD0022C17D0032C1ED016
:104C600023E000EB4003C1EB011000EB400003EB3D
:104C700040131AE0A1F20F11C0F5F070A1EB011181
:104C800000EB4110401E00EB40030EE0A0F20F10BD
:104C9000A0EB001001EB401000EB400305E000EB3F
:104CA0000010C1EB001303F20F130648834205D234
:104CB00005488068C2521844110C817010BD000074
:104CC0005400002000FA0500B000002070B58AB042
:104CD000C0F30744C0F30725C6B2FCF7DDF94FF473
:104CE00040300090012001900494039502960F201B
:104CF00005900B4880680690002007904FF488705C
:104D000008904FF4F07009906846FCF7DBF9FCF767
:104D100035FA0220FCF7CCF90028FAD00AB070BDB1
:104D2000B00000202DE9F04F8BB03B4C6468C4F319
:104D3000074704F0FF09C4F30728384CDFF8D8A070
:104D4000C2F5F076AAF1140A2568DAF80840002DB9
:104D500037D0C3F5887C012D3ED0022D4CD000EB1E
:104D60000010C3EB0010401A00F5887000EB400003
:104D700005191FFA8CF614469B46FCF78DF94FF483
:104D80004030019001200290CDF81080CDF80C90B9
:104D90000597FF200690079508960994CDF828B04E
:104DA00001A8FCF78FF9FCF7E9F90220FCF780F97C
:104DB0000028FAD0DAF8000000F0B4FA0BB0BDE831
:104DC000F08FC1EB011100EB411000EB4000051921
:104DD000B6B21C469346D0E7ACEB0101C1EB011122
:104DE000C0EB4110801A00F5F07000EB400005198F
:104DF000B6B21C469346C0E7C0F58870801AC0EB77
:104E0000001001EB401000EB40000519C3F5F070F5
:104E100086B214469B46B0E7C40000205400002030
:104E20002DE9F0438BB09046994600242E4A156830
:104E3000002D0CD0C1EB011200EB42162B4A012DC4
:104E400097680DD0022D11D0032D18D01AE000EB79
:104E50004002C1EB011000EB400002EB401411E0F6
:104E6000A6EB86002249384444180BE0A0F20F104C
:104E7000A0EB001001EB401000EB400402E006EB59
:104E80004600C419194814300068C0F30745C6B27B
:104E9000C0F30727FCF700F94FF4403001900120E0
:104EA00002900497039605950F2106910794B9F196
:104EB000000F12D040F2DF110891CDF824800A9043
:104EC00001A8FCF7FFF8FCF759F90220FCF7F0F80D
:104ED0000028FAD00BB0BDE8F083002108910990BA
:104EE000CDF82880ECE7000054000020B00000203E
:104EF00000FA05002DE9FC5F012140F2FF1001F0EE
:104F000003F94FF00408CDF8008003208DF8050068
:104F100002208DF8040000208DF806008DF80700AF
:104F20006946AB48FFF716FC0E220221A848FFF79E
:104F30004FFC4FF00809CDF800906946A448FFF7F0
:104F400009FC0E220321A248FFF742FC4FF4807AAD
:104F5000CDF800A069469E48FFF7FCFB0E22082111
:104F60009B48FFF735FC0124009469469948FFF7F8
:104F7000F1FB092200219748FFF72AFC4FF4006B50
:104F8000CDF800B069469448FFF7E4FB0E220B21F0
:104F90009148FFF71DFC2003009069468E48FFF7FB
:104FA000D9FB0E220C218C48FFF712FC0220009046
:104FB00069468848FFF7CEFB092201218548FFF7A3
:104FC00007FC4025009569468448FFF7C3FB0E2285
:104FD00006218248FFF7FCFB2020009069468048AC
:104FE000FFF7B8FB0E2205217D48FFF7F1FB009586
:104FF00069467B48FFF7AEFB0E2206217848FFF793
:10500000E7FB6003009069467148FFF7A3FB0E229F
:105010000D216F48FFF7DCFBA602009669466F483A
:10502000FFF798FB09220A216C48FFF7D1FBE00348
:10503000009069466648FFF78DFB0E220F216448F9
:10504000FFF7C6FB009469466648FFF783FB0E2214
:1050500000216448FFF7BCFB80270097694662483F
:10506000FFF778FB0E2207215F48FFF7B1FBCDF871
:10507000008069465B48FFF76DFB0E22022159480C
:10508000FFF7A6FB4FF01008CDF8008069465448A2
:10509000FFF760FB0E2204215148FFF799FB200324
:1050A000009069464D48FFF755FB0E220C214B48F6
:1050B000FFF78EFB00954D4D69462846FFF74AFBEA
:1050C0000E2206212846FFF783FBCDF800B0694683
:1050D0004248FFF73FFB0E220B214048FFF778FBC9
:1050E000CDF8008069463F48FFF734FB0E220421CB
:1050F0003C48FFF76DFBCDF8009069463648FFF756
:1051000029FB0E2203213448FFF762FBCDF800A0F3
:1051100069463048FFF71EFB0E2208212D48FFF795
:1051200057FB4FF40079CDF8009069462948FFF706
:1051300011FB0E2209212748FFF74AFB0097694619
:105140002648FFF707FB0E2207212448FFF740FB04
:10515000009669462348FFF7FDFA0E220A212148EE
:10516000FFF736FBCDF8009069461E48FFF7F2FACC
:105170000E2209211B48FFF72BFB00961C4E6946A7
:105180003046FFF7E7FA0E220A213046FFF720FBF0
:10519000CDF8008002208DF805008DF80440002035
:1051A0008DF806008DF8074069462846FFF7D2FAC9
:1051B000009769462846FFF7CDFA10212846FFF7E9
:1051C00020FB80212846FFF71CFBBDE8FC9F000068
:1051D000001C02400004024000000240001802408F
:1051E000001002400020024000080240000C024073
:1051F0000014024000B58FB00121880600F0BCFF0A
:105200000121C80500F080FFFFF774FE01F0B6FF32
:10521000062207214FF4967001F04AF84FF48030CF
:1052200001F036F8012001F03DF83D2001F004F8CE
:105230000028FAD0002000900190029003900C907A
:105240000D900E90049005902E2006901720079048
:1052500040F20E20089040F2271009904FF4097098
:105260000A9040F23D100B90684600F037F901209B
:1052700000F024F90FB000BD10B590B02F200090C1
:1052800040F20E2001901820029040F22710039067
:1052900001200490FF200590069007900890099047
:1052A00007200B9040F2A3500D90C01E0E904FF4BB
:1052B00088700F900C480C904FF4C0600A900B4C13
:1052C0006946204600F06CF9012000F0B5F9012193
:1052D000204600F059F9012000F0AEF9044800F032
:1052E00009F810B010BD000000FA05D004690140B3
:1052F000CC0000200149086170470000B000002088
:105300000649002804D0064888600120C86070471C
:105310004FF0504088600020C8607047B000002007
:1053200000FA05D00149086070470000B000002075
:1053300010B50949C968002908D00146074800F09E
:1053400021F9BDE81040012000F076B9014603487C
:10535000803800F017F9F4E7B0000020046901403C
:105360002DE9F04F044688462546334902EB0210EA
:10537000DFF8C8A001EB4009002B0FD0002709EB94
:10538000070090F802B000265FEA0B6035D5414671
:105390002046DAF80020FFF757FC34E04FF0000B0E
:1053A00009EB0B0087780026380606D541462046D3
:1053B000DAF80020FFF748FC05E041462046DAF81D
:1053C0000420FFF741FC7806070E641CA4B2601BA2
:1053D00010280CD0761CF6B2082EE5D30BF1010B89
:1053E0000BF0FF0BBBF1200FDAD3BDE8F08F2C469A
:1053F00008F101081FFA88F8F0E741462046DAF87C
:105400000420FFF721FC4FEA4B604FEA106B641C4D
:10541000A4B2601B102808D0761CF6B2082EB3D3B5
:105420007F1CFFB2202FAAD3DFE72C4608F101082A
:105430001FFA88F8F4E70000CA2A0108C400002017
:105440002DE9F84F04468B469246A04600270AFBFA
:1054500003F0C11700EB5170DFF85C90009025E07D
:105460000A98C65D0025300606D559462046D9F86B
:105470000020FFF7E9FB05E059462046D9F8042053
:10548000FFF7E2FB7006060E641CA4B2A4EB080052
:10549000504505D144460BF1010B1FFA8BFB03E08D
:1054A0006D1CEDB2082DDED37F1CBFB20098B7EBA8
:1054B000E00FD5DBBDE8F88FC400002006490028C6
:1054C00004D0086840F0010008607047086820F0C8
:1054D00001000860704700001868014030B5264A96
:1054E000136826490B401360038A1B04146845693E
:1054F0002C431C431460121D13680B401360038B74
:105500001B041468C5692C431C431460121D1368E6
:105510000B401360038C1B041468456A2C431C4326
:105520001460121D13680B401360018D0904136889
:10553000C46A23430B431360111D0A68104B1A40C1
:105540000A60D0E900231A43D0E9023423431A4306
:105550000B681A430A60416B0A02018E0B0406496C
:1055600024310C6804F07F440C600C68806B13439A
:1055700004431C430C6030BD0868014000F800F093
:105580008F88FE0F41617047002904D0016841F007
:10559000010101607047016821F00101016070475D
:1055A00070B58A881204436803F4704343600B6843
:1055B000134343608A891204836803F47043836051
:1055C0008B6813438360026922F0070202610A6953
:1055D0000261CA6913020A8C120491F8244024065D
:1055E0008569002585618E6922431E4316438661C5
:1055F000426922F0FF0242614A694261C26940F297
:1056000007739A43C261D1E90A231A43C261826ACD
:1056100085620A6B82620A8F1204C36A03F0E02378
:10562000C3624B6B1343C362026B6FF30A020263E4
:10563000C96B016370BD000001490860704700003C
:105640002468014010B54FF480610948FFF7D9F88C
:105650004FF400510748FFF7D4F804210648FFF73C
:10566000CEF8BDE8104001210448FFF7C8B800009B
:10567000001C0240000802400010024000000240EE
:105680007CB50121BF2000F03FFD042000900024E4
:105690008DF8054001258DF804508DF806408DF8F1
:1056A000075069460C48FFF755F84FF4B840009092
:1056B00069460A48FFF74EF88DF805408DF804500A
:1056C0008DF806408DF80750082000906946044880
:1056D000FFF740F87CBD000000100240001C0240B3
:1056E000000C024010B504210948FFF78AF8012197
:1056F0000848FFF786F84FF480610748FFF77FF806
:10570000BDE810404FF400510448FFF778B800009E
:105710000010024000000240001C0240000802404D
:105720004FF400610148FFF76AB80000001C024016
:105730004FF400610148FFF764B80000001C02400C
:105740002DE9F047A6B0304D002085F8A10095F86E
:105750009E004FF003094FF0020AE846082802D0E5
:1057600085F8A1901DE0A81CFBF70CF90746281D41
:10577000FBF708F94FF6FF7101EA40064B2E02D9FC
:1057800085F8A1900DE0002409E008EB44013846BB
:1057900000F07EF8A8B17F1CBFB2641CA4B2B44272
:1057A000F3D395F8A10000282BD12878A8771649C3
:1057B0006878C877700085F8A29081F820000021F1
:1057C00017E085F8A1A0ECE795F8A20018F81130D1
:1057D000421C284485F8A220837708EB41004378D7
:1057E00095F8A200421C284485F8A2208377491C22
:1057F00089B2B142E8D3044895F8A2101E3000F0F7
:1058000047F926B0BDE8F0878401002000B50A4AB8
:10581000002082F8A10092F89E00082803D00320FF
:1058200082F8A10000BD901CFBF7ACF8101D5DF8DC
:1058300004EBFBF7A7B800008401002010B5104C62
:10584000104A94F89E001060082801D109211160C7
:105850000D49536809688B4211D051600B4A117889
:1058600009B1491E11701178002908D1002806D00D
:10587000042801D301F0E4F9002084F89E0010BD53
:1058800084010020D80000202800002024000020EF
:105890002DE9F34F89B07D493C280B6D0A680893C8
:1058A0008B6807930D6E0C698B6D06958D69059558
:1058B000D1F828C0D1F83090D1F878800F6F0E6AF7
:1058C0008D6ECDF81090D1F88090CDF80C90D1F875
:1058D0003890CDF80890D1F88890CDF80490D1F8A0
:1058E0004090CDF80090D1F898B0D1F848A0D1F808
:1058F00090906ED2DFE800F01E202225282A2C2F5F
:10590000323436383A3C3E414446484B4E5052546D
:1059100056585A5C5E6164676A6E7174777A7D80EE
:105920008386898C8F9295989B9EA1A4A7AAADB0DF
:10593000B3B6B9BC100C9DE090B29BE00898000C87
:1059400098E0089880B295E0087993E0487991E072
:105950000798000C8EE0079880B28BE0180C89E065
:1059600098B287E0087B85E0487B83E0200C81E0EB
:10597000A0B27FE00698000C7CE0069880B279E047
:10598000087D77E0487D75E00598000C72E0059889
:1059900080B26FE0280C6DE0A8B26BE0087F69E090
:1059A000487F67E0300C65E0B0B263E0380C61E03E
:1059B000B8B25FE091F824005CE091F8250059E06E
:1059C0004FEA1C4056E01FFA8CF053E04FEA1840B3
:1059D00050E058E01FFA88F04CE091F82C0049E0C4
:1059E00091F82D0046E00498000C43E0049880B242
:1059F00040E00398000C3DE0039880B23AE091F853
:105A0000340037E091F8350034E00298000C31E0C2
:105A1000029880B22EE00198000C2BE0019880B231
:105A200028E091F83C0025E091F83D0022E0009844
:105A3000000C1FE0009880B21CE04FEA194019E00A
:105A40001FFA89F016E091F8440013E091F8450040
:105A500010E04FEA1A400DE01FFA8AF00AE04FEA20
:105A60001B4007E01FFA8BF004E091F84C0001E0C6
:105A700091F84D000A99020A0A700A9948700120AB
:105A80000BB0BDE8F08F0020FAE7000050140020B2
:105A900030B5A1B005460C462246294601A8FAF7C2
:105AA000A1FB21462846FBF709F8050A224601AB6F
:105AB000641CE1B29D544A1CD2B25854114601A84C
:105AC0000CF0A8FA21B030BDFEE7704708B54FF4DE
:105AD000A06000F061F827208DF8000001208DF80B
