:020000040800F2
:10000000A8810020C1010008E35C0008394A00080B
:10001000E15C0008810A000841E6000800000000D9
:10002000000000000000000000000000AD770008A4
:10003000B911000800000000055F0008578500089E
:10004000DB010008DB010008DB0100084168000853
:10005000DB010008DB010008DB010008DB01000810
:10006000DB010008A5440008DB010008DB010008F3
:10007000DB010008DB010008DB010008DB010008F0
:10008000DB010008DB010008DB010008DB010008E0
:10009000DB010008DB010008DB010008DB010008D0
:1000A000DB010008DB010008DB010008DB010008C0
:1000B00091860008DB010008DB010008DB01000875
:1000C000DB010008DB010008DB010008DB010008A0
:1000D000DB010008DB010008DB01000855B7000860
:1000E00089440008DB010008DB010008DB0100088F
:1000F000DB010008DB010008DB010008DB01000870
:10010000DB010008DB010008DB010008DB0100085F
:10011000DB010008DB010008A5860008DB01000800
:10012000DB010008DB010008DB010008DB0100083F
:10013000DB010008DB010008DB010008DB0100082F
:10014000DB010008DB010008DB010008DB0100081F
:10015000DB010008DB010008DB010008DB0100080F
:10016000DB010008DB010008DB010008DB010008FF
:10017000DB010008D95D0008DB010008DB01000895
:10018000DB010008DB010008DB010008DB010008DF
:10019000DB010008DB010008DB010008DB010008CF
:1001A000DB010008DB010008DB010008DFF80CD0F0
:1001B00000F00EFB00480047B9210108A88100208B
:1001C0000648804706480047FEE7FEE7FEE7FEE7F1
:1001D000FEE7FEE7FEE7FEE7FEE7FEE735860008FE
:1001E000AD01000840EA01039B0703D009E008C9FC
:1001F000121F08C0042AFAD203E011F8013B00F8EC
:10020000013B521EF9D27047D2B201E000F8012B37
:10021000491EFBD270470022F6E710B513460A4686
:1002200004461946FFF7F0FF204610BD421E12F8A3
:10023000013F002BFBD111F8013B02F8013B002BE1
:10024000F9D1704710B5002200E0521C835C8C5C31
:10025000A34201D1002BF8D1D8B2E1B2401A10BDAF
:10026000034611F8012B00F8012B002AF9D118469A
:1002700070472DE9FE4F81EA030404F0004421F0A9
:10028000004100944FF0000B23F0004350EA0104BA
:100290005ED052EA03045BD0C3F30A54C1F30A559B
:1002A0002C44A4F2F3340194A0FB0254C1F31301D3
:1002B00041F48011C3F3130343F4801301FB0244A0
:1002C00000FB034E840A970A44EA815447EA8357A5
:1002D000A4FB076802958D0A05FB07854FEA932C5E
:1002E00004FB0C542705029D4FEA065847EA1637CF
:1002F000B5EB08056EEB070C870E920E47EA8117E7
:1003000042EA8312A7FB0201B6EB0B0164EB000487
:100310002B0D43EA0C335E1844EB1C50DA46514671
:10032000E7FB0201C5F313044FEA0B3343EA14530E
:100330004FEA0432019C43EA0603A4F10C04029440
:10034000009CCDE900B400F00DF903B0BDE8F08FDA
:1003500000200146F9E72DE9F04D81EA030404F09D
:10036000004B21F0004514464FF0000A23F00041F5
:1003700050EA050220D054EA01021DD0C5F30A5705
:100380000246C5F31303C1F31300C1F30A5640F448
:10039000801543F48013A7EB0608101BD64608F21D
:1003A000FD3873EB050002D308F1010801E0921853
:1003B0005B41B8F1000F03DA00200146BDE8F08D83
:1003C00000204FF48011064684460EE0171B73EBA5
:1003D000050705D3121B63EB050306434CEA010C2A
:1003E00049084FEA300092185B4150EA0107EDD10D
:1003F00052EA030012D082EA040083EA05010843AE
:1004000005D0101BAB4106D20122002306E00022DA
:100410004FF0004302E06FF0010253101AEB0600A8
:100420004CEB085110EB0A0041EB0B01BDE8F04D1D
:1004300000F089B80EB540F2334102910021CDE9B8
:1004400000110A460B4600F08DF803B000BD00F025
:10045000004230F000400AD0C10D01F56071C0F3D8
:10046000160042EA0151C2084007114370470020BC
:100470000146704701F0004330B421F0004150EADA
:10048000010206D00A0DA2F56072C1F31301002A21
:1004900002DC30BC00207047440F44EAC104C100B4
:1004A000E01830BC00EBC25000F016B830B50B4677
:1004B000014600202022012409E021FA02F59D4294
:1004C00005D303FA02F5491B04FA02F52844151E68
:1004D000A2F10102F1DC30BD0029A8BF7047401C29
:1004E000490008BF20F00100704710B4B0FA80FC4A
:1004F00000FA0CF050EA010404BF10BC704749B187
:10050000CCF1200421FA04F411FA0CF118BF0121F6
:1005100021430843A3EB0C01CB1D4FEA00614FEAD6
:10052000102042BF002010BC704700EBC3501044A5
:100530000029A4BF10BC7047401C490008BF20F030
:10054000010010BC704710B5141E73F1000408DAE6
:10055000401C41F1000192185B411A4301D120F087
:10056000010010BD2DE9F04D92469B4611B1B1FA44
:1005700081F202E0B0FA80F22032904600F03AF9BF
:1005800004460F4640EA0A0041EA0B0153465A4628
:10059000084313D0114653EA010019D0C8F14002B4
:1005A000504600F036F905460E465046594642463A
:1005B00000F020F9084305D0012004E02046394628
:1005C000BDE8F08D0020054346EAE0762C43374332
:1005D0000A986305E40AA0EB08000022FD0A44EA39
:1005E00047540A3002D500200146E9E701051019F9
:1005F0006941DDE9084500196941BDE8F04DA2E710
:100600002DE9FE4F804681EA0300C00F0C460090A2
:1006100021F0004123F00045B8EB0200A94105D2CA
:100620004046214690461C460B46024623F00040B9
:10063000104347D0270DC7F30A00C3F30A510290B5
:10064000401A019040286BDAC3F3130040F4801B7A
:100650000098924620B10023D2EB030A63EB0B0B08
:1006600001985946C0F14002504600F0C3F80646D2
:100670000D4650465946019A00F0DBF810EB080091
:100680006141002487EA115284EAE7731A4340D09B
:10069000009A62B3019A012A4FEA075215DC001B47
:1006A00061EB02014FF0004202EA0752CDE900423D
:1006B000001C41F5801132462B46FFF753FF03B073
:1006C000BDE8F08F40462146F9E7001B61EB0201CF
:1006D000001C41F5801300185B412018A2F500179B
:1006E00047EB030140EAD570B6196D4111E06D0882
:1006F0004FEA360645EAC0754FEA0752001B61EB28
:100700000201001C41F5801149084FEA3000001930
:10071000514132462B4603B0BDE8F04FFFF713BFFF
:100720000098012240000023D0EB020263EBE0734B
:10073000009821464FEAE074B8EB000061EB040139
:10074000E9E783F000435BE781F0004158E770B5CB
:1007500021F0004303430CD0C1F30A550024D5EB2C
:10076000040564EB0403D617AD1AB34102DB002085
:10077000014670BD201841EB025170BD0EB5C10F8E
:1007800080EAE0700844CA07002140F233438DE854
:100790000E000A460B46FFF7E5FE03B000BD000061
:1007A00030B5041E71F1000404DB4FF000444042F8
:1007B00064EB0101141E73F1000405DB1C464FF0CD
:1007C0000043524263EB0403994208BF904230BD9C
:1007D000064C074D06E0E06840F0010394E807008E
:1007E00098471034AC42F6D3FFF7E4FC583A0A08B5
:1007F000783A0A08202A04DB203A00FA02F10020A5
:1008000070479140C2F1200320FA03F3194390404E
:100810007047202A04DB203A21FA02F000217047B9
:1008200021FA02F3D040C2F1200291400843194658
:100830007047202A06DBCB17203A41FA02F043EA40
:10084000E07306E041FA02F3D040C2F12002914089
:100850000843194670472DE9F04D00231A461B1A2C
:100860008A4103DB00200146BDE8F08DC1F30A5246
:10087000C1F3130141F480154FF0000BD10702D1F1
:1008800000186D41521E0027044640F2FF11384601
:1008900001EB620A3E468046024600204FF480117A
:1008A000FFF7B7FFC2197141BB1846EB0100B4EB6B
:1008B000030C75EB000C04D3E41A65EB0005174636
:1008C0000E46241908F101006D4180463428E3DD0D
:1008D000F91946EB0600091BA84103D24FF0FF327D
:1008E000134601E0002213461BEB070046EB0A51BA
:1008F000BDE8F04DFFF727BE70B58C1810F8015B0E
:1009000015F0070301D110F8013B2A1106D110F8A8
:10091000012B03E010F8016B01F8016B5B1EF9D1AC
:100920002B0705D40023521E0DD401F8013BFAE732
:1009300010F8013BCB1A921C03E013F8015B01F89D
:10094000015B521EF9D5A142D8D3002070BD000032
:1009500010B504210D4803F0DAFF01210C4803F023
:10096000D6FF4FF480610B4803F0D1FF4FF40051E4
:10097000094803F0CCFF8021084803F0C8FF04F0C9
:10098000D7FFBDE810400AF0B5BE000000100240DD
:1009900000000240001C024000080240000C02401F
:1009A0004178007841EA00207047000010B5074CFC
:1009B0002060084600F00CF820680028FCD1BDE853
:1009C000104000214FF0804007F0D5BEE800002025
:1009D0003EB504464FF080450021284607F0CBFE87
:1009E00000220121284607F0DEFE022C02D0012C55
:1009F00003D005E00B20019002E042F6DF60019099
:100A00000520ADF800000020ADF80800ADF80200A8
:100A10006946284607F0F2FE0121284607F0A8FEA5
:100A20000121284607F095FE01221146284607F0CD
:100A3000BAFE0121284607F09EFE3EBD2021014856
:100A400003F065BF001C02402021014803F061BF94
:100A5000001C024009498979002904D028B10229E3
:100A600009D0FFF7EBBFFFF7E9BF012901D0FFF77E
:100A7000E5BFFFF7E9BFFFF7E7BF0000480D002023
:100A8000FEE700007CB50121084605F08DFBA020A3
:100A9000009002208DF8050001248DF80440002507
:100AA0008DF806508DF80740084E6946304603F031
:100AB000D9FE8DF804508DF806508DF8074040217E
:100AC00000916946304603F0CDFE7CBD0000024037
:100AD00070B5FF22FF23084D05F5807605E010F87C
:100AE000014B54402A5D5A40335D491E89B2F6D20B
:100AF00043EA022070BD0000F02B01082DE9F04F01
:100B00002DED028B81B00024F94890F84000009050
:100B10000021084606F054F82146002002F05AFB56
:100B2000F448DFF8D493C17811209FEDF48AF44F94
:100B3000DFF8D083DFF8D0B300297DD00025112065
:100B40008BF80000E1E0284606F0BEF8DFF8A4A329
:100B50009AF8010048B143F698200FF014FF9AF874
:100B6000010038B1012834D061E044F620600FF074
:100B70000AFFF4E7012006F031FE11F035FC97ED95
:100B8000000ABCEEC00A10EE100AC9F8000005F019
:100B900099FF0BE005F096FF11F026FC97ED000A97
:100BA000BCEEC00A10EE100AC9F80000D748007861
:100BB0000028EFD106F012FE11F05AFD98ED000A60
:100BC000D349BCEEC00A10EE100A086005F07AFFA7
:100BD0002DE0012006F002FE11F07EFC97ED000AE8
:100BE000BCEEC00A10EE100AC9F8000005F06AFF5A
:100BF0000BE005F067FF11F06FFC97ED000ABCEE0B
:100C0000C00A10EE100AC9F80000C0480078002899
:100C1000EFD106F0E3FD11F0A5FD98ED000ABC4907
:100C2000BCEEC00A10EE100A086005F04BFF98ED0C
:100C3000000A10EE100A00E072E04FF09641884280
:100C400005DD38EE400AB1EE400A88ED000A97ED66
:100C5000000A10EE100A884205DD38EE400AB1EEB7
:100C6000400A87ED000A9AF8010010B101281AD055
:100C700032E005EB45000AEB800000EB840097EDC5
:100C8000000A00F5806080ED3A0A022C24D20AEBBB
:100C9000C50000EB840098ED000A00F5806080ED4F
:100CA000580A264618E005EB45000AEB800000EBE9
:100CB000840097ED000A00F5806080ED6C0A022C3C
:100CC0000AD20AEBC50000EB840098ED000A00F59B
:100CD000806080ED8A0A26463146204605F070FF86
:100CE0002146002002F076FA022C0CD306208BF865
:100CF000000000242146002005F062FF214600206C
:100D000002F068FA01E0641CE4B29BF800001128CC
:100D10003FF419AF6D1CEDB20A2DFFF410AFDCE00B
:100D20008BF80000DFF8ECA1D2E07248407810B1F7
:100D300001282FD075E0012006F050FD11F054FB82
:100D400097ED000ABCEEC00A10EE100AC9F80000C8
:100D500005F0B8FE6D4D0BE005F0B4FE11F044FB5C
:100D600097ED000ABCEEC00A10EE100AC9F80000A8
:100D700028780028F0D106F031FD11F079FC98EDCB
:100D8000000A6348BCEEC00A10EE101A016005F0BC
:100D900099FE46E0012006F021FD11F09DFB97ED44
:100DA000000ABCEEC00A10EE100AC9F8000005F0F7
:100DB00089FE564D0FE005F085FE11F08DFB97ED95
:100DC000000ABCEEC00A10EE100AC9F800009AF83A
:100DD0000100012802D028780028ECD1002006F07C
:100DE000FDFC11F0BFFC98ED000A4949BCEEC00AB9
:100DF00010EE100A086005F065FE0FE005F062FED7
:100E000011F0B0FC98ED000A4149BCEEC00A10EEAA
:100E1000100A08609AF80100012802D028780028FA
:100E2000ECD198ED000A4FF0964110EE100A88427E
:100E300005DD38EE400AB1EE400A88ED000A97ED74
:100E4000000A10EE100A884205DD38EE400AB1EEC5
:100E5000400A87ED000A2749487810B1012810D0D0
:100E60001EE001EB840097ED000A00F5806080ED44
:100E7000A10A022C14D298ED000A80EDA40A26469D
:100E80000EE001EB840097ED000A00F5806080ED34
:100E9000A60A022C04D298ED000A80EDA90A264683
:100EA0003146204605F08CFE2146002002F092F9E2
:100EB000022C0BD306208BF80000002421460020D2
:100EC00005F07EFE2146002002F084F9641CE4B2A5
:100ED0009BF8000011283FF428AF0549009881F8DD
:100EE000400001B0BDEC028BBDE8F04F07F002BB43
:100EF000780B0020480D00204C000020FFFF7F4BA6
:100F00004400002040000020310000203F0000206D
:100F100050000020AC00002010B54FF400510948EB
:100F200003F0F7FC0121084803F0F3FC4FF4806163
:100F3000064803F0ECFCBDE810400421044803F02F
:100F4000E6BC00000008024000000240001C024015
:100F50000010024030B587B0054628784C4C04F8A4
:100F6000280C687804F8270CA87804F8260CE91CEB
:100F7000684607F0D3FA9DF8000004F8240C0198A5
:100F800044F8200C029844F81C0C039844F8180C00
:100F9000049844F8140C059844F8100C069844F88A
:100FA0000C0C687A04F8080C687A04F8080C05F14F
:100FB0000A01684607F0B2FA9DF8000004F8040C34
:100FC00001982060029860600398A0600498E06037
:100FD0000598206106986061287C2076687CA07660
:100FE00005F11201684607F099FA9DF80000207794
:100FF00001982062029860620398A0620498E062FF
:10100000059820630698606305F11801684607F0AB
:1010100085FA9DF8000084F838000198E063029892
:101020002064039860640498A0640598E0640698BE
:10103000206505F11E01684607F070FA9DF8000072
:1010400084F854000198A0650298E0650398206632
:10105000049860660598A0660698E06605F124018C
:10106000684607F05BFA9DF8000084F8700001986C
:1010700060670298A0670398E0670498C4F880004E
:101080000598C4F884000698C4F8880007B030BDFD
:10109000A00B002010B50121CC05204605F092F8E8
:1010A0002046BDE81040002105F08CB80146002024
:1010B000024A52680A4200D00120704700B0024044
:1010C00030B500242A4B19682A4A11401960196862
:1010D000026811431960596B21F007015963596B7C
:1010E0004268114359634168002928D001292DD055
:1010F000022930D0032933D0C1680A0101690902ED
:10110000446924038568214315430D43996B0D43BE
:101110009D638169D963196C6FF30D011964196CB2
:10112000C26911431964818C09045A6C02F040426F
:101130005A645A6C006A02430A435A6430BDC1685B
:101140000A02018A0904047D2406DBE7C1680A0259
:10115000018A0904D6E7C1684A010169C902D1E7D9
:10116000C1684A01016989024469E403CAE70000D1
:1011700000B00240FCE0FCFF0248016841F00101C0
:101180000160704700B002400CB5094B1B788DF828
:10119000063000910749895C8DF8041005490A3131
:1011A000895C8DF80510DDE9001206C00CBD000059
:1011B0002E0000202E360108704710B590B004466E
:1011C00003F0D8F80122214601A801F04DFD9DF859
:1011D00004008DF8240002980A9003980B9004985C
:1011E0000C9005980D9006980E9007980F9009A8FE
:1011F00000F07AF80890089810B010BD10B590B0C3
:10120000044603F0CFF80022214601A801F02CFD8E
:101210009DF804008DF8240002980A9003980B9022
:1012200004980C9005980D9006980E9007980F90D2
:1012300009A800F059F80890089810B010BD0000F7
:1012400070B586B00121022004F0AEFF01218804B0
:1012500004F0D4FF224E07220B21304603F040FB5E
:1012600007220A21304603F03BFB00248DF816408C
:1012700001208DF8170002258DF814508102049189
:101280008DF8155004A9304603F0ECFA8DF814508F
:10129000A802049004A9304603F0E4FA4FF4165073
:1012A0000090ADF80440ADF80640ADF80840ADF848
:1012B0000C400C20ADF80A000A4C694620460AF0A2
:1012C000A3FA04F00FFD012240F2255120460AF056
:1012D00080FA012120460AF069FA06B070BD0000CC
:1012E0000004024000480040416842F210729142FE
:1012F00004D941680A22B1FBF2F1416040687047AD
:1013000038B5002000901D491D4842F210734EF67A
:1013100060242EE09DF8002000EBC202D2F8B42039
:101320009DF8005001EBC5056D68AA420CD89DF8E8
:10133000002000EBC202D2F8B4209DF8005001EB6F
:10134000C5056D68AA4210D29DF80020032A06D276
:101350009DF8002000EBC202C2F8B43005E09DF811
:10136000002000EBC202C2F8B4409DF80020521CDD
:1013700000929DF80020052ACCD338BD7C000020C7
:10138000780B00202DE9FC5F0446012C0BD00020D7
:101390000090744D00984FF47F0948F28B6820B19B
:1013A000C5F8049003E00120F2E7C5F804804FF48B
:1013B000A07610237A220421304603F0BBFD6A4F49
:1013C0004FF0000A97F8E704012801D987F8E7A44D
:1013D00097F8E704002300EB400101EBC0016348EC
:1013E0000A18042130460DF03DFFDFF880B197F870
:1013F000E704ABF10E0BB8B30220019030E0019886
:10140000844201D1012000E000200090009810B13A
:10141000C5F8049001E0C5F8048001981A26801EE2
:1014200000EB800006EB800081B210237A226C2052
:1014300003F080FD01980023384490F8DB04C0EBF2
:10144000C00000EB0B020198801E00EB800006EB51
:10145000800081B26C200DF005FF0198401C0190C6
:1014600001980C28CBD327E0FFE7C5F80480B5230B
:101470004FF4DD722E21002003F05CFD022C06D01B
:1014800000200090009820B1C5F8049003E00120EE
:10149000F7E7C5F8048010237A221A216C2003F0A4
:1014A00049FD97F8DD040023C0EBC00000EB0B0200
:1014B0001A216C200DF0D6FE01F090FB2C4854262A
:1014C0006FF07F410C2C29D2DFE804F0060A2A2AAB
:1014D0002A2A2A2A2A2A2A2ABDE8FC5F00F004BF09
:1014E0002960686097F8C804CDF804A01F4C12E08A
:1014F0000198002300EB400101EBC00002190198A4
:10150000F12100EB800006EB001080B20DF0AAFE86
:101510000198401C019001980228E9D3BDE8FC9F86
:101520002960686097F8C80410B1104C2C3401E0B1
:101530000E4C0E3CCDF804A010E001980023C0EB47
:10154000C00002190198F12100EB800006EB0010A9
:1015500080B20DF087FE0198401C0190019802288E
:10156000EBD3DBE7C4000020480D00205432010813
:10157000380031002DE9FC5F0446012C0AD0002020
:101580000090D14D00984FF47F0748F28B6918B155
:101590006F6003E00120F3E7C5F804904FF4A078F2
:1015A00010237A220421404603F0C4FCC74E307B4E
:1015B000012801D90020307396F8C80460B1307B4F
:1015C000002300EB400101EBC001C1480A180421CF
:1015D00040460DF047FE0CE0307B002300EB40015D
:1015E00001EBC001BA4816380A18042140460DF034
:1015F00039FE307BDFF8DCA24FF4B37B00287DD0CE
:10160000022001904FF01A0842E00198844201D173
:10161000012000E000200090009808B16F6001E018
:10162000C5F804900198801EC0EBC00006EB800056
:1016300081694069C9B20023052203F0FFF90198CE
:101640001023801E00EB800008EB800081B27A221C
:101650006C2003F06FFC0198801EC0EBC00006EB0D
:101660008000C06900EB40000AEB40019A48FEF799
:10167000DDFD01980023801E00EB800008EB800058
:1016800081B2954A6C200DF0EDFD0198401C01904F
:1016900001980C28B9D30220019048E001980A3043
:1016A000844201D1012000E000200090009808B1A0
:1016B0006F6001E0C5F804900198801EC0EBC00087
:1016C00006EB8000D0F83011D0F82C01C9B200230D
:1016D000052203F0B3F901981023801E00EB80006F
:1016E00008EB800081B27A22584603F023FC01986F
:1016F000801EC0EBC00006EB800000E01BE0D0F8CD
:10170000340100EB40000AEB40017348FEF78EFD08
:1017100001980023801E00EB800008EB800081B25E
:101720006D4A58460DF09EFD0198401C01900198AD
:101730000C28B3D359E0C5F80490E3234FF4DD72CD
:101740002E21002003F0F6FB022C05D00020009093
:10175000009818B16F6003E00120F8E7C5F8049025
:10176000B069C1B270690023052203F067F9102344
:101770007A221A216C2003F0DDFBF06900EB4000B7
:101780000AEB40015448FEF751FD0023524A1A214A
:101790006C200DF067FD032C05D000200090009810
:1017A00018B16F6003E00120F8E7C5F80490D6F89F
:1017B0003001C1B2D6F82C010023052203F03EF916
:1017C00010237A221A21584603F0B4FBD6F83401CC
:1017D00000EB40000AEB40013F48FEF727FD0023E5
:1017E0003D4A1A2158460DF03DFD01F0F7F93B49FD
:1017F0006FF07F40162C31D2DFE804F00B104E4E14
:101800004E4E4E4E4E4E4E4E4E4E4E4E4E4E4E4EF8
:101810004E4EBDE8FC5F002000F02CBF28606960E0
:1018200096F8C8045424D8B100200190284D12E045
:101830000198002300EB400101EBC0004219019820
:10184000F12100EB800004EB001080B20DF00AFDE6
:101850000198401C019001980228E9D3BDE8FC9F43
:10186000002001901A4D163D12E00198002300EB74
:10187000400101EBC00042190198F12100EB80000A
:1018800004EB001080B20DF0EDFC0198401C0190BB
:1018900001980228E9D3E1E72860696096F8C80456
:1018A00040B102B00023BDE8F05FF1210CA254204A
:1018B0000DF0D8BC02B00023BDE8F05FF1210AA210
:1018C00054200DF0CFBC0000C4000020480D0020C3
:1018D0006A3201086E330108A81400203800310074
:1018E000494E505554000000CAE4C8EB0000000007
:1018F0002DE9FC5F0446012C0AD000200090C54D64
:1019000000984FF47F0748F28B6918B16F6003E0CD
:101910000120F3E7C5F804904FF4A0781023842247
:101920000421404603F006FBBB4E4FF0000B96F837
:101930004002012801D986F840B296F8C80460B187
:10194000307B002300EB400101EBC001B3480A18D3
:10195000042140460DF086FC0DE096F8400200237D
:1019600000EB400101EBC001AC4816380A18042115
:1019700040460DF077FC96F840024FF4B37A002809
:101980007DD0022001904FF01A083AE0019884427D
:1019900001D1012000E000200090009808B16F60A4
:1019A00001E0C5F804900198801EC0EBC00006EB72
:1019B0008000D0F84C12D0F84802C9B200230622A9
:1019C00003F03CF801981023801E00EB800008EB28
:1019D000800081B284226C2003F0ACFA90A191487F
:1019E000FEF724FC01980023801E00EB800008EB2A
:1019F000800081B28B4A6C200DF034FC0198401CB1
:101A0000019001980C28C1D3022001903DE001987B
:101A10000A30844201D1012000E0002000900098AB
:101A200008B16F6001E0C5F804900198801EC0EB1A
:101A3000C00006EB8000D0F86413D0F86003C9B290
:101A40000023062202F0FAFF01981023801E00EB0B
:101A5000800008EB800081B28422504603F06AFACD
:101A60006FA17048FEF7E2FB01986E4A801E00EB02
:101A7000800008EB800081B20023504600E008E0BF
:101A80000DF0F0FB0198401C019001980C28BED38A
:101A900052E0C5F80490E3234FF4DD722E210020BC
:101AA00003F048FA022C05D000200090009818B1ED
:101AB0006F6003E00120F8E7C5F80490D6F84C0207
:101AC000C1B2D6F848020023062202F0B7FF102365
:101AD00084221A216C2003F02DFA51A15148FEF7FF
:101AE000A5FB00234F4A1A216C200DF0BBFB032CF1
:101AF00005D000200090009818B16F6003E001202D
:101B0000F8E7C5F80490D6F86403C1B2D6F86003CC
:101B10000023062202F092FF102384221A2150464D
:101B200003F008FA3EA13F48FEF780FB00233D4A40
:101B30001A2150460DF096FB01F050F83A496FF02B
:101B40007F40162C31D2DFE804F00B104E4E4E4E83
:101B50004E4E4E4E4E4E4E4E4E4E4E4E4E4E4E4EA5
:101B6000BDE8FC5F002000F0A5BE2860696096F823
:101B7000C8045424D8B1CDF804B0284D12E001981F
:101B8000002300EB400101EBC00042190198F12154
:101B900000EB800004EB001080B20DF063FB0198B5
:101BA000401C019001980228E9D3BDE8FC9FCDF8C4
:101BB00004B01A4D163D12E00198002300EB4001DD
:101BC00001EBC00042190198F12100EB800004EB09
:101BD000001080B20DF046FB0198401C0190019866
:101BE0000228E9D3E1E72860696096F8C80440B1AB
:101BF00002B00023BDE8F05FF1210CA254200DF0EB
:101C000031BB02B00023BDE8F05FF12109A25420EE
:101C10000DF028BBC4000020480D00206A320108E6
:101C200056000000A814002038003100494E5055DD
:101C300054000000CAE4C8EB000000002DE9FC4796
:101C40000546012D0AD0002000904FF47F0648F28F
:101C50008B68FE4C009818B1666003E00120F3E742
:101C6000C4F80480FA4F97F8C80410B1DFF8E49381
:101C700003E0DFF8E093A9F11C09102368221A2180
:101C8000582003F057F938780023C0EBC00000EB70
:101C900009021A2158200DF0E5FA022D05D0002086
:101CA0000090009818B1666003E00120F8E7C4F8DE
:101CB000048097F8C80420B1DFF8989309F1380937
:101CC00003E0DFF8909309F11C09102368222E210C
:101CD000582003F02FF978780023C0EBC00000EB08
:101CE00009022E2158200DF0BDFA032D05D0002049
:101CF0000090009818B1666003E00120F8E7C4F88E
:101D0000048097F8C80420B1DFF8489309F18E09E0
:101D100003E0DFF8409309F15409102368224221BF
:101D2000582003F007F9B8780023C0EBC00000EB9F
:101D30000902422158200DF095FA042D05D000200B
:101D40000090009818B1666003E00120F8E7C4F83D
:101D5000048097F8C80420B1DFF8F89209F19C09D3
:101D600003E0DFF8F09209F1AA0910236822562156
:101D7000582003F0DFF8F8780023C0EBC00000EB38
:101D80000902562158200DF06DFA052D05D00020CE
:101D90000090009818B1666003E00120F8E7C4F8ED
:101DA000048097F8C80410B1DFF8AC9203E0DFF8C4
:101DB000A892A9F14D094FF4A97A102368221A219B
:101DC000504603F0B7F87879A0B138790023401C69
:101DD00000EB400101EBC00000EB09021A21504664
:101DE0000DF040FA062D0CD000200090009850B164
:101DF00066600AE000234A461A2150460DF032FA86
:101E0000F0E70120F1E7C4F8048097F8C80420B196
:101E1000DFF84492A9F1620903E0DFF83C92A9F1EE
:101E20007709102368222E21504603F083F8B879F1
:101E30000023C0EBC00000EB09022E2150460DF03C
:101E400011FA072D05D000200090009818B16660A7
:101E500003E00120F8E7C4F8048097F8C80420B133
:101E6000DFF8F09109F18E0903E0DFF8E89109F15C
:101E70005409102368224221504603F05BF8F87998
:101E80000023C0EBC00000EB0902422150460DF0D8
:101E9000E9F9082D05D000200090009818B166607F
:101EA00003E00120F8E7C4F8048097F8C80410B1F3
:101EB000684E8E3601E0674E543610236822562154
:101EC000504603F037F8387A0023C0EBC00082197F
:101ED000562150460DF0C6F900F080FE00205F4A02
:101EE00054266FF07F41092D29D2DFE805F005095E
:101EF0002A4B6CD9FBB98D00BDE8FC4700F018B93E
:101F00002160626097F8C81409B1524C01E0514C4D
:101F10001C3C019010E001980023C0EBC0000219A6
:101F20000198F12100EB800006EB001080B20DF06B
:101F300099F90198401C019001980428EBD3BDE861
:101F4000FC872160626097F8C81411B1414C3834A5
:101F500001E0404C1C34019010E001980023C0EBDC
:101F6000C00002190198F12100EB800006EB00107F
:101F700080B20DF077F90198401C01900198022879
:101F8000EBD3DCE72160626097F8C81411B1314CE3
:101F90008E3401E02F4C5434019010E0019800235E
:101FA000C0EBC00002190198F12100EB800006EBA4
:101FB000001080B20DF056F90198401C0190019874
:101FC0000228EBD3BBE72160626097F8C81411B117
:101FD000214C933C01E0204C853C019010E001989D
:101FE0000023C0EBC00002190198F12100EB800032
:101FF00006EB001080B20DF035F90198401C0190FD
:1020000001980228EBD39AE72160626097F8C81420
:1020100011B1104C8E3401E00E4C5434019010E09C
:1020200001980023C0EBC00002190198F12100EBD8
:10203000800006EB001080B20DF014F90198401CEE
:10204000019001980228EBD379E70000C40000203A
:10205000480D0020F2310108213301083800310019
:102060002160626097F8C81409B12F4C01E02E4C32
:102070003A3C019010E001980023C0EBC000021927
:102080000198F12100EB800006EB001080B20DF00A
:10209000E9F80198401C019001980228EBD34EE723
:1020A0002160626097F8C81409B1204C00E01F4C11
:1020B000019012E00198002300EB400101EBC00009
:1020C00002190198F12100EB800006EB001080B2AC
:1020D0000DF0C8F80198401C019001980428E9D33C
:1020E0002DE7FFE72160626097F8C81411B10E4C2C
:1020F0003F3401E00C4C2A34019010E00198002399
:10210000C0EBC00002190198F12100EB800006EB42
:10211000001080B20DF0A6F80198401C01900198C3
:102120000328EBD30BE7000080320108803301085D
:1021300070B500F053FD45486FF07F4101604449A0
:102140004160444890F8C8144FF4A2754FF4CA7423
:1021500000293DD0002340A2E72154200DF082F851
:1021600000233FA2FB2154200DF07CF800233EA267
:10217000E721A4200DF076F800233CA2FB21A42047
:102180000DF070F800233BA2E721F4200DF06AF86F
:10219000002336A2FB21F4200DF064F8002337A2BF
:1021A000E72128460DF05EF8002336A2FB212846E1
:1021B0000DF058F8002335A2E72120460DF052F823
:1021C0002046BDE87040002331A2FB210DF04AB843
:1021D000002331A2E72154200DF044F8002330A25F
:1021E000FB2154200DF03EF800232FA2E721A4206C
:1021F0000DF038F800232EA2FB21A4200DF032F8B8
:1022000000232DA2E721F4200DF02CF8002328A2B2
:10221000FB21F4200DF026F8002329A2E72128460F
:102220000DF020F8002328A2FB2128460DF01AF813
:10223000002327A2E72120460DF014F82046BDE830
:102240007040002324A2FB210DF00CB8C400002034
:1022500038003100480D00204D454153000000007A
:10226000444953500000000052455300434F4D5025
:102270000000000020564F4C000000004348414E33
:102280004E00000053454C4C0000000053595300D1
:10229000534554555000000020B2E2C1BF00000079
:1022A00020CFD4CABE00000020B5E7D7E800000068
:1022B00020B1C8BDCF00000020B5E7D1B9000000B3
:1022C00020CDA8B5C000000020D1A1D4F1000000AD
:1022D00020CFB5CDB300000020C9E8D6C300000070
:1022E000002000F0D9B8000070B500F077FC454838
:1022F0006FF07F41016044494160444890F8C81440
:102300004FF4A2754FF4CA7400293DD0002340A2B7
:10231000E72154200CF0A6FF00233FA2FB2154200C
:102320000CF0A0FF00233EA2E721A4200CF09AFFAE
:1023300000233CA2FB21A4200CF094FF00233BA22D
:10234000E721F4200CF08EFF002336A2FB21F420BD
:102350000CF088FF002337A2E72128460CF082FF0B
:10236000002336A2FB2128460CF07CFF002335A277
:10237000E72120460CF076FF2046BDE870400023A0
:1023800031A2FB210CF06EBF002331A2E7215420C3
:102390000CF068FF002330A2FB2154200CF062FFF8
:1023A00000232FA2E721A4200CF05CFF00232EA223
:1023B000FB21A4200CF056FF00232DA2E721F420DE
:1023C0000CF050FF00232CA2FB21F4200CF04AFF5C
:1023D00000232BA2E72128460CF044FF00232AA269
:1023E000FB2128460CF03EFF002325A2E7212046D2
:1023F0000CF038FF2046BDE87040002324A2FB21EA
:102400000CF030BFC400002038003100480D00201F
:102410004D45415300000000444953500000000066
:1024200052455300434F4D500000000020564F4C82
:10243000000000004348414E4E00000053454C4C04
:1024400000000000535953005345545550000000FC
:1024500020B2E2C1BF00000020CFD4CABE000000FD
:1024600020B5E7D7E800000020B1C8BDCF000000CC
:1024700020B5E7D1B900000020D1A1D4F1000000BF
:1024800020CFB5CDB300000020C9E8D6C3000000BE
:1024900020D0C5CFA200000010B5044600F09EFB7E
:1024A000504851496FF07F425CB3012C7ED10260ED
:1024B000416000234DA2E72154200CF0D3FE0023FD
:1024C0004CA2FB2154200CF0CDFE00234BA2E721AF
:1024D000A4200CF0C7FE00234AA2FB21A4200CF08C
:1024E000C1FE4FF4CA74002348A2E72120460CF035
:1024F000B9FE20460023BDE8104046A2FB210CF0A7
:10250000B1BE02604160454890F8C8144FF4A2740F
:10251000002931D0002342A2E72154200CF0A2FE72
:10252000002341A2FB2154200CF09CFE00233CA27E
:10253000E721A4200CF096FE00233DA2FB21A4205D
:102540000CF090FE00233CA2E721F4200CF08AFE60
:10255000002337A2FB21F4200CF084FE002338A2D4
:10256000E72120460CF07EFE20460023BDE8104007
:1025700034A2FB210CF076BE002334A2E7215420C4
:102580000CF070FE002333A2FB2154200CF06AFEF5
:1025900000232EA2E721A4200CF064FE00232FA22A
:1025A000FB21A4200CF05EFE002300E018E02DA229
:1025B000E721F4200CF056FE002328A2FB21F42092
:1025C0000CF050FE002327A2E72120460CF04AFE23
:1025D00020460023BDE8104024A2FB210CF042BE9F
:1025E00010BD0000C400002038003100CEC4BCFE85
:1025F00000000000B9DCC0ED00000000B1A3B4E6AB
:1026000000000000CAFDBEDD00000000B8FCB6E01E
:102610000000000020322F3200000000480D002092
:102620004D45415300000000444953500000000054
:1026300053455455500000002053595300000000EA
:1026400053595300494E464F00000000B2E2C1BF4B
:1026500000000000CFD4CABE00000000C9E8D6C305
:1026600000000000CFB5CDB300000000D0C5CFA260
:102670000000000070B5054600F0B0FA5C485D4A05
:102680006FF07F414FF4CA744DB3012D7ED10160CC
:102690004260002358A2E72154200CF0E3FD002300
:1026A00057A2FB2154200CF0DDFD002356A2E721A8
:1026B000A4200CF0D7FD002355A2FB21A4200CF090
:1026C000D1FD002354A2E72120460CF0CBFD20468B
:1026D000BDE87040002352A2FB210CF0C3BD016095
:1026E0004260514890F8C8044FF4A27500283DD0CC
:1026F00000234EA2E72154200CF0B4FD00234DA28C
:10270000FB2154200CF0AEFD00234CA2E721A420B5
:102710000CF0A8FD00234AA2FB21A4200CF0A2FD8E
:10272000002349A2E721F4200CF09CFD002348A2DD
:10273000FB21F4200CF096FD002347A2E721284658
:102740000CF090FD002345A2FB2128460CF08AFDE9
:10275000002341A2E72120460CF084FD2046BDE87D
:10276000704000233FA2FB210CF07CBD00233FA260
:10277000E72154200CF076FD00233EA2FB215420DB
:102780000CF070FD00233DA2E72100E02EE0A42024
:102790000CF068FD00233BA2FB21A4200CF062FD9D
:1027A00000233AA2E721F4200CF05CFD002339A2BB
:1027B000FB21F4200CF056FD002338A2E721284627
:1027C0000CF050FD002337A2FB2128460CF04AFDF7
:1027D000002332A2E72120460CF044FD2046BDE84C
:1027E0007040002331A2FB210CF03CBD70BD000005
:1027F000C400002038003100CEC4BCFE0000000040
:10280000B9DCC0ED00000000B1A3B4E60000000098
:10281000CAFDBEDD00000000B8FCB6E0000000000C
:1028200020322F3200000000480D00204D4541535A
:10283000000000004449535000000000564F4C0077
:10284000434F4D50000000004348414E000000003F
:1028500053454C4C450000005359530053455455C3
:1028600050000000494E464F00000000B2E2C1BFD8
:1028700000000000CFD4CABE00000000B5E7D1B907
:1028800000000000B1C8BDCF00000000CDA8B5C059
:1028900000000000D1A1D4F100000000CFB5CDB3FD
:1028A00000000000C9E8D6C300000000D0C5CFA2D8
:1028B0000000000070B5054600F090F95C485D4AE4
:1028C0006FF07F414FF4CA744DB3012D7ED101608A
:1028D0004260002358A2E72154200CF0C3FC0023DF
:1028E00057A2FB2154200CF0BDFC002356A2E72187
:1028F000A4200CF0B7FC002355A2FB21A4200CF06F
:10290000B1FC002354A2E72120460CF0ABFC20468A
:10291000BDE87040002352A2FB210CF0A3BC016073
:102920004260514890F8C8044FF4A27500283DD089
:1029300000234EA2E72154200CF094FC00234DA26A
:10294000FB2154200CF08EFC00234CA2E721A42094
:102950000CF088FC00234AA2FB21A4200CF082FC8E
:10296000002349A2E721F4200CF07CFC002348A2BC
:10297000FB21F4200CF076FC002347A2E721284637
:102980000CF070FC002345A2FB2128460CF06AFCE9
:10299000002341A2E72120460CF064FC2046BDE85C
:1029A000704000233FA2FB210CF05CBC00233FA23F
:1029B000E72154200CF056FC00233EA2FB215420BA
:1029C0000CF050FC00233DA2E72100E02EE0A42003
:1029D0000CF048FC00233BA2FB21A4200CF042FC9D
:1029E00000233AA2E721F4200CF03CFC002339A29A
:1029F000FB21F4200CF036FC002338A2E721284606
:102A00000CF030FC002337A2FB2128460CF02AFCF6
:102A1000002332A2E72120460CF024FC2046BDE82A
:102A20007040002331A2FB210CF01CBC70BD0000E3
:102A3000C400002038003100CEC4BCFE00000000FD
:102A4000B9DCC0ED00000000B1A3B4E60000000056
:102A5000CAFDBEDD00000000B8FCB6E000000000CA
:102A600020322F3200000000480D00204D45415318
:102A7000000000004449535000000000524553003C
:102A8000434F4D50000000004348414E00000000FD
:102A900053454C4C45000000535953005345545581
:102AA00050000000494E464F00000000B2E2C1BF96
:102AB00000000000CFD4CABE00000000B5E7D7E890
:102AC00000000000B1C8BDCF00000000CDA8B5C017
:102AD00000000000D1A1D4F100000000CFB5CDB3BB
:102AE00000000000C9E8D6C300000000D0C5CFA296
:102AF000000000000FB410B59DF80800002812D0A7
:102B00009DF80800032807D99DF81010002306221D
:102B1000039801F093FF06E09DF8181000230722A8
:102B2000059801F08BFF9DF808001A2110BC00EBFE
:102B3000C00001EB40010123034A4FF4A0705DF88F
:102B400014EB0CF08FBB0000A814002071B581B00D
:102B5000002000901D4C48F28B6531E09DF8041078
:102B60000098401C814203D14FF47F01616000E076
:102B7000656000EBC0001A2606EB400081B212230C
:102B80005A22A02002F0D6F911480099415C114860
:102B9000009A00EBC200D0F8B4000023062201F036
:102BA0004DFF00980123401C00EBC00006EB4000E5
:102BB00081B2094AA0200CF055FB0098401C0090FF
:102BC00000980528CAD365607CBD0000C4000020C1
:102BD00060000020780B0020A81400202DE9F05F91
:102BE0000024DFF878801E4EDFF878A000274FF031
:102BF0004C094FF0010BC6F8048004EB4401A0001F
:102C000001EB041100EB810080B22C234C22E42163
:102C100002F090F9C6F804A004EB84050BEB051054
:102C200080B201234C22E32102F084F909EB051064
:102C300080B22D230122E32102F07CF977604D2040
:102C400000EB051080B22D230322E32102F072F97C
:102C5000641C062CCFD3BDE8F09F00003800310083
:102C6000C4000020684369002DE9F04F93B080460E
:102C70000E46012012900C9000270B970A97099797
:102C8000089703970297049702970D974FF0200A31
:102C90000FAD07E09DF8340005F800A09DF8340062
:102CA000401C0D909DF834000728F3D38DF8437035
:102CB0000AB1072400E00624DFF8A4B34FF02E0980
:102CC00057E1022002F02AF80E909DF83800002803
:102CD00046D001210C919DF838001228F8D00CDC68
:102CE00012283DD2DFE800F03C3C3C60D0C3B63C4B
:102CF0003C3C3C5AA99C8F3C3C3D1A28E8D009DC5E
:102D0000A0F113000728ECD2DFE800F02A6E61542E
:102D10002A2A0E001E2874D022DC1B28D8D01C289A
:102D200070D01D281CD1C9E0049712979DF820008F
:102D3000A04214D29DF82C0088B99DF8200050B113
:102D40009DF8200005F800909DF820000A909DF85D
:102D50002000401C08909DF82C00401C0B90059111
:102D6000EEE0049112979DF82000A04214D29DF845
:102D70002C0088B99DF8200050B19DF8200005F87E
:102D800000909DF820000A909DF82000401C0890BB
:102D90009DF82C00401C0B900591D1E006208BF88B
:102DA000000012970597CBE01297059712208BF839
:102DB0000000C5E09DF82000A04207D29DF8201039
:102DC000312068549DF82000401C0890B8E09DF820
:102DD0002000A04207D29DF82010322068549DF8B0
:102DE0002000401C0890ABE09DF82000A04207D2D4
:102DF0009DF82010332068549DF82000401C089056
:102E00009EE04EE077E09DF82000A04207D29DF8BA
:102E10002010342068549DF82000401C08908FE05A
:102E20009DF82000A04207D29DF82010352068545C
:102E30009DF82000401C089082E09DF82000A042F0
:102E40007ED29DF82010362068549DF82000401C4A
:102E5000089075E09DF82000A04271D29DF82010E6
:102E6000372068549DF82000401C089068E09DF8C9
:102E70002000A04264D29DF82010382068549DF8AC
:102E80002000401C08905BE09DF82000A04257D233
:102E90009DF82010392068549DF82000401C0890AF
:102EA0004EE09DF82000A0424AD29DF8201030202C
:102EB00068549DF82000401C089041E09DF82000D7
:102EC000A0423DD29DF8200040B39DF82C0028BBC5
:102ED0009DF8200050B19DF8200005F800909DF865
:102EE00020000A909DF82000401C08909DF82C00BE
:102EF000401C0B9024E09DF8200080B19DF820003C
:102F0000401E08909DF8200005F800A09DF82800BC
:102F10009DF82010884213D10B970A9710E09DF876
:102F20002000285C78B39DF82000285C2D2830D044
:102F30009DF820102D2068549DF82000401C08901A
:102F40009DF83000A8B10C9746486FF07F410160B2
:102F50004FF47F014160B0887188103082B23088B0
:102F6000102301F0E7FF7188308800230FAA0CF0CE
:102F700079F99DF8480000287FF4A3AE9DF8200061
:102F80000D90302011E0FFE79DF820102D206854AF
:102F9000D2E79DF820102B206854CDE79DF834101F
:102FA00068549DF83410491C0D919DF83410A142CD
:102FB000F4D30D9734E09DF83C0030282CD39DF8D5
:102FC0003C00392828D89DF83400285C302823D3C9
:102FD0009DF83400285C39281ED89DF828009DF8FB
:102FE000341088420CD9029800EB80004000029017
:102FF00002989DF83410695C0844303802900BE068
:10300000029800EB80004000029002989DF8341076
:10301000695C0844303802909DF83400401C0D90E3
:103020009DF83400A042C6D39DF8280003909DF877
:10303000040088F800000298C8F804000398C8F853
:1030400008000498C8F80C000598C8F81000069805
:10305000C8F814000798C8F8180013B0BDE8F08F3E
:1030600031000020C400002070B52A4E756848F277
:103070008B607060284C607803281BD0607860B14A
:10308000012326A26C2130200CF03CF9012323A25D
:10309000A32130200CF036F918E000231FA25C2198
:1030A00020200CF02FF900231CA2932120200CF0EB
:1030B00029F90BE0002319A27C2140200CF0D2F862
:1030C000002316A2B32140200CF0CCF81A210023D3
:1030D00015A208010CF0C6F8002313A21A21E6205D
:1030E0000CF0C0F8FDF718FF0020FDF7B3FCFDF76A
:1030F000A5FC16233C22B4214FF4C87001F01AFF3E
:10310000756094F841000A490978BDE8704000F004
:1031100061B80000C4000020780B00202D2D2D2D5B
:103120002D2D2D2D0000000020202020202000002B
:103130003300002008B513496FF07F400860124843
:1031400041794FF4967000290BD0012911D0022942
:1031500006D10E490091372328225C2102F078FA2B
:1031600008BD0B490091372328225C2102F070FA38
:1031700008BD08490091372328225C2102F068FA33
:1031800008BD0000C40000206C000020A66B0708EA
:10319000DF6E07083E74070818B50B496FF07F40D3
:1031A00008600A484FF4AA740090372328225C2153
:1031B000204602F04DFA0649009137232822932138
:1031C000204602F045FA18BDC40000201872070816
:1031D0009D790708012800D90120062900D9062178
:1031E0000A4B48F28B625A60C0EBC000084A00EB01
:1031F000400002EB800001EB410100EB8102002363
:10320000D22140F29F100CF02DB80000C400002025
:103210005C35010830B595B004460D4601F0AAF8BA
:10322000012229466846FFF71FFD9DF800008DF832
:10323000380001980F90029810900398119004980C
:10324000129005981390069814900EA9684601F004
:103250005DFC9DF800008DF81C0001980890029814
:10326000099003980A9004980B9005980C90069882
:103270000D900B9818B90020099008900A909DF8BD
:103280001C002070089860600998A0600A98E060AF
:103290000B9820610C9860610D98A06115B030BD4D
:1032A00030B595B004460D4601F07CF80022294661
:1032B0006846FFF7D9FC9DF800008DF838000198AA
:1032C0000F9002981090039811900498129005980E
:1032D0001390069814900EA9684608F0F1F89DF82E
:1032E00000008DF81C00019808900298099003983E
:1032F0000A9004980B9005980C9006980D900B98E6
:1033000018B90020099008900A909DF81C002070C0
:10331000089860600998A0600A98E0600B982061A6
:103320000C9860610D98A06115B030BD2DE9F04793
:103330000024DFF88880224F1A264FF4947908EB96
:10334000040090F8DD0498B14FF47F40386004EB3E
:10335000840006EB80010D4600231AA21E200BF00C
:1033600081FF294600231AA248460BF07BFF1EE08E
:103370001848386004EB840006EB8005002316A291
:1033800029461E200BF06EFF2946002310A2484656
:103390000BF068FF2946002312A26E200BF062FF9B
:1033A000294600230FA24FF4A3700BF05BFF641CAF
:1033B000E4B20A2CC3D3BDE8F0870000480D00201A
:1033C000C40000204F50454E2020523A000000001B
:1033D000563A0000C0C0C000434C4F534520523AFB
:1033E000000000002D2D2D2D2D2D2D2D2D2D2D2DC1
:1033F0002D2D2D0070B500F0A1F81E4C6FF07F450B
:1034000025601D4860601D4E96F8C80408B11C4A2E
:1034100001E01B4AF23A0023DC32042118460BF08B
:1034200021FF256048F28B60606096F8C80408B1FF
:10343000144D01E0134D543D00241A26C4EBC40082
:1034400000EB4000421904EB840006EB800081B2DF
:10345000002318460BF006FF641C042CEED3002357
:10346000094A562152200BF0FDFEBDE87040FEF7E0
:1034700037BF0000C40000200352F300480D0020B5
:10348000582F010808350108C013002070B500242A
:103490001825601C00EB800005EB800081B2012341
:1034A00064225A2001F046FD641C072CF1D370BD44
:1034B0002DE9F04100F042F81B4E6FF07F47376076
:1034C0001A4870601A4C94F8C80408B1194A01E00F
:1034D000184AF23A0023B032042118460BF0C2FE1B
:1034E000376048F28B60706094F8C80408B1124DE0
:1034F00001E0114D583D00244FF01A0804EB440040
:1035000000EBC400421904EB840008EB800081B298
:10351000002318460BF0A6FE641C082CEED377603F
:10352000BDE8F041FFF7B2BFC40000200352F30032
:10353000480D0020582F01080434010810B500F090
:1035400093FEBDE81040FFF749BB00002DE9FF5F87
:10355000044600278DF80770012C0AD00020029045
:10356000FA4D02984FF47F0648F28B6B18B16E60EB
:1035700003E00120F3E7C5F804B0DFF8D48398F83E
:10358000C80410B1DFF8CC9303E0DFF8C893A9F1C9
:103590003A09102366221A215A2001F0CBFC98F830
:1035A000C4040023C0EBC00000EB09021C215A2018
:1035B0000BF058FE022C05D000200290029818B1A2
:1035C0006E6003E00120F8E7C5F804B0102366221E
:1035D0002E215A2001F0AEFC98F8C504DFF878934C
:1035E000C0EBC00000EB0902002330215A200BF091
:1035F00039FE032C05D000200290029818B16E60AD
:1036000003E00120F8E7C5F804B098F8C80410B149
:10361000DFF840A303E0DFF83CA3AAF13A0A102345
:10362000662242215A2001F085FC98F8C604002346
:10363000C0EBC00000EB0A0244215A200BF012FE3E
:10364000042C05D000200290029818B16E6003E0AF
:103650000120F8E7C5F804B098F8C80410B1DFF805
:10366000F4A203E0DFF8ECA2AAF13A0A10236622E2
:1036700056215A2001F05EFC98F8C7040023C0EBE5
:10368000C00000EB0A0258215A200BF0EBFD052C7C
:1036900005D000200290029818B16E6003E001206E
:1036A000F8E7C5F804B0102366226A215A2001F019
:1036B00041FC98F8C804DFF8A0A200230AF1380AF8
:1036C0000AEBC0026C215A200BF0CCFD01A90020AE
:1036D00002F02AFF6946002002F0F4FE062C05D015
:1036E00000200290029818B16E6003E00120F8E714
:1036F000C5F804B0102312227E215A2001F01AFCD2
:103700009DF8032095A196480BF04EFE0023944AA5
:1037100080215A200BF0A6FDC5F804B0002391A229
:1037200080216E200BF09EFD072C05D0002002901A
:10373000029818B16E6003E00120F8E7C5F804B004
:10374000102312227E21782001F0F4FB9DF8012045
:1037500082A183480BF028FE0023814A8021782033
:103760000BF080FDC5F804B000237EA280218C20E0
:103770000BF078FD082C05D000200290029818B1BB
:103780006E6003E00120F8E7C5F804B010231222B0
:103790007E21982001F0CEFB9DF802206FA1704899
:1037A0000BF002FE00236E4A802198200BF05AFD98
:1037B000092C05D000200290029818B16E6003E039
:1037C0000120F8E7C5F804B01023122292215A20F4
:1037D00001F0B0FB9DF8042060A161480BF0E4FD0E
:1037E00000235F4A94215A200BF03CFDC5F804B039
:1037F00000235DA294216E200BF034FD0A2C05D02D
:1038000000200290029818B16E6003E00120F8E7F2
:10381000C5F804B0102312229221782001F08AFB0F
:103820009DF805204DA14E480BF0BEFD00234C4AEB
:10383000942178200BF016FDC5F804B000234AA2AD
:1038400094218C200BF00EFD0B2C05D00020029053
:10385000029818B16E6003E00120F8E7C5F804B0E3
:10386000102312229221982001F064FB9DF806207B
:103870003AA13B480BF098FD0023394A9421982047
:103880000BF0F0FC0C2C05D000200290029818B12F
:103890006E6003E00120F8E7C5F804B0102366224B
:1038A000A6215A2001F046FB0023304AA8215A20C5
:1038B0000BF0D8FCFFF792F96FF07F4028602C489E
:1038C000686054250C2C09D2DFE804F0060A28545D
:1038D0007290A5A5A5A5A5A5FEF702FDBDE8FF9FD1
:1038E00098F8C80408B11B4C01E01A4C3A3C039705
:1038F00010E003980023C0EBC00002190398F121E7
:1039000000EB800005EB001080B20BF0ABFC0398DD
:10391000401C039003980228EBD3DFE7039711E0E4
:1039200003980023C0EBC00000EB09020398F121CB
:1039300000EB800005EB001080B20BF093FC0398C5
:10394000401C039003980528EAD3C7E7C400002071
:10395000480D0020803201085C34010825326400E3
:10396000A81400202D0000003A00000011120020D1
:103970003800310098F8C80408B1324C01E0314CED
:103980003A3C039710E003980023C0EBC0000219F3
:103990000398F12100EB800005EB001080B20BF0E2
:1039A00061FC0398401C039003980228EBD395E731
:1039B00098F8C80408B1234C01E0224C3A3C039724
:1039C00010E003980023C0EBC00002190398F12116
:1039D00000EB800005EB001080B20BF043FC039875
:1039E000401C039003980228EBD377E703970EE07F
:1039F000039800230AEBC00200EB800005EB0010E7
:103A000080B2F1210BF02EFC0398401C0390039828
:103A10000228EDD362E703970B4C0EE003980023D6
:103A200004EBC00200EB800005EB001080B2F12136
:103A30000BF018FC0398401C039003980228EDD368
:103A40004CE7000080320108A434010810B500F0F2
:103A50000BFCBDE81040FFF7C1B810B500F004FC46
:103A6000BDE81040FFF7BAB870B5FFF7EFFF194C8B
:103A70006FF07F45256018486060184E96F8C804BE
:103A800008B1174A01E0164AF23A00230421184609
:103A90000BF0E8FB256048F28B606060F07898B12D
:103AA0000024104D1A2604EB4400421904EB840054
:103AB00006EB800081B2002302200BF0D3FB641CD4
:103AC0000A2CF0D3FFF732FCBDE870400020FEF76F
:103AD000E3BC0000C40000200352F300480D0020A6
:103AE000582F0108043601082DE9F047FFF7B5FF0C
:103AF000414C6FF07F45256040486060404E96F82D
:103B0000C80408B13F4A01E03E4AF23A00231632A7
:103B1000042118460BF0A6FB256048F28B6060601C
:103B200096F8C804307B384A4FF482791A2770B36C
:103B30000024904604EB440000EB080204EB8400F0
:103B400007EB8005A9B2002302200BF08BFB96F84F
:103B5000C80460B1A9B200232CA220200BF082FB84
:103B6000A9B200232BA248460BF07CFB0BE0A9B2C4
:103B700000232AA248460BF075FBA9B200232AA213
:103B800020200BF06FFB641C0A2CD3D321E0FFE74D
:103B90003946002302200BF065FB96F8C80460B19B
:103BA00000231AA2394620200BF05CFB002319A247
:103BB000394648460BF056FB0BE000231AA2394663
:103BC00020200BF04FFB002314A2394648460BF08F
:103BD00049FB96F8C80438B1BDE8F047002304213A
:103BE00014A2E6200BF03EBBBDE8F0470023042101
:103BF00013A2E6200BF036BBC40000200352F300F2
:103C0000480D0020582F01080436010848495F522A
:103C1000455300004C4F5F5245530000B5E7D7E8CD
:103C2000CFC2CFDE00000000B5E7D7E8C9CFCFDEB6
:103C300000000000434F4D504D4F44453A000000F6
:103C4000B1C8BDCFB7BDCABD3A0000002DE9F047ED
:103C5000FFF703FF414C6FF07F45256040486060EF
:103C6000404E96F8C80408B13F4A01E03E4AF23A95
:103C700000232C32042118460BF0F4FA256048F298
:103C80008B60606096F8C80496F84002374A4FF49B
:103C900082791A2770B30024904604EB440000EBAD
:103CA000080204EB840007EB8005A9B20023022080
:103CB0000BF0D8FA96F8C80460B1A9B200232CA280
:103CC00020200BF0CFFAA9B200232CA248460BF01B
:103CD000C9FA0BE0A9B200232AA220200BF0C2FAF5
:103CE000A9B200232AA248460BF0BCFA641C0A2C95
:103CF000D3D320E03946002302200BF0B3FA96F824
:103D0000C80460B100231AA2394620200BF0AAFA99
:103D100000231AA2394648460BF0A4FA0BE0002310
:103D200018A2394620200BF09DFA002318A239462C
:103D300048460BF097FA96F8C80438B1BDE8F0474A
:103D40000023042115A2E6200BF08CBABDE8F04751
:103D50000023042114A2E6200BF084BAC400002042
:103D60000352F300480D0020582F010804360108C3
:103D7000564F4C5F4849474800000000564F4C5F83
:103D80004C4F5700B5E7D1B9C9CFCFDE00000000D6
:103D9000B5E7D1B9CFC2CFDE00000000434F4D5090
:103DA0004D4F44453A000000B1C8BDCFB7BDCABDB4
:103DB0003A0000002DE9F041FFF74FFEFFF74DFEFE
:103DC0002B4E6FF07F4434602A4870602A4D95F87E
:103DD000C80408B1294A01E0284AF23A00235832BF
:103DE000042118460BF03EFA346048F28B67776086
:103DF00095F8C80408B1224D01E0214DC63D0024CC
:103E00004FF01A08092C14D2E01E052801D2776061
:103E100000E0776004EB440000EBC400421904EBBF
:103E2000840008EB800081B2002318460BF01AFAD8
:103E300016E0A4F10C00052801D2776000E077605D
:103E400004EB440000EBC4004219A4F1090000EBAC
:103E5000800008EB800081B20023FA200BF002FA08
:103E6000641C122CCED3BDE8F041FEF761B900000E
:103E7000C40000200352F300480D0020582F010811
:103E8000103101082DE9F041FFF7E7FD3A4C6FF0E2
:103E90007F45256039486060394E96F8C80408B1FE
:103EA000384A01E0374AF23A0023423204211846E8
:103EB0000BF0D8F9256048F28B60606096F8C80472
:103EC00096F8E704304A1A2568B30024174604EB35
:103ED0004400C21904EB840005EB800081B200238A
:103EE00002200BF0BFF9641C0A2CF0D3002496F8D2
:103EF000C80450B104EB840005EB800081B20023BC
:103F000022A220200BF0AEF909E004EB840005EBBF
:103F1000800081B200231FA220200BF0A3F9641CB3
:103F20000A2CE4D314E02946002302200BF09AF96E
:103F300096F8C80430B12946002314A220200BF0C3
:103F400091F905E02946002312A220200BF08AF9FE
:103F500096F8C80438B1BDE8F041002304210FA24F
:103F6000E6200BF07FB9BDE8F041002304210EA24A
:103F7000E6200BF077B90000C40000200352F300E4
:103F8000480D0020582F0108043601084348414ECF
:103F90004E000000CDA8B5C0000000005345544DB0
:103FA0004F44453A00000000C9E8D6C3B7BDCABDBA
:103FB0003A0000002DE9FF4F83B0039E0024DFF894
:103FC0007482002108F80410641CE4B2092CF9D3AF
:103FD000DFF864B29BF8070038B10BF0BBF8029031
:103FE0009648007808B9022002909BF8020010B1B0
:103FF00002F0B0FC01909BF80200914D01280FD017
:104000006FF07F40286048F2E800864219D900240A
:104010002D2008F80400641CE4B2062CF9D317E044
:104020009DF804108748204480F8A0109DF80400F3
:1040300018B14FF47F002860E5E74FF47F40286017
:10404000E1E79DF8101000230522304600F0F6FC51
:10405000DFF8F491D8F80010C9F80310B8F804009C
:10406000A9F80700794F796138837948794940790F
:1040700000EB400001EB40000188798380783877BD
:10408000092078774FF0200A88F806A0724E7178E0
:104090009DF8120003292BD0717839B1D8B10123D2
:1040A0006EA26C2130200BF02DF91AE030B1002304
:1040B0006AA25C2120200BF025F905E0002368A20C
:1040C0005C2120200BF01EF900235A4A5C2140207D
:1040D0000BF018F920E0012361A26C2130200BF0D5
:1040E00011F90123534A6C2140200BF00BF913E026
:1040F00030B1002359A27C2140200BF0B3F805E039
:10410000002357A27C2140200BF0ACF80023494A41
:104110007C214A200BF0A6F89BF80700012830D03C
:104120006FF07F4028609DF8181000230622059844
:1041300000F084FCD8F80000C9F80B00B8F80410AF
:10414000A9F80F1098F8062089F8112047F81F0FDA
:10415000B980BA715620F8710920387241A00088E0
:10416000F8811F3F70789DF81A4003283CD0707882
:10417000C0B164B3012339A2A32130200BF0C2F8EF
:104180002BE09DF808102F48204480F8AA109DF8D5
:10419000080018B14FF47F002860C4E74FF47F4057
:1041A0002860C0E734B100232CA2932120200BF01B
:1041B000A9F805E000232AA2932120200BF0A2F801
:1041C00000231C4A932140200BF09CF820E001239F
:1041D00023A2A32130200BF095F80123154AA32137
:1041E00040200BF08FF813E034B100231BA2B32161
:1041F00040200BF037F805E0002319A2B32140203E
:104200000BF030F800230B4AB3214A200BF02AF8B8
:1042100024B189F80AA087F81EA003E02D2089F8B0
:104220000A00B8770A48407989F8090007B0BDE864
:10423000F08F0000A8140020480D00202D00002061
:10424000C4000020F4130020E80A0020FD0A00202A
:104250006C0000206E330108780B00202000000065
:104260002D0000000D0A000005490448486016238F
:10427000AA220021084600F05DBE00000352F300B0
:10428000C40000201EB5114C2168019161680291A3
:104290000F496160012812D04FF47F01022812D02B
:1042A00021600C48009018233022F1214FF4CA708D
:1042B00001F0CEF901982060029860601EBD4FF4B5
:1042C0007F402060EDE72160EBE70000C4000020A4
:1042D00038003100348C070870B500F043F81E4CEC
:1042E0006FF07F4525601D48606000231C4A042153
:1042F00018460AF0B7FF256048F28B606060002422
:10430000174D4FF6FF76D63D04EB840000EBC4005A
:10431000421904EB840006EA401000231A210AF037
:10432000A1FF641C032CEFD300240D4E1A25AF3ED1
:1043300004EB840000EBC4008219601C00EBC00099
:1043400005EB400081B2002318460AF08BFF641C85
:10435000052CEDD370BD0000C40000200352F30013
:10436000D42E010810B5FFF77FFFBDE81040FEF71F
:1043700035BC000010B5FEF731FC08480649416025
:104380006FF07F4101600023F121BDE8104004A2DD
:1043900054200AF067BF000038003100C40000203C
:1043A0002056200010B5FEF719FC0B480949416062
:1043B0006FF07F410160002308A2F12154200AF030
:1043C00051FF0023F121BDE8104006A2A4200AF00D
:1043D00049BF000038003100C4000020206DA6B89D
:1043E0002020000020A6B8200000000000B58FB0FB
:1043F0000EA9002002F098F80DA9002002F062F842
:104400009DF836309DF83A009DF839109DF8382017
:10441000CDE90210CDE900329DF835309DF8372006
:104420000DA105A80AF0C0FF15486FF07F4101609B
:1044300048F28B614160002305AA0421FA200AF0AA
:1044400011FF132205A90F48FBF7CCFE0D490920E7
:10445000C8740FB000BD0000323025302E32642DFC
:1044600025302E32642D25302E32642025302E3218
:10447000643A25302E32643A25302E326400000032
:10448000C4000020FD0A002010B54FF4005420465F
:1044900000F054F8002804D02046BDE8104000F099
:1044A00047B810BD10B5082000F048F800281FD00C
:1044B00010480CF068FA08210F4800F021FA90B972
:1044C0000E48002101700E480E4A012304781CB1E9
:1044D00001700F20107002E00370022010700A4972
:1044E0004FF400700860BDE81040082000F020B8CC
:1044F00010BD0000A0860100001002405A000020FC
:10450000390000203100002080E100E01CB54FF4AC
:104510000050009000208DF8040001208DF8070065
:104520006946024800F09EF91CBD000000040240EC
:104530000149086070470000143C0140014600201A
:10454000024A12680A4200D001207047143C014020
:1045500030B51B4A83790168002B2AD013688B433E
:104560001360111D0B680468A3430B6001791144AB
:104570000B68046823430B60114C083421680368FE
:1045800099432160231D19680568A9431960417981
:10459000102905D011440A68006802430A6030BD42
:1045A000216802681143216019680068014319609D
:1045B00030BD0079104402688A43026030BD0000BB
:1045C000003C01402DE9FF410121102001F0ECFDEC
:1045D0000121880301F020FE01F097FB08260296D6
:1045E00000248DF80C4001258DF80F5002A91448C5
:1045F00000F038F90321042003F0DAF800968DF872
:1046000004400C268DF805608DF806506846FFF7CB
:104610009FFF6F03029702A90A4800F023F90D21BA
:10462000022003F0C5F800978DF804408DF805606E
:104630008DF806506846FFF78BFFBDE8FF8100004C
:10464000001002400008024000224FF020431028D2
:104650000AD0B0F5807F09D0B0F5805F09D0D3F8DB
:104660005801814309D107E0586EFAE7D3F8840076
:10467000F7E7D3F8A400F4E70122104670470000E2
:10468000D0E9001211438268C068521E520142EA0A
:10469000402001430148016070470000500100A024
:1046A00070B50468A100A1F1C041D1F84011CE0B52
:1046B000F603D0E901121143D0E903231A43114351
:1046C0004269C36911438269056A11431943426A09
:1046D0002943114331434FF02046002C3CD0D6F8FB
:1046E00040416FF30E042B4322431343C6F840317D
:1046F00002689200A2F1C042C2F84011016871B391
:104700008900A1F1C041D1F8481101F07043816ADC
:104710000A684C68521E641E42EA04148A68521EDB
:1047200044EA02240A8A521E44EA02421A43D6F894
:10473000483103F07043CC68898A641E2403491E03
:1047400044EA01511943C6F8481100688000A0F1FD
:10475000C040C0F8482170BDC6F84011CEE7FFE761
:10476000D6F8481101F07041806A02684368521E11
:104770005B1E42EA03138268521E43EA0223C268A8
:10478000521E43EA0233028A521E43EA0243828ADD
:10479000007E521E43EA0252401E42EA0060084375
:1047A000C6F8480170BD000002490A6842EA4000AC
:1047B00008607047540100A07CB5012140F2A710A9
:1047C00001F0F2FC2E20009002208DF8050001205F
:1047D0008DF8040000248DF806408DF807001D4D6B
:1047E0006946284600F03EF80E21284600F091F870
:1047F00020250095184E6946304600F033F82021F8
:10480000304600F084F840200090144E694630464F
:1048100000F028F800956946304600F023F8202182
:10482000304600F074F88DF804408DF807402802F7
:10483000009069460A4800F015F801F029F8FCF7E5
:1048400021F90AF0E3FC01F0CDFA01F0E5FA02F0FB
:1048500059FD7CBD00080240001C024000200240BF
:10486000000402402DE9F041002201274FF0030C23
:1048700007FA02F50B682B40AB422CD106685300B7
:104880000CFA03F4A64306600E79D0F800809E402F
:1048900046EA080606600E79012E01D0022E12D1DA
:1048A0008668A64386604E79D0F808809E4046EA26
:1048B000080686604668AE43466045688E79964035
:1048C000B6B235434560C568A543C560CC799C4008
:1048D000C3681C43C460521C102AC9D3BDE8F081D0
:1048E00010B54B07DB0E9A40C90800EB8100016A46
:1048F0000F249C40A1430162016A1143016210BD73
:104900000246002012690A4200D00120704741830C
:104910007047018370470000034A203902EB011100
:104920001022FBF75FBC0000448607080349085CBF
:10493000002801D000207047012070473D00002072
:104940004069806880B27047D0F8CC000068C0F33E
:1049500041407047084490F89B03704700EB81008A
:10496000D0F85003704710B5044600220023C4F865
:10497000103304EB8200C0F81433C0F85033A01891
:1049800080F88C33521CD2B20F2AF2D30820A4F83C
:10499000B203204608F094FE204608F023FC20468F
:1049A00008F044FB0121204608F0ECFE204608F008
:1049B00091FB204608F050FC002010BDD0F81003F9
:1049C000704710B508F065FE002010BD00224318A6
:1049D00083F89B2300EB4113C3F8C02308F092BD7A
:1049E0002DE9F0410546134F4FF4807631463846A5
:1049F000FFF78DFF00244FF48058280604D5414668
:104A00003846FFF786FF03E041463846FFF77FFF51
:104A100031463846FFF77DFF0AF0B0FC3146384694
:104A2000FFF775FF6806050E641CE4B2082CE4D39A
:104A3000BDE8F08100080240FEE700002DE9F041EA
:104A4000082A00D9082202B90122072900D9072122
:104A5000914200D911460024224E20273755641C6C
:104A6000E4B2142CFAD314460A250DE0B0FBF5FC91
:104A700005FB1C0C06EB04080CF1300C08F801CC0B
:104A8000B0FBF5F0641EE4B2002CEFD169B1104622
:104A90000C4605E0351815F8015C3554401EC0B2CF
:104AA000641EE4B2F6D22E24345473B90020531E8F
:104AB00009E0345C302C08D1341864782E2C04D0F2
:104AC0003754401CC0B29842F3DB09B1521CD2B239
:104AD000002002E0B054521CD2B2142AFAD3BDE82E
:104AE000F0810000A814002006494FF48C700022C9
:104AF00001E001F8012B401E80B2FAD20248027098
:104B000070470000780B00203000002070B505468B
:104B10002DED048B0C466068DFED340A00EE100AC0
:104B2000B8EE400A20EE209AA068C0F10700FBF71B
:104B300081FC41EC110B9FED2E0B0AF061FCB0EEF5
:104B4000408AF0EE608A19EE100AFBF780FC53EC05
:104B5000182BFBF700FCFBF78DFC00EE100A264932
:104B600010EE100A884201DD9FED240A244910EE60
:104B7000100A88420BDB0320A060DFED220A80EEE2
:104B8000201AFCEEC10A10EE900A606017E010EEE9
:104B9000100A1D4988420BDB0420A060F2EE040AD3
:104BA00080EE201AFCEEC10A10EE900A606006E06A
:104BB0000520A060FCEEC00A10EE900A6060BCEE1A
:104BC000C00A10EE100AA061207828706068686042
:104BD000A068A860E068E860206928616069686191
:104BE000A069A861BDEC048B70BD0000002474496D
:104BF0000000000000002440001B374B001B374B17
:104C00008096184B0000C842002474492DE9F05FDB
:104C1000FF250020FFF7E4FEDFF8D0A04FF4006985
:104C200049465046FFF76CFEDFF8C4804FF4806BB6
:104C300000B359464046FFF763FEE8B14946404697
:104C4000FFF75EFED0B104212A48FFF759FEB8B144
:104C50000426042E40D20024274F385DFFF7C0FE03
:104C60000AF08CFB76B1012E13D0022E18D0032E41
:104C700023D11CE00026ECE70126EAE70226E8E75C
:104C80000326E6E749465046FFF73AFEA8B925460F
:104C900013E059464046FFF733FE70B925460CE055
:104CA00049464046FFF72CFE38B9254605E0042169
:104CB0001048FFF725FE00B92546FF2D03D1641CDF
:104CC000E4B2082CC9D3FF2D04D005EBC600C0B256
:104CD000BDE8F09F0020FBE74FF400510548FFF7C7
:104CE0000FFE08B10020F3E71F20F1E7002002408B
:104CF00000080240000C02404A30070810B5064C7C
:104D00006078002805D00020607000F055F8207809
:104D100010BD002010BD0000AC00002010B5014601
:104D2000002002F0D3FD064C0020FFF7FFFD10B974
:104D300060780028F8D0BDE81040FFF7DFBF000022
:104D4000AC00002070B5FFF761FF1A4C002301256D
:104D5000E21CD0B12178814228D16178652901D245
:104D6000491C6170617864291BD00DD91070957051
:104D7000A07800F10100C0B2A0700E2804D9A37081
:104D80005078002800D1557070BD207828B1617826
:104D9000091F602901D210705570237063709370E1
:104DA00070BDA37010705570957070BD20706370E9
:104DB00070BD0000A900002010B5FBF745FE4FF4C0
:104DC0007A700BF0E0FDBDE81040FBF737BE000045
:104DD0007CB501214FF4867001F0E6F94FF498504C
:104DE000009002208DF8050001208DF804000024B9
:104DF0008DF806408DF80700134D69462846FFF7E9
:104E000031FD69152846FFF784FD4FF4406100919C
:104E10008DF8044069462846FFF724FDE814009009
:104E200069460A48FFF71EFD0420009069460848BD
:104E3000FFF718FD0748047044708470C01E0470AA
:104E4000447084707CBD00000008024000200240D5
:104E5000000C0240AC00002010B500231C4C24685C
:104E6000002C06D0012C0DD0022C17D0032C1ED004
:104E700023E000EB4003C1EB011000EB400003EB2B
:104E800040131AE0A1F20F11C0F5F070A1EB01116F
:104E900000EB4110401E00EB40030EE0A0F20F10AB
:104EA000A0EB001001EB401000EB400305E000EB2D
:104EB0000010C1EB001303F20F130648834205D222
:104EC00005488068C2521844110C817010BD000062
:104ED0005400002000FA0500B000002070B58AB030
:104EE000C0F30744C0F30725C6B2FCF7D3F84FF46C
:104EF00040300090012001900494039502960F2009
:104F000005900B4880680690002007904FF4887049
:104F100008904FF4F07009906846FCF7D1F8FCF760
:104F20002BF90220FCF7C2F80028FAD00AB070BDB5
:104F3000B00000202DE9F04F8BB03B4C6468C4F307
:104F4000074704F0FF09C4F30728384CDFF8D8A05E
:104F5000C2F5F076AAF1140A2568DAF80840002DA7
:104F600037D0C3F5887C012D3ED0022D4CD000EB0C
:104F70000010C3EB0010401A00F5887000EB4000F1
:104F800005191FFA8CF614469B46FCF783F84FF47C
:104F90004030019001200290CDF81080CDF80C90A7
:104FA0000597FF200690079508960994CDF828B03C
:104FB00001A8FCF785F8FCF7DFF80220FCF776F88B
:104FC0000028FAD0DAF8000000F0B4FA0BB0BDE81F
:104FD000F08FC1EB011100EB411000EB400005190F
:104FE000B6B21C469346D0E7ACEB0101C1EB011110
:104FF000C0EB4110801A00F5F07000EB400005197D
:10500000B6B21C469346C0E7C0F58870801AC0EB64
:10501000001001EB401000EB40000519C3F5F070E3
:1050200086B214469B46B0E7C4000020540000201E
:105030002DE9F0438BB09046994600242E4A15681E
:10504000002D0CD0C1EB011200EB42162B4A012DB2
:1050500097680DD0022D11D0032D18D01AE000EB67
:105060004002C1EB011000EB400002EB401411E0E4
:10507000A6EB86002249384444180BE0A0F20F103A
:10508000A0EB001001EB401000EB400402E006EB47
:105090004600C419194814300068C0F30745C6B269
:1050A000C0F30727FBF7F6FF4FF4403001900120D3
:1050B00002900497039605950F2106910794B9F184
:1050C000000F12D040F2DF110891CDF824800A9031
:1050D00001A8FBF7F5FFFCF74FF80220FBF7E6FF0E
:1050E0000028FAD00BB0BDE8F083002108910990A8
:1050F000CDF82880ECE7000054000020B00000202C
:1051000000FA05002DE9FC5F012140F2FF1001F0DB
:105110004BF84FF00408CDF8008003208DF805000F
:1051200002208DF8040000208DF806008DF807009D
:105130006946AB48FFF796FB0E220221A848FFF70D
:10514000CFFB4FF00809CDF800906946A448FFF75F
:1051500089FB0E220321A248FFF7C2FB4FF4807A9D
:10516000CDF800A069469E48FFF77CFB0E2208217F
:105170009B48FFF7B5FB0124009469469948FFF767
:1051800071FB092200219748FFF7AAFB4FF4006B3F
:10519000CDF800B069469448FFF764FB0E220B215E
:1051A0009148FFF79DFB2003009069468E48FFF76A
:1051B00059FB0E220C218C48FFF792FB0220009035
:1051C00069468848FFF74EFB092201218548FFF711
:1051D00087FB4025009569468448FFF743FB0E2274
:1051E00006218248FFF77CFB20200090694680481A
:1051F000FFF738FB0E2205217D48FFF771FB009574
:1052000069467B48FFF72EFB0E2206217848FFF700
:1052100067FB6003009069467148FFF723FB0E228D
:105220000D216F48FFF75CFBA602009669466F48A8
:10523000FFF718FB09220A216C48FFF751FBE00336
:10524000009069466648FFF70DFB0E220F21644867
:10525000FFF746FB009469466648FFF703FB0E2202
:1052600000216448FFF73CFB8027009769466248AD
:10527000FFF7F8FA0E2207215F48FFF731FBCDF860
:10528000008069465B48FFF7EDFA0E22022159487B
:10529000FFF726FB4FF01008CDF800806946544810
:1052A000FFF7E0FA0E2204215148FFF719FB200313
:1052B000009069464D48FFF7D5FA0E220C214B4865
:1052C000FFF70EFB00954D4D69462846FFF7CAFAD9
:1052D0000E2206212846FFF703FBCDF800B06946F1
:1052E0004248FFF7BFFA0E220B214048FFF7F8FAB9
:1052F000CDF8008069463F48FFF7B4FA0E2204213A
:105300003C48FFF7EDFACDF8009069463648FFF7C4
:10531000A9FA0E2203213448FFF7E2FACDF800A0E3
:1053200069463048FFF79EFA0E2208212D48FFF704
:10533000D7FA4FF40079CDF8009069462948FFF775
:1053400091FA0E2209212748FFF7CAFA0097694609
:105350002648FFF787FA0E2207212448FFF7C0FAF4
:10536000009669462348FFF77DFA0E220A2121485C
:10537000FFF7B6FACDF8009069461E48FFF772FABB
:105380000E2209211B48FFF7ABFA00961C4E694616
:105390003046FFF767FA0E220A213046FFF7A0FADF
:1053A000CDF8008002208DF805008DF80440002023
:1053B0008DF806008DF8074069462846FFF752FA37
:1053C000009769462846FFF74DFA10212846FFF757
:1053D000A0FA80212846FFF79CFABDE8FC9F000058
:1053E000001C02400004024000000240001802407D
:1053F000001002400020024000080240000C024061
:105400000014024000B58FB00121880600F004FFAF
:105410000121C80500F0C8FEFFF774FE01F0E0FEB0
:10542000062207214FF4967000F092FF4FF480306F
:1054300000F07EFF012000F085FF3D2000F04CFFD2
:105440000028FAD0002000900190029003900C9068
:105450000D900E90049005902E2006901720079036
:1054600040F20E20089040F2271009904FF4097086
:105470000A9040F23D100B90684600F037F9012089
:1054800000F024F90FB000BD10B590B02F200090AF
:1054900040F20E2001901820029040F22710039055
:1054A00001200490FF200590069007900890099035
:1054B00007200B9040F2A3500D90C01E0E904FF4A9
:1054C00088700F900C480C904FF4C0600A900B4C01
:1054D0006946204600F06CF9012000F0B5F9012181
:1054E000204600F059F9012000F0AEF9044800F020
:1054F00009F810B010BD000000FA05D004690140A1
:10550000CC0000200149086170470000B000002075
:105510000649002804D0064888600120C86070470A
:105520004FF0504088600020C8607047B0000020F5
:1055300000FA05D00149086070470000B000002063
:1055400010B50949C968002908D00146074800F08C
:1055500021F9BDE81040012000F076B9014603486A
:10556000803800F017F9F4E7B0000020046901402A
:105570002DE9F04F044688462546334902EB0210D8
:10558000DFF8C8A001EB4009002B0FD0002709EB82
:10559000070090F802B000265FEA0B6035D541465F
:1055A0002046DAF80020FFF757FC34E04FF0000BFC
:1055B00009EB0B0087780026380606D541462046C1
:1055C000DAF80020FFF748FC05E041462046DAF80B
:1055D0000420FFF741FC7806070E641CA4B2601B90
:1055E00010280CD0761CF6B2082EE5D30BF1010B77
:1055F0000BF0FF0BBBF1200FDAD3BDE8F08F2C4688
:1056000008F101081FFA88F8F0E741462046DAF869
:105610000420FFF721FC4FEA4B604FEA106B641C3B
:10562000A4B2601B102808D0761CF6B2082EB3D3A3
:105630007F1CFFB2202FAAD3DFE72C4608F1010818
:105640001FFA88F8F4E7000052300708C400002071
:105650002DE9F84F04468B469246A04600270AFBE8
:1056600003F0C11700EB5170DFF85C90009025E06B
:105670000A98C65D0025300606D559462046D9F859
:105680000020FFF7E9FB05E059462046D9F8042041
:10569000FFF7E2FB7006060E641CA4B2A4EB080040
:1056A000504505D144460BF1010B1FFA8BFB03E07B
:1056B0006D1CEDB2082DDED37F1CBFB20098B7EB96
:1056C000E00FD5DBBDE8F88FC400002006490028B4
:1056D00004D0086840F0010008607047086820F0B6
:1056E00001000860704700001868014030B5264A84
:1056F000136826490B401360038A1B04146845692C
:105700002C431C431460121D13680B401360038B61
:105710001B041468C5692C431C431460121D1368D4
:105720000B401360038C1B041468456A2C431C4314
:105730001460121D13680B401360018D0904136877
:10574000C46A23430B431360111D0A68104B1A40AF
:105750000A60D0E900231A43D0E9023423431A43F4
:105760000B681A430A60416B0A02018E0B0406495A
:1057700024310C6804F07F440C600C68806B134388
:1057800004431C430C6030BD0868014000F800F081
:105790008F88FE0F41617047002904D0016841F0F5
:1057A000010101607047016821F00101016070474B
:1057B00070B58A881204436803F4704343600B6831
:1057C000134343608A891204836803F4704383603F
:1057D0008B6813438360026922F0070202610A6941
:1057E0000261CA6913020A8C120491F8244024064B
:1057F0008569002585618E6922431E4316438661B3
:10580000426922F0FF0242614A694261C26940F284
:1058100007739A43C261D1E90A231A43C261826ABB
:1058200085620A6B82620A8F1204C36A03F0E02366
:10583000C3624B6B1343C362026B6FF30A020263D2
:10584000C96B016370BD000001490860704700002A
:105850002468014010B54FF480610948FFF759F8FA
:105860004FF400510748FFF754F804210648FFF7AA
:105870004EF8BDE8104001210448FFF748B8000089
:10588000001C0240000802400010024000000240DC
:105890007CB50121BF2000F087FC0420009000248B
:1058A0008DF8054001258DF804508DF806408DF8DF
:1058B000075069460C48FEF7D5FF4FF4B8400090FA
:1058C00069460A48FEF7CEFF8DF805408DF8045072
:1058D0008DF806408DF8075008200090694604486E
:1058E000FEF7C0FF7CBD000000100240001C02401B
:1058F000000C024010B504210948FFF70AF8012105
:105900000848FFF706F84FF480610748FEF7FFFFED
:10591000BDE810404FF400510448FEF7F8BF000006
:105920000010024000000240001C0240000802403B
:105930004FF400610148FEF7EABF0000001C02407E
:105940004FF400610148FEF7E4BF0000001C024074
:105950002DE9F047CCB0324D002085F8A10095F834
:105960009E004FF003094FF0020A0DF104080828C9
:1059700002D085F8A1901FE0A81CFBF711F807469C
:10598000281DFBF70DF800EB40004FF6FF7101EA10
:105990004006962E02D985F8A1900DE0002409E07A
:1059A00008EB4401384600F07FF8A8B17F1CBFB275
:1059B000641CA4B2B442F3D395F8A10000282BD103
:1059C0002878A87716496878C877700085F8A2907B
:1059D00081F82000002117E085F8A1A0ECE795F8F8
:1059E000A20018F81130421C284485F8A2208377C1
:1059F00008EB4100437895F8A200421C284485F842
:105A0000A2208377491C89B2B142E8D3044895F8B3
:105A1000A2101E3000F048F94CB0BDE8F08700003D
:105A20008401002000B50A4A002082F8A10092F803
:105A30009E00082803D0032082F8A10000BD901C1E
:105A4000FAF7AEFF101D5DF804EBFAF7A9BF0000EE
:105A50008401002010B5104C104A94F89E0010608C
:105A6000082801D1092111600D49536809688B424A
:105A700011D051600B4A117809B1491E117011788B
:105A8000002908D1002806D0042801D301F00AF922
:105A9000002084F89E0010BD84010020D800002062
:105AA00028000020240000202DE9F34F89B07D4913
:105AB0003C280B6D0A6808938B6807930D6E0C6980
:105AC0008B6D06958D690595D1F828C0D1F8309079
:105AD000D1F878800F6F0E6A8D6ECDF81090D1F8E6
