:020000040800F2
:10000000A8810020C1010008E75D00083D4B000801
:10001000E55D0008810A000895E70008000000007F
:10002000000000000000000000000000D978000877
:1000300039120008000000000960000883860008EB
:10004000DB010008DB010008DB0100086D69000826
:10005000DB010008DB010008DB010008DB01000810
:10006000DB01000825450008DB010008DB01000872
:10007000DB010008DB010008DB010008DB010008F0
:10008000DB010008DB010008DB010008DB010008E0
:10009000DB010008DB010008DB010008DB010008D0
:1000A000DB010008DB010008DB010008DB010008C0
:1000B000BD870008DB010008DB010008DB01000848
:1000C000DB010008DB010008DB010008DB010008A0
:1000D000DB010008DB010008DB010008A9B800080B
:1000E00009450008DB010008DB010008DB0100080E
:1000F000DB010008DB010008DB010008DB01000870
:10010000DB010008DB010008DB010008DB0100085F
:10011000DB010008DB010008D1870008DB010008D3
:10012000DB010008DB010008DB010008DB0100083F
:10013000DB010008DB010008DB010008DB0100082F
:10014000DB010008DB010008DB010008DB0100081F
:10015000DB010008DB010008DB010008DB0100080F
:10016000DB010008DB010008DB010008DB010008FF
:10017000DB010008DD5E0008DB010008DB01000890
:10018000DB010008DB010008DB010008DB010008DF
:10019000DB010008DB010008DB010008DB010008CF
:1001A000DB010008DB010008DB010008DFF80CD0F0
:1001B00000F00EFB0048004711230108A881002031
:1001C0000648804706480047FEE7FEE7FEE7FEE7F1
:1001D000FEE7FEE7FEE7FEE7FEE7FEE761870008D1
:1001E000AD01000840EA01039B0703D009E008C9FC
:1001F000121F08C0042AFAD203E011F8013B00F8EC
:10020000013B521EF9D27047D2B201E000F8012B37
:10021000491EFBD270470022F6E710B513460A4686
:1002200004461946FFF7F0FF204610BD421E12F8A3
:10023000013F002BFBD111F8013B02F8013B002BE1
:10024000F9D1704710B5002200E0521C835C8C5C31
:10025000A34201D1002BF8D1D8B2E1B2401A10BDAF
:10026000034611F8012B00F8012B002AF9D118469A
:1002700070472DE9FE4F81EA030404F0004421F0A9
:10028000004100944FF0000B23F0004350EA0104BA
:100290005ED052EA03045BD0C3F30A54C1F30A559B
:1002A0002C44A4F2F3340194A0FB0254C1F31301D3
:1002B00041F48011C3F3130343F4801301FB0244A0
:1002C00000FB034E840A970A44EA815447EA8357A5
:1002D000A4FB076802958D0A05FB07854FEA932C5E
:1002E00004FB0C542705029D4FEA065847EA1637CF
:1002F000B5EB08056EEB070C870E920E47EA8117E7
:1003000042EA8312A7FB0201B6EB0B0164EB000487
:100310002B0D43EA0C335E1844EB1C50DA46514671
:10032000E7FB0201C5F313044FEA0B3343EA14530E
:100330004FEA0432019C43EA0603A4F10C04029440
:10034000009CCDE900B400F00DF903B0BDE8F08FDA
:1003500000200146F9E72DE9F04D81EA030404F09D
:10036000004B21F0004514464FF0000A23F00041F5
:1003700050EA050220D054EA01021DD0C5F30A5705
:100380000246C5F31303C1F31300C1F30A5640F448
:10039000801543F48013A7EB0608101BD64608F21D
:1003A000FD3873EB050002D308F1010801E0921853
:1003B0005B41B8F1000F03DA00200146BDE8F08D83
:1003C00000204FF48011064684460EE0171B73EBA5
:1003D000050705D3121B63EB050306434CEA010C2A
:1003E00049084FEA300092185B4150EA0107EDD10D
:1003F00052EA030012D082EA040083EA05010843AE
:1004000005D0101BAB4106D20122002306E00022DA
:100410004FF0004302E06FF0010253101AEB0600A8
:100420004CEB085110EB0A0041EB0B01BDE8F04D1D
:1004300000F089B80EB540F2334102910021CDE9B8
:1004400000110A460B4600F08DF803B000BD00F025
:10045000004230F000400AD0C10D01F56071C0F3D8
:10046000160042EA0151C2084007114370470020BC
:100470000146704701F0004330B421F0004150EADA
:10048000010206D00A0DA2F56072C1F31301002A21
:1004900002DC30BC00207047440F44EAC104C100B4
:1004A000E01830BC00EBC25000F016B830B50B4677
:1004B000014600202022012409E021FA02F59D4294
:1004C00005D303FA02F5491B04FA02F52844151E68
:1004D000A2F10102F1DC30BD0029A8BF7047401C29
:1004E000490008BF20F00100704710B4B0FA80FC4A
:1004F00000FA0CF050EA010404BF10BC704749B187
:10050000CCF1200421FA04F411FA0CF118BF0121F6
:1005100021430843A3EB0C01CB1D4FEA00614FEAD6
:10052000102042BF002010BC704700EBC3501044A5
:100530000029A4BF10BC7047401C490008BF20F030
:10054000010010BC704710B5141E73F1000408DAE6
:10055000401C41F1000192185B411A4301D120F087
:10056000010010BD2DE9F04D92469B4611B1B1FA44
:1005700081F202E0B0FA80F22032904600F03AF9BF
:1005800004460F4640EA0A0041EA0B0153465A4628
:10059000084313D0114653EA010019D0C8F14002B4
:1005A000504600F036F905460E465046594642463A
:1005B00000F020F9084305D0012004E02046394628
:1005C000BDE8F08D0020054346EAE0762C43374332
:1005D0000A986305E40AA0EB08000022FD0A44EA39
:1005E00047540A3002D500200146E9E701051019F9
:1005F0006941DDE9084500196941BDE8F04DA2E710
:100600002DE9FE4F804681EA0300C00F0C460090A2
:1006100021F0004123F00045B8EB0200A94105D2CA
:100620004046214690461C460B46024623F00040B9
:10063000104347D0270DC7F30A00C3F30A510290B5
:10064000401A019040286BDAC3F3130040F4801B7A
:100650000098924620B10023D2EB030A63EB0B0B08
:1006600001985946C0F14002504600F0C3F80646D2
:100670000D4650465946019A00F0DBF810EB080091
:100680006141002487EA115284EAE7731A4340D09B
:10069000009A62B3019A012A4FEA075215DC001B47
:1006A00061EB02014FF0004202EA0752CDE900423D
:1006B000001C41F5801132462B46FFF753FF03B073
:1006C000BDE8F08F40462146F9E7001B61EB0201CF
:1006D000001C41F5801300185B412018A2F500179B
:1006E00047EB030140EAD570B6196D4111E06D0882
:1006F0004FEA360645EAC0754FEA0752001B61EB28
:100700000201001C41F5801149084FEA3000001930
:10071000514132462B4603B0BDE8F04FFFF713BFFF
:100720000098012240000023D0EB020263EBE0734B
:10073000009821464FEAE074B8EB000061EB040139
:10074000E9E783F000435BE781F0004158E770B5CB
:1007500021F0004303430CD0C1F30A550024D5EB2C
:10076000040564EB0403D617AD1AB34102DB002085
:10077000014670BD201841EB025170BD0EB5C10F8E
:1007800080EAE0700844CA07002140F233438DE854
:100790000E000A460B46FFF7E5FE03B000BD000061
:1007A00030B5041E71F1000404DB4FF000444042F8
:1007B00064EB0101141E73F1000405DB1C464FF0CD
:1007C0000043524263EB0403994208BF904230BD9C
:1007D000064C074D06E0E06840F0010394E807008E
:1007E00098471034AC42F6D3FFF7E4FCB03B0A085C
:1007F000D03B0A08202A04DB203A00FA02F100204C
:1008000070479140C2F1200320FA03F3194390404E
:100810007047202A04DB203A21FA02F000217047B9
:1008200021FA02F3D040C2F1200291400843194658
:100830007047202A06DBCB17203A41FA02F043EA40
:10084000E07306E041FA02F3D040C2F12002914089
:100850000843194670472DE9F04D00231A461B1A2C
:100860008A4103DB00200146BDE8F08DC1F30A5246
:10087000C1F3130141F480154FF0000BD10702D1F1
:1008800000186D41521E0027044640F2FF11384601
:1008900001EB620A3E468046024600204FF480117A
:1008A000FFF7B7FFC2197141BB1846EB0100B4EB6B
:1008B000030C75EB000C04D3E41A65EB0005174636
:1008C0000E46241908F101006D4180463428E3DD0D
:1008D000F91946EB0600091BA84103D24FF0FF327D
:1008E000134601E0002213461BEB070046EB0A51BA
:1008F000BDE8F04DFFF727BE70B58C1810F8015B0E
:1009000015F0070301D110F8013B2A1106D110F8A8
:10091000012B03E010F8016B01F8016B5B1EF9D1AC
:100920002B0705D40023521E0DD401F8013BFAE732
:1009300010F8013BCB1A921C03E013F8015B01F89D
:10094000015B521EF9D5A142D8D3002070BD000032
:1009500010B504210D4804F05CF801210C4804F0A6
:1009600058F84FF480610B4804F053F84FF40051ED
:10097000094804F04EF88021084804F04AF805F0D0
:1009800059F8BDE810400AF05FBF000000100240B7
:1009900000000240001C024000080240000C02401F
:1009A0004178007841EA00207047000010B5074CFC
:1009B0002060084600F00CF820680028FCD1BDE853
:1009C000104000214FF0804007F06BBFE80000208E
:1009D0003EB504464FF080450021284607F061FFF0
:1009E00000220121284607F074FF022C02D0012CBE
:1009F00003D005E00B20019002E042F6DF60019099
:100A00000520ADF800000020ADF80800ADF80200A8
:100A10006946284607F088FF0121284607F03EFF77
:100A20000121284607F02BFF01221146284607F036
:100A300050FF0121284607F034FF3EBD2021014828
:100A400003F0E7BF001C02402021014803F0E3BF90
:100A5000001C024009498979002904D028B10229E3
:100A600009D0FFF7EBBFFFF7E9BF012901D0FFF77E
:100A7000E5BFFFF7E9BFFFF7E7BF0000480D002023
:100A8000FEE70000064A012805D0002807D108210A
:100A9000104603F0BEBF0821104603F0BCBF7047EC
:100AA00000200240064A012805D0002807D1402135
:100AB000104603F0AEBF4021104603F0ACBF7047B4
:100AC00000080240064A012805D0002807D1082165
:100AD000104603F09EBF0821104603F09CBF7047EC
:100AE00000040240064A4FF40051012804D00028B7
:100AF00005D1104603F08DBF104603F08CBF704740
:100B0000000002407CB50121084605F0E3FBA0206F
:100B1000009002208DF8050001248DF80440002586
:100B20008DF806508DF80740084E6946304603F0B0
:100B30001BFF8DF804508DF806508DF807404021BA
:100B400000916946304603F00FFF7CBD0000024073
:100B500070B5FF22FF23084D05F5807605E010F8FB
:100B6000014B54402A5D5A40335D491E89B2F6D28A
:100B700043EA022070BD0000482D01082DE9F04F26
:100B80002DED028B81B00024F94890F840000090D0
:100B90000021084606F0AAF82146002002F05AFB80
:100BA000F448DFF8D493C17811209FEDF48AF44F14
:100BB000DFF8D083DFF8D0B300297DD000251120E5
:100BC0008BF80000E1E0284606F014F9DFF8A4A352
:100BD0009AF8010048B143F698200FF080FF9AF888
:100BE000010038B1012834D061E044F620600FF0F4
:100BF00076FFF4E7012006F087FE11F0A1FC97EDE7
:100C0000000ABCEEC00A10EE100AC9F8000005F098
:100C1000EFFF0BE005F0ECFF11F092FC97ED000AFE
:100C2000BCEEC00A10EE100AC9F80000D7480078E0
:100C30000028EFD106F068FE11F0C6FD98ED000A1D
:100C4000D349BCEEC00A10EE100A086005F0D0FFD0
:100C50002DE0012006F058FE11F0EAFC97ED000AA5
:100C6000BCEEC00A10EE100AC9F8000005F0C0FF83
:100C70000BE005F0BDFF11F0DBFC97ED000ABCEEC8
:100C8000C00A10EE100AC9F80000C0480078002819
:100C9000EFD106F039FE11F011FE98ED000ABC49C3
:100CA000BCEEC00A10EE100A086005F0A1FF98ED36
:100CB000000A10EE100A00E072E04FF09641884200
:100CC00005DD38EE400AB1EE400A88ED000A97EDE6
:100CD000000A10EE100A884205DD38EE400AB1EE37
:100CE000400A87ED000A9AF8010010B101281AD0D5
:100CF00032E005EB45000AEB800000EB840097ED45
:100D0000000A00F5806080ED3A0A022C24D20AEB3A
:100D1000C50000EB840098ED000A00F5806080EDCE
:100D2000580A264618E005EB45000AEB800000EB68
:100D3000840097ED000A00F5806080ED6C0A022CBB
:100D40000AD20AEBC50000EB840098ED000A00F51A
:100D5000806080ED8A0A26463146204605F0C6FFAF
:100D60002146002002F076FA022C0CD306208BF8E4
:100D7000000000242146002005F0B8FF2146002095
:100D800002F068FA01E0641CE4B29BF8000011284C
:100D90003FF419AF6D1CEDB20A2DFFF410AFDCE08B
:100DA0008BF80000DFF8ECA1D2E07248407810B177
:100DB00001282FD075E0012006F0A6FD11F0C0FB40
:100DC00097ED000ABCEEC00A10EE100AC9F8000048
:100DD00005F00EFF6D4D0BE005F00AFF11F0B0FBC2
:100DE00097ED000ABCEEC00A10EE100AC9F8000028
:100DF00028780028F0D106F087FD11F0E5FC98ED89
:100E0000000A6348BCEEC00A10EE101A016005F03B
:100E1000EFFE46E0012006F077FD11F009FC97EDAA
:100E2000000ABCEEC00A10EE100AC9F8000005F076
:100E3000DFFE564D0FE005F0DBFE11F0F9FB97EDFC
:100E4000000ABCEEC00A10EE100AC9F800009AF8B9
:100E50000100012802D028780028ECD1002006F0FB
:100E600053FD11F02BFD98ED000A4949BCEEC00A74
:100E700010EE100A086005F0BBFE0FE005F0B8FEAA
:100E800011F01CFD98ED000A4149BCEEC00A10EEBD
:100E9000100A08609AF80100012802D0287800287A
:100EA000ECD198ED000A4FF0964110EE100A8842FE
:100EB00005DD38EE400AB1EE400A88ED000A97EDF4
:100EC000000A10EE100A884205DD38EE400AB1EE45
:100ED000400A87ED000A2749487810B1012810D050
:100EE0001EE001EB840097ED000A00F5806080EDC4
:100EF000A10A022C14D298ED000A80EDA40A26461D
:100F00000EE001EB840097ED000A00F5806080EDB3
:100F1000A60A022C04D298ED000A80EDA90A264602
:100F20003146204605F0E2FE2146002002F092F90B
:100F3000022C0BD306208BF8000000242146002051
:100F400005F0D4FE2146002002F084F9641CE4B2CE
:100F50009BF8000011283FF428AF0549009881F85C
:100F6000400001B0BDEC028BBDE8F04F07F058BB6C
:100F7000780B0020480D00204C000020FFFF7F4B25
:100F80004400002040000020310000203F000020ED
:100F900050000020AC00002010B54FF4005109486B
:100FA00003F039FD0121084803F035FD4FF480615D
:100FB000064803F02EFDBDE810400421044803F06C
:100FC00028BD00000008024000000240001C024052
:100FD0000010024030B587B0054628784C4C04F824
:100FE000280C687804F8270CA87804F8260CE91C6B
:100FF000684607F029FB9DF8000004F8240C0198CE
:1010000044F8200C029844F81C0C039844F8180C7F
:10101000049844F8140C059844F8100C069844F809
:101020000C0C687A04F8080C687A04F8080C05F1CE
:101030000A01684607F008FB9DF8000004F8040C5C
:1010400001982060029860600398A0600498E060B6
:101050000598206106986061287C2076687CA076DF
:1010600005F11201684607F0EFFA9DF800002077BD
:1010700001982062029860620398A0620498E0627E
:10108000059820630698606305F11801684607F02B
:10109000DBFA9DF8000084F838000198E0630298BC
:1010A0002064039860640498A0640598E06406983E
:1010B000206505F11E01684607F0C6FA9DF800009C
:1010C00084F854000198A0650298E06503982066B2
:1010D000049860660598A0660698E06605F124010C
:1010E000684607F0B1FA9DF8000084F87000019896
:1010F00060670298A0670398E0670498C4F88000CE
:101100000598C4F884000698C4F8880007B030BD7C
:10111000A00B002010B50121CC05204605F0E8F811
:101120002046BDE81040002105F0E2B8014600204D
:10113000024A52680A4200D00120704700B00240C3
:1011400030B500242A4B19682A4A114019601968E1
:10115000026811431960596B21F007015963596BFB
:101160004268114359634168002928D001292DD0D4
:10117000022930D0032933D0C1680A01016909026C
:10118000446924038568214315430D43996B0D433E
:101190009D638169D963196C6FF30D011964196C32
:1011A000C26911431964818C09045A6C02F04042EF
:1011B0005A645A6C006A02430A435A6430BDC168DB
:1011C0000A02018A0904047D2406DBE7C1680A02D9
:1011D000018A0904D6E7C1684A010169C902D1E759
:1011E000C1684A01016989024469E403CAE7000051
:1011F00000B00240FCE0FCFF0248016841F0010140
:101200000160704700B002400CB5094B1B788DF8A7
:10121000063000910749895C8DF8041005490A31B0
:10122000895C8DF80510DDE9001206C00CBD0000D8
:101230002E00002086370108704710B590B0044694
:1012400003F0D8F80122214601A801F04DFD9DF8D8
:1012500004008DF8240002980A9003980B900498DB
:101260000C9005980D9006980E9007980F9009A87D
:1012700000F07AF80890089810B010BD10B590B042
:10128000044603F0CFF80022214601A801F02CFD0E
:101290009DF804008DF8240002980A9003980B90A2
:1012A00004980C9005980D9006980E9007980F9052
:1012B00009A800F059F80890089810B010BD000077
:1012C00070B586B00121022005F004F801218804E0
:1012D00005F02AF8224E07220B21304603F082FB4C
:1012E00007220A21304603F07DFB00248DF81640CA
:1012F00001208DF8170002258DF814508102049109
:101300008DF8155004A9304603F02EFB8DF81450CB
:10131000A802049004A9304603F026FB4FF41650AF
:101320000090ADF80440ADF80640ADF80840ADF8C7
:101330000C400C20ADF80A000A4C694620460AF021
:101340000DFB04F051FD012240F2255120460AF028
:10135000EAFA012120460AF0D3FA06B070BD000077
:101360000004024000480040416842F2107291427D
:1013700004D941680A22B1FBF2F14160406870472C
:1013800038B5002000901D491D4842F210734EF6FA
:1013900060242EE09DF8002000EBC202D2F8B420B9
:1013A0009DF8005001EBC5056D68AA420CD89DF868
:1013B000002000EBC202D2F8B4209DF8005001EBEF
:1013C000C5056D68AA4210D29DF80020032A06D2F6
:1013D0009DF8002000EBC202C2F8B43005E09DF891
:1013E000002000EBC202C2F8B4409DF80020521C5D
:1013F00000929DF80020052ACCD338BD7C00002047
:10140000780B00202DE9FC5F0446012C0BD0002056
:101410000090744D00984FF47F0948F28B6820B11A
:10142000C5F8049003E00120F2E7C5F804804FF40A
:10143000A07610237A220421304603F0FDFD6A4F86
:101440004FF0000A97F8E704012801D987F8E7A4CC
:1014500097F8E704002300EB400101EBC00163486B
:101460000A18042130460DF0A7FFDFF880B197F885
:10147000E704ABF10E0BB8B30220019030E0019805
:10148000844201D1012000E000200090009810B1BA
:10149000C5F8049001E0C5F8048001981A26801E62
:1014A00000EB800006EB800081B210237A226C20D2
:1014B00003F0C2FD01980023384490F8DB04C0EB30
:1014C000C00000EB0B020198801E00EB800006EBD1
:1014D000800081B26C200DF06FFF0198401C0190DC
:1014E00001980C28CBD327E0FFE7C5F80480B5238B
:1014F0004FF4DD722E21002003F09EFD022C06D059
:1015000000200090009820B1C5F8049003E001206D
:10151000F7E7C5F8048010237A221A216C2003F023
:101520008BFD97F8DD040023C0EBC00000EB0B023D
:101530001A216C200DF040FF01F090FB2C4854263E
:101540006FF07F410C2C29D2DFE804F0060A2A2A2A
:101550002A2A2A2A2A2A2A2ABDE8FC5F00F004BF88
:101560002960686097F8C804CDF804A01F4C12E009
:101570000198002300EB400101EBC0000219019823
:10158000F12100EB800006EB001080B20DF014FF9B
:101590000198401C019001980228E9D3BDE8FC9F06
:1015A0002960686097F8C80410B1104C2C3401E031
:1015B0000E4C0E3CCDF804A010E001980023C0EBC7
:1015C000C00002190198F12100EB800006EB001029
:1015D00080B20DF0F1FE0198401C019001980228A4
:1015E000EBD3DBE7C4000020480D0020AC3301083A
:1015F000380031002DE9FC5F0446012C0AD00020A0
:101600000090D14D00984FF47F0748F28B6918B1D4
:101610006F6003E00120F3E7C5F804904FF4A07871
:1016200010237A220421404603F006FDC74E307B8A
:10163000012801D90020307396F8C80460B1307BCE
:10164000002300EB400101EBC001C1480A1804214E
:1016500040460DF0B1FE0CE0307B002300EB400172
:1016600001EBC001BA4816380A18042140460DF0B3
:10167000A3FE307BDFF8DCA24FF4B37B00287DD0E3
:10168000022001904FF01A0842E00198844201D1F3
:10169000012000E000200090009808B16F6001E098
:1016A000C5F804900198801EC0EBC00006EB8000D6
:1016B00081694069C9B20023052203F041FA01980B
:1016C0001023801E00EB800008EB800081B27A229C
:1016D0006C2003F0B1FC0198801EC0EBC00006EB4B
:1016E0008000C06900EB40000AEB40019A48FEF719
:1016F0009DFD01980023801E00EB800008EB800018
:1017000081B2954A6C200DF057FE0198401C019063
:1017100001980C28B9D30220019048E001980A30C2
:10172000844201D1012000E000200090009808B11F
:101730006F6001E0C5F804900198801EC0EBC00006
:1017400006EB8000D0F83011D0F82C01C9B200238C
:10175000052203F0F5F901981023801E00EB8000AC
:1017600008EB800081B27A22584603F065FC0198AC
:10177000801EC0EBC00006EB800000E01BE0D0F84C
:10178000340100EB40000AEB40017348FEF74EFDC8
:1017900001980023801E00EB800008EB800081B2DE
:1017A0006D4A58460DF008FE0198401C01900198C2
:1017B0000C28B3D359E0C5F80490E3234FF4DD724D
:1017C0002E21002003F038FC022C05D000200090D0
:1017D000009818B16F6003E00120F8E7C5F80490A5
:1017E000B069C1B270690023052203F0A9F9102382
:1017F0007A221A216C2003F01FFCF06900EB4000F4
:101800000AEB40015448FEF711FD0023524A1A2109
:101810006C200DF0D1FD032C05D000200090009825
:1018200018B16F6003E00120F8E7C5F80490D6F81E
:101830003001C1B2D6F82C010023052203F080F953
:1018400010237A221A21584603F0F6FBD6F8340109
:1018500000EB40000AEB40013F48FEF7E7FC0023A5
:101860003D4A1A2158460DF0A7FD01F0F7F93B4912
:101870006FF07F40162C31D2DFE804F00B104E4E93
:101880004E4E4E4E4E4E4E4E4E4E4E4E4E4E4E4E78
:101890004E4EBDE8FC5F002000F02CBF2860696060
:1018A00096F8C8045424D8B100200190284D12E0C5
:1018B0000198002300EB400101EBC00042190198A0
:1018C000F12100EB800004EB001080B20DF074FDFC
:1018D0000198401C019001980228E9D3BDE8FC9FC3
:1018E000002001901A4D163D12E00198002300EBF4
:1018F000400101EBC00042190198F12100EB80008A
:1019000004EB001080B20DF057FD0198401C0190CF
:1019100001980228E9D3E1E72860696096F8C804D5
:1019200040B102B00023BDE8F05FF1210CA25420C9
:101930000DF042BD02B00023BDE8F05FF1210AA224
:1019400054200DF039BD0000C4000020480D0020D7
:10195000C2330108C6340108A81400203800310041
:10196000494E505554000000CAE4C8EB0000000086
:101970002DE9FC5F0446012C0AD000200090C54DE3
:1019800000984FF47F0748F28B6918B16F6003E04D
:101990000120F3E7C5F804904FF4A07810238422C7
:1019A0000421404603F048FBBB4E4FF0000B96F875
:1019B0004002012801D986F840B296F8C80460B107
:1019C000307B002300EB400101EBC001B3480A1853
:1019D000042140460DF0F0FC0DE096F84002002393
:1019E00000EB400101EBC001AC4816380A18042195
:1019F00040460DF0E1FC96F840024FF4B37A00281F
:101A00007DD0022001904FF01A083AE001988442FC
:101A100001D1012000E000200090009808B16F6023
:101A200001E0C5F804900198801EC0EBC00006EBF1
:101A30008000D0F84C12D0F84802C9B20023062228
:101A400003F07EF801981023801E00EB800008EB65
:101A5000800081B284226C2003F0EEFA90A19148BC
:101A6000FEF7E4FB01980023801E00EB800008EBEA
:101A7000800081B28B4A6C200DF09EFC0198401CC6
:101A8000019001980C28C1D3022001903DE00198FB
:101A90000A30844201D1012000E00020009000982B
:101AA00008B16F6001E0C5F804900198801EC0EB9A
:101AB000C00006EB8000D0F86413D0F86003C9B210
:101AC0000023062203F03CF801981023801E00EB4F
:101AD000800008EB800081B28422504603F0ACFA0B
:101AE0006FA17048FEF7A2FB01986E4A801E00EBC2
:101AF000800008EB800081B20023504600E008E03F
:101B00000DF05AFC0198401C019001980C28BED39E
:101B100052E0C5F80490E3234FF4DD722E2100203B
:101B200003F08AFA022C05D000200090009818B12A
:101B30006F6003E00120F8E7C5F80490D6F84C0286
:101B4000C1B2D6F848020023062202F0F9FF1023A2
:101B500084221A216C2003F06FFA51A15148FEF73C
:101B600065FB00234F4A1A216C200DF025FC032C45
:101B700005D000200090009818B16F6003E00120AC
:101B8000F8E7C5F80490D6F86403C1B2D6F860034C
:101B90000023062202F0D4FF102384221A2150468B
:101BA00003F04AFA3EA13F48FEF740FB00233D4ABE
:101BB0001A2150460DF000FC01F050F83A496FF040
:101BC0007F40162C31D2DFE804F00B104E4E4E4E03
:101BD0004E4E4E4E4E4E4E4E4E4E4E4E4E4E4E4E25
:101BE000BDE8FC5F002000F0A5BE2860696096F8A3
:101BF000C8045424D8B1CDF804B0284D12E001989F
:101C0000002300EB400101EBC00042190198F121D3
:101C100000EB800004EB001080B20DF0CDFB0198CA
:101C2000401C019001980228E9D3BDE8FC9FCDF843
:101C300004B01A4D163D12E00198002300EB40015C
:101C400001EBC00042190198F12100EB800004EB88
:101C5000001080B20DF0B0FB0198401C019001987B
:101C60000228E9D3E1E72860696096F8C80440B12A
:101C700002B00023BDE8F05FF1210CA254200DF06A
:101C80009BBB02B00023BDE8F05FF12109A2542004
:101C90000DF092BBC4000020480D0020C2330108A3
:101CA00056000000A814002038003100494E50555D
:101CB00054000000CAE4C8EB000000002DE9FC4716
:101CC0000546012D0AD0002000904FF47F0648F20F
:101CD0008B68FE4C009818B1666003E00120F3E7C2
:101CE000C4F80480FA4F97F8C80410B1DFF8E49301
:101CF00003E0DFF8E093A9F11C09102368221A2100
:101D0000582003F099F938780023C0EBC00000EBAD
:101D100009021A2158200DF04FFB022D05D000209A
:101D20000090009818B1666003E00120F8E7C4F85D
:101D3000048097F8C80420B1DFF8989309F13809B6
:101D400003E0DFF8909309F11C09102368222E218B
:101D5000582003F071F978780023C0EBC00000EB45
:101D600009022E2158200DF027FB032D05D000205D
:101D70000090009818B1666003E00120F8E7C4F80D
:101D8000048097F8C80420B1DFF8489309F18E0960
:101D900003E0DFF8409309F154091023682242213F
:101DA000582003F049F9B8780023C0EBC00000EBDD
:101DB0000902422158200DF0FFFA042D05D0002021
:101DC0000090009818B1666003E00120F8E7C4F8BD
:101DD000048097F8C80420B1DFF8F89209F19C0953
:101DE00003E0DFF8F09209F1AA09102368225621D6
:101DF000582003F021F9F8780023C0EBC00000EB75
:101E00000902562158200DF0D7FA052D05D00020E3
:101E10000090009818B1666003E00120F8E7C4F86C
:101E2000048097F8C80410B1DFF8AC9203E0DFF843
:101E3000A892A9F14D094FF4A97A102368221A211A
:101E4000504603F0F9F87879A0B138790023401CA6
:101E500000EB400101EBC00000EB09021A215046E3
:101E60000DF0AAFA062D0CD000200090009850B179
:101E700066600AE000234A461A2150460DF09CFA9B
:101E8000F0E70120F1E7C4F8048097F8C80420B116
:101E9000DFF84492A9F1620903E0DFF83C92A9F16E
:101EA0007709102368222E21504603F0C5F8B8792F
:101EB0000023C0EBC00000EB09022E2150460DF0BC
:101EC0007BFA072D05D000200090009818B16660BD
:101ED00003E00120F8E7C4F8048097F8C80420B1B3
:101EE000DFF8F09109F18E0903E0DFF8E89109F1DC
:101EF0005409102368224221504603F09DF8F879D6
:101F00000023C0EBC00000EB0902422150460DF057
:101F100053FA082D05D000200090009818B1666093
:101F200003E00120F8E7C4F8048097F8C80410B172
:101F3000684E8E3601E0674E5436102368225621D3
:101F4000504603F079F8387A0023C0EBC0008219BC
:101F5000562150460DF030FA00F080FE00205F4A16
:101F600054266FF07F41092D29D2DFE805F00509DD
:101F70002A4B6CD9FBB98D00BDE8FC4700F018B9BD
:101F80002160626097F8C81409B1524C01E0514CCD
:101F90001C3C019010E001980023C0EBC000021926
:101FA0000198F12100EB800006EB001080B20DF0EB
:101FB00003FA0198401C019001980428EBD3BDE876
:101FC000FC872160626097F8C81411B1414C383425
:101FD00001E0404C1C34019010E001980023C0EB5C
:101FE000C00002190198F12100EB800006EB0010FF
:101FF00080B20DF0E1F90198401C0190019802288F
:10200000EBD3DCE72160626097F8C81411B1314C62
:102010008E3401E02F4C5434019010E001980023DD
:10202000C0EBC00002190198F12100EB800006EB23
:10203000001080B20DF0C0F90198401C0190019889
:102040000228EBD3BBE72160626097F8C81411B196
:10205000214C933C01E0204C853C019010E001981C
:102060000023C0EBC00002190198F12100EB8000B1
:1020700006EB001080B20DF09FF90198401C019012
:1020800001980228EBD39AE72160626097F8C814A0
:1020900011B1104C8E3401E00E4C5434019010E01C
:1020A00001980023C0EBC00002190198F12100EB58
:1020B000800006EB001080B20DF07EF90198401C04
:1020C000019001980228EBD379E70000C4000020BA
:1020D000480D00204A3301087934010838003100E6
:1020E0002160626097F8C81409B12F4C01E02E4CB2
:1020F0003A3C019010E001980023C0EBC0000219A7
:102100000198F12100EB800006EB001080B20DF089
:1021100053F90198401C019001980228EBD34EE737
:102120002160626097F8C81409B1204C00E01F4C90
:10213000019012E00198002300EB400101EBC00088
:1021400002190198F12100EB800006EB001080B22B
:102150000DF032F90198401C019001980428E9D350
:102160002DE7FFE72160626097F8C81411B10E4CAB
:102170003F3401E00C4C2A34019010E00198002318
:10218000C0EBC00002190198F12100EB800006EBC2
:10219000001080B20DF010F90198401C01900198D8
:1021A0000328EBD30BE70000D8330108D83401082B
:1021B00070B500F053FD45486FF07F410160444920
:1021C0004160444890F8C8144FF4A2754FF4CA74A3
:1021D00000293DD0002340A2E72154200DF0ECF867
:1021E00000233FA2FB2154200DF0E6F800233EA27D
:1021F000E721A4200DF0E0F800233CA2FB21A4205D
:102200000DF0DAF800233BA2E721F4200DF0D4F81A
:10221000002336A2FB21F4200DF0CEF8002337A2D4
:10222000E72128460DF0C8F8002336A2FB212846F6
:102230000DF0C2F8002335A2E72120460DF0BCF8CE
:102240002046BDE87040002331A2FB210DF0B4B858
:10225000002331A2E72154200DF0AEF8002330A274
:10226000FB2154200DF0A8F800232FA2E721A42081
:102270000DF0A2F800232EA2FB21A4200DF09CF863
:1022800000232DA2E721F4200DF096F8002328A2C8
:10229000FB21F4200DF090F8002329A2E721284625
:1022A0000DF08AF8002328A2FB2128460DF084F8BF
:1022B000002327A2E72120460DF07EF82046BDE846
:1022C0007040002324A2FB210DF076B8C40000204A
:1022D00038003100480D00204D45415300000000FA
:1022E000444953500000000052455300434F4D50A5
:1022F0000000000020564F4C000000004348414EB3
:102300004E00000053454C4C000000005359530050
:10231000534554555000000020B2E2C1BF000000F8
:1023200020CFD4CABE00000020B5E7D7E8000000E7
:1023300020B1C8BDCF00000020B5E7D1B900000032
:1023400020CDA8B5C000000020D1A1D4F10000002C
:1023500020CFB5CDB300000020C9E8D6C3000000EF
:10236000002000F0D9B8000070B500F077FC4548B7
:102370006FF07F41016044494160444890F8C814BF
:102380004FF4A2754FF4CA7400293DD0002340A237
:10239000E72154200DF010F800233FA2FB21542028
:1023A0000DF00AF800233EA2E721A4200DF004F866
:1023B00000233CA2FB21A4200CF0FEFF00233BA243
:1023C000E721F4200CF0F8FF002336A2FB21F420D3
:1023D0000CF0F2FF002337A2E72128460CF0ECFFB7
:1023E000002336A2FB2128460CF0E6FF002335A28D
:1023F000E72120460CF0E0FF2046BDE870400023B6
:1024000031A2FB210CF0D8BF002331A2E7215420D8
:102410000CF0D2FF002330A2FB2154200CF0CCFFA3
:1024200000232FA2E721A4200CF0C6FF00232EA238
:10243000FB21A4200CF0C0FF00232DA2E721F420F3
:102440000CF0BAFF00232CA2FB21F4200CF0B4FF07
:1024500000232BA2E72128460CF0AEFF00232AA27E
:10246000FB2128460CF0A8FF002325A2E7212046E7
:102470000CF0A2FF2046BDE87040002324A2FB21FF
:102480000CF09ABFC400002038003100480D002035
:102490004D454153000000004449535000000000E6
:1024A00052455300434F4D500000000020564F4C02
:1024B000000000004348414E4E00000053454C4C84
:1024C000000000005359530053455455500000007C
:1024D00020B2E2C1BF00000020CFD4CABE0000007D
:1024E00020B5E7D7E800000020B1C8BDCF0000004C
:1024F00020B5E7D1B900000020D1A1D4F10000003F
:1025000020CFB5CDB300000020C9E8D6C30000003D
:1025100020D0C5CFA200000010B5044600F09EFBFD
:10252000504851496FF07F425CB3012C7ED102606C
:10253000416000234DA2E72154200CF03DFF002311
:102540004CA2FB2154200CF037FF00234BA2E721C3
:10255000A4200CF031FF00234AA2FB21A4200CF0A0
:102560002BFF4FF4CA74002348A2E72120460CF049
:1025700023FF20460023BDE8104046A2FB210CF0BB
:102580001BBF02604160454890F8C8144FF4A27424
:10259000002931D0002342A2E72154200CF00CFF87
:1025A000002341A2FB2154200CF006FF00233CA293
:1025B000E721A4200CF000FF00233DA2FB21A42072
:1025C0000CF0FAFE00233CA2E721F4200CF0F4FE0C
:1025D000002337A2FB21F4200CF0EEFE002338A2EA
:1025E000E72120460CF0E8FE20460023BDE810401D
:1025F00034A2FB210CF0E0BE002334A2E7215420DA
:102600000CF0DAFE002333A2FB2154200CF0D4FEA0
:1026100000232EA2E721A4200CF0CEFE00232FA23F
:10262000FB21A4200CF0C8FE002300E018E02DA23E
:10263000E721F4200CF0C0FE002328A2FB21F420A7
:102640000CF0BAFE002327A2E72120460CF0B4FECE
:1026500020460023BDE8104024A2FB210CF0ACBEB4
:1026600010BD0000C400002038003100CEC4BCFE04
:1026700000000000B9DCC0ED00000000B1A3B4E62A
:1026800000000000CAFDBEDD00000000B8FCB6E09E
:102690000000000020322F3200000000480D002012
:1026A0004D454153000000004449535000000000D4
:1026B000534554555000000020535953000000006A
:1026C00053595300494E464F00000000B2E2C1BFCB
:1026D00000000000CFD4CABE00000000C9E8D6C385
:1026E00000000000CFB5CDB300000000D0C5CFA2E0
:1026F0000000000070B5054600F0B0FA5C485D4A85
:102700006FF07F414FF4CA744DB3012D7ED101604B
:102710004260002358A2E72154200CF04DFE002314
:1027200057A2FB2154200CF047FE002356A2E721BC
:10273000A4200CF041FE002355A2FB21A4200CF0A4
:102740003BFE002354A2E72120460CF035FE204634
:10275000BDE87040002352A2FB210CF02DBE0160A9
:102760004260514890F8C8044FF4A27500283DD04B
:1027700000234EA2E72154200CF01EFE00234DA2A0
:10278000FB2154200CF018FE00234CA2E721A420CA
:102790000CF012FE00234AA2FB21A4200CF00CFE38
:1027A000002349A2E721F4200CF006FE002348A2F2
:1027B000FB21F4200CF000FE002347A2E72128466D
:1027C0000CF0FAFD002345A2FB2128460CF0F4FD95
:1027D000002341A2E72120460CF0EEFD2046BDE893
:1027E000704000233FA2FB210CF0E6BD00233FA276
:1027F000E72154200CF0E0FD00233EA2FB215420F1
:102800000CF0DAFD00233DA2E72100E02EE0A42039
:102810000CF0D2FD00233BA2FB21A4200CF0CCFD48
:1028200000233AA2E721F4200CF0C6FD002339A2D0
:10283000FB21F4200CF0C0FD002338A2E72128463C
:102840000CF0BAFD002337A2FB2128460CF0B4FDA2
:10285000002332A2E72120460CF0AEFD2046BDE861
:102860007040002331A2FB210CF0A6BD70BD00001A
:10287000C400002038003100CEC4BCFE00000000BF
:10288000B9DCC0ED00000000B1A3B4E60000000018
:10289000CAFDBEDD00000000B8FCB6E0000000008C
:1028A00020322F3200000000480D00204D454153DA
:1028B000000000004449535000000000564F4C00F7
:1028C000434F4D50000000004348414E00000000BF
:1028D00053454C4C45000000535953005345545543
:1028E00050000000494E464F00000000B2E2C1BF58
:1028F00000000000CFD4CABE00000000B5E7D1B987
:1029000000000000B1C8BDCF00000000CDA8B5C0D8
:1029100000000000D1A1D4F100000000CFB5CDB37C
:1029200000000000C9E8D6C300000000D0C5CFA257
:102930000000000070B5054600F090F95C485D4A63
:102940006FF07F414FF4CA744DB3012D7ED1016009
:102950004260002358A2E72154200CF02DFD0023F3
:1029600057A2FB2154200CF027FD002356A2E7219B
:10297000A4200CF021FD002355A2FB21A4200CF083
:102980001BFD002354A2E72120460CF015FD204634
:10299000BDE87040002352A2FB210CF00DBD016088
:1029A0004260514890F8C8044FF4A27500283DD009
:1029B00000234EA2E72154200CF0FEFC00234DA280
:1029C000FB2154200CF0F8FC00234CA2E721A420AA
:1029D0000CF0F2FC00234AA2FB21A4200CF0ECFC3A
:1029E000002349A2E721F4200CF0E6FC002348A2D2
:1029F000FB21F4200CF0E0FC002347A2E72128464D
:102A00000CF0DAFC002345A2FB2128460CF0D4FC94
:102A1000002341A2E72120460CF0CEFC2046BDE871
:102A2000704000233FA2FB210CF0C6BC00233FA254
:102A3000E72154200CF0C0FC00233EA2FB215420CF
:102A40000CF0BAFC00233DA2E72100E02EE0A42018
:102A50000CF0B2FC00233BA2FB21A4200CF0ACFC48
:102A600000233AA2E721F4200CF0A6FC002339A2AF
:102A7000FB21F4200CF0A0FC002338A2E72128461B
:102A80000CF09AFC002337A2FB2128460CF094FCA2
:102A9000002332A2E72120460CF08EFC2046BDE840
:102AA0007040002331A2FB210CF086BC70BD0000F9
:102AB000C400002038003100CEC4BCFE000000007D
:102AC000B9DCC0ED00000000B1A3B4E600000000D6
:102AD000CAFDBEDD00000000B8FCB6E0000000004A
:102AE00020322F3200000000480D00204D45415398
:102AF00000000000444953500000000052455300BC
:102B0000434F4D50000000004348414E000000007C
:102B100053454C4C45000000535953005345545500
:102B200050000000494E464F00000000B2E2C1BF15
:102B300000000000CFD4CABE00000000B5E7D7E80F
:102B400000000000B1C8BDCF00000000CDA8B5C096
:102B500000000000D1A1D4F100000000CFB5CDB33A
:102B600000000000C9E8D6C300000000D0C5CFA215
:102B7000000000000FB410B59DF80800002812D026
:102B80009DF80800032807D99DF81010002306229D
:102B9000039801F0D5FF06E09DF8181000230722E6
:102BA000059801F0CDFF9DF808001A2110BC00EB3C
:102BB000C00001EB40010123034A4FF4A0705DF80F
:102BC00014EB0CF0F9BB0000A814002071B581B023
:102BD000002000901D4C48F28B6531E09DF80410F8
:102BE0000098401C814203D14FF47F01616000E0F6
:102BF000656000EBC0001A2606EB400081B212238C
:102C00005A22A02002F018FA11480099415C11489C
:102C1000009A00EBC200D0F8B4000023062201F0B5
:102C20008FFF00980123401C00EBC00006EB400022
:102C300081B2094AA0200CF0BFFB0098401C009014
:102C400000980528CAD365607CBD0000C400002040
:102C500060000020780B0020A81400202DE9F05F10
:102C60000024DFF878801E4EDFF878A000274FF0B0
:102C70004C094FF0010BC6F8048004EB4401A0009E
:102C800001EB041100EB810080B22C234C22E421E3
:102C900002F0D2F9C6F804A004EB84050BEB051092
:102CA00080B201234C22E32102F0C6F909EB0510A2
:102CB00080B22D230122E32102F0BEF977604D207E
:102CC00000EB051080B22D230322E32102F0B4F9BA
:102CD000641C062CCFD3BDE8F09F00003800310003
:102CE000C4000020684369002DE9F04F93B080468E
:102CF0000E46012012900C9000270B970A97099717
:102D0000089703970297049702970D974FF0200AB0
:102D10000FAD07E09DF8340005F800A09DF83400E1
:102D2000401C0D909DF834000728F3D38DF84370B4
:102D30000AB1072400E00624DFF8A4B34FF02E09FF
:102D400057E1022002F06CF80E909DF83800002840
:102D500046D001210C919DF838001228F8D00CDCE7
:102D600012283DD2DFE800F03C3C3C60D0C3B63CCA
:102D70003C3C3C5AA99C8F3C3C3D1A28E8D009DCDD
:102D8000A0F113000728ECD2DFE800F02A6E6154AE
:102D90002A2A0E001E2874D022DC1B28D8D01C281A
:102DA00070D01D281CD1C9E0049712979DF820000F
:102DB000A04214D29DF82C0088B99DF8200050B193
:102DC0009DF8200005F800909DF820000A909DF8DD
:102DD0002000401C08909DF82C00401C0B90059191
:102DE000EEE0049112979DF82000A04214D29DF8C5
:102DF0002C0088B99DF8200050B19DF8200005F8FE
:102E000000909DF820000A909DF82000401C08903A
:102E10009DF82C00401C0B900591D1E006208BF80A
:102E2000000012970597CBE01297059712208BF8B8
:102E30000000C5E09DF82000A04207D29DF82010B8
:102E4000312068549DF82000401C0890B8E09DF89F
:102E50002000A04207D29DF82010322068549DF82F
:102E60002000401C0890ABE09DF82000A04207D253
:102E70009DF82010332068549DF82000401C0890D5
:102E80009EE04EE077E09DF82000A04207D29DF83A
:102E90002010342068549DF82000401C08908FE0DA
:102EA0009DF82000A04207D29DF8201035206854DC
:102EB0009DF82000401C089082E09DF82000A04270
:102EC0007ED29DF82010362068549DF82000401CCA
:102ED000089075E09DF82000A04271D29DF8201066
:102EE000372068549DF82000401C089068E09DF849
:102EF0002000A04264D29DF82010382068549DF82C
:102F00002000401C08905BE09DF82000A04257D2B2
:102F10009DF82010392068549DF82000401C08902E
:102F20004EE09DF82000A0424AD29DF820103020AB
:102F300068549DF82000401C089041E09DF8200056
:102F4000A0423DD29DF8200040B39DF82C0028BB44
:102F50009DF8200050B19DF8200005F800909DF8E4
:102F600020000A909DF82000401C08909DF82C003D
:102F7000401C0B9024E09DF8200080B19DF82000BB
:102F8000401E08909DF8200005F800A09DF828003C
:102F90009DF82010884213D10B970A9710E09DF8F6
:102FA0002000285C78B39DF82000285C2D2830D0C4
:102FB0009DF820102D2068549DF82000401C08909A
:102FC0009DF83000A8B10C9746486FF07F41016032
:102FD0004FF47F014160B0887188103082B2308830
:102FE000102302F029F87188308800230FAA0CF012
:102FF000E3F99DF8480000287FF4A3AE9DF8200077
:103000000D90302011E0FFE79DF820102D2068542E
:10301000D2E79DF820102B206854CDE79DF834109E
:1030200068549DF83410491C0D919DF83410A1424C
:10303000F4D30D9734E09DF83C0030282CD39DF854
:103040003C00392828D89DF83400285C302823D348
:103050009DF83400285C39281ED89DF828009DF87A
:10306000341088420CD9029800EB80004000029096
:1030700002989DF83410695C0844303802900BE0E7
:10308000029800EB80004000029002989DF83410F6
:10309000695C0844303802909DF83400401C0D9063
:1030A0009DF83400A042C6D39DF8280003909DF8F7
:1030B000040088F800000298C8F804000398C8F8D3
:1030C00008000498C8F80C000598C8F81000069885
:1030D000C8F814000798C8F8180013B0BDE8F08FBE
:1030E00031000020C400002070B52A4E756848F2F7
:1030F0008B607060284C607803281BD0607860B1CA
:10310000012326A26C2130200CF0A6F9012323A272
:10311000A32130200CF0A0F918E000231FA25C21AD
:1031200020200CF099F900231CA2932120200CF000
:1031300093F90BE0002319A27C2140200CF03CF90C
:10314000002316A2B32140200CF036F91A210023E7
:1031500015A208010CF030F9002313A21A21E62071
:103160000CF02AF9FDF718FF0020FDF773FCFDF7BE
:1031700065FC16233C22B4214FF4C87001F05CFFBB
:10318000756094F841000A490978BDE8704000F084
:1031900061B80000C4000020780B00202D2D2D2DDB
:1031A0002D2D2D2D000000002020202020200000AB
:1031B0003300002008B513496FF07F4008601248C3
:1031C00041794FF4967000290BD0012911D00229C2
:1031D00006D10E490091372328225C2102F0BAFA69
:1031E00008BD0B490091372328225C2102F0B2FA76
:1031F00008BD08490091372328225C2102F0AAFA71
:1032000008BD0000C40000206C000020FE6C070810
:10321000377007089675070818B50B496FF07F409F
:1032200008600A484FF4AA740090372328225C21D2
:10323000204602F08FFA0649009137232822932175
:10324000204602F087FA18BDC400002070730708FA
:10325000F57A0708012800D90120062900D906219E
:103260000A4B48F28B625A60C0EBC000084A00EB80
:10327000400002EB800001EB410100EB81020023E2
:10328000D22140F29F100CF097B80000C40000203B
:10329000B436010830B595B004460D4601F0AAF8E1
:1032A000012229466846FFF71FFD9DF800008DF8B2
:1032B000380001980F90029810900398119004988C
:1032C000129005981390069814900EA9684601F084
:1032D0009FFC9DF800008DF81C0001980890029852
:1032E000099003980A9004980B9005980C90069802
:1032F0000D900B9818B90020099008900A909DF83D
:103300001C002070089860600998A0600A98E0602E
:103310000B9820610C9860610D98A06115B030BDCC
:1033200030B595B004460D4601F07CF800222946E0
:103330006846FFF7D9FC9DF800008DF83800019829
:103340000F9002981090039811900498129005988D
:103350001390069814900EA9684608F05BF99DF842
:1033600000008DF81C0001980890029809900398BD
:103370000A9004980B9005980C9006980D900B9865
:1033800018B90020099008900A909DF81C00207040
:10339000089860600998A0600A98E0600B98206126
:1033A0000C9860610D98A06115B030BD2DE9F04713
:1033B0000024DFF88880224F1A264FF4947908EB16
:1033C000040090F8DD0498B14FF47F40386004EBBE
:1033D000840006EB80010D4600231AA21E200BF08C
:1033E000EBFF294600231AA248460BF0E5FF1EE03A
:1033F0001848386004EB840006EB8005002316A211
:1034000029461E200BF0D8FF2946002310A248466B
:103410000BF0D2FF2946002312A26E200BF0CCFF46
:10342000294600230FA24FF4A3700BF0C5FF641CC4
:10343000E4B20A2CC3D3BDE8F0870000480D002099
:10344000C40000204F50454E2020523A000000009A
:10345000563A0000C0C0C000434C4F534520523A7A
:10346000000000002D2D2D2D2D2D2D2D2D2D2D2D40
:103470002D2D2D0070B500F0A1F81E4C6FF07F458A
:1034800025601D4860601D4E96F8C80408B11C4AAE
:1034900001E01B4AF23A0023DC32042118460BF00B
:1034A0008BFF256048F28B60606096F8C80408B115
:1034B000144D01E0134D543D00241A26C4EBC40002
:1034C00000EB4000421904EB840006EB800081B25F
:1034D000002318460BF070FF641C042CEED300236D
:1034E000094A562152200BF067FFBDE87040FEF7F5
:1034F00037BF0000C40000200352F300480D002035
:10350000B030010860360108C013002070B50024F7
:103510001825601C00EB800005EB800081B20123C0
:1035200064225A2001F088FD641C072CF1D370BD81
:103530002DE9F04100F042F81B4E6FF07F473760F5
:103540001A4870601A4C94F8C80408B1194A01E08E
:10355000184AF23A0023B032042118460BF02CFF2F
:10356000376048F28B60706094F8C80408B1124D5F
:1035700001E0114D583D00244FF01A0804EB4400BF
:1035800000EBC400421904EB840008EB800081B218
:10359000002318460BF010FF641C082CEED3776054
:1035A000BDE8F041FFF7B2BFC40000200352F300B2
:1035B000480D0020B03001085C35010810B500F05E
:1035C00093FEBDE81040FFF749BB00002DE9FF5F07
:1035D000044600278DF80770012C0AD000200290C5
:1035E000FA4D02984FF47F0648F28B6B18B16E606B
:1035F00003E00120F3E7C5F804B0DFF8D48398F8BE
:10360000C80410B1DFF8CC9303E0DFF8C893A9F148
:103610003A09102366221A215A2001F00DFD98F86C
:10362000C4040023C0EBC00000EB09021C215A2097
:103630000BF0C2FE022C05D000200290029818B1B7
:103640006E6003E00120F8E7C5F804B0102366229D
:103650002E215A2001F0F0FC98F8C504DFF8789389
:10366000C0EBC00000EB0902002330215A200BF010
:10367000A3FE032C05D000200290029818B16E60C2
:1036800003E00120F8E7C5F804B098F8C80410B1C9
:10369000DFF840A303E0DFF83CA3AAF13A0A1023C5
:1036A000662242215A2001F0C7FC98F8C604002384
:1036B000C0EBC00000EB0A0244215A200BF07CFE54
:1036C000042C05D000200290029818B16E6003E02F
:1036D0000120F8E7C5F804B098F8C80410B1DFF885
:1036E000F4A203E0DFF8ECA2AAF13A0A1023662262
:1036F00056215A2001F0A0FC98F8C7040023C0EB23
:10370000C00000EB0A0258215A200BF055FE052C90
:1037100005D000200290029818B16E6003E00120ED
:10372000F8E7C5F804B0102366226A215A2001F098
:1037300083FC98F8C804DFF8A0A200230AF1380A35
:103740000AEBC0026C215A200BF036FE01A90020C2
:1037500002F080FF6946002002F04AFF062C05D0E7
:1037600000200290029818B16E6003E00120F8E793
:10377000C5F804B0102312227E215A2001F05CFC0F
:103780009DF8032095A196480BF0B8FE0023944ABB
:1037900080215A200BF010FEC5F804B0002391A23E
:1037A00080216E200BF008FE072C05D0002002902F
:1037B000029818B16E6003E00120F8E7C5F804B084
:1037C000102312227E21782001F036FC9DF8012082
:1037D00082A183480BF092FE0023814A8021782049
:1037E0000BF0EAFDC5F804B000237EA280218C20F6
:1037F0000BF0E2FD082C05D000200290029818B1D1
:103800006E6003E00120F8E7C5F804B0102312222F
:103810007E21982001F010FC9DF802206FA17048D5
:103820000BF06CFE00236E4A802198200BF0C4FD43
:10383000092C05D000200290029818B16E6003E0B8
:103840000120F8E7C5F804B01023122292215A2073
:1038500001F0F2FB9DF8042060A161480BF04EFEE0
:1038600000235F4A94215A200BF0A6FDC5F804B04E
:1038700000235DA294216E200BF09EFD0A2C05D042
:1038800000200290029818B16E6003E00120F8E772
:10389000C5F804B0102312229221782001F0CCFB4D
:1038A0009DF805204DA14E480BF028FE00234C4A00
:1038B000942178200BF080FDC5F804B000234AA2C3
:1038C00094218C200BF078FD0B2C05D00020029069
:1038D000029818B16E6003E00120F8E7C5F804B063
:1038E000102312229221982001F0A6FB9DF80620B9
:1038F0003AA13B480BF002FE0023394A942198205C
:103900000BF05AFD0C2C05D000200290029818B143
:103910006E6003E00120F8E7C5F804B010236622CA
:10392000A6215A2001F088FB0023304AA8215A2002
:103930000BF042FDFFF792F96FF07F4028602C48B2
:10394000686054250C2C09D2DFE804F0060A2854DC
:103950007290A5A5A5A5A5A5FEF702FDBDE8FF9F50
:1039600098F8C80408B11B4C01E01A4C3A3C039784
:1039700010E003980023C0EBC00002190398F12166
:1039800000EB800005EB001080B20BF015FD0398F2
:10399000401C039003980228EBD3DFE7039711E064
:1039A00003980023C0EBC00000EB09020398F1214B
:1039B00000EB800005EB001080B20BF0FDFC0398DB
:1039C000401C039003980528EAD3C7E7C4000020F1
:1039D000480D0020D8330108B435010825326400B1
:1039E000A81400202D0000003A0000001112002051
:1039F0003800310098F8C80408B1324C01E0314C6D
:103A00003A3C039710E003980023C0EBC000021972
:103A10000398F12100EB800005EB001080B20BF061
:103A2000CBFC0398401C039003980228EBD395E746
:103A300098F8C80408B1234C01E0224C3A3C0397A3
:103A400010E003980023C0EBC00002190398F12195
:103A500000EB800005EB001080B20BF0ADFC03988A
:103A6000401C039003980228EBD377E703970EE0FE
:103A7000039800230AEBC00200EB800005EB001066
:103A800080B2F1210BF098FC0398401C039003983E
:103A90000228EDD362E703970B4C0EE00398002356
:103AA00004EBC00200EB800005EB001080B2F121B6
:103AB0000BF082FC0398401C039003980228EDD37E
:103AC0004CE70000D8330108FC35010810B500F0C0
:103AD0000BFCBDE81040FFF7C1B810B500F004FCC6
:103AE000BDE81040FFF7BAB870B5FFF7EFFF194C0B
:103AF0006FF07F45256018486060184E96F8C8043E
:103B000008B1174A01E0164AF23A00230421184688
:103B10000BF052FC256048F28B606060F07898B141
:103B20000024104D1A2604EB4400421904EB8400D3
:103B300006EB800081B2002302200BF03DFC641CE8
:103B40000A2CF0D3FFF732FCBDE870400020FEF7EE
:103B5000E3BC0000C40000200352F300480D002025
:103B6000B03001085C3701082DE9F047FFF7B5FFD9
:103B7000414C6FF07F45256040486060404E96F8AC
:103B8000C80408B13F4A01E03E4AF23A0023163227
:103B9000042118460BF010FC256048F28B60606031
:103BA00096F8C804307B384A4FF482791A2770B3EC
:103BB0000024904604EB440000EB080204EB840070
:103BC00007EB8005A9B2002302200BF0F5FB96F865
:103BD000C80460B1A9B200232CA220200BF0ECFB9A
:103BE000A9B200232BA248460BF0E6FB0BE0A9B2DA
:103BF00000232AA248460BF0DFFBA9B200232AA229
:103C000020200BF0D9FB641C0A2CD3D321E0FFE762
:103C10003946002302200BF0CFFB96F8C80460B1B0
:103C200000231AA2394620200BF0C6FB002319A25C
:103C3000394648460BF0C0FB0BE000231AA2394678
:103C400020200BF0B9FB002314A2394648460BF0A4
:103C5000B3FB96F8C80438B1BDE8F047002304214F
:103C600014A2E6200BF0A8BBBDE8F0470023042116
:103C700013A2E6200BF0A0BBC40000200352F30007
:103C8000480D0020B03001085C37010848495F52F8
:103C9000455300004C4F5F5245530000B5E7D7E84D
:103CA000CFC2CFDE00000000B5E7D7E8C9CFCFDE36
:103CB00000000000434F4D504D4F44453A00000076
:103CC000B1C8BDCFB7BDCABD3A0000002DE9F0476D
:103CD000FFF703FF414C6FF07F452560404860606F
:103CE000404E96F8C80408B13F4A01E03E4AF23A15
:103CF00000232C32042118460BF05EFB256048F2AD
:103D00008B60606096F8C80496F84002374A4FF41A
:103D100082791A2770B30024904604EB440000EB2C
:103D2000080204EB840007EB8005A9B200230220FF
:103D30000BF042FB96F8C80460B1A9B200232CA294
:103D400020200BF039FBA9B200232CA248460BF02F
:103D500033FB0BE0A9B200232AA220200BF02CFB9E
:103D6000A9B200232AA248460BF026FB641C0A2CA9
:103D7000D3D320E03946002302200BF01DFB96F838
:103D8000C80460B100231AA2394620200BF014FBAE
:103D900000231AA2394648460BF00EFB0BE0002325
:103DA00018A2394620200BF007FB002318A2394641
:103DB00048460BF001FB96F8C80438B1BDE8F0475F
:103DC0000023042115A2E6200BF0F6BABDE8F04767
:103DD0000023042114A2E6200BF0EEBAC400002058
:103DE0000352F300480D0020B03001085C37010891
:103DF000564F4C5F4849474800000000564F4C5F03
:103E00004C4F5700B5E7D1B9C9CFCFDE0000000055
:103E1000B5E7D1B9CFC2CFDE00000000434F4D500F
:103E20004D4F44453A000000B1C8BDCFB7BDCABD33
:103E30003A0000002DE9F041FFF74FFEFFF74DFE7D
:103E40002B4E6FF07F4434602A4870602A4D95F8FD
:103E5000C80408B1294A01E0284AF23A002358323E
:103E6000042118460BF0A8FA346048F28B6777609B
:103E700095F8C80408B1224D01E0214DC63D00244B
:103E80004FF01A08092C14D2E01E052801D27760E1
:103E900000E0776004EB440000EBC400421904EB3F
:103EA000840008EB800081B2002318460BF084FAEE
:103EB00016E0A4F10C00052801D2776000E07760DD
:103EC00004EB440000EBC4004219A4F1090000EB2C
:103ED000800008EB800081B20023FA200BF06CFA1E
:103EE000641C122CCED3BDE8F041FEF761B900008E
:103EF000C40000200352F300480D0020B030010838
:103F0000683201082DE9F041FFF7E7FD3A4C6FF008
:103F10007F45256039486060394E96F8C80408B17D
:103F2000384A01E0374AF23A002342320421184667
:103F30000BF042FA256048F28B60606096F8C80486
:103F400096F8E704304A1A2568B30024174604EBB4
:103F50004400C21904EB840005EB800081B2002309
:103F600002200BF029FA641C0A2CF0D3002496F8E6
:103F7000C80450B104EB840005EB800081B200233B
:103F800022A220200BF018FA09E004EB840005EBD4
:103F9000800081B200231FA220200BF00DFA641CC8
:103FA0000A2CE4D314E02946002302200BF004FA83
:103FB00096F8C80430B12946002314A220200BF043
:103FC000FBF905E02946002312A220200BF0F4F9AA
:103FD00096F8C80438B1BDE8F041002304210FA2CF
:103FE000E6200BF0E9B9BDE8F041002304210EA260
:103FF000E6200BF0E1B90000C40000200352F300FA
:10400000480D0020B03001085C3701084348414E9C
:104010004E000000CDA8B5C0000000005345544D2F
:104020004F44453A00000000C9E8D6C3B7BDCABD39
:104030003A0000002DE9FF4F83B0039E0024DFF813
:104040007482002108F80410641CE4B2092CF9D32E
:10405000DFF864B29BF8070038B10BF025F9029045
:104060009648007808B9022002909BF8020010B12F
:1040700002F006FD01909BF80200914D01280FD03F
:104080006FF07F40286048F2E800864219D900248A
:104090002D2008F80400641CE4B2062CF9D317E0C4
:1040A0009DF804108748204480F8A0109DF8040073
:1040B00018B14FF47F002860E5E74FF47F40286097
:1040C000E1E79DF8101000230522304600F038FD8E
:1040D000DFF8F491D8F80010C9F80310B8F804001C
:1040E000A9F80700794F796138837948794940798F
:1040F00000EB400001EB400001887983807838773D
:10410000092078774FF0200A88F806A0724E71785F
:104110009DF8120003292BD0717839B1D8B1012351
:104120006EA26C2130200BF097F91AE030B1002319
:104130006AA25C2120200BF08FF905E0002368A221
:104140005C2120200BF088F900235A4A5C21402092
:104150000BF082F920E0012361A26C2130200BF0EA
:104160007BF90123534A6C2140200BF075F913E0D1
:1041700030B1002359A27C2140200BF01DF905E04D
:10418000002357A27C2140200BF016F90023494A56
:104190007C214A200BF010F99BF80700012830D051
:1041A0006FF07F4028609DF81810002306220598C4
:1041B00000F0C6FCD8F80000C9F80B00B8F80410ED
:1041C000A9F80F1098F8062089F8112047F81F0F5A
:1041D000B980BA715620F8710920387241A0008860
:1041E000F8811F3F70789DF81A4003283CD0707802
:1041F000C0B164B3012339A2A32130200BF02CF904
:104200002BE09DF808102F48204480F8AA109DF854
:10421000080018B14FF47F002860C4E74FF47F40D6
:104220002860C0E734B100232CA2932120200BF09A
:1042300013F905E000232AA2932120200BF00CF9AA
:1042400000231C4A932140200BF006F920E00123B3
:1042500023A2A32130200BF0FFF80123154AA3214C
:1042600040200BF0F9F813E034B100231BA2B32176
:1042700040200BF0A1F805E0002319A2B321402053
:104280000BF09AF800230B4AB3214A200BF094F864
:1042900024B189F80AA087F81EA003E02D2089F830
:1042A0000A00B8770A48407989F8090007B0BDE8E4
:1042B000F08F0000A8140020480D00202D000020E1
:1042C000C4000020F4130020E80A0020FD0A0020AA
:1042D0006C000020C6340108780B0020200000008C
:1042E0002D0000000D0A000005490448486016230F
:1042F000AA220021084600F09FBE00000352F300EE
:10430000C40000201EB5114C216801916168029122
:104310000F496160012812D04FF47F01022812D0AA
:1043200021600C48009018233022F1214FF4CA700C
:1043300001F010FA01982060029860601EBD4FF4F1
:104340007F402060EDE72160EBE70000C400002023
:10435000380031008C8D070870B500F043F81E4C12
:104360006FF07F4525601D48606000231C4A0421D2
:1043700018460BF021F8256048F28B60606000243D
:10438000174D4FF6FF76D63D04EB840000EBC400DA
:10439000421904EB840006EA401000231A210BF0B6
:1043A0000BF8641C032CEFD300240D4E1A25AF3EEE
:1043B00004EB840000EBC4008219601C00EBC00019
:1043C00005EB400081B2002318460AF0F5FF641C9B
:1043D000052CEDD370BD0000C40000200352F30093
:1043E0002C30010810B5FFF77FFFBDE81040FEF745
:1043F00035BC000010B5FEF731FC084806494160A5
:104400006FF07F4101600023F121BDE8104004A25C
:1044100054200AF0D1BF000038003100C400002051
:104420002056200010B5FEF719FC0B4809494160E1
:104430006FF07F410160002308A2F12154200AF0AF
:10444000BBFF0023F121BDE8104006A2A4200AF022
:10445000B3BF000038003100C4000020206DA6B8B2
:104460002020000020A6B8200000000000B58FB07A
:104470000EA9002002F0EEF80DA9002002F0B8F815
:104480009DF836309DF83A009DF839109DF8382097
:10449000CDE90210CDE900329DF835309DF8372086
:1044A0000DA105A80BF02AF815486FF07F410160B7
:1044B00048F28B614160002305AA0421FA200AF02A
:1044C0007BFF132205A90F48FBF78CFE0D4909203D
:1044D000C8740FB000BD0000323025302E32642D7C
:1044E00025302E32642D25302E32642025302E3298
:1044F000643A25302E32643A25302E3264000000B2
:10450000C4000020FD0A002010B54FF400542046DE
:1045100000F054F8002804D02046BDE8104000F018
:1045200047B810BD10B5082000F048F800281FD08B
:1045300010480CF0D4FA08210F4800F063FA90B943
:104540000E48002101700E480E4A012304781CB168
:1045500001700F20107002E00370022010700A49F1
:104560004FF400700860BDE81040082000F020B84B
:1045700010BD0000A0860100001002405A0000207B
:10458000390000203100002080E100E01CB54FF42C
:104590000050009000208DF8040001208DF80700E5
:1045A0006946024800F0E0F91CBD0000000402402A
:1045B0000149086070470000143C0140014600209A
:1045C000024A12680A4200D001207047143C0140A0
:1045D00030B51B4A83790168002B2AD013688B43BE
:1045E0001360111D0B680468A3430B60017911442B
:1045F0000B68046823430B60114C0834216803687E
:1046000099432160231D19680568A9431960417900
:10461000102905D011440A68006802430A6030BDC1
:10462000216802681143216019680068014319601C
:1046300030BD0079104402688A43026030BD00003A
:10464000003C01402DE9FF410121102001F042FE14
:104650000121880301F076FE01F0D9FB08260296BD
:1046600000248DF80C4001258DF80F5002A9144844
:1046700000F07AF90321042003F030F900968DF858
:1046800004400C268DF805608DF806506846FFF74B
:104690009FFF6F03029702A90A4800F065F90D21F8
:1046A000022003F01BF900978DF804408DF8056097
:1046B0008DF806506846FFF78BFFBDE8FF810000CC
:1046C000001002400008024000224FF02043102852
:1046D0000AD0B0F5807F09D0B0F5805F09D0D3F85B
:1046E0005801814309D107E0586EFAE7D3F88400F6
:1046F000F7E7D3F8A400F4E7012210467047000062
:10470000D0E9001211438268C068521E520142EA89
:10471000402001430148016070470000500100A0A3
:1047200070B50468A100A1F1C041D1F84011CE0BD1
:10473000F603D0E901121143D0E903231A431143D0
:104740004269C36911438269056A11431943426A88
:104750002943114331434FF02046002C3CD0D6F87A
:1047600040416FF30E042B4322431343C6F84031FC
:1047700002689200A2F1C042C2F84011016871B310
:104780008900A1F1C041D1F8481101F07043816A5C
:104790000A684C68521E641E42EA04148A68521E5B
:1047A00044EA02240A8A521E44EA02421A43D6F814
:1047B000483103F07043CC68898A641E2403491E83
:1047C00044EA01511943C6F8481100688000A0F17D
:1047D000C040C0F8482170BDC6F84011CEE7FFE7E1
:1047E000D6F8481101F07041806A02684368521E91
:1047F0005B1E42EA03138268521E43EA0223C26828
:10480000521E43EA0233028A521E43EA0243828A5C
:10481000007E521E43EA0252401E42EA00600843F4
:10482000C6F8480170BD000002490A6842EA40002B
:1048300008607047540100A02DE9FC5F012140F29F
:10484000A71001F047FD2E20009002268DF805608C
:1048500001248DF8044000258DF806508DF807409E
:1048600069463C4800F080F80E213A4800F0D3F841
:1048700020270097DFF8E0806946404600F074F892
:104880002021404600F0C5F84FF04008CDF80080E8
:10489000DFF8C8906946484600F066F80097694618
:1048A000484600F061F82021484600F0B2F88DF843
:1048B00004508DF807504FF4005ACDF800A0DFF8EF
:1048C000A0B06946584600F04FF8082700978DF8C9
:1048D00005608DF804408DF806508DF80740694654
:1048E000484600F041F8CDF800808DF805608DF85D
:1048F00004408DF806508DF807406946154800F0D1
:1049000033F800978DF805608DF804408DF8065057
:104910008DF807406946584600F026F8CDF800A00B
:104920008DF805608DF804408DF806508DF807402D
:1049300069460C4800F018F801F02CF8FCF7E2F892
:104940000AF00EFD01F0D0FA01F0E8FA02F070FD75
:10495000BDE8FC9F00080240001C0240002002400D
:1049600000040240000002402DE9F041002201272E
:104970004FF0030C07FA02F50B682B40AB422CD129
:10498000066853000CFA03F4A64306600E79D0F8CB
:1049900000809E4046EA080606600E79012E01D08E
:1049A000022E12D18668A64386604E79D0F8088020
:1049B0009E4046EA080686604668AE434660456803
:1049C0008E799640B6B235434560C568A543C5604B
:1049D000CC799C40C3681C43C460521C102AC9D3C4
:1049E000BDE8F08110B54B07DB0E9A40C90800EB1B
:1049F0008100016A0F249C40A1430162016A1143B6
:104A0000016210BD0246002012690A4200D0012056
:104A1000704741837047018370470000034A203983
:104A200002EB01111022FBF7DDBB00009C87070899
:104A30000349085C002801D000207047012070471E
:104A40003D0000204069806880B27047D0F8CC00FB
:104A50000068C0F341407047084490F89B037047DA
:104A600000EB8100D0F85003704710B504460022D7
:104A70000023C4F8103304EB8200C0F81433C0F8EC
:104A80005033A01880F88C33521CD2B20F2AF2D3C4
:104A90000820A4F8B203204608F0BCFE204608F027
:104AA0004BFC204608F06CFB0121204608F014FF67
:104AB000204608F0B9FB204608F078FC002010BD25
:104AC000D0F81003704710B508F08DFE002010BD1F
:104AD0000022431883F89B2300EB4113C3F8C02343
:104AE00008F0BABD2DE9F0410546134F4FF480762A
:104AF00031463846FFF78DFF00244FF480582806D2
:104B000004D541463846FFF786FF03E04146384664
:104B1000FFF77FFF31463846FFF77DFF0AF0D8FCEC
:104B200031463846FFF775FF6806050E641CE4B28F
:104B3000082CE4D3BDE8F08100080240FEE7000045
:104B40002DE9F041082A00D9082202B901220729DB
:104B500000D90721914200D911460024224E202776
:104B60003755641CE4B2142CFAD314460A250DE020
:104B7000B0FBF5FC05FB1C0C06EB04080CF1300C3B
:104B800008F801CCB0FBF5F0641EE4B2002CEFD1C4
:104B900069B110460C4605E0351815F8015C35542E
:104BA000401EC0B2641EE4B2F6D22E24345473B94F
:104BB0000020531E09E0345C302C08D1341864788E
:104BC0002E2C04D03754401CC0B29842F3DB09B1FC
:104BD000521CD2B2002002E0B054521CD2B2142AAD
:104BE000FAD3BDE8F0810000A814002006494FF474
:104BF0008C70002201E001F8012B401E80B2FAD235
:104C00000248027070470000780B0020300000203E
:104C100070B505462DED048B0C466068DFED340A57
:104C200000EE100AB8EE400A20EE209AA068C0F10B
:104C30000700FBF7FFFB41EC110B9FED2E0B0AF079
:104C40008BFCB0EE408AF0EE608A19EE100AFBF79A
:104C5000FEFB53EC182BFBF77EFBFBF70BFC00EE87
:104C6000100A264910EE100A884201DD9FED240A41
:104C7000244910EE100A88420BDB0320A060DFED10
:104C8000220A80EE201AFCEEC10A10EE900A606043
:104C900017E010EE100A1D4988420BDB0420A060CB
:104CA000F2EE040A80EE201AFCEEC10A10EE900A21
:104CB000606006E00520A060FCEEC00A10EE900ADD
:104CC0006060BCEEC00A10EE100AA0612078287067
:104CD00060686860A068A860E068E8602069286192
:104CE00060696861A069A861BDEC048B70BD0000BB
:104CF000002474490000000000002440001B374BD2
:104D0000001B374B8096184B0000C84200247449A2
:104D10002DE9F05FFF250020FFF7E4FEDFF8D0A0CB
:104D20004FF4006949465046FFF76CFEDFF8C48037
:104D30004FF4806B00B359464046FFF763FEE8B17D
:104D400049464046FFF75EFED0B104212A48FFF7EE
:104D500059FEB8B10426042E40D20024274F385DF6
:104D6000FFF7C0FE0AF0B4FB76B1012E13D0022E7D
:104D700018D0032E23D11CE00026ECE70126EAE739
:104D80000226E8E70326E6E749465046FFF73AFEE3
:104D9000A8B9254613E059464046FFF733FE70B9DF
:104DA00025460CE049464046FFF72CFE38B925461B
:104DB00005E004211048FFF725FE00B92546FF2D28
:104DC00003D1641CE4B2082CC9D3FF2D04D005EB39
:104DD000C600C0B2BDE8F09F0020FBE74FF40051D1
:104DE0000548FFF70FFE08B10020F3E71F20F1E7A9
:104DF0000020024000080240000C0240A2310708D7
:104E000010B5064C6078002805D00020607000F0D6
:104E100055F8207810BD002010BD0000AC00002027
:104E200010B50146002002F0E7FD064C0020FFF718
:104E3000FFFD10B960780028F8D0BDE81040FFF7FA
:104E4000DFBF0000AC00002070B5FFF761FF1A4C17
:104E500000230125E21CD0B12178814228D161785C
:104E6000652901D2491C6170617864291BD00DD974
:104E700010709570A07800F10100C0B2A0700E28EB
:104E800004D9A3705078002800D1557070BD2078E7
:104E900028B16178091F602901D210705570237004
:104EA0006370937070BDA37010705570957070BD75
:104EB0002070637070BD0000A900002010B5FBF7E2
:104EC000C3FD4FF47A700BF00AFEBDE81040FBF70B
:104ED000B5BD00007CB501214FF4867001F0FAF9F0
:104EE0004FF49850009002208DF8050001208DF8B5
:104EF000040000248DF806408DF80700134D694624
:104F00002846FFF731FD69152846FFF784FD4FF469
:104F1000406100918DF8044069462846FFF724FD62
:104F2000E814009069460A48FFF71EFD042000902F
:104F300069460848FFF718FD0748047044708470FC
:104F4000C01E0470447084707CBD000000080240E4
:104F500000200240000C0240AC00002010B50023ED
:104F60001C4C2468002C06D0012C0DD0022C17D02C
:104F7000032C1ED023E000EB4003C1EB011000EB3B
:104F8000400003EB40131AE0A1F20F11C0F5F070DE
:104F9000A1EB011100EB4110401E00EB40030EE0BD
:104FA000A0F20F10A0EB001001EB401000EB40034B
:104FB00005E000EB0010C1EB001303F20F130648ED
:104FC000834205D205488068C2521844110C817092
:104FD00010BD00005400002000FA0500B0000020C1
:104FE00070B58AB0C0F30744C0F30725C6B2FCF71A
:104FF00091F84FF440300090012001900494039503
:1050000002960F2005900B488068069000200790BC
:105010004FF4887008904FF4F07009906846FCF7E0
:105020008FF8FCF7E9F80220FCF780F80028FAD0A6
:105030000AB070BDB00000202DE9F04F8BB03B4CA2
:105040006468C4F3074704F0FF09C4F30728384C29
:10505000DFF8D8A0C2F5F076AAF1140A2568DAF8CC
:105060000840002D37D0C3F5887C012D3ED0022D9D
:105070004CD000EB0010C3EB0010401A00F5887014
:1050800000EB400005191FFA8CF614469B46FCF70E
:1050900041F84FF44030019001200290CDF810808B
:1050A000CDF80C900597FF20069007950896099477
:1050B000CDF828B001A8FCF743F8FCF79DF80220D2
:1050C000FCF734F80028FAD0DAF8000000F0B4FA5F
:1050D0000BB0BDE8F08FC1EB011100EB411000EB0C
:1050E00040000519B6B21C469346D0E7ACEB01016F
:1050F000C1EB0111C0EB4110801A00F5F07000EB1C
:1051000040000519B6B21C469346C0E7C0F588704A
:10511000801AC0EB001001EB401000EB40000519B5
:10512000C3F5F07086B214469B46B0E7C400002079
:10513000540000202DE9F0438BB09046994600249E
:105140002E4A1568002D0CD0C1EB011200EB42165F
:105150002B4A012D97680DD0022D11D0032D18D0A8
:105160001AE000EB4002C1EB011000EB400002EB43
:10517000401411E0A6EB86002249384444180BE0A5
:10518000A0F20F10A0EB001001EB401000EB400468
:1051900002E006EB4600C419194814300068C0F359
:1051A0000745C6B2C0F30727FBF7B4FF4FF4403002
:1051B0000190012002900497039605950F21069116
:1051C0000794B9F1000F12D040F2DF110891CDF829
:1051D00024800A9001A8FBF7B3FFFCF70DF802202A
:1051E000FBF7A4FF0028FAD00BB0BDE8F083002144
:1051F00008910990CDF82880ECE7000054000020C9
:10520000B000002000FA05002DE9FC5F012140F20A
:10521000FF1001F05FF84FF00408CDF80080032084
:105220008DF8050002208DF8040000208DF806009E
:105230008DF807006946AB48FFF796FB0E22022166
:10524000A848FFF7CFFB4FF00809CDF8009069465A
:10525000A448FFF789FB0E220321A248FFF7C2FBF7
:105260004FF4807ACDF800A069469E48FFF77CFB9A
:105270000E2208219B48FFF7B5FB012400946946E4
:105280009948FFF771FB092200219748FFF7AAFB15
:105290004FF4006BCDF800B069469448FFF764FB0B
:1052A0000E220B219148FFF79DFB200300906946D9
:1052B0008E48FFF759FB0E220C218C48FFF792FB1A
:1052C0000220009069468848FFF74EFB0922012121
:1052D0008548FFF787FB4025009569468448FFF71E
:1052E00043FB0E2206218248FFF77CFB2020009022
:1052F00069468048FFF738FB0E2205217D48FFF7FD
:1053000071FB009569467B48FFF72EFB0E220621B4
:105310007848FFF767FB6003009069467148FFF724
:1053200023FB0E220D216F48FFF75CFBA6020096BF
:1053300069466F48FFF718FB09220A216C48FFF7FE
:1053400051FBE003009069466648FFF70DFB0E2213
:105350000F216448FFF746FB009469466648FFF753
:1053600003FB0E2200216448FFF73CFB80270097D7
:1053700069466248FFF7F8FA0E2207215F48FFF7F7
:1053800031FBCDF8008069465B48FFF7EDFA0E224D
:1053900002215948FFF726FB4FF01008CDF8008096
:1053A00069465448FFF7E0FA0E2204215148FFF7FE
:1053B00019FB2003009069464D48FFF7D5FA0E22ED
:1053C0000C214B48FFF70EFB00954D4D69462846D2
:1053D000FFF7CAFA0E2206212846FFF703FBCDF895
:1053E00000B069464248FFF7BFFA0E220B21404841
:1053F000FFF7F8FACDF8008069463F48FFF7B4FAA6
:105400000E2204213C48FFF7EDFACDF800906946E2
:105410003648FFF7A9FA0E2203213448FFF7E2FAD3
:10542000CDF800A069463048FFF79EFA0E22082109
:105430002D48FFF7D7FA4FF40079CDF80090694670
:105440002948FFF791FA0E2209212748FFF7CAFAE7
:10545000009769462648FFF787FA0E22072124485D
:10546000FFF7C0FA009669462348FFF77DFA0E223F
:105470000A212148FFF7B6FACDF8009069461E4888
:10548000FFF772FA0E2209211B48FFF7ABFA0096CC
:105490001C4E69463046FFF767FA0E220A21304655
:1054A000FFF7A0FACDF8008002208DF805008DF8F6
:1054B000044000208DF806008DF807406946284614
:1054C000FFF752FA009769462846FFF74DFA102178
:1054D0002846FFF7A0FA80212846FFF79CFABDE88E
:1054E000FC9F0000001C024000040240000002403B
:1054F0000018024000100240002002400008024054
:10550000000C02400014024000B58FB00121880653
:1055100000F018FF0121C80500F0DCFEFFF774FE63
:1055200001F0F4FE062207214FF4967000F0A6FF6A
:105530004FF4803000F092FF012000F099FF3D20F1
:1055400000F060FF0028FAD0002000900190029047
:1055500003900C900D900E90049005902E200690D4
:105560001720079040F20E20089040F22710099073
:105570004FF409700A9040F23D100B90684600F01D
:1055800037F9012000F024F90FB000BD10B590B03C
:105590002F20009040F20E2001901820029040F23F
:1055A0002710039001200490FF200590069007909B
:1055B0000890099007200B9040F2A3500D90C01E58
:1055C0000E904FF488700F900C480C904FF4C06010
:1055D0000A900B4C6946204600F06CF9012000F05F
:1055E000B5F90121204600F059F9012000F0AEF98B
:1055F000044800F009F810B010BD000000FA05D012
:1056000004690140CC000020014908617047000096
:10561000B00000200649002804D006488860012018
:10562000C86070474FF0504088600020C8607047E5
:10563000B000002000FA05D0014908607047000062
:10564000B000002010B50949C968002908D00146FA
:10565000074800F021F9BDE81040012000F076B9BC
:1056600001460348803800F017F9F4E7B000002045
:10567000046901402DE9F04F044688462546334928
:1056800002EB0210DFF8C8A001EB4009002B0FD09D
:10569000002709EB070090F802B000265FEA0B60D4
:1056A00035D541462046DAF80020FFF757FC34E0B4
:1056B0004FF0000B09EB0B0087780026380606D563
:1056C00041462046DAF80020FFF748FC05E0414655
:1056D0002046DAF80420FFF741FC7806070E641C28
:1056E000A4B2601B10280CD0761CF6B2082EE5D3AD
:1056F0000BF1010B0BF0FF0BBBF1200FDAD3BDE870
:10570000F08F2C4608F101081FFA88F8F0E74146AF
:105710002046DAF80420FFF721FC4FEA4B604FEAFD
:10572000106B641CA4B2601B102808D0761CF6B263
:10573000082EB3D37F1CFFB2202FAAD3DFE72C465D
:1057400008F101081FFA88F8F4E70000AA310708F9
:10575000C40000202DE9F84F04468B469246A0462F
:1057600000270AFB03F0C11700EB5170DFF85C90D3
:10577000009025E00A98C65D0025300606D55946FA
:105780002046D9F80020FFF7E9FB05E059462046FE
:10579000D9F80420FFF7E2FB7006060E641CA4B2E1
:1057A000A4EB0800504505D144460BF1010B1FFA4C
:1057B0008BFB03E06D1CEDB2082DDED37F1CBFB266
:1057C0000098B7EBE00FD5DBBDE8F88FC4000020F0
:1057D0000649002804D0086840F0010008607047BE
:1057E000086820F001000860704700001868014058
:1057F00030B5264A136826490B401360038A1B0400
:10580000146845692C431C431460121D13680B4037
:105810001360038B1B041468C5692C431C4314607C
:10582000121D13680B401360038C1B041468456A37
:105830002C431C431460121D13680B401360018D30
:1058400009041368C46A23430B431360111D0A68DB
:10585000104B1A400A60D0E900231A43D0E9023401
:1058600023431A430B681A430A60416B0A02018EF4
:105870000B04064924310C6804F07F440C600C686A
:10588000806B134304431C430C6030BD0868014027
:1058900000F800F08F88FE0F41617047002904D0A6
:1058A000016841F0010101607047016821F00101C8
:1058B0000160704770B58A881204436803F470432E
:1058C00043600B68134343608A891204836803F4BE
:1058D000704383608B6813438360026922F0070280
:1058E00002610A690261CA6913020A8C120491F802
:1058F000244024068569002585618E6922431E4364
:1059000016438661426922F0FF0242614A694261A0
:10591000C26940F207739A43C261D1E90A231A436C
:10592000C261826A85620A6B82620A8F1204C36A4C
:1059300003F0E023C3624B6B1343C362026B6FF34C
:105940000A020263C96B016370BD0000014908606F
:10595000704700002468014010B54FF48061094889
:10596000FFF759F84FF400510748FFF754F80421A6
:105970000648FFF74EF8BDE8104001210448FFF744
:1059800048B80000001C024000080240001002401D
:10599000000002407CB50121BF2000F09BFC0420E8
:1059A000009000248DF8054001258DF804508DF8F5
:1059B00006408DF8075069460C48FEF7D5FF4FF4B6
:1059C000B840009069460A48FEF7CEFF8DF80540C2
:1059D0008DF804508DF806408DF80750082000908F
:1059E00069460448FEF7C0FF7CBD0000001002407D
:1059F000001C0240000C024010B504210948FFF7CA
:105A00000AF801210848FFF706F84FF480610748BB
:105A1000FEF7FFFFBDE810404FF400510448FEF7C9
:105A2000F8BF00000010024000000240001C0240CD
:105A3000000802404FF400610148FEF7EABF000091
:105A4000001C02404FF400610148FEF7E4BF000073
:105A5000001C02402DE9F047CCB0324D002085F803
:105A6000A10095F89E004FF003094FF0020A0DF1D6
:105A70000408082802D085F8A1901FE0A81CFAF7B6
:105A80008FFF0746281DFAF78BFF00EB40004FF60B
:105A9000FF7101EA4006962E02D985F8A1900DE02B
:105AA000002409E008EB4401384600F07FF8A8B173
:105AB0007F1CBFB2641CA4B2B442F3D395F8A1001A
:105AC00000282BD12878A87716496878C877700005
:105AD00085F8A29081F82000002117E085F8A1A0A8
