:020000040800F2
:1000000008820020C1010008EF5C00084D4A00088A
:10001000ED5C00086D0A0008B1E100080000000076
:1000200000000000000000000000000095770008BC
:10003000BD11000800000000A15E00082B8500082B
:10004000DB010008DB010008DB010008C9670008CC
:10005000DB010008DB010008DB010008DB01000810
:10006000DB010008B9440008DB010008DB010008DF
:10007000DB010008DB010008DB010008DB010008F0
:10008000DB010008DB010008DB010008DB010008E0
:10009000DB010008DB010008DB010008DB010008D0
:1000A000DB010008DB010008DB010008DB010008C0
:1000B00065860008DB010008DB010008DB010008A1
:1000C000DB010008DB010008DB010008DB010008A0
:1000D000DB010008DB010008DB010008C5B20008F5
:1000E0009D440008DB010008DB010008DB0100087B
:1000F000DB010008DB010008DB010008DB01000870
:10010000DB010008DB010008DB010008DB0100085F
:10011000DB010008DB01000879860008DB0100082C
:10012000DB010008DB010008DB010008DB0100083F
:10013000DB010008DB010008DB010008DB0100082F
:10014000DB010008DB010008DB010008DB0100081F
:10015000DB010008DB010008DB010008DB0100080F
:10016000DB010008DB010008DB010008DB010008FF
:10017000DB010008E55D0008DB010008DB01000889
:10018000DB010008DB010008DB010008DB010008DF
:10019000DB010008DB010008DB010008DB010008CF
:1001A000DB010008DB010008DB010008DFF80CD0F0
:1001B00000F000FB00480047791901080882002080
:1001C0000648804706480047FEE7FEE7FEE7FEE7F1
:1001D000FEE7FEE7FEE7FEE7FEE7FEE7098600082A
:1001E000AD01000840EA01039B0703D009E008C9FC
:1001F000121F08C0042AFAD203E011F8013B00F8EC
:10020000013B521EF9D27047D2B201E000F8012B37
:10021000491EFBD270470022F6E710B513460A4686
:1002200004461946FFF7F0FF204610BD421E12F8A3
:10023000013F002BFBD111F8013B02F8013B002BE1
:10024000F9D17047034611F8012B00F8012B002A61
:10025000F9D1184670472DE9FE4F81EA030404F0F6
:10026000004421F0004100944FF0000B23F00043C4
:1002700050EA01045ED052EA03045BD0C3F30A548F
:10028000C1F30A552C44A4F2F3340194A0FB0254A8
:10029000C1F3130141F48011C3F3130343F480133A
:1002A00001FB024400FB034E840A970A44EA81548E
:1002B00047EA8357A4FB076802958D0A05FB07856B
:1002C0004FEA932C04FB0C542705029D4FEA065875
:1002D00047EA1637B5EB08056EEB070C870E920E52
:1002E00047EA811742EA8312A7FB0201B6EB0B0132
:1002F00064EB00042B0D43EA0C335E1844EB1C50F6
:10030000DA465146E7FB0201C5F313044FEA0B330B
:1003100043EA14534FEA0432019C43EA0603A4F172
:100320000C040294009CCDE900B400F00DF903B078
:10033000BDE8F08F00200146F9E72DE9F04D81EA94
:10034000030404F0004B21F0004514464FF0000A6E
:1003500023F0004150EA050220D054EA01021DD0EA
:10036000C5F30A570246C5F31303C1F31300C1F3E3
:100370000A5640F4801543F48013A7EB0608101BBF
:10038000D64608F2FD3873EB050002D308F10108E8
:1003900001E092185B41B8F1000F03DA002001463A
:1003A000BDE8F08D00204FF48011064684460EE033
:1003B000171B73EB050705D3121B63EB05030643FD
:1003C0004CEA010C49084FEA300092185B4150EAB0
:1003D0000107EDD152EA030012D082EA040083EA59
:1003E0000501084305D0101BAB4106D201220023B2
:1003F00006E000224FF0004302E06FF001025310CC
:100400001AEB06004CEB085110EB0A0041EB0B0114
:10041000BDE8F04D00F089B80EB540F233410291CD
:100420000021CDE900110A460B4600F08DF803B01B
:1004300000BD00F0004230F000400AD0C10D01F5CF
:100440006071C0F3160042EA0151C208400711432F
:10045000704700200146704701F0004330B421F09E
:10046000004150EA010206D00A0DA2F56072C1F304
:100470001301002A02DC30BC00207047440F44EA1C
:10048000C104C100E01830BC00EBC25000F016B847
:1004900030B50B46014600202022012409E021FA54
:1004A00002F59D4205D303FA02F5491B04FA02F551
:1004B0002844151EA2F10102F1DC30BD0029A8BFBD
:1004C0007047401C490008BF20F00100704710B47D
:1004D000B0FA80FC00FA0CF050EA010404BF10BC32
:1004E000704749B1CCF1200421FA04F411FA0CF15F
:1004F00018BF012121430843A3EB0C01CB1D4FEA98
:1005000000614FEA102042BF002010BC704700EB92
:10051000C35010440029A4BF10BC7047401C4900C0
:1005200008BF20F0010010BC704710B5141E73F115
:10053000000408DA401C41F1000192185B411A43A3
:1005400001D120F0010010BD2DE9F04D92469B46EF
:1005500011B1B1FA81F202E0B0FA80F22032904695
:1005600000F03AF904460F4640EA0A0041EA0B015E
:1005700053465A46084313D0114653EA010019D096
:10058000C8F14002504600F036F905460E46504686
:100590005946424600F020F9084305D0012004E006
:1005A00020463946BDE8F08D0020054346EAE07656
:1005B0002C4337430A986305E40AA0EB08000022A5
:1005C000FD0A44EA47540A3002D500200146E9E713
:1005D000010510196941DDE9084500196941BDE8C7
:1005E000F04DA2E72DE9FE4F804681EA0300C00FDF
:1005F0000C46009021F0004123F00045B8EB0200CA
:10060000A94105D24046214690461C460B4602466B
:1006100023F00040104347D0270DC7F30A00C3F36F
:100620000A510290401A019040286BDAC3F313007C
:1006300040F4801B0098924620B10023D2EB030ABD
:1006400063EB0B0B01985946C0F14002504600F095
:10065000C3F806460D4650465946019A00F0DBF8AD
:1006600010EB08006141002487EA115284EAE77325
:100670001A4340D0009A62B3019A012A4FEA075206
:1006800015DC001B61EB02014FF0004202EA075249
:10069000CDE90042001C41F5801132462B46FFF7A0
:1006A00053FF03B0BDE8F08F40462146F9E7001B39
:1006B00061EB0201001C41F5801300185B4120181A
:1006C000A2F5001747EB030140EAD570B6196D415A
:1006D00011E06D084FEA360645EAC0754FEA075249
:1006E000001B61EB0201001C41F5801149084FEA33
:1006F00030000019514132462B4603B0BDE8F04F9F
:10070000FFF713BF0098012240000023D0EB020244
:1007100063EBE073009821464FEAE074B8EB000009
:1007200061EB0401E9E783F000435BE781F00041FE
:1007300058E770B521F0004303430CD0C1F30A55CC
:100740000024D5EB040564EB0403D617AD1AB341BE
:1007500002DB0020014670BD201841EB025170BD44
:100760000EB5C10F80EAE0700844CA07002140F2CC
:1007700033438DE80E000A460B46FFF7E5FE03B053
:1007800000BD000030B5041E71F1000404DB4FF021
:100790000044404264EB0101141E73F1000405DBC8
:1007A0001C464FF00043524263EB0403994208BFDA
:1007B000904230BD064C074D06E0E06840F0010372
:1007C00094E8070098471034AC42F6D3FFF7F2FCE8
:1007D0001038040830380408202A04DB203A00FAD4
:1007E00002F1002070479140C2F1200320FA03F388
:1007F000194390407047202A04DB203A21FA02F086
:100800000021704721FA02F3D040C2F1200291404A
:10081000084319467047202A06DBCB17203A41FAD5
:1008200002F043EAE07306E041FA02F3D040C2F17D
:10083000200291400843194670472DE9F04D0023EE
:100840001A461B1A8A4103DB00200146BDE8F08DE1
:10085000C1F30A52C1F3130141F480154FF0000BAC
:10086000D10702D100186D41521E0027044640F204
:10087000FF11384601EB620A3E46804602460020E0
:100880004FF48011FFF7B7FFC2197141BB1846EB57
:100890000100B4EB030C75EB000C04D3E41A65EB18
:1008A000000517460E46241908F101006D418046E7
:1008B0003428E3DDF91946EB0600091BA84103D2F1
:1008C0004FF0FF32134601E0002213461BEB0700F6
:1008D00046EB0A51BDE8F04DFFF727BE70B58C1806
:1008E00010F8015B15F0070301D110F8013B2A1144
:1008F00006D110F8012B03E010F8016B01F8016B31
:100900005B1EF9D12B0705D40023521E0DD401F82C
:10091000013BFAE710F8013BCB1A921C03E013F8F5
:10092000015B01F8015B521EF9D5A142D8D300202A
:1009300070BD000010B504210D4803F0F2FF012145
:100940000C4803F0EEFF4FF480610B4803F0E9FF21
:100950004FF40051094803F0E4FF8021084803F0F8
:10096000E0FF04F0EFFFBDE810400AF07BBC0000A0
:100970000010024000000240001C0240000802403B
:10098000000C02404178007841EA002070470000E6
:1009900010B5074C2060084600F00CF820680028CD
:1009A000FCD1BDE8104000214FF0804007F0CDBEE3
:1009B000E80000203EB504464FF08045002128465F
:1009C00007F0C3FE00220121284607F0D6FE022CC4
:1009D00002D0012C03D005E00B20019002E042F68A
:1009E000DF6001900520ADF800000020ADF80800A0
:1009F000ADF802006946284607F0EAFE01212846C4
:100A000007F0A0FE0121284607F08DFE01221146C5
:100A1000284607F0B2FE0121284607F096FE3EBDAB
:100A20002021014803F07DBF001C02402021014825
:100A300003F079BF001C02400B4991F84220002AC4
:100A400006D038B191F8420002280BD0FFF7E8BF7A
:100A5000FFF7E6BF91F84200012801D0FFF7E0BFA1
:100A6000FFF7E4BFFFF7E2BF780B0020FEE70000CE
:100A70007CB50121084605F05BFBA0200090022018
:100A80008DF8050001248DF8044000258DF80650EE
:100A90008DF80740084E6946304603F0EDFE8DF8AC
:100AA00004508DF806508DF80740402100916946AA
:100AB000304603F0E1FE7CBD0000024070B5FF222D
:100AC000FF23084D05F5807605E010F8014B5440F2
:100AD0002A5D5A40335D491E89B2F6D243EA0220AC
:100AE00070BD0000B02301082DE9F04F2DED028B01
:100AF00081B00024FE4890F8400000900021084694
:100B000006F052F82146002002F06EFBF948DFF8AB
:100B1000E893C17811209FEDF98AF94FDFF8E4835B
:100B2000DFF8E4B300297DD0002511208BF8000008
:100B3000E2E0F6484078012875D0284606F0B8F87B
:100B4000DFF8B0A39AF8010048B144F620600FF036
:100B50006EFC9AF8010038B1012834D061E048F603
:100B6000B8000FF064FCF4E7012006F02BFE11F052
:100B70001BF897ED000ABCEEC00A10EE100AC9F887
:100B8000000005F063FF0BE005F060FF11F00CF8CA
:100B900097ED000ABCEEC00A10EE100AC9F800007A
:100BA000DB4800780028EFD106F00CFE11F040F988
:100BB00098ED000AD748BCEEC00A10EE101A01608A
:100BC00005F044FF2DE0012006F0FCFD11F064F873
:100BD00097ED000ABCEEC00A10EE100AC9F800003A
:100BE00005F034FF0BE005F031FF11F055F897EDFB
:100BF000000ABCEEC00A10EE100AC9F80000C44892
:100C000000780028EFD106F0DDFD11F08BF998EDAA
:100C1000000AC049BCEEC00A10EE100A086005F0D8
:100C200015FF01E073E06CE098ED000A4FF096418B
:100C300010EE100A884205DD38EE400AB1EE400A97
:100C400088ED000A97ED000A10EE100A884205DDD3
:100C500038EE400AB1EE400A87ED000A9AF801002A
:100C600010B1012818D02EE00AEB051000EB84002B
:100C700097ED000A00F5806080ED3A0A022C22D23E
:100C80000AEBC50000EB840098ED000A00F58060D7
:100C900080ED620A264616E00AEB051000EB8400A0
:100CA00097ED000A00F5806080ED760A022C0AD2EA
:100CB0000AEBC50000EB840098ED000A00F58060A7
:100CC00080ED9E0A26463146204605F06DFF2146FE
:100CD000002002F089FA032C0CD306208BF80000C8
:100CE00000242146002005F05FFF2146002002F08D
:100CF0007BFA01E0641CE4B29BF8000011283FF489
:100D000018AF6D1CEDB20A2DFFF40FAFE6E08BF8C3
:100D10000000DEE0DFF8F4A19AF8010001287DD0A0
:100D2000DFF8D0B19BF8010010B101282FD079E095
:100D3000012006F047FD10F037FF97ED000ABCEEEA
:100D4000C00A10EE100AC9F8000005F07FFE704DD1
:100D50000BE005F07BFE10F027FF97ED000ABCEEDC
:100D6000C00A10EE100AC9F8000028780028F0D157
:100D700006F028FD11F05CF898ED000A6549BCEE1C
:100D8000C00A10EE100A086005F060FE4AE001207B
:100D900006F018FD10F080FF97ED000ABCEEC00AC7
:100DA00010EE100AC9F8000005F050FE584D0FE093
:100DB00005F04CFE10F070FF97ED000ABCEEC00A83
:100DC00010EE100AC9F800009AF80100012802D0BC
:100DD00028780028ECD1002006F0F4FC11F0A2F8ED
:100DE00098ED000A4B49BCEEC00A10EE100A0860EC
:100DF00005F02CFEDFF81CA10FE005F027FE11F036
:100E000091F898ED000ABCEEC00A10EE100ACAF87C
:100E100000003E484078012804D000E05EE02878D9
:100E20000028EAD198ED000A4FF0964110EE100A22
:100E3000884205DD38EE400AB1EE400A88ED000A2E
:100E400097ED000A10EE100A884205DD38EE400AE0
:100E5000B1EE400A87ED000A9BF8010010B10128AD
:100E600010D01EE00BEB840097ED000A00F58060C7
:100E700080EDB50A022C14D298ED000A80EDB90A73
:100E800026460EE00BEB840097ED000A00F580602B
:100E900080EDBB0A022C04D298ED000A80EDBF0A57
:100EA00026463146204605F07FFE2146002002F00E
:100EB0009BF9032C0BD3144906200870002421460B
:100EC000002005F071FE2146002002F08DF9641C1F
:100ED000E4B20D48007811283FF41CAF0449009893
:100EE00081F8400001B0BDEC028BBDE8F04F13E08B
:100EF000780B00204C0D00204C000020FFFF7F4BA2
:100F0000440000204000002031000020AC00002000
:100F10003F0000205000002007F0D6BA10B54FF473
:100F20000051094803F0FFFC0121084803F0FBFCD5
:100F30004FF48061064803F0F4FCBDE81040042142
:100F4000044803F0EEBC000000080240000002402C
:100F5000001C02400010024030B587B005462878DA
:100F60004C4C04F8280C687804F8270CA87804F88E
:100F7000260CE91C684607F0BBFA9DF8000004F84F
:100F8000240C019844F8200C029844F81C0C039897
:100F900044F8180C049844F8140C059844F8100C04
:100FA000069844F80C0C687A04F8080C687A04F87F
:100FB000080C05F10A01684607F09AFA9DF800004E
:100FC00004F8040C01982060029860600398A06007
:100FD0000498E0600598206106986061287C20767E
:100FE000687CA07605F11201684607F081FA9DF849
:100FF0000000207701982062029860620398A06246
:101000000498E062059820630698606305F1180172
:10101000684607F06DFA9DF8000084F838000198E2
:10102000E06302982064039860640498A0640598C3
:10103000E0640698206505F11E01684607F058FA3D
:101040009DF8000084F854000198A0650298E065BE
:1010500003982066049860660598A0660698E06686
:1010600005F12401684607F043FA9DF8000084F872
:101070007000019860670298A0670398E067049881
:10108000C4F880000598C4F884000698C4F8880065
:1010900007B030BDA00B002010B50121CC052046C3
:1010A00005F054F82046BDE81040002105F04EB888
:1010B00001460020024A52680A4200D001207047CF
:1010C00000B0024030B500242A4B19682A4A11406A
:1010D00019601968026811431960596B21F0070102
:1010E0005963596B4268114359634168002928D0FC
:1010F00001292DD0022930D0032933D0C1680A013B
:1011000001690902446924038568214315430D439D
:10111000996B0D439D638169D963196C6FF30D0160
:101120001964196CC26911431964818C09045A6CE1
:1011300002F040425A645A6C006A02430A435A64FD
:1011400030BDC1680A02018A0904047D2406DBE778
:10115000C1680A02018A0904D6E7C1684A01016927
:10116000C902D1E7C1684A01016989024469E403FF
:10117000CAE7000000B00240FCE0FCFF0248016842
:1011800041F001010160704700B002400CB5094B0D
:101190001B788DF8063000910749895C8DF80410A2
:1011A00005490A31895C8DF80510DDE9001206C099
:1011B0000CBD00002E000020EE2D0108704710B578
:1011C00090B0044603F0E0F80122214601A801F0A6
:1011D00051FD9DF804008DF8240002980A900398B0
:1011E0000B9004980C9005980D9006980E90079817
:1011F0000F9009A800F07AF80890089810B010BD78
:1012000010B590B0044603F0D7F80022214601A89B
:1012100001F030FD9DF804008DF8240002980A903A
:1012200003980B9004980C9005980D9006980E90DA
:1012300007980F9009A800F059F80890089810B086
:1012400010BD000070B586B00121022004F070FFCF
:101250000121880404F096FF224E07220B2130461C
:1012600003F048FB07220A21304603F043FB002429
:101270008DF8164001208DF8170002258DF81450C6
:10128000810204918DF8155004A9304603F0F4FA58
:101290008DF81450A802049004A9304603F0ECFA2B
:1012A0004FF416500090ADF80440ADF80640ADF88C
:1012B0000840ADF80C400C20ADF80A000A4C694615
:1012C00020460AF059F804F013FD012240F225519E
:1012D00020460AF036F8012120460AF01FF806B031
:1012E00070BD00000004024000480040416842F226
:1012F0001072914204D941680A22B1FBF2F14160B7
:101300004068704738B5002000901D491D4842F2E2
:1013100010734EF660242EE09DF8002000EBC20210
:10132000D2F8B4209DF8005001EBC5056D68AA42C3
:101330000CD89DF8002000EBC202D2F8B4209DF832
:10134000005001EBC5056D68AA4210D29DF800203F
:10135000032A06D29DF8002000EBC202C2F8B43086
:1013600005E09DF8002000EBC202C2F8B4409DF8F1
:101370000020521C00929DF80020052ACCD338BDD5
:101380007C000020780B00202DE9FC5F0446012C36
:101390000BD000200090744D00984FF47F0948F264
:1013A0008B6820B1C5F8049003E00120F2E7C5F88E
:1013B00004804FF4A07610237A220421304603F0F3
:1013C000C3FD6A4F4FF0000A97F8E704012801D9DE
:1013D00087F8E7A497F8E704002300EB400101EB4E
:1013E000C00163480A18042130460DF08FFCDFF875
:1013F00080B197F8E704ABF10E0BB8B3022001906F
:1014000030E00198844201D1012000E000200090EA
:10141000009810B1C5F8049001E0C5F80480019867
:101420001A26801E00EB800006EB800081B210239C
:101430007A226C2003F088FD01980023384490F84C
:10144000DB04C0EBC00000EB0B020198801E00EB38
:10145000800006EB800081B26C200DF057FC0198F3
:10146000401C019001980C28CBD327E0FFE7C5F87A
:101470000480B5234FF4DD722E21002003F064FDBB
:10148000022C06D000200090009820B1C5F80490EE
:1014900003E00120F7E7C5F8048010237A221A211F
:1014A0006C2003F051FD97F8DD040023C0EBC00071
:1014B00000EB0B021A216C200DF028FC01F094FBCC
:1014C0002C4854266FF07F410C2C29D2DFE804F021
:1014D000060A2A2A2A2A2A2A2A2A2A2ABDE8FC5F58
:1014E00000F008BF2960686097F8C804CDF804A030
:1014F0001F4C12E00198002300EB400101EBC000FB
:1015000002190198F12100EB800006EB001080B277
:101510000DF0FCFB0198401C019001980228E9D3D2
:10152000BDE8FC9F2960686097F8C80410B1104CB2
:101530002C3401E00E4C0E3CCDF804A010E00198D4
:101540000023C0EBC00002190198F12100EB8000DC
:1015500006EB001080B20DF0D9FB0198401C019001
:1015600001980228EBD3DBE7C40000204C0D0020DB
:10157000142A0108380031002DE9FC5F0446012CD3
:101580000AD000200090D14D00984FF47F0748F218
:101590008B6918B16F6003E00120F3E7C5F8049090
:1015A0004FF4A07810237A220421404603F0CCFCAB
:1015B000C74E307B012801D90020307396F8C8044B
:1015C00060B1307B002300EB400101EBC001C1485A
:1015D0000A18042140460DF099FB0CE0307B0023F3
:1015E00000EB400101EBC001BA4816380A1804218B
:1015F00040460DF08BFB307BDFF8DCA24FF4B37B71
:1016000000287DD0022001904FF01A0842E0019896
:10161000844201D1012000E000200090009808B130
:101620006F6001E0C5F804900198801EC0EBC00017
:1016300006EB800081694069C9B20023052203F0EE
:1016400007FA01981023801E00EB800008EB800051
:1016500081B27A226C2003F077FC0198801EC0EBE7
:10166000C00006EB8000C06900EB40000AEB4001BF
:101670009A48FEF7DBFD01980023801E00EB8000F6
:1016800008EB800081B2954A6C200DF03FFB019879
:10169000401C019001980C28B9D30220019048E029
:1016A00001980A30844201D1012000E0002000901E
:1016B000009808B16F6001E0C5F804900198801EA1
:1016C000C0EBC00006EB8000D0F83011D0F82C0140
:1016D000C9B20023052203F0BBF901981023801E34
:1016E00000EB800008EB800081B27A22584603F0BC
:1016F0002BFC0198801EC0EBC00006EB800000E0D0
:101700001BE0D0F8340100EB40000AEB40017348C5
:10171000FEF78CFD01980023801E00EB800008EB93
:10172000800081B26D4A58460DF0F0FA0198401CD5
:10173000019001980C28B3D359E0C5F80490E32335
:101740004FF4DD722E21002003F0FEFB022C05D0A9
:1017500000200090009818B16F6003E00120F8E7C6
:10176000C5F80490B069C1B270690023052203F086
:101770006FF910237A221A216C2003F0E5FBF0693F
:1017800000EB40000AEB40015448FEF74FFD0023F8
:10179000524A1A216C200DF0B9FA032C05D0002012
:1017A0000090009818B16F6003E00120F8E7C5F8D9
:1017B0000490D6F83001C1B2D6F82C0100230522DE
:1017C00003F046F910237A221A21584603F0BCFB95
:1017D000D6F8340100EB40000AEB40013F48FEF729
:1017E00025FD00233D4A1A2158460DF08FFA01F0DD
:1017F000FBF93B496FF07F40162C31D2DFE804F053
:101800000B104E4E4E4E4E4E4E4E4E4E4E4E4E4E79
:101810004E4E4E4E4E4EBDE8FC5F002000F030BFF5
:101820002860696096F8C8045424D8B1002001905B
:10183000284D12E00198002300EB400101EBC000AD
:1018400042190198F12100EB800004EB001080B2F6
:101850000DF05CFA0198401C019001980228E9D330
:10186000BDE8FC9F002001901A4D163D12E0019842
:10187000002300EB400101EBC00042190198F12167
:1018800000EB800004EB001080B20DF03FFA0198ED
:10189000401C019001980228E9D3E1E728606960C3
:1018A00096F8C80440B102B00023BDE8F05FF12112
:1018B0000CA254200DF02ABA02B00023BDE8F05F5C
:1018C000F1210AA254200DF021BA0000C40000202A
:1018D0004C0D00202A2A01082E2B01080415002097
:1018E00038003100494E505554000000CAE4C8EB9E
:1018F000000000002DE9FC5F0446012C0AD0002006
:101900000090C74D00984FF47F0748F28B6818B1DC
:101910006F6003E00120F3E7C5F804804FF4A0797D
:1019200010237A220421484603F00EFBBD4E4FF0EF
:10193000000A96F84002012801D986F840A296F8DC
:10194000C80460B1307B002300EB400101EBC00113
:10195000B5480A18042148460DF0D8F90DE096F86C
:101960004002002300EB400101EBC001AE481638F5
:101970000A18042148460DF0C9F996F840020028DB
:101980007ED04FF0020BCDF804B04FF01A093AE0C8
:101990000198844201D1012000E0002000900098CD
:1019A00008B16F6001E0C5F804800198801EC0EBAB
:1019B000C00006EB8000D0F84C12D0F84802C9B243
:1019C0000023062203F044F801981023801E00EB48
:1019D000800009EB800081B27A226C2003F0B4FA17
:1019E00092A19348FEF722FC01980023801E00EB91
:1019F000800009EB800081B28D4A76200DF086F9D7
:101A00000198401C019001980C28C1D3CDF804B076
:101A10003FE001980A30844201D1012000E000201B
:101A20000090009808B16F6001E0C5F8048001984B
:101A3000801EC0EBC00006EB8000D0F86413D0F825
:101A40006003C9B20023062203F002F801984FF4A4
:101A5000B87B801E00EB800009EB800081B2102370
:101A60007A22584603F070FA70A17148FEF7DEFB47
:101A70000198801E00EB800009EB800081B200E03D
:101A80000BE000236A4A58460DF040F90198401CCB
:101A9000019001980C28BCD354E0C5F80480E323DE
:101AA0004FF4DD722E21002003F04EFA022C05D0F7
:101AB00000200090009818B16F6003E00120F8E763
:101AC000C5F80480D6F84C02C1B2D6F8480200230B
:101AD000062202F0BDFF10237A221A216C2003F0A7
:101AE00033FA52A15248FEF7A1FB0023504A1A21B3
:101AF0006C200DF00BF9032C05D00020009000980D
:101B000018B16F6003E00120F8E7C5F80480D6F84B
:101B10006403C1B2D6F860030023062202F098FFE6
:101B20004FF4B37710237A221A21384603F00CFAC7
:101B30003EA13F48FEF77AFB00233D4A1A21384672
:101B40000DF0E4F801F050F83A486FF07F41162CA0
:101B500031D2DFE804F00B104E4E4E4E4E4E4E4E3C
:101B60004E4E4E4E4E4E4E4E4E4E4E4EBDE8FC5FCD
:101B7000002000F0A5BE2960686096F8C8045424CF
:101B8000D8B1CDF804A0284D12E00198002300EB55
:101B9000400101EBC00042190198F12100EB8000E7
:101BA00004EB001080B20DF0B1F80198401C0190D8
:101BB00001980228E9D3BDE8FC9FCDF804A01A4D96
:101BC000163D12E00198002300EB400101EBC0003C
:101BD00042190198F12100EB800004EB001080B263
:101BE0000DF094F80198401C019001980228E9D367
:101BF000E1E72960686096F8C80440B102B00023AC
:101C0000BDE8F05FF1210CA254200DF07FB802B0C6
:101C10000023BDE8F05FF12109A254200DF076B851
:101C2000C40000204C0D00202A2A01082056000084
:101C30000415002038003100494E50555400000072
:101C4000CAE4C8EB000000002DE9FC470546012D61
:101C50000AD0002000904FF47F0648F28B68FE4CBB
:101C6000009818B1666003E00120F3E7C4F804802F
:101C7000FA4F97F8C80410B1DFF8E49303E0DFF8F7
:101C8000E093A9F11C09102368221A21582003F0BF
:101C90005BF938780023C0EBC00000EB09021A2181
:101CA00058200DF033F8022D05D000200090009848
:101CB00018B1666003E00120F8E7C4F8048097F8E3
:101CC000C80420B1DFF8989309F1380903E0DFF880
:101CD000909309F11C09102368222E21582003F04B
:101CE00033F978780023C0EBC00000EB09022E2105
:101CF00058200DF00BF8032D05D00020009000981F
:101D000018B1666003E00120F8E7C4F8048097F892
:101D1000C80420B1DFF8489309F18E0903E0DFF829
:101D2000409309F15409102368224221582003F0FE
:101D30000BF9B8780023C0EBC00000EB0902422188
:101D400058200CF0E3FF042D05D0002000900098EF
:101D500018B1666003E00120F8E7C4F8048097F842
:101D6000C80420B1DFF8F89209F19C0903E0DFF81C
:101D7000F09209F1AA09102368225621582003F095
:101D8000E3F8F8780023C0EBC00000EB090256210D
:101D900058200CF0BBFF052D05D0002000900098C6
:101DA00018B1666003E00120F8E7C4F8048097F8F2
:101DB000C80410B1DFF8AC9203E0DFF8A892A9F1F3
:101DC0004D094FF4A97A102368221A21504603F0D6
:101DD000BBF87879A0B138790023401C00EB4001B2
:101DE00001EBC00000EB09021A2150460CF08EFFF7
:101DF000062D0CD000200090009850B166600AE0DB
:101E000000234A461A2150460CF080FFF0E70120DB
:101E1000F1E7C4F8048097F8C80420B1DFF84492D1
:101E2000A9F1620903E0DFF83C92A9F177091023D8
:101E300068222E21504603F087F8B8790023C0EBC2
:101E4000C00000EB09022E2150460CF05FFF072D69
:101E500005D000200090009818B1666003E00120D2
:101E6000F8E7C4F8048097F8C80420B1DFF8F091CF
:101E700009F18E0903E0DFF8E89109F15409102314
:101E800068224221504603F05FF8F8790023C0EB46
:101E9000C00000EB0902422150460CF037FF082D2C
:101EA00005D000200090009818B1666003E0012082
:101EB000F8E7C4F8048097F8C80410B1684E8E366D
:101EC00001E0674E5436102368225621504603F035
:101ED0003BF8387A0023C0EBC000821956215046E7
:101EE0000CF014FF00F080FE00205F4A54266FF0D3
:101EF0007F41092D29D2DFE805F005092A4B6CD96D
:101F0000FBB98D00BDE8FC4700F018B921606260A4
:101F100097F8C81409B1524C01E0514C1C3C019097
:101F200010E001980023C0EBC00002190198F121D4
:101F300000EB800006EB001080B20CF0E7FE019889
:101F4000401C019001980428EBD3BDE8FC87216078
:101F5000626097F8C81411B1414C383401E0404C2C
:101F60001C34019010E001980023C0EBC00002195E
:101F70000198F12100EB800006EB001080B20CF01C
:101F8000C5FE0198401C019001980228EBD3DCE7C4
:101F90002160626097F8C81411B1314C8E3401E0B1
:101FA0002F4C5434019010E001980023C0EBC00086
:101FB00002190198F12100EB800006EB001080B2BD
:101FC0000CF0A4FE0198401C019001980228EBD36C
:101FD000BBE72160626097F8C81411B1214C933CB3
:101FE00001E0204C853C019010E001980023C0EBFB
:101FF000C00002190198F12100EB800006EB0010EF
:1020000080B20CF083FE0198401C019001980228D8
:10201000EBD39AE72160626097F8C81411B1104CB5
:102020008E3401E00E4C5434019010E001980023EE
:10203000C0EBC00002190198F12100EB800006EB13
:10204000001080B20CF062FE0198401C01900198D3
:102050000228EBD379E70000C40000204C0D0020DB
:10206000B2290108E12A01083800310021606260CC
:1020700097F8C81409B12F4C01E02E4C3A3C01905E
:1020800010E001980023C0EBC00002190198F12173
:1020900000EB800006EB001080B20CF037FE0198D8
:1020A000401C019001980228EBD34EE7216062604A
:1020B00097F8C81409B1204C00E01F4C019012E0C1
:1020C0000198002300EB400101EBC00002190198C8
:1020D000F12100EB800006EB001080B20CF016FE40
:1020E0000198401C019001980428E9D32DE7FFE7EF
:1020F0002160626097F8C81411B10E4C3F3401E0C2
:102100000C4C2A34019010E001980023C0EBC00071
:1021100002190198F12100EB800006EB001080B25B
:102120000CF0F4FD0198401C019001980328EBD3BA
:102130000BE70000402A0108402B010870B500F0B1
:1021400053FD45486FF07F41016044494160444878
:1021500090F8C8144FF4A2754FF4CA7400293DD00A
:10216000002340A2E72154200CF0D0FD00233FA221
:10217000FB2154200CF0CAFD00233EA2E721A4203D
:102180000CF0C4FD00233CA2FB21A4200CF0BEFDFA
:1021900000233BA2E721F4200CF0B8FD002336A277
:1021A000FB21F4200CF0B2FD002337A2E7212846E2
:1021B0000CF0ACFD002336A2FB2128460CF0A6FD56
:1021C000002335A2E72120460CF0A0FD2046BDE803
:1021D0007040002331A2FB210CF098BD002331A2F6
:1021E000E72154200CF092FD002330A2FB21542063
:1021F0000CF08CFD00232FA2E721A4200CF086FD1B
:1022000000232EA2FB21A4200CF080FD00232DA290
:10221000E721F4200CF07AFD002328A2FB21F42012
:102220000CF074FD002329A2E72128460CF06EFD76
:10223000002328A2FB2128460CF068FD002327A2DA
:10224000E72120460CF062FD2046BDE870400023E7
:1022500024A2FB210CF05ABDC4000020380031003C
:102260004C0D00204D45415300000000444953509F
:102270000000000052455300434F4D500000000045
:1022800020564F4C000000004348414E4E000000D5
:1022900053454C4C000000005359530053455455CE
:1022A0005000000020B2E2C1BF00000020CFD4CA1D
:1022B000BE00000020B5E7D7E800000020B1C8BD8F
:1022C000CF00000020B5E7D1B900000020CDA8B5AF
:1022D000C000000020D1A1D4F100000020CFB5CD76
:1022E000B300000020C9E8D6C3000000002000F0C1
:1022F000D9B8000070B500F077FC45486FF07F4119
:10230000016044494160444890F8C8144FF4A275F4
:102310004FF4CA7400293DD0002340A2E721542085
:102320000CF0F4FC00233FA2FB2154200CF0EEFC47
:1023300000233EA2E721A4200CF0E8FC00233CA2ED
:10234000FB21A4200CF0E2FC00233BA2E721F420B7
:102350000CF0DCFC002336A2FB21F4200CF0D6FCB0
:10236000002337A2E72128460CF0D0FC002336A238
:10237000FB2128460CF0CAFC002335A2E7212046A9
:102380000CF0C4FC2046BDE87040002331A2FB21C4
:102390000CF0BCBC002331A2E72154200CF0B6FCA9
:1023A000002330A2FB2154200CF0B0FC00232FA20C
:1023B000E721A4200CF0AAFC00232EA2FB21A420DC
:1023C0000CF0A4FC00232DA2E721F4200CF09EFCCD
:1023D00000232CA2FB21F4200CF098FC00232BA25C
:1023E000E72128460CF092FC00232AA2FB21284674
:1023F0000CF08CFC002325A2E72120460CF086FC83
:102400002046BDE87040002324A2FB210CF07EBCD6
:10241000C4000020380031004C0D00204D454153D0
:102420000000000044495350000000005245530092
:10243000434F4D500000000020564F4C000000005C
:102440004348414E4E00000053454C4C00000000F4
:1024500053595300534554555000000020B2E2C177
:10246000BF00000020CFD4CABE00000020B5E7D7CF
:10247000E800000020B1C8BDCF00000020B5E7D1C2
:10248000B900000020D1A1D4F100000020CFB5CDCB
:10249000B300000020C9E8D6C300000020D0C5CF9B
:1024A000A200000010B5044600F09EFB50485149C0
:1024B0006FF07F425CB3012C7ED10260416000234B
:1024C0004DA2E72154200CF021FC00234CA2FB215B
:1024D00054200CF01BFC00234BA2E721A4200CF09D
:1024E00015FC00234AA2FB21A4200CF00FFC4FF4A2
:1024F000CA74002348A2E72120460CF007FC2046BE
:102500000023BDE8104046A2FB210CF0FFBB026097
:102510004160454890F8C8144FF4A274002931D0A6
:10252000002342A2E72154200CF0F0FB002341A23B
:10253000FB2154200CF0EAFB00233CA2E721A4205D
:102540000CF0E4FB00233DA2FB21A4200CF0DEFBF9
:1025500000233CA2E721F4200CF0D8FB002337A293
:10256000FB21F4200CF0D2FB002338A2E721204607
:102570000CF0CCFB20460023BDE8104034A2FB2128
:102580000CF0C4BB002334A2E72154200CF0BEFBA6
:10259000002333A2FB2154200CF0B8FB00232EA211
:1025A000E721A4200CF0B2FB00232FA2FB21A420E2
:1025B0000CF0ACFB002300E018E02DA2E721F42092
:1025C0000CF0A4FB002328A2FB21F4200CF09EFBBE
:1025D000002327A2E72120460CF098FB2046002389
:1025E000BDE8104024A2FB210CF090BB10BD000000
:1025F000C400002038003100CEC4BCFE0000000042
:10260000B9DCC0ED00000000B1A3B4E6000000009A
:10261000CAFDBEDD00000000B8FCB6E0000000000E
:1026200020322F32000000004C0D00204D45415358
:102630000000000044495350000000005345545529
:10264000500000002053595300000000535953001C
:10265000494E464F00000000B2E2C1BF000000003A
:10266000CFD4CABE00000000C9E8D6C300000000F5
:10267000CFB5CDB300000000D0C5CFA20000000050
:1026800070B5054600F0B0FA5C485D4A6FF07F41D6
:102690004FF4CA744DB3012D7ED101604260002316
:1026A00058A2E72154200CF031FB002357A2FB2154
:1026B00054200CF02BFB002356A2E721A4200CF0A1
:1026C00025FB002355A2FB21A4200CF01FFB0023B7
:1026D00054A2E72120460CF019FB2046BDE87040CB
:1026E000002352A2FB210CF011BB01604260514853
:1026F00090F8C8044FF4A27500283DD000234EA2E4
:10270000E72154200CF002FB00234DA2FB215420B2
:102710000CF0FCFA00234CA2E721A4200CF0F6FAFE
:1027200000234AA2FB21A4200CF0F0FA002349A2C6
:10273000E721F4200CF0EAFA002348A2FB21F42060
:102740000CF0E4FA002347A2E72128460CF0DEFA59
:10275000002345A2FB2128460CF0D8FA002341A211
:10276000E72120460CF0D2FA2046BDE87040002355
:102770003FA2FB210CF0CABA00233FA2E72154205C
:102780000CF0C4FA00233EA2FB2154200CF0BEFA48
:1027900000233DA2E72100E02EE0A4200CF0B6FAD1
:1027A00000233BA2FB21A4200CF0B0FA00233AA2A4
:1027B000E721F4200CF0AAFA002339A2FB21F4202F
:1027C0000CF0A4FA002338A2E72128460CF09EFA68
:1027D000002337A2FB2128460CF098FA002332A2EE
:1027E000E72120460CF092FA2046BDE87040002315
:1027F00031A2FB210CF08ABA70BD0000C400002099
:1028000038003100CEC4BCFE00000000B9DCC0EDD1
:1028100000000000B1A3B4E600000000CAFDBEDD68
:1028200000000000B8FCB6E00000000020322F32AB
:10283000000000004C0D00204D45415300000000F9
:102840004449535000000000564F4C00434F4D5038
:10285000000000004348414E0000000053454C4C2E
:102860004500000053595300534554555000000093
:10287000494E464F00000000B2E2C1BF0000000018
:10288000CFD4CABE00000000B5E7D1B900000000F7
:10289000B1C8BDCF00000000CDA8B5C00000000049
:1028A000D1A1D4F100000000CFB5CDB300000000ED
:1028B000C9E8D6C300000000D0C5CFA200000000C8
:1028C00070B5054600F090F95C485D4A6FF07F41B5
:1028D0004FF4CA744DB3012D7ED1016042600023D4
:1028E00058A2E72154200CF011FA002357A2FB2133
:1028F00054200CF00BFA002356A2E721A4200CF080
:1029000005FA002355A2FB21A4200CF0FFF90023B7
:1029100054A2E72120460CF0F9F92046BDE87040AA
:10292000002352A2FB210CF0F1B901604260514832
:1029300090F8C8044FF4A27500283DD000234EA2A1
:10294000E72154200CF0E2F900234DA2FB21542092
:102950000CF0DCF900234CA2E721A4200CF0D6F9FE
:1029600000234AA2FB21A4200CF0D0F9002349A2A5
:10297000E721F4200CF0CAF9002348A2FB21F4203F
:102980000CF0C4F9002347A2E72128460CF0BEF959
:10299000002345A2FB2128460CF0B8F9002341A2F0
:1029A000E72120460CF0B2F92046BDE87040002334
:1029B0003FA2FB210CF0AAB900233FA2E72154203B
:1029C0000CF0A4F900233EA2FB2154200CF09EF948
:1029D00000233DA2E72100E02EE0A4200CF096F9B0
:1029E00000233BA2FB21A4200CF090F900233AA283
:1029F000E721F4200CF08AF9002339A2FB21F4200E
:102A00000CF084F9002338A2E72128460CF07EF967
:102A1000002337A2FB2128460CF078F9002332A2CC
:102A2000E72120460CF072F92046BDE870400023F3
:102A300031A2FB210CF06AB970BD0000C400002077
:102A400038003100CEC4BCFE00000000B9DCC0ED8F
:102A500000000000B1A3B4E600000000CAFDBEDD26
:102A600000000000B8FCB6E00000000020322F3269
:102A7000000000004C0D00204D45415300000000B7
:102A8000444953500000000052455300434F4D50FD
:102A9000000000004348414E0000000053454C4CEC
:102AA0004500000053595300534554555000000051
:102AB000494E464F00000000B2E2C1BF00000000D6
:102AC000CFD4CABE00000000B5E7D7E80000000080
:102AD000B1C8BDCF00000000CDA8B5C00000000007
:102AE000D1A1D4F100000000CFB5CDB300000000AB
:102AF000C9E8D6C300000000D0C5CFA20000000086
:102B00000FB410B59DF80800002812D09DF80800F9
:102B1000032807D99DF8101000230622039801F01E
:102B200097FF06E09DF8181000230722059801F092
:102B30008FFF9DF808001A2110BC00EBC00001EBCC
:102B400040010123034A4FF4A0705DF814EB0CF030
:102B5000DDB800000415002071B581B000200090A0
:102B60001D4C48F28B6531E09DF804100098401C24
:102B7000814203D14FF47F01616000E0656000EBAA
:102B8000C0001A2606EB400081B212235A22A02070
:102B900002F0DAF911480099415C1148009A00EB03
:102BA000C200D0F8B4000023062201F051FF0098C3
:102BB0000123401C00EBC00006EB400081B2094A33
:102BC000A0200CF0A3F80098401C00900098052865
:102BD000CAD365607CBD0000C400002060000020F6
:102BE000780B0020041500202DE9F05F0024DFF8A9
:102BF00078801E4EDFF878A000274FF04C094FF088
:102C0000010BC6F8048004EB4401A00001EB0411A1
:102C100000EB810080B22C234C22E42102F094F9D5
:102C2000C6F804A004EB84050BEB051080B2012369
:102C30004C22E32102F088F909EB051080B22D2324
:102C40000122E32102F080F977604D2000EB0510AE
:102C500080B22D230322E32102F076F9641C062CB6
:102C6000CFD3BDE8F09F000038003100C400002041
:102C7000684369002DE9F04F93B080460E4601206D
:102C800012900C9000270B970A97099708970397C3
:102C90000297049702970D974FF0200A0FAD07E0B7
:102CA0009DF8340005F800A09DF83400401C0D90FC
:102CB0009DF834000728F3D38DF843700AB1072438
:102CC00000E00624DFF8A4B34FF02E0957E10220FC
:102CD00002F02EF80E909DF83800002846D0012111
:102CE0000C919DF838001228F8D00CDC12283DD247
:102CF000DFE800F03C3C3C60D0C3B63C3C3C3C5A76
:102D0000A99C8F3C3C3D1A28E8D009DCA0F11300B7
:102D10000728ECD2DFE800F02A6E61542A2A0E0060
:102D20001E2874D022DC1B28D8D01C2870D01D2867
:102D30001CD1C9E0049712979DF82000A04214D23C
:102D40009DF82C0088B99DF8200050B19DF8200016
:102D500005F800909DF820000A909DF82000401C86
:102D600008909DF82C00401C0B900591EEE004911A
:102D700012979DF82000A04214D29DF82C0088B92B
:102D80009DF8200050B19DF8200005F800909DF8B6
:102D900020000A909DF82000401C08909DF82C000F
:102DA000401C0B900591D1E006208BF80000129793
:102DB0000597CBE01297059712208BF80000C5E02D
:102DC0009DF82000A04207D29DF8201031206854C1
:102DD0009DF82000401C0890B8E09DF82000A0421B
:102DE00007D29DF82010322068549DF82000401C26
:102DF0000890ABE09DF82000A04207D29DF820107B
:102E0000332068549DF82000401C08909EE04EE05E
:102E100077E09DF82000A04207D29DF820103420D2
:102E200068549DF82000401C08908FE09DF8200019
:102E3000A04207D29DF82010352068549DF820004C
:102E4000401C089082E09DF82000A0427ED29DF8B0
:102E50002010362068549DF82000401C089075E032
:102E60009DF82000A04271D29DF8201037206854B0
:102E70009DF82000401C089068E09DF82000A042CA
:102E800064D29DF82010382068549DF82000401C22
:102E900008905BE09DF82000A04257D29DF82010DA
:102EA000392068549DF82000401C08904EE09DF8A1
:102EB0002000A0424AD29DF82010302068549DF88E
:102EC0002000401C089041E09DF82000A0423DD227
:102ED0009DF8200040B39DF82C0028BB9DF82000F1
:102EE00050B19DF8200005F800909DF820000A9050
:102EF0009DF82000401C08909DF82C00401C0B9071
:102F000024E09DF8200080B19DF82000401E08902C
:102F10009DF8200005F800A09DF828009DF82010DD
:102F2000884213D10B970A9710E09DF82000285C87
:102F300078B39DF82000285C2D2830D09DF8201013
:102F40002D2068549DF82000401C08909DF830000A
:102F5000A8B10C9746486FF07F4101604FF47F01A4
:102F60004160B0887188103082B23088102301F03F
:102F7000EBFF7188308800230FAA0BF0C7FE9DF885
:102F8000480000287FF4A3AE9DF820000D9030206B
:102F900011E0FFE79DF820102D206854D2E79DF83E
:102FA00020102B206854CDE79DF8341068549DF80C
:102FB0003410491C0D919DF83410A142F4D30D97A3
:102FC00034E09DF83C0030282CD39DF83C00392893
:102FD00028D89DF83400285C302823D39DF834008D
:102FE000285C39281ED89DF828009DF834108842A6
:102FF0000CD9029800EB80004000029002989DF8E6
:103000003410695C0844303802900BE0029800EB01
:1030100080004000029002989DF83410695C0844DA
:10302000303802909DF83400401C0D909DF834001B
:10303000A042C6D39DF8280003909DF8040088F8AC
:1030400000000298C8F804000398C8F80800049823
:10305000C8F80C000598C8F810000698C8F81400C5
:103060000798C8F8180013B0BDE8F08F31000020B1
:10307000C4000020F8B52E4E756848F28B60706071
:103080002C4C607803281BD0607860B101232AA201
:103090006C2130200BF08AFE012327A2A3213020CF
:1030A0000BF084FE18E0002323A25C2120200BF00B
:1030B0007DFE002320A2932120200BF077FE0BE061
:1030C00000231DA27C2140200BF020FE00231AA229
:1030D000B32140200BF01AFE1A21002319A2080187
:1030E0000BF014FE002317A21A21E6200BF00EFEAF
:1030F000FDF714FF0020FDF79FFCFDF791FC162360
:103100003C22B4214FF4C87001F01EFF0F4800901C
:10311000372328225C214FF4967002F0A3FA7560E1
:1031200094F841000A490978BDE8F84000F05CB81D
:10313000C4000020780B00202D2D2D2D2D2D2D2DA0
:103140000000000020202020202000005E690108EF
:103150003300002008B513496FF07F400860124823
:1031600041794FF4967000290BD0012911D0022922
:1031700006D10E490091372328225C2102F072FA11
:1031800008BD0B490091372328225C2102F06AFA1E
:1031900008BD08490091372328225C2102F062FA19
:1031A00008BD0000C40000206C0000205E6901081A
:1031B000976C0108F671010818B509484FF4AA7414
:1031C0000090372328225C21204602F04BFA054963
:1031D0000091372328229321204602F043FA18BD9C
:1031E000D06F010855770108012800D90120062970
:1031F00000D906210A4B48F28B625A60C0EBC0002E
:10320000084A00EB400002EB800001EB410100EBBB
:1032100081020023D22140F29F100BF077BD000005
:10322000C40000201C2D010830B595B004460D46A1
:1032300001F0AAF8012229466846FFF71BFD9DF818
:1032400000008DF8380001980F90029810900398B4
:1032500011900498129005981390069814900EA956
:10326000684601F05DFC9DF800008DF81C00019897
:1032700008900298099003980A9004980B9005987A
:103280000C9006980D900B9818B9002009900890A2
:103290000A909DF81C002070089860600998A06052
:1032A0000A98E0600B9820610C9860610D98A0610D
:1032B00015B030BD30B595B004460D4601F07CF830
:1032C000002229466846FFF7D5FC9DF800008DF8DE
:1032D000380001980F90029810900398119004986C
:1032E000129005981390069814900EA9684607F05E
:1032F0009FFE9DF800008DF81C0001980890029830
:10330000099003980A9004980B9005980C900698E1
:103310000D900B9818B90020099008900A909DF81C
:103320001C002070089860600998A0600A98E0600E
:103330000B9820610C9860610D98A06115B030BDAC
:103340002DE9F0470024DFF88880224F1A264FF439
:10335000947908EB040090F8DD0498B14FF47F40B5
:10336000386004EB840006EB80010D4600231AA2AE
:103370001E200BF0CBFC294600231AA248460BF076
:10338000C5FC1EE01848386004EB840006EB80059D
:10339000002316A229461E200BF0B8FC2946002364
:1033A00010A248460BF0B2FC2946002312A26E2060
:1033B0000BF0ACFC294600230FA24FF4A3700BF0D6
:1033C000A5FC641CE4B20A2CC3D3BDE8F08700005E
:1033D0004C0D0020C40000204F50454E2020523A92
:1033E00000000000563A0000C0C0C000434C4F53DC
:1033F0004520523A000000002D2D2D2D2D2D2D2D74
:103400002D2D2D2D2D2D2D0070B500F0A1F81E4C69
:103410006FF07F4525601D4860601D4E96F8C8041A
:1034200008B11C4A01E01B4AF23A0023DC320421B5
:1034300018460BF06BFC256048F28B60606096F8D4
:10344000C80408B1144D01E0134D543D00241A2660
:10345000C4EBC40000EB4000421904EB840006EB0F
:10346000800081B2002318460BF050FC641C042C31
:10347000EED30023094A562152200BF047FCBDE849
:103480007040FEF733BF0000C40000200352F30079
:103490004C0D002018270108C82C01081414002026
:1034A00070B500241825601C00EB800005EB80003F
:1034B00081B2012364225A2001F046FD641C072CCE
:1034C000F1D370BD2DE9F04100F042F81B4E6FF0D2
:1034D0007F4737601A4870601A4C94F8C80408B1E6
:1034E000194A01E0184AF23A0023B0320421184682
:1034F0000BF00CFC376048F28B60706094F8C804E5
:1035000008B1124D01E0114D583D00244FF01A084A
:1035100004EB440000EBC400421904EB840008EB08
:10352000800081B2002318460BF0F0FB641C082CCD
:10353000EED37760BDE8F041FFF7B2BFC4000020D2
:103540000352F3004C0D002018270108C42B01087A
:1035500010B500F093FEBDE81040FFF745BB00003A
:103560002DE9FF5F044600278DF80770012C0AD073
:1035700000200290FA4D02984FF47F0648F28B6BC0
:1035800018B16E6003E00120F3E7C5F804B0DFF87E
:10359000D48398F8C80410B1DFF8CC9303E0DFF8C7
:1035A000C893A9F13A09102366221A215A2001F082
:1035B000CBFC98F8C4040023C0EBC00000EB090268
:1035C0001C215A200BF0A2FB022C05D000200290F7
:1035D000029818B16E6003E00120F8E7C5F804B066
:1035E000102366222E215A2001F0AEFC98F8C50463
:1035F000DFF87893C0EBC00000EB09020023302114
:103600005A200BF083FB032C05D000200290029877
:1036100018B16E6003E00120F8E7C5F804B098F82F
:10362000C80410B1DFF840A303E0DFF83CA3AAF11F
:103630003A0A1023662242215A2001F085FC98F8AC
:10364000C6040023C0EBC00000EB0A0244215A204C
:103650000BF05CFB042C05D000200290029818B1FE
:103660006E6003E00120F8E7C5F804B098F8C804DC
:1036700010B1DFF8F4A203E0DFF8ECA2AAF13A0AF5
:103680001023662256215A2001F05EFC98F8C704E8
:103690000023C0EBC00000EB0A0258215A200BF0B7
:1036A00035FB052C05D000200290029818B16E6001
:1036B00003E00120F8E7C5F804B0102366226A2170
:1036C0005A2001F041FC98F8C804DFF8A0A20023BA
:1036D0000AF1380A0AEBC0026C215A200BF016FBE3
:1036E00001A9002002F0E4FE6946002002F0AEFECF
:1036F000062C05D000200290029818B16E6003E0FD
:103700000120F8E7C5F804B0102312227E215A20C8
:1037100001F01AFC9DF8032095A196480BF098FB48
:103720000023944A80215A200BF0F0FAC5F804B027
:10373000002391A280216E200BF0E8FA072C05D01F
:1037400000200290029818B16E6003E00120F8E7B3
:10375000C5F804B0102312227E21782001F0F4FB7A
:103760009DF8012082A183480BF072FB0023814A5F
:10377000802178200BF0CAFAC5F804B000237EA29D
:1037800080218C200BF0C2FA082C05D0002002907A
:10379000029818B16E6003E00120F8E7C5F804B0A4
:1037A000102312227E21982001F0CEFB9DF80220EA
:1037B0006FA170480BF04CFB00236E4A80219820CB
:1037C0000BF0A4FA092C05D000200290029818B141
:1037D0006E6003E00120F8E7C5F804B01023122260
:1037E00092215A2001F0B0FB9DF8042060A16148AD
:1037F0000BF02EFB00235F4A94215A200BF086FA2F
:10380000C5F804B000235DA294216E200BF07EFA6F
:103810000A2C05D000200290029818B16E6003E0D7
:103820000120F8E7C5F804B0102312229221782075
:1038300001F08AFB9DF805204DA14E480BF008FBD6
:1038400000234C4A942178200BF060FAC5F804B0AC
:1038500000234AA294218C200BF058FA0B2C05D09F
:1038600000200290029818B16E6003E00120F8E792
:10387000C5F804B0102312229221982001F064FBB5
:103880009DF806203AA13B480BF0E2FA0023394AA2
:10389000942198200BF03AFA0C2C05D000200290CD
:1038A000029818B16E6003E00120F8E7C5F804B093
:1038B00010236622A6215A2001F046FB0023304A3D
:1038C000A8215A200BF022FAFFF78EF96FF07F4003
:1038D00028602C48686054250C2C09D2DFE804F0DD
:1038E000060A28547290A5A5A5A5A5A5FEF7FEFC7D
:1038F000BDE8FF9F98F8C80408B11B4C01E01A4CC2
:103900003A3C039710E003980023C0EBC000021973
:103910000398F12100EB800005EB001080B20BF062
:10392000F5F90398401C039003980228EBD3DFE7D6
:10393000039711E003980023C0EBC00000EB0902DD
:103940000398F12100EB800005EB001080B20BF032
:10395000DDF90398401C039003980528EAD3C7E7D4
:10396000C40000204C0D0020402A01081C2C010836
:1039700025326400041500202D0000003A000000EC
:10398000151200203800310098F8C80408B1324CF4
:1039900001E0314C3A3C039710E003980023C0EB60
:1039A000C00002190398F12100EB800005EB001024
:1039B00080B20BF0ABF90398401C039003980228E7
:1039C000EBD395E798F8C80408B1234C01E0224CEA
:1039D0003A3C039710E003980023C0EBC0000219A3
:1039E0000398F12100EB800005EB001080B20BF092
:1039F0008DF90398401C039003980228EBD377E7D6
:103A000003970EE0039800230AEBC00200EB80004E
:103A100005EB001080B2F1210BF078F90398401CFF
:103A2000039003980228EDD362E703970B4C0EE056
:103A30000398002304EBC00200EB800005EB0010AC
:103A400080B2F1210BF062F90398401C03900398B7
:103A50000228EDD34CE70000402A0108642C01083D
:103A600010B500F00BFCBDE81040FFF7BDB810B575
:103A700000F004FCBDE81040FFF7B6B870B5FFF7E2
:103A8000EFFF194C6FF07F45256018486060184EB5
:103A900096F8C80408B1174A01E0164AF23A002322
:103AA000042118460BF032F9256048F28B60606003
:103AB000F07898B10024104D1A2604EB4400421906
:103AC00004EB840006EB800081B2002302200BF09F
:103AD0001DF9641C0A2CF0D3FFF732FCBDE87040DE
:103AE0000020FEF7DFBC0000C40000200352F300FA
:103AF0004C0D002018270108C42D01082DE9F047BE
:103B0000FFF7B5FF414C6FF07F452560404860608E
:103B1000404E96F8C80408B13F4A01E03E4AF23AE6
:103B200000231632042118460BF0F0F8256048F205
:103B30008B60606096F8C804307B384A4FF4827915
:103B40001A2770B30024904604EB440000EB0802EF
:103B500004EB840007EB8005A9B2002302200BF0E0
:103B6000D5F896F8C80460B1A9B200232CA2202091
:103B70000BF0CCF8A9B200232BA248460BF0C6F8F4
:103B80000BE0A9B200232AA248460BF0BFF8A9B265
:103B900000232AA220200BF0B9F8641C0A2CD3D3EE
:103BA00021E0FFE73946002302200BF0AFF896F83A
:103BB000C80460B100231AA2394620200BF0A6F8F1
:103BC000002319A2394648460BF0A0F80BE0002369
:103BD0001AA2394620200BF099F8002314A2394686
:103BE00048460BF093F896F8C80438B1BDE8F047A2
:103BF0000023042114A2E6200BF088B8BDE8F047AA
:103C00000023042113A2E6200BF080B8C40000209A
:103C10000352F3004C0D002018270108C42D0108A1
:103C200048495F52455300004C4F5F5245530000D6
:103C3000B5E7D7E8CFC2CFDE00000000B5E7D7E890
:103C4000C9CFCFDE00000000434F4D504D4F4445DB
:103C50003A000000B1C8BDCFB7BDCABD3A000000F0
:103C60002DE9F047FFF703FF414C6FF07F452560DA
:103C700040486060404E96F8C80408B13F4A01E0F1
:103C80003E4AF23A00232C32042118460BF03EF84B
:103C9000256048F28B60606096F8C80496F8400290
:103CA000374A4FF482791A2770B30024904604EB08
:103CB000440000EB080204EB840007EB8005A9B286
:103CC000002302200BF022F896F8C80460B1A9B2D4
:103CD00000232CA220200BF019F8A9B200232CA25B
:103CE00048460BF013F80BE0A9B200232AA22020CB
:103CF0000BF00CF8A9B200232AA248460BF006F8F4
:103D0000641C0A2CD3D320E03946002302200AF099
:103D1000FDFF96F8C80460B100231AA2394620209E
:103D20000AF0F4FF00231AA2394648460AF0EEFFD3
:103D30000BE0002318A2394620200AF0E7FF0023F9
:103D400018A2394648460AF0E1FF96F8C80438B18F
:103D5000BDE8F0470023042115A2E6200AF0D6BFF3
:103D6000BDE8F0470023042114A2E6200AF0CEBFEC
:103D7000C40000200352F3004C0D00201827010856
:103D8000C42D0108564F4C5F4849474800000000C9
:103D9000564F4C5F4C4F5700B5E7D1B9C9CFCFDE76
:103DA00000000000B5E7D1B9CFC2CFDE00000000AF
:103DB000434F4D504D4F44453A000000B1C8BDCF70
:103DC000B7BDCABD3A0000002DE9F041FFF74FFE34
:103DD000FFF74DFE2B4E6FF07F4434602A48706031
:103DE0002A4D95F8C80408B1294A01E0284AF23A58
:103DF00000235832042118460AF088FF346048F244
:103E00008B67776095F8C80408B1224D01E0214D19
:103E1000C63D00244FF01A08092C14D2E01E0528D4
:103E200001D2776000E0776004EB440000EBC4004F
:103E3000421904EB840008EB800081B2002318468D
:103E40000AF064FF16E0A4F10C00052801D27760A7
:103E500000E0776004EB440000EBC4004219A4F1D9
:103E6000090000EB800008EB800081B20023FA20FB
:103E70000AF04CFF641C122CCED3BDE8F041FEF7D3
:103E80005DB90000C40000200352F3004C0D002077
:103E900018270108D02801082DE9F041FFF7E7FDB8
:103EA0003A4C6FF07F45256039486060394E96F88E
:103EB000C80408B1384A01E0374AF23A00234232D6
:103EC000042118460AF022FF256048F28B606060EA
:103ED00096F8C80496F8E704304A1A2568B3002417
:103EE000174604EB4400C21904EB840005EB800084
:103EF00081B2002302200AF009FF641C0A2CF0D3CF
:103F0000002496F8C80450B104EB840005EB80004F
:103F100081B2002322A220200AF0F8FE09E004EB7F
:103F2000840005EB800081B200231FA220200AF04C
:103F3000EDFE641C0A2CE4D314E029460023022081
:103F40000AF0E4FE96F8C80430B12946002314A212
:103F500020200AF0DBFE05E02946002312A22020E3
:103F60000AF0D4FE96F8C80438B1BDE8F041002349
:103F700004210FA2E6200AF0C9BEBDE8F0410023EB
:103F800004210EA2E6200AF0C1BE0000C4000020F9
:103F90000352F3004C0D002018270108C42D01081E
:103FA0004348414E4E000000CDA8B5C000000000BF
:103FB0005345544D4F44453A00000000C9E8D6C36C
:103FC000B7BDCABD3A0000002DE9FF4F83B0039E84
:103FD0000024DFF87482002108F80410641CE4B2A5
:103FE000092CF9D3DFF864B29BF8070038B10AF066
:103FF00005FE02909648007808B9022002909BF8CE
:10400000020010B102F06AFC01909BF80200914D91
:1040100001280FD06FF07F40286048F2E800864208
:1040200019D900242D2008F80400641CE4B2062CE1
:10403000F9D317E09DF804108748204480F8A010B9
:104040009DF8040018B14FF47F002860E5E74FF4B5
:104050007F402860E1E79DF81010002305223046DC
:1040600000F0F6FCDFF8F491D8F80010C9F803105E
:10407000B8F80400A9F80700794F796138837948C6
:104080007949407900EB400001EB400001887983D9
:1040900080783877092078774FF0200A88F806A0D2
:1040A000724E71789DF8120003292BD0717839B1C6
:1040B000D8B101236EA26C2130200AF077FE1AE0FD
:1040C00030B100236AA25C2120200AF06FFE05E0D7
:1040D000002368A25C2120200AF068FE00235A4ACF
:1040E0005C2140200AF062FE20E0012361A26C21E5
:1040F00030200AF05BFE0123534A6C2140200AF075
:1041000055FE13E030B1002359A27C2140200AF073
:10411000FDFD05E0002357A27C2140200AF0F6FDBA
:104120000023494A7C214A200AF0F0FD9BF8070051
:10413000012830D06FF07F4028609DF818100023D0
:104140000622059800F084FCD8F80000C9F80B009E
:10415000B8F80410A9F80F1098F8062089F8112073
:1041600047F81F0FB980BA715620F87109203872CC
:1041700041A00088F8811F3F70789DF81A400328FD
:104180003CD07078C0B164B3012339A2A3213020A0
:104190000AF00CFE2BE09DF808102F48204480F810
:1041A000AA109DF8080018B14FF47F002860C4E7FA
:1041B0004FF47F402860C0E734B100232CA2932144
:1041C00020200AF0F3FD05E000232AA293212020FD
:1041D0000AF0ECFD00231C4A932140200AF0E6FD82
:1041E00020E0012323A2A32130200AF0DFFD0123D8
:1041F000154AA32140200AF0D9FD13E034B1002371
:104200001BA2B32140200AF081FD05E0002319A282
:10421000B32140200AF07AFD00230B4AB3214A2043
:104220000AF074FD24B189F80AA087F81EA003E003
:104230002D2089F80A00B8770A48407989F80900E2
:1042400007B0BDE8F08F0000041500204C0D0020E1
:104250002D000020C400002050140020E80A002097
:10426000FD0A00206C0000202E2B0108780B002096
:10427000200000002D0000000D0A00000549044840
:1042800048601623AA220021084600F05DBE000007
:104290000352F300C40000201EB5114C21680191A7
:1042A000616802910F496160012812D04FF47F01CB
:1042B000022812D021600C48009018233022F121EE
:1042C0004FF4CA7001F0CEF9019820600298606046
:1042D0001EBD4FF47F402060EDE72160EBE700005A
:1042E000C400002038003100EC89010870B500F0EE
:1042F00043F81E4C6FF07F4525601D486060002329
:104300001C4A042118460AF001FD256048F28B6022
:1043100060600024174D4FF6FF76D63D04EB840015
:1043200000EBC400421904EB840006EA40100023AD
:104330001A210AF0EBFC641C032CEFD300240D4E71
:104340001A25AF3E04EB840000EBC4008219601C08
:1043500000EBC00005EB400081B2002318460AF0D4
:10436000D5FC641C052CEDD370BD0000C4000020FA
:104370000352F3009426010810B5FFF77FFFBDE854
:104380001040FEF731BC000010B5FEF72DFC0848C8
:10439000064941606FF07F4101600023F121BDE8D3
:1043A000104004A254200AF0B1BC000038003100D3
:1043B000C40000202056200010B5FEF715FC0B4865
:1043C000094941606FF07F410160002308A2F1219B
:1043D00054200AF09BFC0023F121BDE8104006A206
:1043E000A4200AF093BC000038003100C400002073
:1043F000206DA6B82020000020A6B82000000000F4
:1044000000B58FB00EA9002002F052F80DA90020CF
:1044100002F01CF89DF836309DF83A009DF83910EE
:104420009DF83820CDE90210CDE900329DF83530F5
:104430009DF837200DA105A80AF00AFD15486FF078
:104440007F41016048F28B614160002305AA04218D
:10445000FA200AF05BFC132205A90F48FBF7C2FE05
:104460000D490920C8740FB000BD0000323025305E
:104470002E32642D25302E32642D25302E326420CC
:1044800025302E32643A25302E32643A25302E32D1
:1044900064000000C4000020FD0A002010B54FF4A5
:1044A0000054204600F054F8002804D02046BDE80F
:1044B000104000F047B810BD10B5082000F048F8D3
:1044C00000281FD010480BF0B2FF08210F4800F061
:1044D00021FA90B90E48002101700E480E4A0123BE
:1044E00004781CB101700F20107002E003700220EC
:1044F00010700A494FF400700860BDE810400820B1
:1045000000F020B810BD0000A0860100001002409D
:104510005A000020390000203100002080E100E036
:104520001CB54FF40050009000208DF804000120CD
:104530008DF807006946024800F09EF91CBD000096
:10454000000402400149086070470000143C01402B
:1045500001460020024A12680A4200D0012070473A
:10456000143C014030B51B4A83790168002B2AD0E6
:1045700013688B431360111D0B680468A3430B6021
:10458000017911440B68046823430B60114C083413
:104590002168036899432160231D19680568A943B0
:1045A00019604179102905D011440A680068024356
:1045B0000A6030BD216802681143216019680068F3
:1045C0000143196030BD0079104402688A430260DB
:1045D00030BD0000003C01402DE9FF4101211020C9
:1045E00001F0A6FD0121880301F0DAFD01F093FB43
:1045F0000826029600248DF80C4001258DF80F50F6
:1046000002A9144800F038F90321042003F0C4F88B
:1046100000968DF804400C268DF805608DF8065044
:104620006846FFF79FFF6F03029702A90A4800F050
:1046300023F90D21022003F0AFF800978DF8044014
:104640008DF805608DF806506846FFF78BFFBDE8D2
:10465000FF810000001002400008024000224FF0DD
:10466000204310280AD0B0F5807F09D0B0F5805FD4
:1046700009D0D3F85801814309D107E0586EFAE711
:10468000D3F88400F7E7D3F8A400F4E7012210463A
:1046900070470000D0E9001211438268C068521EC2
:1046A000520142EA40200143014801607047000086
:1046B000500100A070B50468A100A1F1C041D1F87B
:1046C0004011CE0BF603D0E901121143D0E90323C8
:1046D0001A4311434269C36911438269056A114350
:1046E0001943426A2943114331434FF02046002CBD
:1046F0003CD0D6F840416FF30E042B4322431343C2
:10470000C6F8403102689200A2F1C042C2F84011DE
:10471000016871B38900A1F1C041D1F8481101F0DD
:104720007043816A0A684C68521E641E42EA04148F
:104730008A68521E44EA02240A8A521E44EA02424D
:104740001A43D6F8483103F07043CC68898A641E56
:104750002403491E44EA01511943C6F84811006870
:104760008000A0F1C040C0F8482170BDC6F84011DB
:10477000CEE7FFE7D6F8481101F07041806A026881
:104780004368521E5B1E42EA03138268521E43EACC
:104790000223C268521E43EA0233028A521E43EACF
:1047A0000243828A007E521E43EA0252401E42EABF
:1047B00000600843C6F8480170BD000002490A685D
:1047C00042EA400008607047540100A07CB5012116
:1047D00040F2A71001F0ACFC2E20009002208DF8D2
:1047E000050001208DF8040000248DF806408DF8A6
:1047F00007001D4D6946284600F03EF80E21284668
:1048000000F091F820250095184E6946304600F0DA
:1048100033F82021304600F084F840200090144EF8
:104820006946304600F028F800956946304600F0A9
:1048300023F82021304600F074F88DF804408DF8FC
:1048400007402802009069460A4800F015F801F078
:1048500029F8FCF70DF90AF02DFA01F0C9FA01F078
:10486000E1FA02F043FD7CBD00080240001C02405A
:1048700000200240000402402DE9F04100220127FF
:104880004FF0030C07FA02F50B682B40AB422CD11A
:10489000066853000CFA03F4A64306600E79D0F8BC
:1048A00000809E4046EA080606600E79012E01D07F
:1048B000022E12D18668A64386604E79D0F8088011
:1048C0009E4046EA080686604668AE4346604568F4
:1048D0008E799640B6B235434560C568A543C5603C
:1048E000CC799C40C3681C43C460521C102AC9D3B5
:1048F000BDE8F08110B54B07DB0E9A40C90800EB0C
:104900008100016A0F249C40A1430162016A1143A6
:10491000016210BD0246002012690A4200D0012047
:10492000704741837047018370470000034A203974
:1049300002EB01111022FBF755BC0000FC830108BB
:104940000349085C002801D000207047012070470F
:104950003D0000204069806880B27047D0F8CC00EC
:104960000068C0F341407047084490F89B037047CB
:1049700000EB8100D0F85003704710B504460022C8
:104980000023C4F8103304EB8200C0F81433C0F8DD
:104990005033A01880F88C33521CD2B20F2AF2D3B5
:1049A0000820A4F8B203204608F042FC204608F094
:1049B000D1F9204608F0F2F80121204608F09AFCCF
:1049C000204608F03FF9204608F0FEF9002010BD0F
:1049D000D0F81003704710B508F013FC002010BD8C
:1049E0000022431883F89B2300EB4113C3F8C02334
:1049F00008F040BB2DE9F0410546134F4FF4807697
:104A000031463846FFF78DFF00244FF480582806C2
:104A100004D541463846FFF786FF03E04146384655
:104A2000FFF77FFF31463846FFF77DFF0AF0FAF9BE
:104A300031463846FFF775FF6806050E641CE4B280
:104A4000082CE4D3BDE8F08100080240FEE7000036
:104A50002DE9F041082A00D9082202B901220729CC
:104A600000D90721914200D911460024224E202767
:104A70003755641CE4B2142CFAD314460A250DE011
:104A8000B0FBF5FC05FB1C0C06EB04080CF1300C2C
:104A900008F801CCB0FBF5F0641EE4B2002CEFD1B5
:104AA00069B110460C4605E0351815F8015C35541F
:104AB000401EC0B2641EE4B2F6D22E24345473B940
:104AC0000020531E09E0345C302C08D1341864787F
:104AD0002E2C04D03754401CC0B29842F3DB09B1ED
:104AE000521CD2B2002002E0B054521CD2B2142A9E
:104AF000FAD3BDE8F08100000415002006494FF408
:104B00008E70002201E001F8012B401E80B2FAD223
:104B10000248027070470000780B0020300000202F
:104B200070B505462DED048B0C466068DFED340A48
:104B300000EE100AB8EE400A20EE209AA068C0F1FC
:104B40000700FBF769FC41EC110B9FED2E0B0AF0FF
:104B5000ABF9B0EE408AF0EE608A19EE100AFBF76E
:104B600068FC53EC182BFBF7E8FBFBF775FC00EE39
:104B7000100A264910EE100A884201DD9FED240A32
:104B8000244910EE100A88420BDB0320A060DFED01
:104B9000220A80EE201AFCEEC10A10EE900A606034
:104BA00017E010EE100A1D4988420BDB0420A060BC
:104BB000F2EE040A80EE201AFCEEC10A10EE900A12
:104BC000606006E00520A060FCEEC00A10EE900ACE
:104BD0006060BCEEC00A10EE100AA0612078287058
:104BE00060686860A068A860E068E8602069286183
:104BF00060696861A069A861BDEC048B70BD0000AC
:104C0000002474490000000000002440001B374BC2
:104C1000001B374B8096184B0000C8420024744993
:104C20002DE9F05FFF250020FFF7E4FEDFF8D0A0BC
:104C30004FF4006949465046FFF76CFEDFF8C48028
:104C40004FF4806B00B359464046FFF763FEE8B16E
:104C500049464046FFF75EFED0B104212A48FFF7DF
:104C600059FEB8B10426042E40D20024274F385DE7
:104C7000FFF7C0FE0AF0D6F876B1012E13D0022E4F
:104C800018D0032E23D11CE00026ECE70126EAE72A
:104C90000226E8E70326E6E749465046FFF73AFED4
:104CA000A8B9254613E059464046FFF733FE70B9D0
:104CB00025460CE049464046FFF72CFE38B925460C
:104CC00005E004211048FFF725FE00B92546FF2D19
:104CD00003D1641CE4B2082CC9D3FF2D04D005EB2A
:104CE000C600C0B2BDE8F09F0020FBE74FF40051C2
:104CF0000548FFF70FFE08B10020F3E71F20F1E79A
:104D00000020024000080240000C0240022E010870
:104D100010B5064C6078002805D00020607000F0C7
:104D200055F8207810BD002010BD0000AC00002018
:104D300010B50146002002F0BDFD064C0020FFF733
:104D4000FFFD10B960780028F8D0BDE81040FFF7EB
:104D5000DFBF0000AC00002070B5FFF761FF1A4C08
:104D600000230125E21CD0B12178814228D161784D
:104D7000652901D2491C6170617864291BD00DD965
:104D800010709570A07800F10100C0B2A0700E28DC
:104D900004D9A3705078002800D1557070BD2078D8
:104DA00028B16178091F602901D2107055702370F5
:104DB0006370937070BDA37010705570957070BD66
:104DC0002070637070BD0000A900002010B5FBF7D3
:104DD0002DFE4FF47A700BF02AFBBDE81040FBF774
:104DE0001FBE00007CB501214FF4867001F0A0F9D0
:104DF0004FF49850009002208DF8050001208DF8A6
:104E0000040000248DF806408DF80700134D694614
:104E10002846FFF731FD69152846FFF784FD4FF45A
:104E2000406100918DF8044069462846FFF724FD53
:104E3000E814009069460A48FFF71EFD0420009020
:104E400069460848FFF718FD0748047044708470ED
:104E5000C01E0470447084707CBD000000080240D5
:104E600000200240000C0240AC00002010B50023DE
:104E70001C4C2468002C06D0012C0DD0022C17D01D
:104E8000032C1ED023E000EB4003C1EB011000EB2C
:104E9000400003EB40131AE0A1F20F11C0F5F070CF
:104EA000A1EB011100EB4110401E00EB40030EE0AE
:104EB000A0F20F10A0EB001001EB401000EB40033C
:104EC00005E000EB0010C1EB001303F20F130648DE
:104ED000834205D205488068C2521844110C817083
:104EE00010BD00005400002000FA0500B0000020B2
:104EF00070B58AB0C0F30744C0F30725C6B2FCF70B
:104F0000CBF84FF4403000900120019004940395B9
:104F100002960F2005900B488068069000200790AD
:104F20004FF4887008904FF4F07009906846FCF7D1
:104F3000C9F8FCF723F90220FCF7BAF80028FAD0E8
:104F40000AB070BDB00000202DE9F04F8BB03B4C93
:104F50006468C4F3074704F0FF09C4F30728384C1A
:104F6000DFF8D8A0C2F5F076AAF1140A2568DAF8BD
:104F70000840002D37D0C3F5887C012D3ED0022D8E
:104F80004CD000EB0010C3EB0010401A00F5887005
:104F900000EB400005191FFA8CF614469B46FCF7FF
:104FA0007BF84FF44030019001200290CDF8108042
:104FB000CDF80C900597FF20069007950896099468
:104FC000CDF828B001A8FCF77DF8FCF7D7F802204F
:104FD000FCF76EF80028FAD0DAF8000000F0B4FA16
:104FE0000BB0BDE8F08FC1EB011100EB411000EBFD
:104FF00040000519B6B21C469346D0E7ACEB010160
:10500000C1EB0111C0EB4110801A00F5F07000EB0C
:1050100040000519B6B21C469346C0E7C0F588703B
:10502000801AC0EB001001EB401000EB40000519A6
:10503000C3F5F07086B214469B46B0E7C40000206A
:10504000540000202DE9F0438BB09046994600248F
:105050002E4A1568002D0CD0C1EB011200EB421650
:105060002B4A012D97680DD0022D11D0032D18D099
:105070001AE000EB4002C1EB011000EB400002EB34
:10508000401411E0A6EB86002249384444180BE096
:10509000A0F20F10A0EB001001EB401000EB400459
:1050A00002E006EB4600C419194814300068C0F34A
:1050B0000745C6B2C0F30727FBF7EEFF4FF44030B9
:1050C0000190012002900497039605950F21069107
:1050D0000794B9F1000F12D040F2DF110891CDF81A
:1050E00024800A9001A8FBF7EDFFFCF747F80220A7
:1050F000FBF7DEFF0028FAD00BB0BDE8F0830021FB
:1051000008910990CDF82880ECE7000054000020B9
:10511000B000002000FA05002DE9FC5F012140F2FB
:10512000FF1001F005F84FF00408CDF800800320CF
:105130008DF8050002208DF8040000208DF806008F
:105140008DF807006946AB48FFF796FB0E22022157
:10515000A848FFF7CFFB4FF00809CDF8009069464B
:10516000A448FFF789FB0E220321A248FFF7C2FBE8
:105170004FF4807ACDF800A069469E48FFF77CFB8B
:105180000E2208219B48FFF7B5FB012400946946D5
:105190009948FFF771FB092200219748FFF7AAFB06
:1051A0004FF4006BCDF800B069469448FFF764FBFC
:1051B0000E220B219148FFF79DFB200300906946CA
:1051C0008E48FFF759FB0E220C218C48FFF792FB0B
:1051D0000220009069468848FFF74EFB0922012112
:1051E0008548FFF787FB4025009569468448FFF70F
:1051F00043FB0E2206218248FFF77CFB2020009013
:1052000069468048FFF738FB0E2205217D48FFF7ED
:1052100071FB009569467B48FFF72EFB0E220621A5
:105220007848FFF767FB6003009069467148FFF715
:1052300023FB0E220D216F48FFF75CFBA6020096B0
:1052400069466F48FFF718FB09220A216C48FFF7EF
:1052500051FBE003009069466648FFF70DFB0E2204
:105260000F216448FFF746FB009469466648FFF744
:1052700003FB0E2200216448FFF73CFB80270097C8
:1052800069466248FFF7F8FA0E2207215F48FFF7E8
:1052900031FBCDF8008069465B48FFF7EDFA0E223E
:1052A00002215948FFF726FB4FF01008CDF8008087
:1052B00069465448FFF7E0FA0E2204215148FFF7EF
:1052C00019FB2003009069464D48FFF7D5FA0E22DE
:1052D0000C214B48FFF70EFB00954D4D69462846C3
:1052E000FFF7CAFA0E2206212846FFF703FBCDF886
:1052F00000B069464248FFF7BFFA0E220B21404832
:10530000FFF7F8FACDF8008069463F48FFF7B4FA96
:105310000E2204213C48FFF7EDFACDF800906946D3
:105320003648FFF7A9FA0E2203213448FFF7E2FAC4
:10533000CDF800A069463048FFF79EFA0E220821FA
:105340002D48FFF7D7FA4FF40079CDF80090694661
:105350002948FFF791FA0E2209212748FFF7CAFAD8
:10536000009769462648FFF787FA0E22072124484E
:10537000FFF7C0FA009669462348FFF77DFA0E2230
:105380000A212148FFF7B6FACDF8009069461E4879
:10539000FFF772FA0E2209211B48FFF7ABFA0096BD
:1053A0001C4E69463046FFF767FA0E220A21304646
:1053B000FFF7A0FACDF8008002208DF805008DF8E7
:1053C000044000208DF806008DF807406946284605
:1053D000FFF752FA009769462846FFF74DFA102169
:1053E0002846FFF7A0FA80212846FFF79CFABDE87F
:1053F000FC9F0000001C024000040240000002402C
:105400000018024000100240002002400008024044
:10541000000C02400014024000B58FB00121880644
:1054200000F0BEFE0121C80500F082FEFFF774FE09
:1054300001F0CAFE062207214FF4967000F04CFFDF
:105440004FF4803000F038FF012000F03FFF3D2096
:1054500000F006FF0028FAD0002000900190029092
:1054600003900C900D900E90049005902E200690C5
:105470001720079040F20E20089040F22710099064
:105480004FF409700A9040F23D100B90684600F00E
:1054900037F9012000F024F90FB000BD10B590B02D
:1054A0002F20009040F20E2001901820029040F230
:1054B0002710039001200490FF200590069007908C
:1054C0000890099007200B9040F2A3500D90C01E49
:1054D0000E904FF488700F900C480C904FF4C06001
:1054E0000A900B4C6946204600F06CF9012000F050
:1054F000B5F90121204600F059F9012000F0AEF97C
:10550000044800F009F810B010BD000000FA05D002
:1055100004690140CC000020014908617047000087
:10552000B00000200649002804D006488860012009
:10553000C86070474FF0504088600020C8607047D6
:10554000B000002000FA05D0014908607047000053
:10555000B000002010B50949C968002908D00146EB
:10556000074800F021F9BDE81040012000F076B9AD
:1055700001460348803800F017F9F4E7B000002036
:10558000046901402DE9F04F044688462546334919
:1055900002EB0210DFF8C8A001EB4009002B0FD08E
:1055A000002709EB070090F802B000265FEA0B60C5
:1055B00035D541462046DAF80020FFF757FC34E0A5
:1055C0004FF0000B09EB0B0087780026380606D554
:1055D00041462046DAF80020FFF748FC05E0414646
:1055E0002046DAF80420FFF741FC7806070E641C19
:1055F000A4B2601B10280CD0761CF6B2082EE5D39E
:105600000BF1010B0BF0FF0BBBF1200FDAD3BDE860
:10561000F08F2C4608F101081FFA88F8F0E74146A0
:105620002046DAF80420FFF721FC4FEA4B604FEAEE
:10563000106B641CA4B2601B102808D0761CF6B254
:10564000082EB3D37F1CFFB2202FAAD3DFE72C464E
:1056500008F101081FFA88F8F4E700000A2E010893
:10566000C40000202DE9F84F04468B469246A04620
:1056700000270AFB03F0C11700EB5170DFF85C90C4
:10568000009025E00A98C65D0025300606D55946EB
:105690002046D9F80020FFF7E9FB05E059462046EF
:1056A000D9F80420FFF7E2FB7006060E641CA4B2D2
:1056B000A4EB0800504505D144460BF1010B1FFA3D
:1056C0008BFB03E06D1CEDB2082DDED37F1CBFB257
:1056D0000098B7EBE00FD5DBBDE8F88FC4000020E1
:1056E0000649002804D0086840F0010008607047AF
:1056F000086820F001000860704700001868014049
:1057000030B5264A136826490B401360038A1B04F0
:10571000146845692C431C431460121D13680B4028
:105720001360038B1B041468C5692C431C4314606D
:10573000121D13680B401360038C1B041468456A28
:105740002C431C431460121D13680B401360018D21
:1057500009041368C46A23430B431360111D0A68CC
:10576000104B1A400A60D0E900231A43D0E90234F2
:1057700023431A430B681A430A60416B0A02018EE5
:105780000B04064924310C6804F07F440C600C685B
:10579000806B134304431C430C6030BD0868014018
:1057A00000F800F08F88FE0F41617047002904D097
:1057B000016841F0010101607047016821F00101B9
:1057C0000160704770B58A881204436803F470431F
:1057D00043600B68134343608A891204836803F4AF
:1057E000704383608B6813438360026922F0070271
:1057F00002610A690261CA6913020A8C120491F8F3
:10580000244024068569002585618E6922431E4354
:1058100016438661426922F0FF0242614A69426191
:10582000C26940F207739A43C261D1E90A231A435D
:10583000C261826A85620A6B82620A8F1204C36A3D
:1058400003F0E023C3624B6B1343C362026B6FF33D
:105850000A020263C96B016370BD00000149086060
:10586000704700002468014010B54FF4806109487A
:10587000FFF759F84FF400510748FFF754F8042197
:105880000648FFF74EF8BDE8104001210448FFF735
:1058900048B80000001C024000080240001002400E
:1058A000000002407CB50121BF2000F041FC042033
:1058B000009000248DF8054001258DF804508DF8E6
:1058C00006408DF8075069460C48FEF7D5FF4FF4A7
:1058D000B840009069460A48FEF7CEFF8DF80540B3
:1058E0008DF804508DF806408DF807500820009080
:1058F00069460448FEF7C0FF7CBD0000001002406E
:10590000001C0240000C024010B504210948FFF7BA
:105910000AF801210848FFF706F84FF480610748AC
:10592000FEF7FFFFBDE810404FF400510448FEF7BA
:10593000F8BF00000010024000000240001C0240BE
:10594000000802404FF400610148FEF7EABF000082
:10595000001C02404FF400610148FEF7E4BF000064
:10596000001C02402DE9F047A6B0304D002085F81C
:10597000A10095F89E004FF003094FF0020AE84697
:10598000082802D085F8A1901DE0A81CFAF7FAFFBC
:105990000746281DFAF7F6FF4FF6FF7101EA4006A9
:1059A0004B2E02D985F8A1900DE0002409E008EB08
:1059B0004401384600F07EF8A8B17F1CBFB2641CD9
:1059C000A4B2B442F3D395F8A10000282BD12878D3
:1059D000A87716496878C877700085F8A29081F892
:1059E0002000002117E085F8A1A0ECE795F8A200BF
:1059F00018F81130421C284485F8A220837708EB60
:105A00004100437895F8A200421C284485F8A22062
:105A10008377491C89B2B142E8D3044895F8A210B3
:105A20001E3000F047F926B0BDE8F0878401002061
:105A300000B50A4A002082F8A10092F89E000828CA
:105A400003D0032082F8A10000BD901CFAF79AFF52
:105A5000101D5DF804EBFAF795BF000084010020EB
:105A600010B5104C104A94F89E001060082801D11F
:105A7000092111600D49536809688B4211D05160AA
:105A80000B4A117809B1491E11701178002908D10B
:105A9000002806D0042801D301F0F8F8002084F88B
:105AA0009E0010BD84010020D800002028000020A6
:105AB000240000202DE9F34F89B07D493C280B6D6F
:105AC0000A6808938B6807930D6E0C698B6D0695B9
:105AD0008D690595D1F828C0D1F83090D1F878803B
